{
  "_format": "hh-sol-artifact-1",
  "contractName": "Creath",
  "sourceName": "contracts/Creath.sol",
  "abi": [
    {
      "inputs": [
        {
          "internalType": "address",
          "name": "_marketplace",
          "type": "address"
        }
      ],
      "stateMutability": "nonpayable",
      "type": "constructor"
    },
    {
      "anonymous": false,
      "inputs": [
        {
          "indexed": true,
          "internalType": "address",
          "name": "owner",
          "type": "address"
        },
        {
          "indexed": true,
          "internalType": "address",
          "name": "approved",
          "type": "address"
        },
        {
          "indexed": true,
          "internalType": "uint256",
          "name": "tokenId",
          "type": "uint256"
        }
      ],
      "name": "Approval",
      "type": "event"
    },
    {
      "anonymous": false,
      "inputs": [
        {
          "indexed": true,
          "internalType": "address",
          "name": "owner",
          "type": "address"
        },
        {
          "indexed": true,
          "internalType": "address",
          "name": "operator",
          "type": "address"
        },
        {
          "indexed": false,
          "internalType": "bool",
          "name": "approved",
          "type": "bool"
        }
      ],
      "name": "ApprovalForAll",
      "type": "event"
    },
    {
      "anonymous": false,
      "inputs": [
        {
          "indexed": false,
          "internalType": "uint256",
          "name": "_fromTokenId",
          "type": "uint256"
        },
        {
          "indexed": false,
          "internalType": "uint256",
          "name": "_toTokenId",
          "type": "uint256"
        }
      ],
      "name": "BatchMetadataUpdate",
      "type": "event"
    },
    {
      "anonymous": false,
      "inputs": [
        {
          "indexed": false,
          "internalType": "uint256",
          "name": "_tokenId",
          "type": "uint256"
        }
      ],
      "name": "MetadataUpdate",
      "type": "event"
    },
    {
      "anonymous": false,
      "inputs": [
        {
          "indexed": false,
          "internalType": "uint256",
          "name": "tokenId",
          "type": "uint256"
        },
        {
          "indexed": false,
          "internalType": "address",
          "name": "beneficiary",
          "type": "address"
        },
        {
          "indexed": false,
          "internalType": "string",
          "name": "tokenUri",
          "type": "string"
        },
        {
          "indexed": false,
          "internalType": "address",
          "name": "minter",
          "type": "address"
        }
      ],
      "name": "Minted",
      "type": "event"
    },
    {
      "anonymous": false,
      "inputs": [
        {
          "indexed": true,
          "internalType": "address",
          "name": "previousOwner",
          "type": "address"
        },
        {
          "indexed": true,
          "internalType": "address",
          "name": "newOwner",
          "type": "address"
        }
      ],
      "name": "OwnershipTransferred",
      "type": "event"
    },
    {
      "anonymous": false,
      "inputs": [
        {
          "indexed": true,
          "internalType": "address",
          "name": "from",
          "type": "address"
        },
        {
          "indexed": true,
          "internalType": "address",
          "name": "to",
          "type": "address"
        },
        {
          "indexed": true,
          "internalType": "uint256",
          "name": "tokenId",
          "type": "uint256"
        }
      ],
      "name": "Transfer",
      "type": "event"
    },
    {
      "inputs": [
        {
          "internalType": "address",
          "name": "to",
          "type": "address"
        },
        {
          "internalType": "uint256",
          "name": "tokenId",
          "type": "uint256"
        }
      ],
      "name": "approve",
      "outputs": [],
      "stateMutability": "nonpayable",
      "type": "function"
    },
    {
      "inputs": [
        {
          "internalType": "address",
          "name": "owner",
          "type": "address"
        }
      ],
      "name": "balanceOf",
      "outputs": [
        {
          "internalType": "uint256",
          "name": "",
          "type": "uint256"
        }
      ],
      "stateMutability": "view",
      "type": "function"
    },
    {
      "inputs": [
        {
          "internalType": "uint256",
          "name": "_tokenId",
          "type": "uint256"
        }
      ],
      "name": "exists",
      "outputs": [
        {
          "internalType": "bool",
          "name": "",
          "type": "bool"
        }
      ],
      "stateMutability": "view",
      "type": "function"
    },
    {
      "inputs": [
        {
          "internalType": "uint256",
          "name": "tokenId",
          "type": "uint256"
        }
      ],
      "name": "getApproved",
      "outputs": [
        {
          "internalType": "address",
          "name": "",
          "type": "address"
        }
      ],
      "stateMutability": "view",
      "type": "function"
    },
    {
      "inputs": [
        {
          "internalType": "uint256",
          "name": "_tokenId",
          "type": "uint256"
        },
        {
          "internalType": "address",
          "name": "_operator",
          "type": "address"
        }
      ],
      "name": "isApproved",
      "outputs": [
        {
          "internalType": "bool",
          "name": "",
          "type": "bool"
        }
      ],
      "stateMutability": "view",
      "type": "function"
    },
    {
      "inputs": [
        {
          "internalType": "address",
          "name": "_owner",
          "type": "address"
        },
        {
          "internalType": "address",
          "name": "operator",
          "type": "address"
        }
      ],
      "name": "isApprovedForAll",
      "outputs": [
        {
          "internalType": "bool",
          "name": "",
          "type": "bool"
        }
      ],
      "stateMutability": "view",
      "type": "function"
    },
    {
      "inputs": [
        {
          "internalType": "address",
          "name": "_beneficiary",
          "type": "address"
        },
        {
          "internalType": "string",
          "name": "_tokenUri",
          "type": "string"
        }
      ],
      "name": "mint",
      "outputs": [
        {
          "internalType": "uint256",
          "name": "",
          "type": "uint256"
        }
      ],
      "stateMutability": "nonpayable",
      "type": "function"
    },
    {
      "inputs": [],
      "name": "name",
      "outputs": [
        {
          "internalType": "string",
          "name": "",
          "type": "string"
        }
      ],
      "stateMutability": "view",
      "type": "function"
    },
    {
      "inputs": [],
      "name": "owner",
      "outputs": [
        {
          "internalType": "address",
          "name": "",
          "type": "address"
        }
      ],
      "stateMutability": "view",
      "type": "function"
    },
    {
      "inputs": [
        {
          "internalType": "uint256",
          "name": "tokenId",
          "type": "uint256"
        }
      ],
      "name": "ownerOf",
      "outputs": [
        {
          "internalType": "address",
          "name": "",
          "type": "address"
        }
      ],
      "stateMutability": "view",
      "type": "function"
    },
    {
      "inputs": [],
      "name": "renounceOwnership",
      "outputs": [],
      "stateMutability": "nonpayable",
      "type": "function"
    },
    {
      "inputs": [
        {
          "internalType": "address",
          "name": "from",
          "type": "address"
        },
        {
          "internalType": "address",
          "name": "to",
          "type": "address"
        },
        {
          "internalType": "uint256",
          "name": "tokenId",
          "type": "uint256"
        }
      ],
      "name": "safeTransferFrom",
      "outputs": [],
      "stateMutability": "nonpayable",
      "type": "function"
    },
    {
      "inputs": [
        {
          "internalType": "address",
          "name": "from",
          "type": "address"
        },
        {
          "internalType": "address",
          "name": "to",
          "type": "address"
        },
        {
          "internalType": "uint256",
          "name": "tokenId",
          "type": "uint256"
        },
        {
          "internalType": "bytes",
          "name": "data",
          "type": "bytes"
        }
      ],
      "name": "safeTransferFrom",
      "outputs": [],
      "stateMutability": "nonpayable",
      "type": "function"
    },
    {
      "inputs": [
        {
          "internalType": "address",
          "name": "operator",
          "type": "address"
        },
        {
          "internalType": "bool",
          "name": "approved",
          "type": "bool"
        }
      ],
      "name": "setApprovalForAll",
      "outputs": [],
      "stateMutability": "nonpayable",
      "type": "function"
    },
    {
      "inputs": [
        {
          "internalType": "bytes4",
          "name": "interfaceId",
          "type": "bytes4"
        }
      ],
      "name": "supportsInterface",
      "outputs": [
        {
          "internalType": "bool",
          "name": "",
          "type": "bool"
        }
      ],
      "stateMutability": "view",
      "type": "function"
    },
    {
      "inputs": [],
      "name": "symbol",
      "outputs": [
        {
          "internalType": "string",
          "name": "",
          "type": "string"
        }
      ],
      "stateMutability": "view",
      "type": "function"
    },
    {
      "inputs": [
        {
          "internalType": "uint256",
          "name": "tokenId",
          "type": "uint256"
        }
      ],
      "name": "tokenURI",
      "outputs": [
        {
          "internalType": "string",
          "name": "",
          "type": "string"
        }
      ],
      "stateMutability": "view",
      "type": "function"
    },
    {
      "inputs": [
        {
          "internalType": "address",
          "name": "from",
          "type": "address"
        },
        {
          "internalType": "address",
          "name": "to",
          "type": "address"
        },
        {
          "internalType": "uint256",
          "name": "tokenId",
          "type": "uint256"
        }
      ],
      "name": "transferFrom",
      "outputs": [],
      "stateMutability": "nonpayable",
      "type": "function"
    },
    {
      "inputs": [
        {
          "internalType": "address",
          "name": "newOwner",
          "type": "address"
        }
      ],
      "name": "transferOwnership",
      "outputs": [],
      "stateMutability": "nonpayable",
      "type": "function"
    }
  ],
  "bytecode": "0x60806040523480156200001157600080fd5b506040516200352138038062003521833981810160405281019062000037919062000301565b6040518060400160405280601281526020017f437265617468204d61726b6574706c61636500000000000000000000000000008152506040518060400160405280600681526020017f43524541544800000000000000000000000000000000000000000000000000008152508160009080519060200190620000bb9291906200023a565b508060019080519060200190620000d49291906200023a565b505050620000f7620000eb6200015660201b60201c565b6200015e60201b60201c565b6200010e60086200022460201b62000c7c1760201c565b80600960006101000a81548173ffffffffffffffffffffffffffffffffffffffff021916908373ffffffffffffffffffffffffffffffffffffffff16021790555050620003e0565b600033905090565b6000600760009054906101000a900473ffffffffffffffffffffffffffffffffffffffff16905081600760006101000a81548173ffffffffffffffffffffffffffffffffffffffff021916908373ffffffffffffffffffffffffffffffffffffffff1602179055508173ffffffffffffffffffffffffffffffffffffffff168173ffffffffffffffffffffffffffffffffffffffff167f8be0079c531659141344cd1fd0a4f28419497f9722a3daafe3b4186f6b6457e060405160405180910390a35050565b6001816000016000828254019250508190555050565b828054620002489062000361565b90600052602060002090601f0160209004810192826200026c5760008555620002b8565b82601f106200028757805160ff1916838001178555620002b8565b82800160010185558215620002b8579182015b82811115620002b75782518255916020019190600101906200029a565b5b509050620002c79190620002cb565b5090565b5b80821115620002e6576000816000905550600101620002cc565b5090565b600081519050620002fb81620003c6565b92915050565b6000602082840312156200031457600080fd5b60006200032484828501620002ea565b91505092915050565b60006200033a8262000341565b9050919050565b600073ffffffffffffffffffffffffffffffffffffffff82169050919050565b600060028204905060018216806200037a57607f821691505b6020821081141562000391576200039062000397565b5b50919050565b7f4e487b7100000000000000000000000000000000000000000000000000000000600052602260045260246000fd5b620003d1816200032d565b8114620003dd57600080fd5b50565b61313180620003f06000396000f3fe608060405234801561001057600080fd5b50600436106101215760003560e01c806370a08231116100ad578063b88d4fde11610071578063b88d4fde1461031a578063c87b56dd14610336578063d0def52114610366578063e985e9c514610396578063f2fde38b146103c657610121565b806370a0823114610288578063715018a6146102b85780638da5cb5b146102c257806395d89b41146102e0578063a22cb465146102fe57610121565b806323b872dd116100f457806323b872dd146101c057806342842e0e146101dc5780634f558e79146101f857806356c31637146102285780636352211e1461025857610121565b806301ffc9a71461012657806306fdde0314610156578063081812fc14610174578063095ea7b3146101a4575b600080fd5b610140600480360381019061013b91906123c9565b6103e2565b60405161014d9190612815565b60405180910390f35b61015e610443565b60405161016b9190612830565b60405180910390f35b61018e6004803603810190610189919061241b565b6104d5565b60405161019b91906127ae565b60405180910390f35b6101be60048036038101906101b9919061238d565b61051b565b005b6101da60048036038101906101d5919061222f565b610633565b005b6101f660048036038101906101f1919061222f565b610693565b005b610212600480360381019061020d919061241b565b6106b3565b60405161021f9190612815565b60405180910390f35b610242600480360381019061023d9190612444565b6106c5565b60405161024f9190612815565b60405180910390f35b610272600480360381019061026d919061241b565b61071f565b60405161027f91906127ae565b60405180910390f35b6102a2600480360381019061029d91906121ca565b6107a6565b6040516102af9190612a32565b60405180910390f35b6102c061085e565b005b6102ca610872565b6040516102d791906127ae565b60405180910390f35b6102e861089c565b6040516102f59190612830565b60405180910390f35b610318600480360381019061031391906122f9565b61092e565b005b610334600480360381019061032f919061227e565b610944565b005b610350600480360381019061034b919061241b565b6109a6565b60405161035d9190612830565b60405180910390f35b610380600480360381019061037b9190612335565b610ab9565b60405161038d9190612a32565b60405180910390f35b6103b060048036038101906103ab91906121f3565b610b84565b6040516103bd9190612815565b60405180910390f35b6103e060048036038101906103db91906121ca565b610bf8565b005b6000634906490660e01b7bffffffffffffffffffffffffffffffffffffffffffffffffffffffff1916827bffffffffffffffffffffffffffffffffffffffffffffffffffffffff1916148061043c575061043b82610c92565b5b9050919050565b60606000805461045290612bea565b80601f016020809104026020016040519081016040528092919081815260200182805461047e90612bea565b80156104cb5780601f106104a0576101008083540402835291602001916104cb565b820191906000526020600020905b8154815290600101906020018083116104ae57829003601f168201915b5050505050905090565b60006104e082610d74565b6004600083815260200190815260200160002060009054906101000a900473ffffffffffffffffffffffffffffffffffffffff169050919050565b60006105268261071f565b90508073ffffffffffffffffffffffffffffffffffffffff168373ffffffffffffffffffffffffffffffffffffffff161415610597576040517f08c379a000000000000000000000000000000000000000000000000000000000815260040161058e906129f2565b60405180910390fd5b8073ffffffffffffffffffffffffffffffffffffffff166105b6610dbf565b73ffffffffffffffffffffffffffffffffffffffff1614806105e557506105e4816105df610dbf565b610b84565b5b610624576040517f08c379a000000000000000000000000000000000000000000000000000000000815260040161061b90612a12565b60405180910390fd5b61062e8383610dc7565b505050565b61064461063e610dbf565b82610e80565b610683576040517f08c379a000000000000000000000000000000000000000000000000000000000815260040161067a90612852565b60405180910390fd5b61068e838383610f04565b505050565b6106ae83838360405180602001604052806000815250610944565b505050565b60006106be826111fe565b9050919050565b60006106d96106d38461071f565b83610b84565b8061071757508173ffffffffffffffffffffffffffffffffffffffff166106ff846104d5565b73ffffffffffffffffffffffffffffffffffffffff16145b905092915050565b60008061072b8361123f565b9050600073ffffffffffffffffffffffffffffffffffffffff168173ffffffffffffffffffffffffffffffffffffffff16141561079d576040517f08c379a0000000000000000000000000000000000000000000000000000000008152600401610794906129d2565b60405180910390fd5b80915050919050565b60008073ffffffffffffffffffffffffffffffffffffffff168273ffffffffffffffffffffffffffffffffffffffff161415610817576040517f08c379a000000000000000000000000000000000000000000000000000000000815260040161080e90612952565b60405180910390fd5b600360008373ffffffffffffffffffffffffffffffffffffffff1673ffffffffffffffffffffffffffffffffffffffff168152602001908152602001600020549050919050565b61086661127c565b61087060006112fa565b565b6000600760009054906101000a900473ffffffffffffffffffffffffffffffffffffffff16905090565b6060600180546108ab90612bea565b80601f01602080910402602001604051908101604052809291908181526020018280546108d790612bea565b80156109245780601f106108f957610100808354040283529160200191610924565b820191906000526020600020905b81548152906001019060200180831161090757829003601f168201915b5050505050905090565b610940610939610dbf565b83836113c0565b5050565b61095561094f610dbf565b83610e80565b610994576040517f08c379a000000000000000000000000000000000000000000000000000000000815260040161098b90612852565b60405180910390fd5b6109a08484848461152d565b50505050565b60606109b182610d74565b60006006600084815260200190815260200160002080546109d190612bea565b80601f01602080910402602001604051908101604052809291908181526020018280546109fd90612bea565b8015610a4a5780601f10610a1f57610100808354040283529160200191610a4a565b820191906000526020600020905b815481529060010190602001808311610a2d57829003601f168201915b505050505090506000610a5b611589565b9050600081511415610a71578192505050610ab4565b600082511115610aa6578082604051602001610a8e92919061278a565b60405160208183030381529060405292505050610ab4565b610aaf846115a0565b925050505b919050565b6000610ac361127c565b6000610acf6008611608565b9050610adb8582611616565b610b298185858080601f016020809104026020016040519081016040528093929190818152602001838380828437600081840152601f19601f82011690508083019250505050505050611634565b610b336008610c7c565b7f997115af5924f5e38964c6d65c804d4cb85129b65e62eb20a8ca6329dbe57e1881868686610b60610dbf565b604051610b71959493929190612a4d565b60405180910390a1809150509392505050565b60008173ffffffffffffffffffffffffffffffffffffffff16600960009054906101000a900473ffffffffffffffffffffffffffffffffffffffff1673ffffffffffffffffffffffffffffffffffffffff161415610be55760019050610bf2565b610bef83836116df565b90505b92915050565b610c0061127c565b600073ffffffffffffffffffffffffffffffffffffffff168173ffffffffffffffffffffffffffffffffffffffff161415610c70576040517f08c379a0000000000000000000000000000000000000000000000000000000008152600401610c6790612892565b60405180910390fd5b610c79816112fa565b50565b6001816000016000828254019250508190555050565b60007f80ac58cd000000000000000000000000000000000000000000000000000000007bffffffffffffffffffffffffffffffffffffffffffffffffffffffff1916827bffffffffffffffffffffffffffffffffffffffffffffffffffffffff19161480610d5d57507f5b5e139f000000000000000000000000000000000000000000000000000000007bffffffffffffffffffffffffffffffffffffffffffffffffffffffff1916827bffffffffffffffffffffffffffffffffffffffffffffffffffffffff1916145b80610d6d5750610d6c82611773565b5b9050919050565b610d7d816111fe565b610dbc576040517f08c379a0000000000000000000000000000000000000000000000000000000008152600401610db3906129d2565b60405180910390fd5b50565b600033905090565b816004600083815260200190815260200160002060006101000a81548173ffffffffffffffffffffffffffffffffffffffff021916908373ffffffffffffffffffffffffffffffffffffffff160217905550808273ffffffffffffffffffffffffffffffffffffffff16610e3a8361071f565b73ffffffffffffffffffffffffffffffffffffffff167f8c5be1e5ebec7d5bd14f71427d1e84f3dd0314c0f7b2291e5b200ac8c7c3b92560405160405180910390a45050565b6000610e8b826111fe565b610eca576040517f08c379a0000000000000000000000000000000000000000000000000000000008152600401610ec190612932565b60405180910390fd5b6000610ed58361071f565b9050610ee18185610b84565b15610ef0576001915050610efe565b610efa84846117dd565b9150505b92915050565b8273ffffffffffffffffffffffffffffffffffffffff16610f248261071f565b73ffffffffffffffffffffffffffffffffffffffff1614610f7a576040517f08c379a0000000000000000000000000000000000000000000000000000000008152600401610f71906128b2565b60405180910390fd5b600073ffffffffffffffffffffffffffffffffffffffff168273ffffffffffffffffffffffffffffffffffffffff161415610fea576040517f08c379a0000000000000000000000000000000000000000000000000000000008152600401610fe1906128f2565b60405180910390fd5b610ff78383836001611872565b8273ffffffffffffffffffffffffffffffffffffffff166110178261071f565b73ffffffffffffffffffffffffffffffffffffffff161461106d576040517f08c379a0000000000000000000000000000000000000000000000000000000008152600401611064906128b2565b60405180910390fd5b6004600082815260200190815260200160002060006101000a81549073ffffffffffffffffffffffffffffffffffffffff02191690556001600360008573ffffffffffffffffffffffffffffffffffffffff1673ffffffffffffffffffffffffffffffffffffffff168152602001908152602001600020600082825403925050819055506001600360008473ffffffffffffffffffffffffffffffffffffffff1673ffffffffffffffffffffffffffffffffffffffff16815260200190815260200160002060008282540192505081905550816002600083815260200190815260200160002060006101000a81548173ffffffffffffffffffffffffffffffffffffffff021916908373ffffffffffffffffffffffffffffffffffffffff160217905550808273ffffffffffffffffffffffffffffffffffffffff168473ffffffffffffffffffffffffffffffffffffffff167fddf252ad1be2c89b69c2b068fc378daa952ba7f163c4a11628f55a4df523b3ef60405160405180910390a46111f98383836001611878565b505050565b60008073ffffffffffffffffffffffffffffffffffffffff166112208361123f565b73ffffffffffffffffffffffffffffffffffffffff1614159050919050565b60006002600083815260200190815260200160002060009054906101000a900473ffffffffffffffffffffffffffffffffffffffff169050919050565b611284610dbf565b73ffffffffffffffffffffffffffffffffffffffff166112a2610872565b73ffffffffffffffffffffffffffffffffffffffff16146112f8576040517f08c379a00000000000000000000000000000000000000000000000000000000081526004016112ef906129b2565b60405180910390fd5b565b6000600760009054906101000a900473ffffffffffffffffffffffffffffffffffffffff16905081600760006101000a81548173ffffffffffffffffffffffffffffffffffffffff021916908373ffffffffffffffffffffffffffffffffffffffff1602179055508173ffffffffffffffffffffffffffffffffffffffff168173ffffffffffffffffffffffffffffffffffffffff167f8be0079c531659141344cd1fd0a4f28419497f9722a3daafe3b4186f6b6457e060405160405180910390a35050565b8173ffffffffffffffffffffffffffffffffffffffff168373ffffffffffffffffffffffffffffffffffffffff16141561142f576040517f08c379a000000000000000000000000000000000000000000000000000000000815260040161142690612912565b60405180910390fd5b80600560008573ffffffffffffffffffffffffffffffffffffffff1673ffffffffffffffffffffffffffffffffffffffff16815260200190815260200160002060008473ffffffffffffffffffffffffffffffffffffffff1673ffffffffffffffffffffffffffffffffffffffff16815260200190815260200160002060006101000a81548160ff0219169083151502179055508173ffffffffffffffffffffffffffffffffffffffff168373ffffffffffffffffffffffffffffffffffffffff167f17307eab39ab6107e8899845ad3d59bd9653f200f220920489ca2b5937696c31836040516115209190612815565b60405180910390a3505050565b611538848484610f04565b6115448484848461187e565b611583576040517f08c379a000000000000000000000000000000000000000000000000000000000815260040161157a90612872565b60405180910390fd5b50505050565b606060405180602001604052806000815250905090565b60606115ab82610d74565b60006115b5611589565b905060008151116115d55760405180602001604052806000815250611600565b806115df84611a15565b6040516020016115f092919061278a565b6040516020818303038152906040525b915050919050565b600081600001549050919050565b611630828260405180602001604052806000815250611b39565b5050565b61163d826111fe565b61167c576040517f08c379a000000000000000000000000000000000000000000000000000000000815260040161167390612972565b60405180910390fd5b806006600084815260200190815260200160002090805190602001906116a392919061200c565b507ff8e1a15aba9398e019f0b49df1a4fde98ee17ae345cb5f6b5e2c27f5033e8ce7826040516116d39190612a32565b60405180910390a15050565b6000600560008473ffffffffffffffffffffffffffffffffffffffff1673ffffffffffffffffffffffffffffffffffffffff16815260200190815260200160002060008373ffffffffffffffffffffffffffffffffffffffff1673ffffffffffffffffffffffffffffffffffffffff16815260200190815260200160002060009054906101000a900460ff16905092915050565b60007f01ffc9a7000000000000000000000000000000000000000000000000000000007bffffffffffffffffffffffffffffffffffffffffffffffffffffffff1916827bffffffffffffffffffffffffffffffffffffffffffffffffffffffff1916149050919050565b6000806117e98361071f565b90508073ffffffffffffffffffffffffffffffffffffffff168473ffffffffffffffffffffffffffffffffffffffff16148061182b575061182a8185610b84565b5b8061186957508373ffffffffffffffffffffffffffffffffffffffff16611851846104d5565b73ffffffffffffffffffffffffffffffffffffffff16145b91505092915050565b50505050565b50505050565b600061189f8473ffffffffffffffffffffffffffffffffffffffff16611b94565b15611a08578373ffffffffffffffffffffffffffffffffffffffff1663150b7a026118c8610dbf565b8786866040518563ffffffff1660e01b81526004016118ea94939291906127c9565b602060405180830381600087803b15801561190457600080fd5b505af192505050801561193557506040513d601f19601f8201168201806040525081019061193291906123f2565b60015b6119b8573d8060008114611965576040519150601f19603f3d011682016040523d82523d6000602084013e61196a565b606091505b506000815114156119b0576040517f08c379a00000000000000000000000000000000000000000000000000000000081526004016119a790612872565b60405180910390fd5b805181602001fd5b63150b7a0260e01b7bffffffffffffffffffffffffffffffffffffffffffffffffffffffff1916817bffffffffffffffffffffffffffffffffffffffffffffffffffffffff191614915050611a0d565b600190505b949350505050565b606060006001611a2484611bb7565b01905060008167ffffffffffffffff811115611a69577f4e487b7100000000000000000000000000000000000000000000000000000000600052604160045260246000fd5b6040519080825280601f01601f191660200182016040528015611a9b5781602001600182028036833780820191505090505b509050600082602001820190505b600115611b2e578080600190039150507f3031323334353637383961626364656600000000000000000000000000000000600a86061a8153600a8581611b18577f4e487b7100000000000000000000000000000000000000000000000000000000600052601260045260246000fd5b0494506000851415611b2957611b2e565b611aa9565b819350505050919050565b611b438383611dee565b611b50600084848461187e565b611b8f576040517f08c379a0000000000000000000000000000000000000000000000000000000008152600401611b8690612872565b60405180910390fd5b505050565b6000808273ffffffffffffffffffffffffffffffffffffffff163b119050919050565b600080600090507a184f03e93ff9f4daa797ed6e38ed64bf6a1f0100000000000000008310611c3b577a184f03e93ff9f4daa797ed6e38ed64bf6a1f0100000000000000008381611c31577f4e487b7100000000000000000000000000000000000000000000000000000000600052601260045260246000fd5b0492506040810190505b6d04ee2d6d415b85acef81000000008310611c9e576d04ee2d6d415b85acef81000000008381611c94577f4e487b7100000000000000000000000000000000000000000000000000000000600052601260045260246000fd5b0492506020810190505b662386f26fc100008310611cf357662386f26fc100008381611ce9577f4e487b7100000000000000000000000000000000000000000000000000000000600052601260045260246000fd5b0492506010810190505b6305f5e1008310611d42576305f5e1008381611d38577f4e487b7100000000000000000000000000000000000000000000000000000000600052601260045260246000fd5b0492506008810190505b6127108310611d8d576127108381611d83577f4e487b7100000000000000000000000000000000000000000000000000000000600052601260045260246000fd5b0492506004810190505b60648310611dd65760648381611dcc577f4e487b7100000000000000000000000000000000000000000000000000000000600052601260045260246000fd5b0492506002810190505b600a8310611de5576001810190505b80915050919050565b600073ffffffffffffffffffffffffffffffffffffffff168273ffffffffffffffffffffffffffffffffffffffff161415611e5e576040517f08c379a0000000000000000000000000000000000000000000000000000000008152600401611e5590612992565b60405180910390fd5b611e67816111fe565b15611ea7576040517f08c379a0000000000000000000000000000000000000000000000000000000008152600401611e9e906128d2565b60405180910390fd5b611eb5600083836001611872565b611ebe816111fe565b15611efe576040517f08c379a0000000000000000000000000000000000000000000000000000000008152600401611ef5906128d2565b60405180910390fd5b6001600360008473ffffffffffffffffffffffffffffffffffffffff1673ffffffffffffffffffffffffffffffffffffffff16815260200190815260200160002060008282540192505081905550816002600083815260200190815260200160002060006101000a81548173ffffffffffffffffffffffffffffffffffffffff021916908373ffffffffffffffffffffffffffffffffffffffff160217905550808273ffffffffffffffffffffffffffffffffffffffff16600073ffffffffffffffffffffffffffffffffffffffff167fddf252ad1be2c89b69c2b068fc378daa952ba7f163c4a11628f55a4df523b3ef60405160405180910390a4612008600083836001611878565b5050565b82805461201890612bea565b90600052602060002090601f01602090048101928261203a5760008555612081565b82601f1061205357805160ff1916838001178555612081565b82800160010185558215612081579182015b82811115612080578251825591602001919060010190612065565b5b50905061208e9190612092565b5090565b5b808211156120ab576000816000905550600101612093565b5090565b60006120c26120bd84612ac0565b612a9b565b9050828152602081018484840111156120da57600080fd5b6120e5848285612ba8565b509392505050565b6000813590506120fc8161309f565b92915050565b600081359050612111816130b6565b92915050565b600081359050612126816130cd565b92915050565b60008151905061213b816130cd565b92915050565b600082601f83011261215257600080fd5b81356121628482602086016120af565b91505092915050565b60008083601f84011261217d57600080fd5b8235905067ffffffffffffffff81111561219657600080fd5b6020830191508360018202830111156121ae57600080fd5b9250929050565b6000813590506121c4816130e4565b92915050565b6000602082840312156121dc57600080fd5b60006121ea848285016120ed565b91505092915050565b6000806040838503121561220657600080fd5b6000612214858286016120ed565b9250506020612225858286016120ed565b9150509250929050565b60008060006060848603121561224457600080fd5b6000612252868287016120ed565b9350506020612263868287016120ed565b9250506040612274868287016121b5565b9150509250925092565b6000806000806080858703121561229457600080fd5b60006122a2878288016120ed565b94505060206122b3878288016120ed565b93505060406122c4878288016121b5565b925050606085013567ffffffffffffffff8111156122e157600080fd5b6122ed87828801612141565b91505092959194509250565b6000806040838503121561230c57600080fd5b600061231a858286016120ed565b925050602061232b85828601612102565b9150509250929050565b60008060006040848603121561234a57600080fd5b6000612358868287016120ed565b935050602084013567ffffffffffffffff81111561237557600080fd5b6123818682870161216b565b92509250509250925092565b600080604083850312156123a057600080fd5b60006123ae858286016120ed565b92505060206123bf858286016121b5565b9150509250929050565b6000602082840312156123db57600080fd5b60006123e984828501612117565b91505092915050565b60006020828403121561240457600080fd5b60006124128482850161212c565b91505092915050565b60006020828403121561242d57600080fd5b600061243b848285016121b5565b91505092915050565b6000806040838503121561245757600080fd5b6000612465858286016121b5565b9250506020612476858286016120ed565b9150509250929050565b61248981612b34565b82525050565b61249881612b46565b82525050565b60006124a982612af1565b6124b38185612b07565b93506124c3818560208601612bb7565b6124cc81612cab565b840191505092915050565b60006124e38385612b18565b93506124f0838584612ba8565b6124f983612cab565b840190509392505050565b600061250f82612afc565b6125198185612b18565b9350612529818560208601612bb7565b61253281612cab565b840191505092915050565b600061254882612afc565b6125528185612b29565b9350612562818560208601612bb7565b80840191505092915050565b600061257b602d83612b18565b915061258682612cbc565b604082019050919050565b600061259e603283612b18565b91506125a982612d0b565b604082019050919050565b60006125c1602683612b18565b91506125cc82612d5a565b604082019050919050565b60006125e4602583612b18565b91506125ef82612da9565b604082019050919050565b6000612607601c83612b18565b915061261282612df8565b602082019050919050565b600061262a602483612b18565b915061263582612e21565b604082019050919050565b600061264d601983612b18565b915061265882612e70565b602082019050919050565b6000612670602c83612b18565b915061267b82612e99565b604082019050919050565b6000612693602983612b18565b915061269e82612ee8565b604082019050919050565b60006126b6602e83612b18565b91506126c182612f37565b604082019050919050565b60006126d9602083612b18565b91506126e482612f86565b602082019050919050565b60006126fc602083612b18565b915061270782612faf565b602082019050919050565b600061271f601883612b18565b915061272a82612fd8565b602082019050919050565b6000612742602183612b18565b915061274d82613001565b604082019050919050565b6000612765603d83612b18565b915061277082613050565b604082019050919050565b61278481612b9e565b82525050565b6000612796828561253d565b91506127a2828461253d565b91508190509392505050565b60006020820190506127c36000830184612480565b92915050565b60006080820190506127de6000830187612480565b6127eb6020830186612480565b6127f8604083018561277b565b818103606083015261280a818461249e565b905095945050505050565b600060208201905061282a600083018461248f565b92915050565b6000602082019050818103600083015261284a8184612504565b905092915050565b6000602082019050818103600083015261286b8161256e565b9050919050565b6000602082019050818103600083015261288b81612591565b9050919050565b600060208201905081810360008301526128ab816125b4565b9050919050565b600060208201905081810360008301526128cb816125d7565b9050919050565b600060208201905081810360008301526128eb816125fa565b9050919050565b6000602082019050818103600083015261290b8161261d565b9050919050565b6000602082019050818103600083015261292b81612640565b9050919050565b6000602082019050818103600083015261294b81612663565b9050919050565b6000602082019050818103600083015261296b81612686565b9050919050565b6000602082019050818103600083015261298b816126a9565b9050919050565b600060208201905081810360008301526129ab816126cc565b9050919050565b600060208201905081810360008301526129cb816126ef565b9050919050565b600060208201905081810360008301526129eb81612712565b9050919050565b60006020820190508181036000830152612a0b81612735565b9050919050565b60006020820190508181036000830152612a2b81612758565b9050919050565b6000602082019050612a47600083018461277b565b92915050565b6000608082019050612a62600083018861277b565b612a6f6020830187612480565b8181036040830152612a828185876124d7565b9050612a916060830184612480565b9695505050505050565b6000612aa5612ab6565b9050612ab18282612c1c565b919050565b6000604051905090565b600067ffffffffffffffff821115612adb57612ada612c7c565b5b612ae482612cab565b9050602081019050919050565b600081519050919050565b600081519050919050565b600082825260208201905092915050565b600082825260208201905092915050565b600081905092915050565b6000612b3f82612b7e565b9050919050565b60008115159050919050565b60007fffffffff0000000000000000000000000000000000000000000000000000000082169050919050565b600073ffffffffffffffffffffffffffffffffffffffff82169050919050565b6000819050919050565b82818337600083830152505050565b60005b83811015612bd5578082015181840152602081019050612bba565b83811115612be4576000848401525b50505050565b60006002820490506001821680612c0257607f821691505b60208210811415612c1657612c15612c4d565b5b50919050565b612c2582612cab565b810181811067ffffffffffffffff82111715612c4457612c43612c7c565b5b80604052505050565b7f4e487b7100000000000000000000000000000000000000000000000000000000600052602260045260246000fd5b7f4e487b7100000000000000000000000000000000000000000000000000000000600052604160045260246000fd5b6000601f19601f8301169050919050565b7f4552433732313a2063616c6c6572206973206e6f7420746f6b656e206f776e6560008201527f72206f7220617070726f76656400000000000000000000000000000000000000602082015250565b7f4552433732313a207472616e7366657220746f206e6f6e20455243373231526560008201527f63656976657220696d706c656d656e7465720000000000000000000000000000602082015250565b7f4f776e61626c653a206e6577206f776e657220697320746865207a65726f206160008201527f6464726573730000000000000000000000000000000000000000000000000000602082015250565b7f4552433732313a207472616e736665722066726f6d20696e636f72726563742060008201527f6f776e6572000000000000000000000000000000000000000000000000000000602082015250565b7f4552433732313a20746f6b656e20616c7265616479206d696e74656400000000600082015250565b7f4552433732313a207472616e7366657220746f20746865207a65726f2061646460008201527f7265737300000000000000000000000000000000000000000000000000000000602082015250565b7f4552433732313a20617070726f766520746f2063616c6c657200000000000000600082015250565b7f4552433732313a206f70657261746f7220717565727920666f72206e6f6e657860008201527f697374656e7420746f6b656e0000000000000000000000000000000000000000602082015250565b7f4552433732313a2061646472657373207a65726f206973206e6f74206120766160008201527f6c6964206f776e65720000000000000000000000000000000000000000000000602082015250565b7f45524337323155524953746f726167653a2055524920736574206f66206e6f6e60008201527f6578697374656e7420746f6b656e000000000000000000000000000000000000602082015250565b7f4552433732313a206d696e7420746f20746865207a65726f2061646472657373600082015250565b7f4f776e61626c653a2063616c6c6572206973206e6f7420746865206f776e6572600082015250565b7f4552433732313a20696e76616c696420746f6b656e2049440000000000000000600082015250565b7f4552433732313a20617070726f76616c20746f2063757272656e74206f776e6560008201527f7200000000000000000000000000000000000000000000000000000000000000602082015250565b7f4552433732313a20617070726f76652063616c6c6572206973206e6f7420746f60008201527f6b656e206f776e6572206f7220617070726f76656420666f7220616c6c000000602082015250565b6130a881612b34565b81146130b357600080fd5b50565b6130bf81612b46565b81146130ca57600080fd5b50565b6130d681612b52565b81146130e157600080fd5b50565b6130ed81612b9e565b81146130f857600080fd5b5056fea2646970667358221220299f92282f98b69f49ad967b6c1d4ccd57696f6b965af7ca83ad0d9732b0156864736f6c63430008040033",
  "linkReferences": {},
  "deployedLinkReferences": {}
}