{
  "_format": "hh-sol-artifact-1",
  "contractName": "Creath",
  "sourceName": "contracts/Creath.sol",
  "abi": [
    {
      "inputs": [
        {
          "internalType": "address",
          "name": "_marketplace",
          "type": "address"
        }
      ],
      "stateMutability": "nonpayable",
      "type": "constructor"
    },
    {
      "anonymous": false,
      "inputs": [
        {
          "indexed": true,
          "internalType": "address",
          "name": "owner",
          "type": "address"
        },
        {
          "indexed": true,
          "internalType": "address",
          "name": "approved",
          "type": "address"
        },
        {
          "indexed": true,
          "internalType": "uint256",
          "name": "tokenId",
          "type": "uint256"
        }
      ],
      "name": "Approval",
      "type": "event"
    },
    {
      "anonymous": false,
      "inputs": [
        {
          "indexed": true,
          "internalType": "address",
          "name": "owner",
          "type": "address"
        },
        {
          "indexed": true,
          "internalType": "address",
          "name": "operator",
          "type": "address"
        },
        {
          "indexed": false,
          "internalType": "bool",
          "name": "approved",
          "type": "bool"
        }
      ],
      "name": "ApprovalForAll",
      "type": "event"
    },
    {
      "anonymous": false,
      "inputs": [
        {
          "indexed": false,
          "internalType": "uint256",
          "name": "tokenId",
          "type": "uint256"
        },
        {
          "indexed": false,
          "internalType": "address",
          "name": "beneficiary",
          "type": "address"
        },
        {
          "indexed": false,
          "internalType": "string",
          "name": "tokenUri",
          "type": "string"
        },
        {
          "indexed": false,
          "internalType": "address",
          "name": "minter",
          "type": "address"
        }
      ],
      "name": "Minted",
      "type": "event"
    },
    {
      "anonymous": false,
      "inputs": [
        {
          "indexed": true,
          "internalType": "address",
          "name": "previousOwner",
          "type": "address"
        },
        {
          "indexed": true,
          "internalType": "address",
          "name": "newOwner",
          "type": "address"
        }
      ],
      "name": "OwnershipTransferred",
      "type": "event"
    },
    {
      "anonymous": false,
      "inputs": [
        {
          "indexed": true,
          "internalType": "address",
          "name": "from",
          "type": "address"
        },
        {
          "indexed": true,
          "internalType": "address",
          "name": "to",
          "type": "address"
        },
        {
          "indexed": true,
          "internalType": "uint256",
          "name": "tokenId",
          "type": "uint256"
        }
      ],
      "name": "Transfer",
      "type": "event"
    },
    {
      "inputs": [
        {
          "internalType": "address",
          "name": "to",
          "type": "address"
        },
        {
          "internalType": "uint256",
          "name": "tokenId",
          "type": "uint256"
        }
      ],
      "name": "approve",
      "outputs": [],
      "stateMutability": "nonpayable",
      "type": "function"
    },
    {
      "inputs": [
        {
          "internalType": "address",
          "name": "owner",
          "type": "address"
        }
      ],
      "name": "balanceOf",
      "outputs": [
        {
          "internalType": "uint256",
          "name": "",
          "type": "uint256"
        }
      ],
      "stateMutability": "view",
      "type": "function"
    },
    {
      "inputs": [
        {
          "internalType": "uint256",
          "name": "_tokenId",
          "type": "uint256"
        }
      ],
      "name": "burn",
      "outputs": [],
      "stateMutability": "nonpayable",
      "type": "function"
    },
    {
      "inputs": [
        {
          "internalType": "uint256",
          "name": "_tokenId",
          "type": "uint256"
        }
      ],
      "name": "exists",
      "outputs": [
        {
          "internalType": "bool",
          "name": "",
          "type": "bool"
        }
      ],
      "stateMutability": "view",
      "type": "function"
    },
    {
      "inputs": [
        {
          "internalType": "uint256",
          "name": "tokenId",
          "type": "uint256"
        }
      ],
      "name": "getApproved",
      "outputs": [
        {
          "internalType": "address",
          "name": "",
          "type": "address"
        }
      ],
      "stateMutability": "view",
      "type": "function"
    },
    {
      "inputs": [
        {
          "internalType": "uint256",
          "name": "_tokenId",
          "type": "uint256"
        },
        {
          "internalType": "address",
          "name": "_operator",
          "type": "address"
        }
      ],
      "name": "isApproved",
      "outputs": [
        {
          "internalType": "bool",
          "name": "",
          "type": "bool"
        }
      ],
      "stateMutability": "view",
      "type": "function"
    },
    {
      "inputs": [
        {
          "internalType": "address",
          "name": "_owner",
          "type": "address"
        },
        {
          "internalType": "address",
          "name": "operator",
          "type": "address"
        }
      ],
      "name": "isApprovedForAll",
      "outputs": [
        {
          "internalType": "bool",
          "name": "",
          "type": "bool"
        }
      ],
      "stateMutability": "view",
      "type": "function"
    },
    {
      "inputs": [
        {
          "internalType": "address",
          "name": "_beneficiary",
          "type": "address"
        },
        {
          "internalType": "string",
          "name": "_tokenUri",
          "type": "string"
        }
      ],
      "name": "mint",
      "outputs": [
        {
          "internalType": "uint256",
          "name": "",
          "type": "uint256"
        }
      ],
      "stateMutability": "nonpayable",
      "type": "function"
    },
    {
      "inputs": [],
      "name": "name",
      "outputs": [
        {
          "internalType": "string",
          "name": "",
          "type": "string"
        }
      ],
      "stateMutability": "view",
      "type": "function"
    },
    {
      "inputs": [],
      "name": "owner",
      "outputs": [
        {
          "internalType": "address",
          "name": "",
          "type": "address"
        }
      ],
      "stateMutability": "view",
      "type": "function"
    },
    {
      "inputs": [
        {
          "internalType": "uint256",
          "name": "tokenId",
          "type": "uint256"
        }
      ],
      "name": "ownerOf",
      "outputs": [
        {
          "internalType": "address",
          "name": "",
          "type": "address"
        }
      ],
      "stateMutability": "view",
      "type": "function"
    },
    {
      "inputs": [],
      "name": "renounceOwnership",
      "outputs": [],
      "stateMutability": "nonpayable",
      "type": "function"
    },
    {
      "inputs": [
        {
          "internalType": "address",
          "name": "from",
          "type": "address"
        },
        {
          "internalType": "address",
          "name": "to",
          "type": "address"
        },
        {
          "internalType": "uint256",
          "name": "tokenId",
          "type": "uint256"
        }
      ],
      "name": "safeTransferFrom",
      "outputs": [],
      "stateMutability": "nonpayable",
      "type": "function"
    },
    {
      "inputs": [
        {
          "internalType": "address",
          "name": "from",
          "type": "address"
        },
        {
          "internalType": "address",
          "name": "to",
          "type": "address"
        },
        {
          "internalType": "uint256",
          "name": "tokenId",
          "type": "uint256"
        },
        {
          "internalType": "bytes",
          "name": "data",
          "type": "bytes"
        }
      ],
      "name": "safeTransferFrom",
      "outputs": [],
      "stateMutability": "nonpayable",
      "type": "function"
    },
    {
      "inputs": [
        {
          "internalType": "address",
          "name": "operator",
          "type": "address"
        },
        {
          "internalType": "bool",
          "name": "approved",
          "type": "bool"
        }
      ],
      "name": "setApprovalForAll",
      "outputs": [],
      "stateMutability": "nonpayable",
      "type": "function"
    },
    {
      "inputs": [
        {
          "internalType": "bytes4",
          "name": "interfaceId",
          "type": "bytes4"
        }
      ],
      "name": "supportsInterface",
      "outputs": [
        {
          "internalType": "bool",
          "name": "",
          "type": "bool"
        }
      ],
      "stateMutability": "view",
      "type": "function"
    },
    {
      "inputs": [],
      "name": "symbol",
      "outputs": [
        {
          "internalType": "string",
          "name": "",
          "type": "string"
        }
      ],
      "stateMutability": "view",
      "type": "function"
    },
    {
      "inputs": [
        {
          "internalType": "uint256",
          "name": "tokenId",
          "type": "uint256"
        }
      ],
      "name": "tokenURI",
      "outputs": [
        {
          "internalType": "string",
          "name": "",
          "type": "string"
        }
      ],
      "stateMutability": "view",
      "type": "function"
    },
    {
      "inputs": [
        {
          "internalType": "address",
          "name": "from",
          "type": "address"
        },
        {
          "internalType": "address",
          "name": "to",
          "type": "address"
        },
        {
          "internalType": "uint256",
          "name": "tokenId",
          "type": "uint256"
        }
      ],
      "name": "transferFrom",
      "outputs": [],
      "stateMutability": "nonpayable",
      "type": "function"
    },
    {
      "inputs": [
        {
          "internalType": "address",
          "name": "newOwner",
          "type": "address"
        }
      ],
      "name": "transferOwnership",
      "outputs": [],
      "stateMutability": "nonpayable",
      "type": "function"
    }
  ],
  "bytecode": "0x60806040523480156200001157600080fd5b50604051620036a5380380620036a5833981810160405281019062000037919062000301565b6040518060400160405280601281526020017f437265617468204d61726b6574706c61636500000000000000000000000000008152506040518060400160405280600681526020017f43524541544800000000000000000000000000000000000000000000000000008152508160009080519060200190620000bb9291906200023a565b508060019080519060200190620000d49291906200023a565b505050620000f7620000eb6200015660201b60201c565b6200015e60201b60201c565b6200010e60086200022460201b62000d381760201c565b80600960006101000a81548173ffffffffffffffffffffffffffffffffffffffff021916908373ffffffffffffffffffffffffffffffffffffffff16021790555050620003e0565b600033905090565b6000600760009054906101000a900473ffffffffffffffffffffffffffffffffffffffff16905081600760006101000a81548173ffffffffffffffffffffffffffffffffffffffff021916908373ffffffffffffffffffffffffffffffffffffffff1602179055508173ffffffffffffffffffffffffffffffffffffffff168173ffffffffffffffffffffffffffffffffffffffff167f8be0079c531659141344cd1fd0a4f28419497f9722a3daafe3b4186f6b6457e060405160405180910390a35050565b6001816000016000828254019250508190555050565b828054620002489062000361565b90600052602060002090601f0160209004810192826200026c5760008555620002b8565b82601f106200028757805160ff1916838001178555620002b8565b82800160010185558215620002b8579182015b82811115620002b75782518255916020019190600101906200029a565b5b509050620002c79190620002cb565b5090565b5b80821115620002e6576000816000905550600101620002cc565b5090565b600081519050620002fb81620003c6565b92915050565b6000602082840312156200031457600080fd5b60006200032484828501620002ea565b91505092915050565b60006200033a8262000341565b9050919050565b600073ffffffffffffffffffffffffffffffffffffffff82169050919050565b600060028204905060018216806200037a57607f821691505b6020821081141562000391576200039062000397565b5b50919050565b7f4e487b7100000000000000000000000000000000000000000000000000000000600052602260045260246000fd5b620003d1816200032d565b8114620003dd57600080fd5b50565b6132b580620003f06000396000f3fe608060405234801561001057600080fd5b506004361061012c5760003560e01c806370a08231116100ad578063b88d4fde11610071578063b88d4fde14610341578063c87b56dd1461035d578063d0def5211461038d578063e985e9c5146103bd578063f2fde38b146103ed5761012c565b806370a08231146102af578063715018a6146102df5780638da5cb5b146102e957806395d89b4114610307578063a22cb465146103255761012c565b806342842e0e116100f457806342842e0e146101e757806342966c68146102035780634f558e791461021f57806356c316371461024f5780636352211e1461027f5761012c565b806301ffc9a71461013157806306fdde0314610161578063081812fc1461017f578063095ea7b3146101af57806323b872dd146101cb575b600080fd5b61014b6004803603810190610146919061254d565b610409565b6040516101589190612999565b60405180910390f35b6101696104eb565b60405161017691906129b4565b60405180910390f35b6101996004803603810190610194919061259f565b61057d565b6040516101a69190612932565b60405180910390f35b6101c960048036038101906101c49190612511565b6105c3565b005b6101e560048036038101906101e091906123b3565b6106db565b005b61020160048036038101906101fc91906123b3565b61073b565b005b61021d6004803603810190610218919061259f565b61075b565b005b6102396004803603810190610234919061259f565b61076f565b6040516102469190612999565b60405180910390f35b610269600480360381019061026491906125c8565b610781565b6040516102769190612999565b60405180910390f35b6102996004803603810190610294919061259f565b6107db565b6040516102a69190612932565b60405180910390f35b6102c960048036038101906102c4919061234e565b610862565b6040516102d69190612bb6565b60405180910390f35b6102e761091a565b005b6102f161092e565b6040516102fe9190612932565b60405180910390f35b61030f610958565b60405161031c91906129b4565b60405180910390f35b61033f600480360381019061033a919061247d565b6109ea565b005b61035b60048036038101906103569190612402565b610a00565b005b6103776004803603810190610372919061259f565b610a62565b60405161038491906129b4565b60405180910390f35b6103a760048036038101906103a291906124b9565b610b75565b6040516103b49190612bb6565b60405180910390f35b6103d760048036038101906103d29190612377565b610c40565b6040516103e49190612999565b60405180910390f35b6104076004803603810190610402919061234e565b610cb4565b005b60007f80ac58cd000000000000000000000000000000000000000000000000000000007bffffffffffffffffffffffffffffffffffffffffffffffffffffffff1916827bffffffffffffffffffffffffffffffffffffffffffffffffffffffff191614806104d457507f5b5e139f000000000000000000000000000000000000000000000000000000007bffffffffffffffffffffffffffffffffffffffffffffffffffffffff1916827bffffffffffffffffffffffffffffffffffffffffffffffffffffffff1916145b806104e457506104e382610d4e565b5b9050919050565b6060600080546104fa90612d6e565b80601f016020809104026020016040519081016040528092919081815260200182805461052690612d6e565b80156105735780601f1061054857610100808354040283529160200191610573565b820191906000526020600020905b81548152906001019060200180831161055657829003601f168201915b5050505050905090565b600061058882610db8565b6004600083815260200190815260200160002060009054906101000a900473ffffffffffffffffffffffffffffffffffffffff169050919050565b60006105ce826107db565b90508073ffffffffffffffffffffffffffffffffffffffff168373ffffffffffffffffffffffffffffffffffffffff16141561063f576040517f08c379a000000000000000000000000000000000000000000000000000000000815260040161063690612b76565b60405180910390fd5b8073ffffffffffffffffffffffffffffffffffffffff1661065e610e03565b73ffffffffffffffffffffffffffffffffffffffff16148061068d575061068c81610687610e03565b610c40565b5b6106cc576040517f08c379a00000000000000000000000000000000000000000000000000000000081526004016106c390612b96565b60405180910390fd5b6106d68383610e0b565b505050565b6106ec6106e6610e03565b82610ec4565b61072b576040517f08c379a0000000000000000000000000000000000000000000000000000000008152600401610722906129d6565b60405180910390fd5b610736838383610f48565b505050565b61075683838360405180602001604052806000815250610a00565b505050565b610763611242565b61076c816112c0565b50565b600061077a82611313565b9050919050565b600061079561078f846107db565b83610c40565b806107d357508173ffffffffffffffffffffffffffffffffffffffff166107bb8461057d565b73ffffffffffffffffffffffffffffffffffffffff16145b905092915050565b6000806107e783611354565b9050600073ffffffffffffffffffffffffffffffffffffffff168173ffffffffffffffffffffffffffffffffffffffff161415610859576040517f08c379a000000000000000000000000000000000000000000000000000000000815260040161085090612b56565b60405180910390fd5b80915050919050565b60008073ffffffffffffffffffffffffffffffffffffffff168273ffffffffffffffffffffffffffffffffffffffff1614156108d3576040517f08c379a00000000000000000000000000000000000000000000000000000000081526004016108ca90612ad6565b60405180910390fd5b600360008373ffffffffffffffffffffffffffffffffffffffff1673ffffffffffffffffffffffffffffffffffffffff168152602001908152602001600020549050919050565b610922611242565b61092c6000611391565b565b6000600760009054906101000a900473ffffffffffffffffffffffffffffffffffffffff16905090565b60606001805461096790612d6e565b80601f016020809104026020016040519081016040528092919081815260200182805461099390612d6e565b80156109e05780601f106109b5576101008083540402835291602001916109e0565b820191906000526020600020905b8154815290600101906020018083116109c357829003601f168201915b5050505050905090565b6109fc6109f5610e03565b8383611457565b5050565b610a11610a0b610e03565b83610ec4565b610a50576040517f08c379a0000000000000000000000000000000000000000000000000000000008152600401610a47906129d6565b60405180910390fd5b610a5c848484846115c4565b50505050565b6060610a6d82610db8565b6000600660008481526020019081526020016000208054610a8d90612d6e565b80601f0160208091040260200160405190810160405280929190818152602001828054610ab990612d6e565b8015610b065780601f10610adb57610100808354040283529160200191610b06565b820191906000526020600020905b815481529060010190602001808311610ae957829003601f168201915b505050505090506000610b17611620565b9050600081511415610b2d578192505050610b70565b600082511115610b62578082604051602001610b4a92919061290e565b60405160208183030381529060405292505050610b70565b610b6b84611637565b925050505b919050565b6000610b7f611242565b6000610b8b600861169f565b9050610b9785826116ad565b610be58185858080601f016020809104026020016040519081016040528093929190818152602001838380828437600081840152601f19601f820116905080830192505050505050506116cb565b610bef6008610d38565b7f997115af5924f5e38964c6d65c804d4cb85129b65e62eb20a8ca6329dbe57e1881868686610c1c610e03565b604051610c2d959493929190612bd1565b60405180910390a1809150509392505050565b60008173ffffffffffffffffffffffffffffffffffffffff16600960009054906101000a900473ffffffffffffffffffffffffffffffffffffffff1673ffffffffffffffffffffffffffffffffffffffff161415610ca15760019050610cae565b610cab838361173f565b90505b92915050565b610cbc611242565b600073ffffffffffffffffffffffffffffffffffffffff168173ffffffffffffffffffffffffffffffffffffffff161415610d2c576040517f08c379a0000000000000000000000000000000000000000000000000000000008152600401610d2390612a16565b60405180910390fd5b610d3581611391565b50565b6001816000016000828254019250508190555050565b60007f01ffc9a7000000000000000000000000000000000000000000000000000000007bffffffffffffffffffffffffffffffffffffffffffffffffffffffff1916827bffffffffffffffffffffffffffffffffffffffffffffffffffffffff1916149050919050565b610dc181611313565b610e00576040517f08c379a0000000000000000000000000000000000000000000000000000000008152600401610df790612b56565b60405180910390fd5b50565b600033905090565b816004600083815260200190815260200160002060006101000a81548173ffffffffffffffffffffffffffffffffffffffff021916908373ffffffffffffffffffffffffffffffffffffffff160217905550808273ffffffffffffffffffffffffffffffffffffffff16610e7e836107db565b73ffffffffffffffffffffffffffffffffffffffff167f8c5be1e5ebec7d5bd14f71427d1e84f3dd0314c0f7b2291e5b200ac8c7c3b92560405160405180910390a45050565b6000610ecf82611313565b610f0e576040517f08c379a0000000000000000000000000000000000000000000000000000000008152600401610f0590612ab6565b60405180910390fd5b6000610f19836107db565b9050610f258185610c40565b15610f34576001915050610f42565b610f3e84846117d3565b9150505b92915050565b8273ffffffffffffffffffffffffffffffffffffffff16610f68826107db565b73ffffffffffffffffffffffffffffffffffffffff1614610fbe576040517f08c379a0000000000000000000000000000000000000000000000000000000008152600401610fb590612a36565b60405180910390fd5b600073ffffffffffffffffffffffffffffffffffffffff168273ffffffffffffffffffffffffffffffffffffffff16141561102e576040517f08c379a000000000000000000000000000000000000000000000000000000000815260040161102590612a76565b60405180910390fd5b61103b8383836001611868565b8273ffffffffffffffffffffffffffffffffffffffff1661105b826107db565b73ffffffffffffffffffffffffffffffffffffffff16146110b1576040517f08c379a00000000000000000000000000000000000000000000000000000000081526004016110a890612a36565b60405180910390fd5b6004600082815260200190815260200160002060006101000a81549073ffffffffffffffffffffffffffffffffffffffff02191690556001600360008573ffffffffffffffffffffffffffffffffffffffff1673ffffffffffffffffffffffffffffffffffffffff168152602001908152602001600020600082825403925050819055506001600360008473ffffffffffffffffffffffffffffffffffffffff1673ffffffffffffffffffffffffffffffffffffffff16815260200190815260200160002060008282540192505081905550816002600083815260200190815260200160002060006101000a81548173ffffffffffffffffffffffffffffffffffffffff021916908373ffffffffffffffffffffffffffffffffffffffff160217905550808273ffffffffffffffffffffffffffffffffffffffff168473ffffffffffffffffffffffffffffffffffffffff167fddf252ad1be2c89b69c2b068fc378daa952ba7f163c4a11628f55a4df523b3ef60405160405180910390a461123d838383600161186e565b505050565b61124a610e03565b73ffffffffffffffffffffffffffffffffffffffff1661126861092e565b73ffffffffffffffffffffffffffffffffffffffff16146112be576040517f08c379a00000000000000000000000000000000000000000000000000000000081526004016112b590612b36565b60405180910390fd5b565b6112c981611874565b60006006600083815260200190815260200160002080546112e990612d6e565b9050146113105760066000828152602001908152602001600020600061130f9190612150565b5b50565b60008073ffffffffffffffffffffffffffffffffffffffff1661133583611354565b73ffffffffffffffffffffffffffffffffffffffff1614159050919050565b60006002600083815260200190815260200160002060009054906101000a900473ffffffffffffffffffffffffffffffffffffffff169050919050565b6000600760009054906101000a900473ffffffffffffffffffffffffffffffffffffffff16905081600760006101000a81548173ffffffffffffffffffffffffffffffffffffffff021916908373ffffffffffffffffffffffffffffffffffffffff1602179055508173ffffffffffffffffffffffffffffffffffffffff168173ffffffffffffffffffffffffffffffffffffffff167f8be0079c531659141344cd1fd0a4f28419497f9722a3daafe3b4186f6b6457e060405160405180910390a35050565b8173ffffffffffffffffffffffffffffffffffffffff168373ffffffffffffffffffffffffffffffffffffffff1614156114c6576040517f08c379a00000000000000000000000000000000000000000000000000000000081526004016114bd90612a96565b60405180910390fd5b80600560008573ffffffffffffffffffffffffffffffffffffffff1673ffffffffffffffffffffffffffffffffffffffff16815260200190815260200160002060008473ffffffffffffffffffffffffffffffffffffffff1673ffffffffffffffffffffffffffffffffffffffff16815260200190815260200160002060006101000a81548160ff0219169083151502179055508173ffffffffffffffffffffffffffffffffffffffff168373ffffffffffffffffffffffffffffffffffffffff167f17307eab39ab6107e8899845ad3d59bd9653f200f220920489ca2b5937696c31836040516115b79190612999565b60405180910390a3505050565b6115cf848484610f48565b6115db848484846119c2565b61161a576040517f08c379a0000000000000000000000000000000000000000000000000000000008152600401611611906129f6565b60405180910390fd5b50505050565b606060405180602001604052806000815250905090565b606061164282610db8565b600061164c611620565b9050600081511161166c5760405180602001604052806000815250611697565b8061167684611b59565b60405160200161168792919061290e565b6040516020818303038152906040525b915050919050565b600081600001549050919050565b6116c7828260405180602001604052806000815250611c7d565b5050565b6116d482611313565b611713576040517f08c379a000000000000000000000000000000000000000000000000000000000815260040161170a90612af6565b60405180910390fd5b8060066000848152602001908152602001600020908051906020019061173a929190612190565b505050565b6000600560008473ffffffffffffffffffffffffffffffffffffffff1673ffffffffffffffffffffffffffffffffffffffff16815260200190815260200160002060008373ffffffffffffffffffffffffffffffffffffffff1673ffffffffffffffffffffffffffffffffffffffff16815260200190815260200160002060009054906101000a900460ff16905092915050565b6000806117df836107db565b90508073ffffffffffffffffffffffffffffffffffffffff168473ffffffffffffffffffffffffffffffffffffffff16148061182157506118208185610c40565b5b8061185f57508373ffffffffffffffffffffffffffffffffffffffff166118478461057d565b73ffffffffffffffffffffffffffffffffffffffff16145b91505092915050565b50505050565b50505050565b600061187f826107db565b905061188f816000846001611868565b611898826107db565b90506004600083815260200190815260200160002060006101000a81549073ffffffffffffffffffffffffffffffffffffffff02191690556001600360008373ffffffffffffffffffffffffffffffffffffffff1673ffffffffffffffffffffffffffffffffffffffff168152602001908152602001600020600082825403925050819055506002600083815260200190815260200160002060006101000a81549073ffffffffffffffffffffffffffffffffffffffff021916905581600073ffffffffffffffffffffffffffffffffffffffff168273ffffffffffffffffffffffffffffffffffffffff167fddf252ad1be2c89b69c2b068fc378daa952ba7f163c4a11628f55a4df523b3ef60405160405180910390a46119be81600084600161186e565b5050565b60006119e38473ffffffffffffffffffffffffffffffffffffffff16611cd8565b15611b4c578373ffffffffffffffffffffffffffffffffffffffff1663150b7a02611a0c610e03565b8786866040518563ffffffff1660e01b8152600401611a2e949392919061294d565b602060405180830381600087803b158015611a4857600080fd5b505af1925050508015611a7957506040513d601f19601f82011682018060405250810190611a769190612576565b60015b611afc573d8060008114611aa9576040519150601f19603f3d011682016040523d82523d6000602084013e611aae565b606091505b50600081511415611af4576040517f08c379a0000000000000000000000000000000000000000000000000000000008152600401611aeb906129f6565b60405180910390fd5b805181602001fd5b63150b7a0260e01b7bffffffffffffffffffffffffffffffffffffffffffffffffffffffff1916817bffffffffffffffffffffffffffffffffffffffffffffffffffffffff191614915050611b51565b600190505b949350505050565b606060006001611b6884611cfb565b01905060008167ffffffffffffffff811115611bad577f4e487b7100000000000000000000000000000000000000000000000000000000600052604160045260246000fd5b6040519080825280601f01601f191660200182016040528015611bdf5781602001600182028036833780820191505090505b509050600082602001820190505b600115611c72578080600190039150507f3031323334353637383961626364656600000000000000000000000000000000600a86061a8153600a8581611c5c577f4e487b7100000000000000000000000000000000000000000000000000000000600052601260045260246000fd5b0494506000851415611c6d57611c72565b611bed565b819350505050919050565b611c878383611f32565b611c9460008484846119c2565b611cd3576040517f08c379a0000000000000000000000000000000000000000000000000000000008152600401611cca906129f6565b60405180910390fd5b505050565b6000808273ffffffffffffffffffffffffffffffffffffffff163b119050919050565b600080600090507a184f03e93ff9f4daa797ed6e38ed64bf6a1f0100000000000000008310611d7f577a184f03e93ff9f4daa797ed6e38ed64bf6a1f0100000000000000008381611d75577f4e487b7100000000000000000000000000000000000000000000000000000000600052601260045260246000fd5b0492506040810190505b6d04ee2d6d415b85acef81000000008310611de2576d04ee2d6d415b85acef81000000008381611dd8577f4e487b7100000000000000000000000000000000000000000000000000000000600052601260045260246000fd5b0492506020810190505b662386f26fc100008310611e3757662386f26fc100008381611e2d577f4e487b7100000000000000000000000000000000000000000000000000000000600052601260045260246000fd5b0492506010810190505b6305f5e1008310611e86576305f5e1008381611e7c577f4e487b7100000000000000000000000000000000000000000000000000000000600052601260045260246000fd5b0492506008810190505b6127108310611ed1576127108381611ec7577f4e487b7100000000000000000000000000000000000000000000000000000000600052601260045260246000fd5b0492506004810190505b60648310611f1a5760648381611f10577f4e487b7100000000000000000000000000000000000000000000000000000000600052601260045260246000fd5b0492506002810190505b600a8310611f29576001810190505b80915050919050565b600073ffffffffffffffffffffffffffffffffffffffff168273ffffffffffffffffffffffffffffffffffffffff161415611fa2576040517f08c379a0000000000000000000000000000000000000000000000000000000008152600401611f9990612b16565b60405180910390fd5b611fab81611313565b15611feb576040517f08c379a0000000000000000000000000000000000000000000000000000000008152600401611fe290612a56565b60405180910390fd5b611ff9600083836001611868565b61200281611313565b15612042576040517f08c379a000000000000000000000000000000000000000000000000000000000815260040161203990612a56565b60405180910390fd5b6001600360008473ffffffffffffffffffffffffffffffffffffffff1673ffffffffffffffffffffffffffffffffffffffff16815260200190815260200160002060008282540192505081905550816002600083815260200190815260200160002060006101000a81548173ffffffffffffffffffffffffffffffffffffffff021916908373ffffffffffffffffffffffffffffffffffffffff160217905550808273ffffffffffffffffffffffffffffffffffffffff16600073ffffffffffffffffffffffffffffffffffffffff167fddf252ad1be2c89b69c2b068fc378daa952ba7f163c4a11628f55a4df523b3ef60405160405180910390a461214c60008383600161186e565b5050565b50805461215c90612d6e565b6000825580601f1061216e575061218d565b601f01602090049060005260206000209081019061218c9190612216565b5b50565b82805461219c90612d6e565b90600052602060002090601f0160209004810192826121be5760008555612205565b82601f106121d757805160ff1916838001178555612205565b82800160010185558215612205579182015b828111156122045782518255916020019190600101906121e9565b5b5090506122129190612216565b5090565b5b8082111561222f576000816000905550600101612217565b5090565b600061224661224184612c44565b612c1f565b90508281526020810184848401111561225e57600080fd5b612269848285612d2c565b509392505050565b60008135905061228081613223565b92915050565b6000813590506122958161323a565b92915050565b6000813590506122aa81613251565b92915050565b6000815190506122bf81613251565b92915050565b600082601f8301126122d657600080fd5b81356122e6848260208601612233565b91505092915050565b60008083601f84011261230157600080fd5b8235905067ffffffffffffffff81111561231a57600080fd5b60208301915083600182028301111561233257600080fd5b9250929050565b60008135905061234881613268565b92915050565b60006020828403121561236057600080fd5b600061236e84828501612271565b91505092915050565b6000806040838503121561238a57600080fd5b600061239885828601612271565b92505060206123a985828601612271565b9150509250929050565b6000806000606084860312156123c857600080fd5b60006123d686828701612271565b93505060206123e786828701612271565b92505060406123f886828701612339565b9150509250925092565b6000806000806080858703121561241857600080fd5b600061242687828801612271565b945050602061243787828801612271565b935050604061244887828801612339565b925050606085013567ffffffffffffffff81111561246557600080fd5b612471878288016122c5565b91505092959194509250565b6000806040838503121561249057600080fd5b600061249e85828601612271565b92505060206124af85828601612286565b9150509250929050565b6000806000604084860312156124ce57600080fd5b60006124dc86828701612271565b935050602084013567ffffffffffffffff8111156124f957600080fd5b612505868287016122ef565b92509250509250925092565b6000806040838503121561252457600080fd5b600061253285828601612271565b925050602061254385828601612339565b9150509250929050565b60006020828403121561255f57600080fd5b600061256d8482850161229b565b91505092915050565b60006020828403121561258857600080fd5b6000612596848285016122b0565b91505092915050565b6000602082840312156125b157600080fd5b60006125bf84828501612339565b91505092915050565b600080604083850312156125db57600080fd5b60006125e985828601612339565b92505060206125fa85828601612271565b9150509250929050565b61260d81612cb8565b82525050565b61261c81612cca565b82525050565b600061262d82612c75565b6126378185612c8b565b9350612647818560208601612d3b565b61265081612e2f565b840191505092915050565b60006126678385612c9c565b9350612674838584612d2c565b61267d83612e2f565b840190509392505050565b600061269382612c80565b61269d8185612c9c565b93506126ad818560208601612d3b565b6126b681612e2f565b840191505092915050565b60006126cc82612c80565b6126d68185612cad565b93506126e6818560208601612d3b565b80840191505092915050565b60006126ff602d83612c9c565b915061270a82612e40565b604082019050919050565b6000612722603283612c9c565b915061272d82612e8f565b604082019050919050565b6000612745602683612c9c565b915061275082612ede565b604082019050919050565b6000612768602583612c9c565b915061277382612f2d565b604082019050919050565b600061278b601c83612c9c565b915061279682612f7c565b602082019050919050565b60006127ae602483612c9c565b91506127b982612fa5565b604082019050919050565b60006127d1601983612c9c565b91506127dc82612ff4565b602082019050919050565b60006127f4602c83612c9c565b91506127ff8261301d565b604082019050919050565b6000612817602983612c9c565b91506128228261306c565b604082019050919050565b600061283a602e83612c9c565b9150612845826130bb565b604082019050919050565b600061285d602083612c9c565b91506128688261310a565b602082019050919050565b6000612880602083612c9c565b915061288b82613133565b602082019050919050565b60006128a3601883612c9c565b91506128ae8261315c565b602082019050919050565b60006128c6602183612c9c565b91506128d182613185565b604082019050919050565b60006128e9603d83612c9c565b91506128f4826131d4565b604082019050919050565b61290881612d22565b82525050565b600061291a82856126c1565b915061292682846126c1565b91508190509392505050565b60006020820190506129476000830184612604565b92915050565b60006080820190506129626000830187612604565b61296f6020830186612604565b61297c60408301856128ff565b818103606083015261298e8184612622565b905095945050505050565b60006020820190506129ae6000830184612613565b92915050565b600060208201905081810360008301526129ce8184612688565b905092915050565b600060208201905081810360008301526129ef816126f2565b9050919050565b60006020820190508181036000830152612a0f81612715565b9050919050565b60006020820190508181036000830152612a2f81612738565b9050919050565b60006020820190508181036000830152612a4f8161275b565b9050919050565b60006020820190508181036000830152612a6f8161277e565b9050919050565b60006020820190508181036000830152612a8f816127a1565b9050919050565b60006020820190508181036000830152612aaf816127c4565b9050919050565b60006020820190508181036000830152612acf816127e7565b9050919050565b60006020820190508181036000830152612aef8161280a565b9050919050565b60006020820190508181036000830152612b0f8161282d565b9050919050565b60006020820190508181036000830152612b2f81612850565b9050919050565b60006020820190508181036000830152612b4f81612873565b9050919050565b60006020820190508181036000830152612b6f81612896565b9050919050565b60006020820190508181036000830152612b8f816128b9565b9050919050565b60006020820190508181036000830152612baf816128dc565b9050919050565b6000602082019050612bcb60008301846128ff565b92915050565b6000608082019050612be660008301886128ff565b612bf36020830187612604565b8181036040830152612c0681858761265b565b9050612c156060830184612604565b9695505050505050565b6000612c29612c3a565b9050612c358282612da0565b919050565b6000604051905090565b600067ffffffffffffffff821115612c5f57612c5e612e00565b5b612c6882612e2f565b9050602081019050919050565b600081519050919050565b600081519050919050565b600082825260208201905092915050565b600082825260208201905092915050565b600081905092915050565b6000612cc382612d02565b9050919050565b60008115159050919050565b60007fffffffff0000000000000000000000000000000000000000000000000000000082169050919050565b600073ffffffffffffffffffffffffffffffffffffffff82169050919050565b6000819050919050565b82818337600083830152505050565b60005b83811015612d59578082015181840152602081019050612d3e565b83811115612d68576000848401525b50505050565b60006002820490506001821680612d8657607f821691505b60208210811415612d9a57612d99612dd1565b5b50919050565b612da982612e2f565b810181811067ffffffffffffffff82111715612dc857612dc7612e00565b5b80604052505050565b7f4e487b7100000000000000000000000000000000000000000000000000000000600052602260045260246000fd5b7f4e487b7100000000000000000000000000000000000000000000000000000000600052604160045260246000fd5b6000601f19601f8301169050919050565b7f4552433732313a2063616c6c6572206973206e6f7420746f6b656e206f776e6560008201527f72206f7220617070726f76656400000000000000000000000000000000000000602082015250565b7f4552433732313a207472616e7366657220746f206e6f6e20455243373231526560008201527f63656976657220696d706c656d656e7465720000000000000000000000000000602082015250565b7f4f776e61626c653a206e6577206f776e657220697320746865207a65726f206160008201527f6464726573730000000000000000000000000000000000000000000000000000602082015250565b7f4552433732313a207472616e736665722066726f6d20696e636f72726563742060008201527f6f776e6572000000000000000000000000000000000000000000000000000000602082015250565b7f4552433732313a20746f6b656e20616c7265616479206d696e74656400000000600082015250565b7f4552433732313a207472616e7366657220746f20746865207a65726f2061646460008201527f7265737300000000000000000000000000000000000000000000000000000000602082015250565b7f4552433732313a20617070726f766520746f2063616c6c657200000000000000600082015250565b7f4552433732313a206f70657261746f7220717565727920666f72206e6f6e657860008201527f697374656e7420746f6b656e0000000000000000000000000000000000000000602082015250565b7f4552433732313a2061646472657373207a65726f206973206e6f74206120766160008201527f6c6964206f776e65720000000000000000000000000000000000000000000000602082015250565b7f45524337323155524953746f726167653a2055524920736574206f66206e6f6e60008201527f6578697374656e7420746f6b656e000000000000000000000000000000000000602082015250565b7f4552433732313a206d696e7420746f20746865207a65726f2061646472657373600082015250565b7f4f776e61626c653a2063616c6c6572206973206e6f7420746865206f776e6572600082015250565b7f4552433732313a20696e76616c696420746f6b656e2049440000000000000000600082015250565b7f4552433732313a20617070726f76616c20746f2063757272656e74206f776e6560008201527f7200000000000000000000000000000000000000000000000000000000000000602082015250565b7f4552433732313a20617070726f76652063616c6c6572206973206e6f7420746f60008201527f6b656e206f776e6572206f7220617070726f76656420666f7220616c6c000000602082015250565b61322c81612cb8565b811461323757600080fd5b50565b61324381612cca565b811461324e57600080fd5b50565b61325a81612cd6565b811461326557600080fd5b50565b61327181612d22565b811461327c57600080fd5b5056fea26469706673582212206b9321cfc96f73845fb82aa591878b920457df2822a578cd7c7b0b861ff0b8d764736f6c63430008040033",
  "linkReferences": {},
  "deployedLinkReferences": {}
}