{
  "_format": "hh-sol-artifact-1",
  "contractName": "Creath",
  "sourceName": "contracts/Creath.sol",
  "abi": [
    {
      "inputs": [],
      "stateMutability": "nonpayable",
      "type": "constructor"
    },
    {
      "anonymous": false,
      "inputs": [
        {
          "indexed": true,
          "internalType": "address",
          "name": "owner",
          "type": "address"
        },
        {
          "indexed": true,
          "internalType": "address",
          "name": "approved",
          "type": "address"
        },
        {
          "indexed": true,
          "internalType": "uint256",
          "name": "tokenId",
          "type": "uint256"
        }
      ],
      "name": "Approval",
      "type": "event"
    },
    {
      "anonymous": false,
      "inputs": [
        {
          "indexed": true,
          "internalType": "address",
          "name": "owner",
          "type": "address"
        },
        {
          "indexed": true,
          "internalType": "address",
          "name": "operator",
          "type": "address"
        },
        {
          "indexed": false,
          "internalType": "bool",
          "name": "approved",
          "type": "bool"
        }
      ],
      "name": "ApprovalForAll",
      "type": "event"
    },
    {
      "anonymous": false,
      "inputs": [
        {
          "indexed": false,
          "internalType": "uint256",
          "name": "tokenId",
          "type": "uint256"
        },
        {
          "indexed": false,
          "internalType": "address",
          "name": "beneficiary",
          "type": "address"
        },
        {
          "indexed": false,
          "internalType": "string",
          "name": "tokenUri",
          "type": "string"
        },
        {
          "indexed": false,
          "internalType": "address",
          "name": "minter",
          "type": "address"
        }
      ],
      "name": "Minted",
      "type": "event"
    },
    {
      "anonymous": false,
      "inputs": [
        {
          "indexed": true,
          "internalType": "address",
          "name": "previousOwner",
          "type": "address"
        },
        {
          "indexed": true,
          "internalType": "address",
          "name": "newOwner",
          "type": "address"
        }
      ],
      "name": "OwnershipTransferred",
      "type": "event"
    },
    {
      "anonymous": false,
      "inputs": [
        {
          "indexed": true,
          "internalType": "address",
          "name": "from",
          "type": "address"
        },
        {
          "indexed": true,
          "internalType": "address",
          "name": "to",
          "type": "address"
        },
        {
          "indexed": true,
          "internalType": "uint256",
          "name": "tokenId",
          "type": "uint256"
        }
      ],
      "name": "Transfer",
      "type": "event"
    },
    {
      "inputs": [
        {
          "internalType": "address",
          "name": "to",
          "type": "address"
        },
        {
          "internalType": "uint256",
          "name": "tokenId",
          "type": "uint256"
        }
      ],
      "name": "approve",
      "outputs": [],
      "stateMutability": "nonpayable",
      "type": "function"
    },
    {
      "inputs": [
        {
          "internalType": "address",
          "name": "owner",
          "type": "address"
        }
      ],
      "name": "balanceOf",
      "outputs": [
        {
          "internalType": "uint256",
          "name": "",
          "type": "uint256"
        }
      ],
      "stateMutability": "view",
      "type": "function"
    },
    {
      "inputs": [
        {
          "internalType": "uint256",
          "name": "_tokenId",
          "type": "uint256"
        }
      ],
      "name": "burn",
      "outputs": [],
      "stateMutability": "nonpayable",
      "type": "function"
    },
    {
      "inputs": [
        {
          "internalType": "uint256",
          "name": "_tokenId",
          "type": "uint256"
        }
      ],
      "name": "exists",
      "outputs": [
        {
          "internalType": "bool",
          "name": "",
          "type": "bool"
        }
      ],
      "stateMutability": "view",
      "type": "function"
    },
    {
      "inputs": [
        {
          "internalType": "uint256",
          "name": "tokenId",
          "type": "uint256"
        }
      ],
      "name": "getApproved",
      "outputs": [
        {
          "internalType": "address",
          "name": "",
          "type": "address"
        }
      ],
      "stateMutability": "view",
      "type": "function"
    },
    {
      "inputs": [
        {
          "internalType": "uint256",
          "name": "_tokenId",
          "type": "uint256"
        },
        {
          "internalType": "address",
          "name": "_operator",
          "type": "address"
        }
      ],
      "name": "isApproved",
      "outputs": [
        {
          "internalType": "bool",
          "name": "",
          "type": "bool"
        }
      ],
      "stateMutability": "view",
      "type": "function"
    },
    {
      "inputs": [
        {
          "internalType": "address",
          "name": "owner",
          "type": "address"
        },
        {
          "internalType": "address",
          "name": "operator",
          "type": "address"
        }
      ],
      "name": "isApprovedForAll",
      "outputs": [
        {
          "internalType": "bool",
          "name": "",
          "type": "bool"
        }
      ],
      "stateMutability": "view",
      "type": "function"
    },
    {
      "inputs": [
        {
          "internalType": "address",
          "name": "_beneficiary",
          "type": "address"
        },
        {
          "internalType": "string",
          "name": "_tokenUri",
          "type": "string"
        }
      ],
      "name": "mint",
      "outputs": [
        {
          "internalType": "uint256",
          "name": "",
          "type": "uint256"
        }
      ],
      "stateMutability": "nonpayable",
      "type": "function"
    },
    {
      "inputs": [],
      "name": "name",
      "outputs": [
        {
          "internalType": "string",
          "name": "",
          "type": "string"
        }
      ],
      "stateMutability": "view",
      "type": "function"
    },
    {
      "inputs": [],
      "name": "owner",
      "outputs": [
        {
          "internalType": "address",
          "name": "",
          "type": "address"
        }
      ],
      "stateMutability": "view",
      "type": "function"
    },
    {
      "inputs": [
        {
          "internalType": "uint256",
          "name": "tokenId",
          "type": "uint256"
        }
      ],
      "name": "ownerOf",
      "outputs": [
        {
          "internalType": "address",
          "name": "",
          "type": "address"
        }
      ],
      "stateMutability": "view",
      "type": "function"
    },
    {
      "inputs": [],
      "name": "renounceOwnership",
      "outputs": [],
      "stateMutability": "nonpayable",
      "type": "function"
    },
    {
      "inputs": [
        {
          "internalType": "address",
          "name": "from",
          "type": "address"
        },
        {
          "internalType": "address",
          "name": "to",
          "type": "address"
        },
        {
          "internalType": "uint256",
          "name": "tokenId",
          "type": "uint256"
        }
      ],
      "name": "safeTransferFrom",
      "outputs": [],
      "stateMutability": "nonpayable",
      "type": "function"
    },
    {
      "inputs": [
        {
          "internalType": "address",
          "name": "from",
          "type": "address"
        },
        {
          "internalType": "address",
          "name": "to",
          "type": "address"
        },
        {
          "internalType": "uint256",
          "name": "tokenId",
          "type": "uint256"
        },
        {
          "internalType": "bytes",
          "name": "data",
          "type": "bytes"
        }
      ],
      "name": "safeTransferFrom",
      "outputs": [],
      "stateMutability": "nonpayable",
      "type": "function"
    },
    {
      "inputs": [
        {
          "internalType": "address",
          "name": "operator",
          "type": "address"
        },
        {
          "internalType": "bool",
          "name": "approved",
          "type": "bool"
        }
      ],
      "name": "setApprovalForAll",
      "outputs": [],
      "stateMutability": "nonpayable",
      "type": "function"
    },
    {
      "inputs": [
        {
          "internalType": "bytes4",
          "name": "interfaceId",
          "type": "bytes4"
        }
      ],
      "name": "supportsInterface",
      "outputs": [
        {
          "internalType": "bool",
          "name": "",
          "type": "bool"
        }
      ],
      "stateMutability": "view",
      "type": "function"
    },
    {
      "inputs": [],
      "name": "symbol",
      "outputs": [
        {
          "internalType": "string",
          "name": "",
          "type": "string"
        }
      ],
      "stateMutability": "view",
      "type": "function"
    },
    {
      "inputs": [
        {
          "internalType": "uint256",
          "name": "tokenId",
          "type": "uint256"
        }
      ],
      "name": "tokenURI",
      "outputs": [
        {
          "internalType": "string",
          "name": "",
          "type": "string"
        }
      ],
      "stateMutability": "view",
      "type": "function"
    },
    {
      "inputs": [
        {
          "internalType": "address",
          "name": "from",
          "type": "address"
        },
        {
          "internalType": "address",
          "name": "to",
          "type": "address"
        },
        {
          "internalType": "uint256",
          "name": "tokenId",
          "type": "uint256"
        }
      ],
      "name": "transferFrom",
      "outputs": [],
      "stateMutability": "nonpayable",
      "type": "function"
    },
    {
      "inputs": [
        {
          "internalType": "address",
          "name": "newOwner",
          "type": "address"
        }
      ],
      "name": "transferOwnership",
      "outputs": [],
      "stateMutability": "nonpayable",
      "type": "function"
    }
  ],
  "bytecode": "0x60806040523480156200001157600080fd5b506040518060400160405280601281526020017f437265617468204d61726b6574706c61636500000000000000000000000000008152506040518060400160405280600681526020017f4352454154480000000000000000000000000000000000000000000000000000815250816000908051906020019062000096929190620001d3565b508060019080519060200190620000af929190620001d3565b505050620000d2620000c6620000ef60201b60201c565b620000f760201b60201c565b620000e96008620001bd60201b62000d631760201c565b620002e8565b600033905090565b6000600760009054906101000a900473ffffffffffffffffffffffffffffffffffffffff16905081600760006101000a81548173ffffffffffffffffffffffffffffffffffffffff021916908373ffffffffffffffffffffffffffffffffffffffff1602179055508173ffffffffffffffffffffffffffffffffffffffff168173ffffffffffffffffffffffffffffffffffffffff167f8be0079c531659141344cd1fd0a4f28419497f9722a3daafe3b4186f6b6457e060405160405180910390a35050565b6001816000016000828254019250508190555050565b828054620001e19062000283565b90600052602060002090601f01602090048101928262000205576000855562000251565b82601f106200022057805160ff191683800117855562000251565b8280016001018555821562000251579182015b828111156200025057825182559160200191906001019062000233565b5b50905062000260919062000264565b5090565b5b808211156200027f57600081600090555060010162000265565b5090565b600060028204905060018216806200029c57607f821691505b60208210811415620002b357620002b2620002b9565b5b50919050565b7f4e487b7100000000000000000000000000000000000000000000000000000000600052602260045260246000fd5b61331580620002f86000396000f3fe608060405234801561001057600080fd5b506004361061012c5760003560e01c806370a08231116100ad578063b88d4fde11610071578063b88d4fde14610341578063c87b56dd1461035d578063d0def5211461038d578063e985e9c5146103bd578063f2fde38b146103ed5761012c565b806370a08231146102af578063715018a6146102df5780638da5cb5b146102e957806395d89b4114610307578063a22cb465146103255761012c565b806342842e0e116100f457806342842e0e146101e757806342966c68146102035780634f558e791461021f57806356c316371461024f5780636352211e1461027f5761012c565b806301ffc9a71461013157806306fdde0314610161578063081812fc1461017f578063095ea7b3146101af57806323b872dd146101cb575b600080fd5b61014b6004803603810190610146919061251b565b610409565b604051610158919061298a565b60405180910390f35b6101696104eb565b60405161017691906129a5565b60405180910390f35b6101996004803603810190610194919061256d565b61057d565b6040516101a69190612923565b60405180910390f35b6101c960048036038101906101c491906124df565b6105c3565b005b6101e560048036038101906101e09190612381565b6106db565b005b61020160048036038101906101fc9190612381565b61073b565b005b61021d6004803603810190610218919061256d565b61075b565b005b6102396004803603810190610234919061256d565b61076f565b604051610246919061298a565b60405180910390f35b61026960048036038101906102649190612596565b610781565b604051610276919061298a565b60405180910390f35b6102996004803603810190610294919061256d565b6107db565b6040516102a69190612923565b60405180910390f35b6102c960048036038101906102c4919061231c565b610862565b6040516102d69190612bc7565b60405180910390f35b6102e761091a565b005b6102f161092e565b6040516102fe9190612923565b60405180910390f35b61030f610958565b60405161031c91906129a5565b60405180910390f35b61033f600480360381019061033a919061244b565b6109ea565b005b61035b600480360381019061035691906123d0565b610a00565b005b6103776004803603810190610372919061256d565b610a62565b60405161038491906129a5565b60405180910390f35b6103a760048036038101906103a29190612487565b610b75565b6040516103b49190612bc7565b60405180910390f35b6103d760048036038101906103d29190612345565b610c4b565b6040516103e4919061298a565b60405180910390f35b6104076004803603810190610402919061231c565b610cdf565b005b60007f80ac58cd000000000000000000000000000000000000000000000000000000007bffffffffffffffffffffffffffffffffffffffffffffffffffffffff1916827bffffffffffffffffffffffffffffffffffffffffffffffffffffffff191614806104d457507f5b5e139f000000000000000000000000000000000000000000000000000000007bffffffffffffffffffffffffffffffffffffffffffffffffffffffff1916827bffffffffffffffffffffffffffffffffffffffffffffffffffffffff1916145b806104e457506104e382610d79565b5b9050919050565b6060600080546104fa90612d7f565b80601f016020809104026020016040519081016040528092919081815260200182805461052690612d7f565b80156105735780601f1061054857610100808354040283529160200191610573565b820191906000526020600020905b81548152906001019060200180831161055657829003601f168201915b5050505050905090565b600061058882610de3565b6004600083815260200190815260200160002060009054906101000a900473ffffffffffffffffffffffffffffffffffffffff169050919050565b60006105ce826107db565b90508073ffffffffffffffffffffffffffffffffffffffff168373ffffffffffffffffffffffffffffffffffffffff16141561063f576040517f08c379a000000000000000000000000000000000000000000000000000000000815260040161063690612b47565b60405180910390fd5b8073ffffffffffffffffffffffffffffffffffffffff1661065e610e2e565b73ffffffffffffffffffffffffffffffffffffffff16148061068d575061068c81610687610e2e565b610c4b565b5b6106cc576040517f08c379a00000000000000000000000000000000000000000000000000000000081526004016106c390612b67565b60405180910390fd5b6106d68383610e36565b505050565b6106ec6106e6610e2e565b82610eef565b61072b576040517f08c379a0000000000000000000000000000000000000000000000000000000008152600401610722906129c7565b60405180910390fd5b610736838383610f84565b505050565b61075683838360405180602001604052806000815250610a00565b505050565b61076361127e565b61076c816112fc565b50565b600061077a8261134f565b9050919050565b600061079561078f846107db565b83610c4b565b806107d357508173ffffffffffffffffffffffffffffffffffffffff166107bb8461057d565b73ffffffffffffffffffffffffffffffffffffffff16145b905092915050565b6000806107e783611390565b9050600073ffffffffffffffffffffffffffffffffffffffff168173ffffffffffffffffffffffffffffffffffffffff161415610859576040517f08c379a000000000000000000000000000000000000000000000000000000000815260040161085090612b27565b60405180910390fd5b80915050919050565b60008073ffffffffffffffffffffffffffffffffffffffff168273ffffffffffffffffffffffffffffffffffffffff1614156108d3576040517f08c379a00000000000000000000000000000000000000000000000000000000081526004016108ca90612aa7565b60405180910390fd5b600360008373ffffffffffffffffffffffffffffffffffffffff1673ffffffffffffffffffffffffffffffffffffffff168152602001908152602001600020549050919050565b61092261127e565b61092c60006113cd565b565b6000600760009054906101000a900473ffffffffffffffffffffffffffffffffffffffff16905090565b60606001805461096790612d7f565b80601f016020809104026020016040519081016040528092919081815260200182805461099390612d7f565b80156109e05780601f106109b5576101008083540402835291602001916109e0565b820191906000526020600020905b8154815290600101906020018083116109c357829003601f168201915b5050505050905090565b6109fc6109f5610e2e565b8383611493565b5050565b610a11610a0b610e2e565b83610eef565b610a50576040517f08c379a0000000000000000000000000000000000000000000000000000000008152600401610a47906129c7565b60405180910390fd5b610a5c84848484611600565b50505050565b6060610a6d82610de3565b6000600660008481526020019081526020016000208054610a8d90612d7f565b80601f0160208091040260200160405190810160405280929190818152602001828054610ab990612d7f565b8015610b065780601f10610adb57610100808354040283529160200191610b06565b820191906000526020600020905b815481529060010190602001808311610ae957829003601f168201915b505050505090506000610b1761165c565b9050600081511415610b2d578192505050610b70565b600082511115610b62578082604051602001610b4a9291906128ff565b60405160208183030381529060405292505050610b70565b610b6b84611673565b925050505b919050565b6000610b7f61127e565b610b8a8383866116db565b6000610b966008611796565b9050610ba285826117a4565b610bf08185858080601f016020809104026020016040519081016040528093929190818152602001838380828437600081840152601f19601f820116905080830192505050505050506117c2565b610bfa6008610d63565b7f997115af5924f5e38964c6d65c804d4cb85129b65e62eb20a8ca6329dbe57e1881868686610c27610e2e565b604051610c38959493929190612be2565b60405180910390a1809150509392505050565b6000600560008473ffffffffffffffffffffffffffffffffffffffff1673ffffffffffffffffffffffffffffffffffffffff16815260200190815260200160002060008373ffffffffffffffffffffffffffffffffffffffff1673ffffffffffffffffffffffffffffffffffffffff16815260200190815260200160002060009054906101000a900460ff16905092915050565b610ce761127e565b600073ffffffffffffffffffffffffffffffffffffffff168173ffffffffffffffffffffffffffffffffffffffff161415610d57576040517f08c379a0000000000000000000000000000000000000000000000000000000008152600401610d4e90612a07565b60405180910390fd5b610d60816113cd565b50565b6001816000016000828254019250508190555050565b60007f01ffc9a7000000000000000000000000000000000000000000000000000000007bffffffffffffffffffffffffffffffffffffffffffffffffffffffff1916827bffffffffffffffffffffffffffffffffffffffffffffffffffffffff1916149050919050565b610dec8161134f565b610e2b576040517f08c379a0000000000000000000000000000000000000000000000000000000008152600401610e2290612b27565b60405180910390fd5b50565b600033905090565b816004600083815260200190815260200160002060006101000a81548173ffffffffffffffffffffffffffffffffffffffff021916908373ffffffffffffffffffffffffffffffffffffffff160217905550808273ffffffffffffffffffffffffffffffffffffffff16610ea9836107db565b73ffffffffffffffffffffffffffffffffffffffff167f8c5be1e5ebec7d5bd14f71427d1e84f3dd0314c0f7b2291e5b200ac8c7c3b92560405160405180910390a45050565b600080610efb836107db565b90508073ffffffffffffffffffffffffffffffffffffffff168473ffffffffffffffffffffffffffffffffffffffff161480610f3d5750610f3c8185610c4b565b5b80610f7b57508373ffffffffffffffffffffffffffffffffffffffff16610f638461057d565b73ffffffffffffffffffffffffffffffffffffffff16145b91505092915050565b8273ffffffffffffffffffffffffffffffffffffffff16610fa4826107db565b73ffffffffffffffffffffffffffffffffffffffff1614610ffa576040517f08c379a0000000000000000000000000000000000000000000000000000000008152600401610ff190612a27565b60405180910390fd5b600073ffffffffffffffffffffffffffffffffffffffff168273ffffffffffffffffffffffffffffffffffffffff16141561106a576040517f08c379a000000000000000000000000000000000000000000000000000000000815260040161106190612a67565b60405180910390fd5b6110778383836001611836565b8273ffffffffffffffffffffffffffffffffffffffff16611097826107db565b73ffffffffffffffffffffffffffffffffffffffff16146110ed576040517f08c379a00000000000000000000000000000000000000000000000000000000081526004016110e490612a27565b60405180910390fd5b6004600082815260200190815260200160002060006101000a81549073ffffffffffffffffffffffffffffffffffffffff02191690556001600360008573ffffffffffffffffffffffffffffffffffffffff1673ffffffffffffffffffffffffffffffffffffffff168152602001908152602001600020600082825403925050819055506001600360008473ffffffffffffffffffffffffffffffffffffffff1673ffffffffffffffffffffffffffffffffffffffff16815260200190815260200160002060008282540192505081905550816002600083815260200190815260200160002060006101000a81548173ffffffffffffffffffffffffffffffffffffffff021916908373ffffffffffffffffffffffffffffffffffffffff160217905550808273ffffffffffffffffffffffffffffffffffffffff168473ffffffffffffffffffffffffffffffffffffffff167fddf252ad1be2c89b69c2b068fc378daa952ba7f163c4a11628f55a4df523b3ef60405160405180910390a4611279838383600161183c565b505050565b611286610e2e565b73ffffffffffffffffffffffffffffffffffffffff166112a461092e565b73ffffffffffffffffffffffffffffffffffffffff16146112fa576040517f08c379a00000000000000000000000000000000000000000000000000000000081526004016112f190612b07565b60405180910390fd5b565b61130581611842565b600060066000838152602001908152602001600020805461132590612d7f565b90501461134c5760066000828152602001908152602001600020600061134b919061211e565b5b50565b60008073ffffffffffffffffffffffffffffffffffffffff1661137183611390565b73ffffffffffffffffffffffffffffffffffffffff1614159050919050565b60006002600083815260200190815260200160002060009054906101000a900473ffffffffffffffffffffffffffffffffffffffff169050919050565b6000600760009054906101000a900473ffffffffffffffffffffffffffffffffffffffff16905081600760006101000a81548173ffffffffffffffffffffffffffffffffffffffff021916908373ffffffffffffffffffffffffffffffffffffffff1602179055508173ffffffffffffffffffffffffffffffffffffffff168173ffffffffffffffffffffffffffffffffffffffff167f8be0079c531659141344cd1fd0a4f28419497f9722a3daafe3b4186f6b6457e060405160405180910390a35050565b8173ffffffffffffffffffffffffffffffffffffffff168373ffffffffffffffffffffffffffffffffffffffff161415611502576040517f08c379a00000000000000000000000000000000000000000000000000000000081526004016114f990612a87565b60405180910390fd5b80600560008573ffffffffffffffffffffffffffffffffffffffff1673ffffffffffffffffffffffffffffffffffffffff16815260200190815260200160002060008473ffffffffffffffffffffffffffffffffffffffff1673ffffffffffffffffffffffffffffffffffffffff16815260200190815260200160002060006101000a81548160ff0219169083151502179055508173ffffffffffffffffffffffffffffffffffffffff168373ffffffffffffffffffffffffffffffffffffffff167f17307eab39ab6107e8899845ad3d59bd9653f200f220920489ca2b5937696c31836040516115f3919061298a565b60405180910390a3505050565b61160b848484610f84565b61161784848484611990565b611656576040517f08c379a000000000000000000000000000000000000000000000000000000000815260040161164d906129e7565b60405180910390fd5b50505050565b606060405180602001604052806000815250905090565b606061167e82610de3565b600061168861165c565b905060008151116116a857604051806020016040528060008152506116d3565b806116b284611b27565b6040516020016116c39291906128ff565b6040516020818303038152906040525b915050919050565b60008383905011611721576040517f08c379a000000000000000000000000000000000000000000000000000000000815260040161171890612b87565b60405180910390fd5b600073ffffffffffffffffffffffffffffffffffffffff168173ffffffffffffffffffffffffffffffffffffffff161415611791576040517f08c379a000000000000000000000000000000000000000000000000000000000815260040161178890612ba7565b60405180910390fd5b505050565b600081600001549050919050565b6117be828260405180602001604052806000815250611c4b565b5050565b6117cb8261134f565b61180a576040517f08c379a000000000000000000000000000000000000000000000000000000000815260040161180190612ac7565b60405180910390fd5b8060066000848152602001908152602001600020908051906020019061183192919061215e565b505050565b50505050565b50505050565b600061184d826107db565b905061185d816000846001611836565b611866826107db565b90506004600083815260200190815260200160002060006101000a81549073ffffffffffffffffffffffffffffffffffffffff02191690556001600360008373ffffffffffffffffffffffffffffffffffffffff1673ffffffffffffffffffffffffffffffffffffffff168152602001908152602001600020600082825403925050819055506002600083815260200190815260200160002060006101000a81549073ffffffffffffffffffffffffffffffffffffffff021916905581600073ffffffffffffffffffffffffffffffffffffffff168273ffffffffffffffffffffffffffffffffffffffff167fddf252ad1be2c89b69c2b068fc378daa952ba7f163c4a11628f55a4df523b3ef60405160405180910390a461198c81600084600161183c565b5050565b60006119b18473ffffffffffffffffffffffffffffffffffffffff16611ca6565b15611b1a578373ffffffffffffffffffffffffffffffffffffffff1663150b7a026119da610e2e565b8786866040518563ffffffff1660e01b81526004016119fc949392919061293e565b602060405180830381600087803b158015611a1657600080fd5b505af1925050508015611a4757506040513d601f19601f82011682018060405250810190611a449190612544565b60015b611aca573d8060008114611a77576040519150601f19603f3d011682016040523d82523d6000602084013e611a7c565b606091505b50600081511415611ac2576040517f08c379a0000000000000000000000000000000000000000000000000000000008152600401611ab9906129e7565b60405180910390fd5b805181602001fd5b63150b7a0260e01b7bffffffffffffffffffffffffffffffffffffffffffffffffffffffff1916817bffffffffffffffffffffffffffffffffffffffffffffffffffffffff191614915050611b1f565b600190505b949350505050565b606060006001611b3684611cc9565b01905060008167ffffffffffffffff811115611b7b577f4e487b7100000000000000000000000000000000000000000000000000000000600052604160045260246000fd5b6040519080825280601f01601f191660200182016040528015611bad5781602001600182028036833780820191505090505b509050600082602001820190505b600115611c40578080600190039150507f3031323334353637383961626364656600000000000000000000000000000000600a86061a8153600a8581611c2a577f4e487b7100000000000000000000000000000000000000000000000000000000600052601260045260246000fd5b0494506000851415611c3b57611c40565b611bbb565b819350505050919050565b611c558383611f00565b611c626000848484611990565b611ca1576040517f08c379a0000000000000000000000000000000000000000000000000000000008152600401611c98906129e7565b60405180910390fd5b505050565b6000808273ffffffffffffffffffffffffffffffffffffffff163b119050919050565b600080600090507a184f03e93ff9f4daa797ed6e38ed64bf6a1f0100000000000000008310611d4d577a184f03e93ff9f4daa797ed6e38ed64bf6a1f0100000000000000008381611d43577f4e487b7100000000000000000000000000000000000000000000000000000000600052601260045260246000fd5b0492506040810190505b6d04ee2d6d415b85acef81000000008310611db0576d04ee2d6d415b85acef81000000008381611da6577f4e487b7100000000000000000000000000000000000000000000000000000000600052601260045260246000fd5b0492506020810190505b662386f26fc100008310611e0557662386f26fc100008381611dfb577f4e487b7100000000000000000000000000000000000000000000000000000000600052601260045260246000fd5b0492506010810190505b6305f5e1008310611e54576305f5e1008381611e4a577f4e487b7100000000000000000000000000000000000000000000000000000000600052601260045260246000fd5b0492506008810190505b6127108310611e9f576127108381611e95577f4e487b7100000000000000000000000000000000000000000000000000000000600052601260045260246000fd5b0492506004810190505b60648310611ee85760648381611ede577f4e487b7100000000000000000000000000000000000000000000000000000000600052601260045260246000fd5b0492506002810190505b600a8310611ef7576001810190505b80915050919050565b600073ffffffffffffffffffffffffffffffffffffffff168273ffffffffffffffffffffffffffffffffffffffff161415611f70576040517f08c379a0000000000000000000000000000000000000000000000000000000008152600401611f6790612ae7565b60405180910390fd5b611f798161134f565b15611fb9576040517f08c379a0000000000000000000000000000000000000000000000000000000008152600401611fb090612a47565b60405180910390fd5b611fc7600083836001611836565b611fd08161134f565b15612010576040517f08c379a000000000000000000000000000000000000000000000000000000000815260040161200790612a47565b60405180910390fd5b6001600360008473ffffffffffffffffffffffffffffffffffffffff1673ffffffffffffffffffffffffffffffffffffffff16815260200190815260200160002060008282540192505081905550816002600083815260200190815260200160002060006101000a81548173ffffffffffffffffffffffffffffffffffffffff021916908373ffffffffffffffffffffffffffffffffffffffff160217905550808273ffffffffffffffffffffffffffffffffffffffff16600073ffffffffffffffffffffffffffffffffffffffff167fddf252ad1be2c89b69c2b068fc378daa952ba7f163c4a11628f55a4df523b3ef60405160405180910390a461211a60008383600161183c565b5050565b50805461212a90612d7f565b6000825580601f1061213c575061215b565b601f01602090049060005260206000209081019061215a91906121e4565b5b50565b82805461216a90612d7f565b90600052602060002090601f01602090048101928261218c57600085556121d3565b82601f106121a557805160ff19168380011785556121d3565b828001600101855582156121d3579182015b828111156121d25782518255916020019190600101906121b7565b5b5090506121e091906121e4565b5090565b5b808211156121fd5760008160009055506001016121e5565b5090565b600061221461220f84612c55565b612c30565b90508281526020810184848401111561222c57600080fd5b612237848285612d3d565b509392505050565b60008135905061224e81613283565b92915050565b6000813590506122638161329a565b92915050565b600081359050612278816132b1565b92915050565b60008151905061228d816132b1565b92915050565b600082601f8301126122a457600080fd5b81356122b4848260208601612201565b91505092915050565b60008083601f8401126122cf57600080fd5b8235905067ffffffffffffffff8111156122e857600080fd5b60208301915083600182028301111561230057600080fd5b9250929050565b600081359050612316816132c8565b92915050565b60006020828403121561232e57600080fd5b600061233c8482850161223f565b91505092915050565b6000806040838503121561235857600080fd5b60006123668582860161223f565b92505060206123778582860161223f565b9150509250929050565b60008060006060848603121561239657600080fd5b60006123a48682870161223f565b93505060206123b58682870161223f565b92505060406123c686828701612307565b9150509250925092565b600080600080608085870312156123e657600080fd5b60006123f48782880161223f565b94505060206124058782880161223f565b935050604061241687828801612307565b925050606085013567ffffffffffffffff81111561243357600080fd5b61243f87828801612293565b91505092959194509250565b6000806040838503121561245e57600080fd5b600061246c8582860161223f565b925050602061247d85828601612254565b9150509250929050565b60008060006040848603121561249c57600080fd5b60006124aa8682870161223f565b935050602084013567ffffffffffffffff8111156124c757600080fd5b6124d3868287016122bd565b92509250509250925092565b600080604083850312156124f257600080fd5b60006125008582860161223f565b925050602061251185828601612307565b9150509250929050565b60006020828403121561252d57600080fd5b600061253b84828501612269565b91505092915050565b60006020828403121561255657600080fd5b60006125648482850161227e565b91505092915050565b60006020828403121561257f57600080fd5b600061258d84828501612307565b91505092915050565b600080604083850312156125a957600080fd5b60006125b785828601612307565b92505060206125c88582860161223f565b9150509250929050565b6125db81612cc9565b82525050565b6125ea81612cdb565b82525050565b60006125fb82612c86565b6126058185612c9c565b9350612615818560208601612d4c565b61261e81612e40565b840191505092915050565b60006126358385612cad565b9350612642838584612d3d565b61264b83612e40565b840190509392505050565b600061266182612c91565b61266b8185612cad565b935061267b818560208601612d4c565b61268481612e40565b840191505092915050565b600061269a82612c91565b6126a48185612cbe565b93506126b4818560208601612d4c565b80840191505092915050565b60006126cd602d83612cad565b91506126d882612e51565b604082019050919050565b60006126f0603283612cad565b91506126fb82612ea0565b604082019050919050565b6000612713602683612cad565b915061271e82612eef565b604082019050919050565b6000612736602583612cad565b915061274182612f3e565b604082019050919050565b6000612759601c83612cad565b915061276482612f8d565b602082019050919050565b600061277c602483612cad565b915061278782612fb6565b604082019050919050565b600061279f601983612cad565b91506127aa82613005565b602082019050919050565b60006127c2602983612cad565b91506127cd8261302e565b604082019050919050565b60006127e5602e83612cad565b91506127f08261307d565b604082019050919050565b6000612808602083612cad565b9150612813826130cc565b602082019050919050565b600061282b602083612cad565b9150612836826130f5565b602082019050919050565b600061284e601883612cad565b91506128598261311e565b602082019050919050565b6000612871602183612cad565b915061287c82613147565b604082019050919050565b6000612894603d83612cad565b915061289f82613196565b604082019050919050565b60006128b7602d83612cad565b91506128c2826131e5565b604082019050919050565b60006128da603383612cad565b91506128e582613234565b604082019050919050565b6128f981612d33565b82525050565b600061290b828561268f565b9150612917828461268f565b91508190509392505050565b600060208201905061293860008301846125d2565b92915050565b600060808201905061295360008301876125d2565b61296060208301866125d2565b61296d60408301856128f0565b818103606083015261297f81846125f0565b905095945050505050565b600060208201905061299f60008301846125e1565b92915050565b600060208201905081810360008301526129bf8184612656565b905092915050565b600060208201905081810360008301526129e0816126c0565b9050919050565b60006020820190508181036000830152612a00816126e3565b9050919050565b60006020820190508181036000830152612a2081612706565b9050919050565b60006020820190508181036000830152612a4081612729565b9050919050565b60006020820190508181036000830152612a608161274c565b9050919050565b60006020820190508181036000830152612a808161276f565b9050919050565b60006020820190508181036000830152612aa081612792565b9050919050565b60006020820190508181036000830152612ac0816127b5565b9050919050565b60006020820190508181036000830152612ae0816127d8565b9050919050565b60006020820190508181036000830152612b00816127fb565b9050919050565b60006020820190508181036000830152612b208161281e565b9050919050565b60006020820190508181036000830152612b4081612841565b9050919050565b60006020820190508181036000830152612b6081612864565b9050919050565b60006020820190508181036000830152612b8081612887565b9050919050565b60006020820190508181036000830152612ba0816128aa565b9050919050565b60006020820190508181036000830152612bc0816128cd565b9050919050565b6000602082019050612bdc60008301846128f0565b92915050565b6000608082019050612bf760008301886128f0565b612c0460208301876125d2565b8181036040830152612c17818587612629565b9050612c2660608301846125d2565b9695505050505050565b6000612c3a612c4b565b9050612c468282612db1565b919050565b6000604051905090565b600067ffffffffffffffff821115612c7057612c6f612e11565b5b612c7982612e40565b9050602081019050919050565b600081519050919050565b600081519050919050565b600082825260208201905092915050565b600082825260208201905092915050565b600081905092915050565b6000612cd482612d13565b9050919050565b60008115159050919050565b60007fffffffff0000000000000000000000000000000000000000000000000000000082169050919050565b600073ffffffffffffffffffffffffffffffffffffffff82169050919050565b6000819050919050565b82818337600083830152505050565b60005b83811015612d6a578082015181840152602081019050612d4f565b83811115612d79576000848401525b50505050565b60006002820490506001821680612d9757607f821691505b60208210811415612dab57612daa612de2565b5b50919050565b612dba82612e40565b810181811067ffffffffffffffff82111715612dd957612dd8612e11565b5b80604052505050565b7f4e487b7100000000000000000000000000000000000000000000000000000000600052602260045260246000fd5b7f4e487b7100000000000000000000000000000000000000000000000000000000600052604160045260246000fd5b6000601f19601f8301169050919050565b7f4552433732313a2063616c6c6572206973206e6f7420746f6b656e206f776e6560008201527f72206f7220617070726f76656400000000000000000000000000000000000000602082015250565b7f4552433732313a207472616e7366657220746f206e6f6e20455243373231526560008201527f63656976657220696d706c656d656e7465720000000000000000000000000000602082015250565b7f4f776e61626c653a206e6577206f776e657220697320746865207a65726f206160008201527f6464726573730000000000000000000000000000000000000000000000000000602082015250565b7f4552433732313a207472616e736665722066726f6d20696e636f72726563742060008201527f6f776e6572000000000000000000000000000000000000000000000000000000602082015250565b7f4552433732313a20746f6b656e20616c7265616479206d696e74656400000000600082015250565b7f4552433732313a207472616e7366657220746f20746865207a65726f2061646460008201527f7265737300000000000000000000000000000000000000000000000000000000602082015250565b7f4552433732313a20617070726f766520746f2063616c6c657200000000000000600082015250565b7f4552433732313a2061646472657373207a65726f206973206e6f74206120766160008201527f6c6964206f776e65720000000000000000000000000000000000000000000000602082015250565b7f45524337323155524953746f726167653a2055524920736574206f66206e6f6e60008201527f6578697374656e7420746f6b656e000000000000000000000000000000000000602082015250565b7f4552433732313a206d696e7420746f20746865207a65726f2061646472657373600082015250565b7f4f776e61626c653a2063616c6c6572206973206e6f7420746865206f776e6572600082015250565b7f4552433732313a20696e76616c696420746f6b656e2049440000000000000000600082015250565b7f4552433732313a20617070726f76616c20746f2063757272656e74206f776e6560008201527f7200000000000000000000000000000000000000000000000000000000000000602082015250565b7f4552433732313a20617070726f76652063616c6c6572206973206e6f7420746f60008201527f6b656e206f776e6572206f7220617070726f76656420666f7220616c6c000000602082015250565b7f5f6173736572744d696e74696e67506172616d7356616c69643a20546f6b656e60008201527f2055524920697320656d70747900000000000000000000000000000000000000602082015250565b7f5f6173736572744d696e74696e67506172616d7356616c69643a20446573696760008201527f6e6572206973207a65726f206164647265737300000000000000000000000000602082015250565b61328c81612cc9565b811461329757600080fd5b50565b6132a381612cdb565b81146132ae57600080fd5b50565b6132ba81612ce7565b81146132c557600080fd5b50565b6132d181612d33565b81146132dc57600080fd5b5056fea2646970667358221220f6e67f3acc1ea240febd23cec6966e59375f90e8c9ef2c6c0ba64dff6057327e64736f6c63430008040033",
  "linkReferences": {},
  "deployedLinkReferences": {}
}