{
  "_format": "hh-sol-artifact-1",
  "contractName": "CreathArtFactory",
  "sourceName": "contracts/CreathArtFactory.sol",
  "abi": [
    {
      "inputs": [
        {
          "internalType": "address",
          "name": "_marketplace",
          "type": "address"
        },
        {
          "internalType": "address",
          "name": "_auction",
          "type": "address"
        }
      ],
      "stateMutability": "nonpayable",
      "type": "constructor"
    },
    {
      "anonymous": false,
      "inputs": [
        {
          "indexed": false,
          "internalType": "address",
          "name": "creator",
          "type": "address"
        },
        {
          "indexed": false,
          "internalType": "address",
          "name": "nft",
          "type": "address"
        }
      ],
      "name": "ContractCreated",
      "type": "event"
    },
    {
      "anonymous": false,
      "inputs": [
        {
          "indexed": false,
          "internalType": "address",
          "name": "caller",
          "type": "address"
        },
        {
          "indexed": false,
          "internalType": "address",
          "name": "nft",
          "type": "address"
        }
      ],
      "name": "ContractDisabled",
      "type": "event"
    },
    {
      "anonymous": false,
      "inputs": [
        {
          "indexed": true,
          "internalType": "address",
          "name": "previousOwner",
          "type": "address"
        },
        {
          "indexed": true,
          "internalType": "address",
          "name": "newOwner",
          "type": "address"
        }
      ],
      "name": "OwnershipTransferred",
      "type": "event"
    },
    {
      "inputs": [],
      "name": "auction",
      "outputs": [
        {
          "internalType": "address",
          "name": "",
          "type": "address"
        }
      ],
      "stateMutability": "view",
      "type": "function"
    },
    {
      "inputs": [
        {
          "internalType": "string",
          "name": "_name",
          "type": "string"
        },
        {
          "internalType": "string",
          "name": "_symbol",
          "type": "string"
        }
      ],
      "name": "createNFTContract",
      "outputs": [
        {
          "internalType": "address",
          "name": "",
          "type": "address"
        }
      ],
      "stateMutability": "nonpayable",
      "type": "function"
    },
    {
      "inputs": [
        {
          "internalType": "address",
          "name": "tokenContractAddress",
          "type": "address"
        }
      ],
      "name": "disableTokenContract",
      "outputs": [],
      "stateMutability": "nonpayable",
      "type": "function"
    },
    {
      "inputs": [
        {
          "internalType": "address",
          "name": "",
          "type": "address"
        }
      ],
      "name": "exists",
      "outputs": [
        {
          "internalType": "bool",
          "name": "",
          "type": "bool"
        }
      ],
      "stateMutability": "view",
      "type": "function"
    },
    {
      "inputs": [],
      "name": "marketplace",
      "outputs": [
        {
          "internalType": "address",
          "name": "",
          "type": "address"
        }
      ],
      "stateMutability": "view",
      "type": "function"
    },
    {
      "inputs": [],
      "name": "owner",
      "outputs": [
        {
          "internalType": "address",
          "name": "",
          "type": "address"
        }
      ],
      "stateMutability": "view",
      "type": "function"
    },
    {
      "inputs": [
        {
          "internalType": "address",
          "name": "tokenContractAddress",
          "type": "address"
        }
      ],
      "name": "registerTokenContract",
      "outputs": [],
      "stateMutability": "nonpayable",
      "type": "function"
    },
    {
      "inputs": [],
      "name": "renounceOwnership",
      "outputs": [],
      "stateMutability": "nonpayable",
      "type": "function"
    },
    {
      "inputs": [
        {
          "internalType": "address",
          "name": "newOwner",
          "type": "address"
        }
      ],
      "name": "transferOwnership",
      "outputs": [],
      "stateMutability": "nonpayable",
      "type": "function"
    },
    {
      "inputs": [
        {
          "internalType": "address",
          "name": "_auction",
          "type": "address"
        }
      ],
      "name": "updateAuction",
      "outputs": [],
      "stateMutability": "nonpayable",
      "type": "function"
    },
    {
      "inputs": [
        {
          "internalType": "address",
          "name": "_marketplace",
          "type": "address"
        }
      ],
      "name": "updateMarketplace",
      "outputs": [],
      "stateMutability": "nonpayable",
      "type": "function"
    }
  ],
  "bytecode": "0x60806040523480156200001157600080fd5b5060405162004c8e38038062004c8e8339818101604052810190620000379190620001c4565b620000576200004b620000e160201b60201c565b620000e960201b60201c565b81600160006101000a81548173ffffffffffffffffffffffffffffffffffffffff021916908373ffffffffffffffffffffffffffffffffffffffff16021790555080600260006101000a81548173ffffffffffffffffffffffffffffffffffffffff021916908373ffffffffffffffffffffffffffffffffffffffff160217905550505062000253565b600033905090565b60008060009054906101000a900473ffffffffffffffffffffffffffffffffffffffff169050816000806101000a81548173ffffffffffffffffffffffffffffffffffffffff021916908373ffffffffffffffffffffffffffffffffffffffff1602179055508173ffffffffffffffffffffffffffffffffffffffff168173ffffffffffffffffffffffffffffffffffffffff167f8be0079c531659141344cd1fd0a4f28419497f9722a3daafe3b4186f6b6457e060405160405180910390a35050565b600081519050620001be8162000239565b92915050565b60008060408385031215620001d857600080fd5b6000620001e885828601620001ad565b9250506020620001fb85828601620001ad565b9150509250929050565b6000620002128262000219565b9050919050565b600073ffffffffffffffffffffffffffffffffffffffff82169050919050565b620002448162000205565b81146200025057600080fd5b50565b614a2b80620002636000396000f3fe60806040523480156200001157600080fd5b5060043610620000b85760003560e01c8063abc8c7af116200007b578063abc8c7af1462000163578063d39bb16a1462000185578063eb63631714620001a5578063f2fde38b14620001c5578063f6a3d24e14620001e5578063f7b0770b146200021b57620000b8565b806314d76ffc14620000bd5780633402a03614620000f3578063715018a614620001135780637d9f6db5146200011f5780638da5cb5b1462000141575b600080fd5b620000db6004803603810190620000d5919062000b79565b6200023b565b604051620000ea919062000d23565b60405180910390f35b6200011160048036038101906200010b919062000b21565b62000405565b005b6200011d62000453565b005b620001296200046b565b60405162000138919062000d23565b60405180910390f35b6200014b62000491565b6040516200015a919062000d23565b60405180910390f35b6200016d620004ba565b6040516200017c919062000d23565b60405180910390f35b620001a360048036038101906200019d919062000b21565b620004e0565b005b620001c36004803603810190620001bd919062000b21565b62000618565b005b620001e36004803603810190620001dd919062000b21565b62000666565b005b620002036004803603810190620001fd919062000b21565b620006f1565b60405162000212919062000d6d565b60405180910390f35b62000239600480360381019062000233919062000b21565b62000711565b005b60006200024762000922565b60008383600160009054906101000a900473ffffffffffffffffffffffffffffffffffffffff16600260009054906101000a900473ffffffffffffffffffffffffffffffffffffffff166040516200029f9062000a73565b620002ae949392919062000da7565b604051809103906000f080158015620002cb573d6000803e3d6000fd5b5090506001600360008373ffffffffffffffffffffffffffffffffffffffff1673ffffffffffffffffffffffffffffffffffffffff16815260200190815260200160002060006101000a81548160ff0219169083151502179055508073ffffffffffffffffffffffffffffffffffffffff1663f2fde38b600160009054906101000a900473ffffffffffffffffffffffffffffffffffffffff166040518263ffffffff1660e01b815260040162000383919062000d23565b600060405180830381600087803b1580156200039e57600080fd5b505af1158015620003b3573d6000803e3d6000fd5b505050507f2d49c67975aadd2d389580b368cfff5b49965b0bd5da33c144922ce01e7a4d7b620003e2620009a7565b82604051620003f392919062000d40565b60405180910390a18091505092915050565b6200040f62000922565b80600260006101000a81548173ffffffffffffffffffffffffffffffffffffffff021916908373ffffffffffffffffffffffffffffffffffffffff16021790555050565b6200045d62000922565b620004696000620009af565b565b600260009054906101000a900473ffffffffffffffffffffffffffffffffffffffff1681565b60008060009054906101000a900473ffffffffffffffffffffffffffffffffffffffff16905090565b600160009054906101000a900473ffffffffffffffffffffffffffffffffffffffff1681565b620004ea62000922565b600360008273ffffffffffffffffffffffffffffffffffffffff1673ffffffffffffffffffffffffffffffffffffffff16815260200190815260200160002060009054906101000a900460ff1662000579576040517f08c379a0000000000000000000000000000000000000000000000000000000008152600401620005709062000e8a565b60405180910390fd5b6000600360008373ffffffffffffffffffffffffffffffffffffffff1673ffffffffffffffffffffffffffffffffffffffff16815260200190815260200160002060006101000a81548160ff0219169083151502179055507f0d60ee093b891105dfb73abfbe0421cc1a07500f5c1776ec7d189e6c7f6d6340620005fc620009a7565b826040516200060d92919062000d40565b60405180910390a150565b6200062262000922565b80600160006101000a81548173ffffffffffffffffffffffffffffffffffffffff021916908373ffffffffffffffffffffffffffffffffffffffff16021790555050565b6200067062000922565b600073ffffffffffffffffffffffffffffffffffffffff168173ffffffffffffffffffffffffffffffffffffffff161415620006e3576040517f08c379a0000000000000000000000000000000000000000000000000000000008152600401620006da9062000e02565b60405180910390fd5b620006ee81620009af565b50565b60036020528060005260406000206000915054906101000a900460ff1681565b6200071b62000922565b600360008273ffffffffffffffffffffffffffffffffffffffff1673ffffffffffffffffffffffffffffffffffffffff16815260200190815260200160002060009054906101000a900460ff1615620007ab576040517f08c379a0000000000000000000000000000000000000000000000000000000008152600401620007a29062000e24565b60405180910390fd5b8073ffffffffffffffffffffffffffffffffffffffff166301ffc9a76380ac58cd60e01b6040518263ffffffff1660e01b8152600401620007ed919062000d8a565b60206040518083038186803b1580156200080657600080fd5b505afa1580156200081b573d6000803e3d6000fd5b505050506040513d601f19601f8201168201806040525081019062000841919062000b4d565b62000883576040517f08c379a00000000000000000000000000000000000000000000000000000000081526004016200087a9062000e68565b60405180910390fd5b6001600360008373ffffffffffffffffffffffffffffffffffffffff1673ffffffffffffffffffffffffffffffffffffffff16815260200190815260200160002060006101000a81548160ff0219169083151502179055507f2d49c67975aadd2d389580b368cfff5b49965b0bd5da33c144922ce01e7a4d7b62000906620009a7565b826040516200091792919062000d40565b60405180910390a150565b6200092c620009a7565b73ffffffffffffffffffffffffffffffffffffffff166200094c62000491565b73ffffffffffffffffffffffffffffffffffffffff1614620009a5576040517f08c379a00000000000000000000000000000000000000000000000000000000081526004016200099c9062000e46565b60405180910390fd5b565b600033905090565b60008060009054906101000a900473ffffffffffffffffffffffffffffffffffffffff169050816000806101000a81548173ffffffffffffffffffffffffffffffffffffffff021916908373ffffffffffffffffffffffffffffffffffffffff1602179055508173ffffffffffffffffffffffffffffffffffffffff168173ffffffffffffffffffffffffffffffffffffffff167f8be0079c531659141344cd1fd0a4f28419497f9722a3daafe3b4186f6b6457e060405160405180910390a35050565b613880806200117683390190565b600062000a9862000a928462000ed5565b62000eac565b90508281526020810184848401111562000ab157600080fd5b62000abe84828562000f93565b509392505050565b60008135905062000ad78162001141565b92915050565b60008151905062000aee816200115b565b92915050565b600082601f83011262000b0657600080fd5b813562000b1884826020860162000a81565b91505092915050565b60006020828403121562000b3457600080fd5b600062000b448482850162000ac6565b91505092915050565b60006020828403121562000b6057600080fd5b600062000b708482850162000add565b91505092915050565b6000806040838503121562000b8d57600080fd5b600083013567ffffffffffffffff81111562000ba857600080fd5b62000bb68582860162000af4565b925050602083013567ffffffffffffffff81111562000bd457600080fd5b62000be28582860162000af4565b9150509250929050565b62000bf78162000f27565b82525050565b62000c088162000f3b565b82525050565b62000c198162000f47565b82525050565b600062000c2c8262000f0b565b62000c38818562000f16565b935062000c4a81856020860162000fa2565b62000c55816200103d565b840191505092915050565b600062000c6f60268362000f16565b915062000c7c826200104e565b604082019050919050565b600062000c96601f8362000f16565b915062000ca3826200109d565b602082019050919050565b600062000cbd60208362000f16565b915062000cca82620010c6565b602082019050919050565b600062000ce460168362000f16565b915062000cf182620010ef565b602082019050919050565b600062000d0b601e8362000f16565b915062000d188262001118565b602082019050919050565b600060208201905062000d3a600083018462000bec565b92915050565b600060408201905062000d57600083018562000bec565b62000d66602083018462000bec565b9392505050565b600060208201905062000d84600083018462000bfd565b92915050565b600060208201905062000da1600083018462000c0e565b92915050565b6000608082019050818103600083015262000dc3818762000c1f565b9050818103602083015262000dd9818662000c1f565b905062000dea604083018562000bec565b62000df9606083018462000bec565b95945050505050565b6000602082019050818103600083015262000e1d8162000c60565b9050919050565b6000602082019050818103600083015262000e3f8162000c87565b9050919050565b6000602082019050818103600083015262000e618162000cae565b9050919050565b6000602082019050818103600083015262000e838162000cd5565b9050919050565b6000602082019050818103600083015262000ea58162000cfc565b9050919050565b600062000eb862000ecb565b905062000ec6828262000fd8565b919050565b6000604051905090565b600067ffffffffffffffff82111562000ef35762000ef26200100e565b5b62000efe826200103d565b9050602081019050919050565b600081519050919050565b600082825260208201905092915050565b600062000f348262000f73565b9050919050565b60008115159050919050565b60007fffffffff0000000000000000000000000000000000000000000000000000000082169050919050565b600073ffffffffffffffffffffffffffffffffffffffff82169050919050565b82818337600083830152505050565b60005b8381101562000fc257808201518184015260208101905062000fa5565b8381111562000fd2576000848401525b50505050565b62000fe3826200103d565b810181811067ffffffffffffffff821117156200100557620010046200100e565b5b80604052505050565b7f4e487b7100000000000000000000000000000000000000000000000000000000600052604160045260246000fd5b6000601f19601f8301169050919050565b7f4f776e61626c653a206e6577206f776e657220697320746865207a65726f206160008201527f6464726573730000000000000000000000000000000000000000000000000000602082015250565b7f41727420636f6e747261637420616c7265616479207265676973746572656400600082015250565b7f4f776e61626c653a2063616c6c6572206973206e6f7420746865206f776e6572600082015250565b7f4e6f7420616e2045524337323120636f6e747261637400000000000000000000600082015250565b7f41727420636f6e7472616374206973206e6f7420726567697374657265640000600082015250565b6200114c8162000f27565b81146200115857600080fd5b50565b620011668162000f3b565b81146200117257600080fd5b5056fe60806040523480156200001157600080fd5b50604051620038803803806200388083398181016040528101906200003791906200034d565b838381600090805190602001906200005192919062000214565b5080600190805190602001906200006a92919062000214565b5050506200008d620000816200013060201b60201c565b6200013860201b60201c565b81600960006101000a81548173ffffffffffffffffffffffffffffffffffffffff021916908373ffffffffffffffffffffffffffffffffffffffff16021790555080600a60006101000a81548173ffffffffffffffffffffffffffffffffffffffff021916908373ffffffffffffffffffffffffffffffffffffffff160217905550620001266008620001fe60201b62000d4a1760201c565b50505050620005a9565b600033905090565b6000600760009054906101000a900473ffffffffffffffffffffffffffffffffffffffff16905081600760006101000a81548173ffffffffffffffffffffffffffffffffffffffff021916908373ffffffffffffffffffffffffffffffffffffffff1602179055508173ffffffffffffffffffffffffffffffffffffffff168173ffffffffffffffffffffffffffffffffffffffff167f8be0079c531659141344cd1fd0a4f28419497f9722a3daafe3b4186f6b6457e060405160405180910390a35050565b6001816000016000828254019250508190555050565b8280546200022290620004b4565b90600052602060002090601f01602090048101928262000246576000855562000292565b82601f106200026157805160ff191683800117855562000292565b8280016001018555821562000292579182015b828111156200029157825182559160200191906001019062000274565b5b509050620002a19190620002a5565b5090565b5b80821115620002c0576000816000905550600101620002a6565b5090565b6000620002db620002d58462000414565b620003eb565b905082815260208101848484011115620002f457600080fd5b620003018482856200047e565b509392505050565b6000815190506200031a816200058f565b92915050565b600082601f8301126200033257600080fd5b815162000344848260208601620002c4565b91505092915050565b600080600080608085870312156200036457600080fd5b600085015167ffffffffffffffff8111156200037f57600080fd5b6200038d8782880162000320565b945050602085015167ffffffffffffffff811115620003ab57600080fd5b620003b98782880162000320565b9350506040620003cc8782880162000309565b9250506060620003df8782880162000309565b91505092959194509250565b6000620003f76200040a565b9050620004058282620004ea565b919050565b6000604051905090565b600067ffffffffffffffff8211156200043257620004316200054f565b5b6200043d826200057e565b9050602081019050919050565b600062000457826200045e565b9050919050565b600073ffffffffffffffffffffffffffffffffffffffff82169050919050565b60005b838110156200049e57808201518184015260208101905062000481565b83811115620004ae576000848401525b50505050565b60006002820490506001821680620004cd57607f821691505b60208210811415620004e457620004e362000520565b5b50919050565b620004f5826200057e565b810181811067ffffffffffffffff821117156200051757620005166200054f565b5b80604052505050565b7f4e487b7100000000000000000000000000000000000000000000000000000000600052602260045260246000fd5b7f4e487b7100000000000000000000000000000000000000000000000000000000600052604160045260246000fd5b6000601f19601f8301169050919050565b6200059a816200044a565b8114620005a657600080fd5b50565b6132c780620005b96000396000f3fe608060405234801561001057600080fd5b50600436106101215760003560e01c806370a08231116100ad578063b88d4fde11610071578063b88d4fde14610306578063c87b56dd14610322578063d0def52114610352578063e985e9c51461036e578063f2fde38b1461039e57610121565b806370a0823114610274578063715018a6146102a45780638da5cb5b146102ae57806395d89b41146102cc578063a22cb465146102ea57610121565b806323b872dd116100f457806323b872dd146101c057806342842e0e146101dc57806342966c68146101f857806356c31637146102145780636352211e1461024457610121565b806301ffc9a71461012657806306fdde0314610156578063081812fc14610174578063095ea7b3146101a4575b600080fd5b610140600480360381019061013b919061255f565b6103ba565b60405161014d91906129ab565b60405180910390f35b61015e61049c565b60405161016b91906129c6565b60405180910390f35b61018e600480360381019061018991906125b1565b61052e565b60405161019b9190612944565b60405180910390f35b6101be60048036038101906101b99190612523565b610574565b005b6101da60048036038101906101d591906123c5565b61068c565b005b6101f660048036038101906101f191906123c5565b6106ec565b005b610212600480360381019061020d91906125b1565b61070c565b005b61022e600480360381019061022991906125da565b610720565b60405161023b91906129ab565b60405180910390f35b61025e600480360381019061025991906125b1565b61077a565b60405161026b9190612944565b60405180910390f35b61028e60048036038101906102899190612360565b610801565b60405161029b9190612bc8565b60405180910390f35b6102ac6108b9565b005b6102b66108cd565b6040516102c39190612944565b60405180910390f35b6102d46108f7565b6040516102e191906129c6565b60405180910390f35b61030460048036038101906102ff919061248f565b610989565b005b610320600480360381019061031b9190612414565b61099f565b005b61033c600480360381019061033791906125b1565b610a01565b60405161034991906129c6565b60405180910390f35b61036c600480360381019061036791906124cb565b610b14565b005b61038860048036038101906103839190612389565b610bfa565b60405161039591906129ab565b60405180910390f35b6103b860048036038101906103b39190612360565b610cc6565b005b60007f80ac58cd000000000000000000000000000000000000000000000000000000007bffffffffffffffffffffffffffffffffffffffffffffffffffffffff1916827bffffffffffffffffffffffffffffffffffffffffffffffffffffffff1916148061048557507f5b5e139f000000000000000000000000000000000000000000000000000000007bffffffffffffffffffffffffffffffffffffffffffffffffffffffff1916827bffffffffffffffffffffffffffffffffffffffffffffffffffffffff1916145b80610495575061049482610d60565b5b9050919050565b6060600080546104ab90612d80565b80601f01602080910402602001604051908101604052809291908181526020018280546104d790612d80565b80156105245780601f106104f957610100808354040283529160200191610524565b820191906000526020600020905b81548152906001019060200180831161050757829003601f168201915b5050505050905090565b600061053982610dca565b6004600083815260200190815260200160002060009054906101000a900473ffffffffffffffffffffffffffffffffffffffff169050919050565b600061057f8261077a565b90508073ffffffffffffffffffffffffffffffffffffffff168373ffffffffffffffffffffffffffffffffffffffff1614156105f0576040517f08c379a00000000000000000000000000000000000000000000000000000000081526004016105e790612b88565b60405180910390fd5b8073ffffffffffffffffffffffffffffffffffffffff1661060f610e15565b73ffffffffffffffffffffffffffffffffffffffff16148061063e575061063d81610638610e15565b610bfa565b5b61067d576040517f08c379a000000000000000000000000000000000000000000000000000000000815260040161067490612ba8565b60405180910390fd5b6106878383610e1d565b505050565b61069d610697610e15565b82610ed6565b6106dc576040517f08c379a00000000000000000000000000000000000000000000000000000000081526004016106d3906129e8565b60405180910390fd5b6106e7838383610f5a565b505050565b6107078383836040518060200160405280600081525061099f565b505050565b610714611254565b61071d816112d2565b50565b600061073461072e8461077a565b83610bfa565b8061077257508173ffffffffffffffffffffffffffffffffffffffff1661075a8461052e565b73ffffffffffffffffffffffffffffffffffffffff16145b905092915050565b60008061078683611325565b9050600073ffffffffffffffffffffffffffffffffffffffff168173ffffffffffffffffffffffffffffffffffffffff1614156107f8576040517f08c379a00000000000000000000000000000000000000000000000000000000081526004016107ef90612b68565b60405180910390fd5b80915050919050565b60008073ffffffffffffffffffffffffffffffffffffffff168273ffffffffffffffffffffffffffffffffffffffff161415610872576040517f08c379a000000000000000000000000000000000000000000000000000000000815260040161086990612ae8565b60405180910390fd5b600360008373ffffffffffffffffffffffffffffffffffffffff1673ffffffffffffffffffffffffffffffffffffffff168152602001908152602001600020549050919050565b6108c1611254565b6108cb6000611362565b565b6000600760009054906101000a900473ffffffffffffffffffffffffffffffffffffffff16905090565b60606001805461090690612d80565b80601f016020809104026020016040519081016040528092919081815260200182805461093290612d80565b801561097f5780601f106109545761010080835404028352916020019161097f565b820191906000526020600020905b81548152906001019060200180831161096257829003601f168201915b5050505050905090565b61099b610994610e15565b8383611428565b5050565b6109b06109aa610e15565b83610ed6565b6109ef576040517f08c379a00000000000000000000000000000000000000000000000000000000081526004016109e6906129e8565b60405180910390fd5b6109fb84848484611595565b50505050565b6060610a0c82610dca565b6000600660008481526020019081526020016000208054610a2c90612d80565b80601f0160208091040260200160405190810160405280929190818152602001828054610a5890612d80565b8015610aa55780601f10610a7a57610100808354040283529160200191610aa5565b820191906000526020600020905b815481529060010190602001808311610a8857829003601f168201915b505050505090506000610ab66115f1565b9050600081511415610acc578192505050610b0f565b600082511115610b01578082604051602001610ae9929190612920565b60405160208183030381529060405292505050610b0f565b610b0a84611608565b925050505b919050565b610b1c611254565b6000610b286008611670565b9050610b56600a60009054906101000a900473ffffffffffffffffffffffffffffffffffffffff168261167e565b610ba48184848080601f016020809104026020016040519081016040528093929190818152602001838380828437600081840152601f19601f8201169050808301925050505050505061169c565b610bae6008610d4a565b7f997115af5924f5e38964c6d65c804d4cb85129b65e62eb20a8ca6329dbe57e1881858585610bdb610e15565b604051610bec959493929190612be3565b60405180910390a150505050565b60008173ffffffffffffffffffffffffffffffffffffffff16600960009054906101000a900473ffffffffffffffffffffffffffffffffffffffff1673ffffffffffffffffffffffffffffffffffffffff161480610ca557508173ffffffffffffffffffffffffffffffffffffffff16600a60009054906101000a900473ffffffffffffffffffffffffffffffffffffffff1673ffffffffffffffffffffffffffffffffffffffff16145b15610cb35760019050610cc0565b610cbd8383611710565b90505b92915050565b610cce611254565b600073ffffffffffffffffffffffffffffffffffffffff168173ffffffffffffffffffffffffffffffffffffffff161415610d3e576040517f08c379a0000000000000000000000000000000000000000000000000000000008152600401610d3590612a28565b60405180910390fd5b610d4781611362565b50565b6001816000016000828254019250508190555050565b60007f01ffc9a7000000000000000000000000000000000000000000000000000000007bffffffffffffffffffffffffffffffffffffffffffffffffffffffff1916827bffffffffffffffffffffffffffffffffffffffffffffffffffffffff1916149050919050565b610dd3816117a4565b610e12576040517f08c379a0000000000000000000000000000000000000000000000000000000008152600401610e0990612b68565b60405180910390fd5b50565b600033905090565b816004600083815260200190815260200160002060006101000a81548173ffffffffffffffffffffffffffffffffffffffff021916908373ffffffffffffffffffffffffffffffffffffffff160217905550808273ffffffffffffffffffffffffffffffffffffffff16610e908361077a565b73ffffffffffffffffffffffffffffffffffffffff167f8c5be1e5ebec7d5bd14f71427d1e84f3dd0314c0f7b2291e5b200ac8c7c3b92560405160405180910390a45050565b6000610ee1826117a4565b610f20576040517f08c379a0000000000000000000000000000000000000000000000000000000008152600401610f1790612ac8565b60405180910390fd5b6000610f2b8361077a565b9050610f378185610bfa565b15610f46576001915050610f54565b610f5084846117e5565b9150505b92915050565b8273ffffffffffffffffffffffffffffffffffffffff16610f7a8261077a565b73ffffffffffffffffffffffffffffffffffffffff1614610fd0576040517f08c379a0000000000000000000000000000000000000000000000000000000008152600401610fc790612a48565b60405180910390fd5b600073ffffffffffffffffffffffffffffffffffffffff168273ffffffffffffffffffffffffffffffffffffffff161415611040576040517f08c379a000000000000000000000000000000000000000000000000000000000815260040161103790612a88565b60405180910390fd5b61104d838383600161187a565b8273ffffffffffffffffffffffffffffffffffffffff1661106d8261077a565b73ffffffffffffffffffffffffffffffffffffffff16146110c3576040517f08c379a00000000000000000000000000000000000000000000000000000000081526004016110ba90612a48565b60405180910390fd5b6004600082815260200190815260200160002060006101000a81549073ffffffffffffffffffffffffffffffffffffffff02191690556001600360008573ffffffffffffffffffffffffffffffffffffffff1673ffffffffffffffffffffffffffffffffffffffff168152602001908152602001600020600082825403925050819055506001600360008473ffffffffffffffffffffffffffffffffffffffff1673ffffffffffffffffffffffffffffffffffffffff16815260200190815260200160002060008282540192505081905550816002600083815260200190815260200160002060006101000a81548173ffffffffffffffffffffffffffffffffffffffff021916908373ffffffffffffffffffffffffffffffffffffffff160217905550808273ffffffffffffffffffffffffffffffffffffffff168473ffffffffffffffffffffffffffffffffffffffff167fddf252ad1be2c89b69c2b068fc378daa952ba7f163c4a11628f55a4df523b3ef60405160405180910390a461124f8383836001611880565b505050565b61125c610e15565b73ffffffffffffffffffffffffffffffffffffffff1661127a6108cd565b73ffffffffffffffffffffffffffffffffffffffff16146112d0576040517f08c379a00000000000000000000000000000000000000000000000000000000081526004016112c790612b48565b60405180910390fd5b565b6112db81611886565b60006006600083815260200190815260200160002080546112fb90612d80565b905014611322576006600082815260200190815260200160002060006113219190612162565b5b50565b60006002600083815260200190815260200160002060009054906101000a900473ffffffffffffffffffffffffffffffffffffffff169050919050565b6000600760009054906101000a900473ffffffffffffffffffffffffffffffffffffffff16905081600760006101000a81548173ffffffffffffffffffffffffffffffffffffffff021916908373ffffffffffffffffffffffffffffffffffffffff1602179055508173ffffffffffffffffffffffffffffffffffffffff168173ffffffffffffffffffffffffffffffffffffffff167f8be0079c531659141344cd1fd0a4f28419497f9722a3daafe3b4186f6b6457e060405160405180910390a35050565b8173ffffffffffffffffffffffffffffffffffffffff168373ffffffffffffffffffffffffffffffffffffffff161415611497576040517f08c379a000000000000000000000000000000000000000000000000000000000815260040161148e90612aa8565b60405180910390fd5b80600560008573ffffffffffffffffffffffffffffffffffffffff1673ffffffffffffffffffffffffffffffffffffffff16815260200190815260200160002060008473ffffffffffffffffffffffffffffffffffffffff1673ffffffffffffffffffffffffffffffffffffffff16815260200190815260200160002060006101000a81548160ff0219169083151502179055508173ffffffffffffffffffffffffffffffffffffffff168373ffffffffffffffffffffffffffffffffffffffff167f17307eab39ab6107e8899845ad3d59bd9653f200f220920489ca2b5937696c318360405161158891906129ab565b60405180910390a3505050565b6115a0848484610f5a565b6115ac848484846119d4565b6115eb576040517f08c379a00000000000000000000000000000000000000000000000000000000081526004016115e290612a08565b60405180910390fd5b50505050565b606060405180602001604052806000815250905090565b606061161382610dca565b600061161d6115f1565b9050600081511161163d5760405180602001604052806000815250611668565b8061164784611b6b565b604051602001611658929190612920565b6040516020818303038152906040525b915050919050565b600081600001549050919050565b611698828260405180602001604052806000815250611c8f565b5050565b6116a5826117a4565b6116e4576040517f08c379a00000000000000000000000000000000000000000000000000000000081526004016116db90612b08565b60405180910390fd5b8060066000848152602001908152602001600020908051906020019061170b9291906121a2565b505050565b6000600560008473ffffffffffffffffffffffffffffffffffffffff1673ffffffffffffffffffffffffffffffffffffffff16815260200190815260200160002060008373ffffffffffffffffffffffffffffffffffffffff1673ffffffffffffffffffffffffffffffffffffffff16815260200190815260200160002060009054906101000a900460ff16905092915050565b60008073ffffffffffffffffffffffffffffffffffffffff166117c683611325565b73ffffffffffffffffffffffffffffffffffffffff1614159050919050565b6000806117f18361077a565b90508073ffffffffffffffffffffffffffffffffffffffff168473ffffffffffffffffffffffffffffffffffffffff16148061183357506118328185610bfa565b5b8061187157508373ffffffffffffffffffffffffffffffffffffffff166118598461052e565b73ffffffffffffffffffffffffffffffffffffffff16145b91505092915050565b50505050565b50505050565b60006118918261077a565b90506118a181600084600161187a565b6118aa8261077a565b90506004600083815260200190815260200160002060006101000a81549073ffffffffffffffffffffffffffffffffffffffff02191690556001600360008373ffffffffffffffffffffffffffffffffffffffff1673ffffffffffffffffffffffffffffffffffffffff168152602001908152602001600020600082825403925050819055506002600083815260200190815260200160002060006101000a81549073ffffffffffffffffffffffffffffffffffffffff021916905581600073ffffffffffffffffffffffffffffffffffffffff168273ffffffffffffffffffffffffffffffffffffffff167fddf252ad1be2c89b69c2b068fc378daa952ba7f163c4a11628f55a4df523b3ef60405160405180910390a46119d0816000846001611880565b5050565b60006119f58473ffffffffffffffffffffffffffffffffffffffff16611cea565b15611b5e578373ffffffffffffffffffffffffffffffffffffffff1663150b7a02611a1e610e15565b8786866040518563ffffffff1660e01b8152600401611a40949392919061295f565b602060405180830381600087803b158015611a5a57600080fd5b505af1925050508015611a8b57506040513d601f19601f82011682018060405250810190611a889190612588565b60015b611b0e573d8060008114611abb576040519150601f19603f3d011682016040523d82523d6000602084013e611ac0565b606091505b50600081511415611b06576040517f08c379a0000000000000000000000000000000000000000000000000000000008152600401611afd90612a08565b60405180910390fd5b805181602001fd5b63150b7a0260e01b7bffffffffffffffffffffffffffffffffffffffffffffffffffffffff1916817bffffffffffffffffffffffffffffffffffffffffffffffffffffffff191614915050611b63565b600190505b949350505050565b606060006001611b7a84611d0d565b01905060008167ffffffffffffffff811115611bbf577f4e487b7100000000000000000000000000000000000000000000000000000000600052604160045260246000fd5b6040519080825280601f01601f191660200182016040528015611bf15781602001600182028036833780820191505090505b509050600082602001820190505b600115611c84578080600190039150507f3031323334353637383961626364656600000000000000000000000000000000600a86061a8153600a8581611c6e577f4e487b7100000000000000000000000000000000000000000000000000000000600052601260045260246000fd5b0494506000851415611c7f57611c84565b611bff565b819350505050919050565b611c998383611f44565b611ca660008484846119d4565b611ce5576040517f08c379a0000000000000000000000000000000000000000000000000000000008152600401611cdc90612a08565b60405180910390fd5b505050565b6000808273ffffffffffffffffffffffffffffffffffffffff163b119050919050565b600080600090507a184f03e93ff9f4daa797ed6e38ed64bf6a1f0100000000000000008310611d91577a184f03e93ff9f4daa797ed6e38ed64bf6a1f0100000000000000008381611d87577f4e487b7100000000000000000000000000000000000000000000000000000000600052601260045260246000fd5b0492506040810190505b6d04ee2d6d415b85acef81000000008310611df4576d04ee2d6d415b85acef81000000008381611dea577f4e487b7100000000000000000000000000000000000000000000000000000000600052601260045260246000fd5b0492506020810190505b662386f26fc100008310611e4957662386f26fc100008381611e3f577f4e487b7100000000000000000000000000000000000000000000000000000000600052601260045260246000fd5b0492506010810190505b6305f5e1008310611e98576305f5e1008381611e8e577f4e487b7100000000000000000000000000000000000000000000000000000000600052601260045260246000fd5b0492506008810190505b6127108310611ee3576127108381611ed9577f4e487b7100000000000000000000000000000000000000000000000000000000600052601260045260246000fd5b0492506004810190505b60648310611f2c5760648381611f22577f4e487b7100000000000000000000000000000000000000000000000000000000600052601260045260246000fd5b0492506002810190505b600a8310611f3b576001810190505b80915050919050565b600073ffffffffffffffffffffffffffffffffffffffff168273ffffffffffffffffffffffffffffffffffffffff161415611fb4576040517f08c379a0000000000000000000000000000000000000000000000000000000008152600401611fab90612b28565b60405180910390fd5b611fbd816117a4565b15611ffd576040517f08c379a0000000000000000000000000000000000000000000000000000000008152600401611ff490612a68565b60405180910390fd5b61200b60008383600161187a565b612014816117a4565b15612054576040517f08c379a000000000000000000000000000000000000000000000000000000000815260040161204b90612a68565b60405180910390fd5b6001600360008473ffffffffffffffffffffffffffffffffffffffff1673ffffffffffffffffffffffffffffffffffffffff16815260200190815260200160002060008282540192505081905550816002600083815260200190815260200160002060006101000a81548173ffffffffffffffffffffffffffffffffffffffff021916908373ffffffffffffffffffffffffffffffffffffffff160217905550808273ffffffffffffffffffffffffffffffffffffffff16600073ffffffffffffffffffffffffffffffffffffffff167fddf252ad1be2c89b69c2b068fc378daa952ba7f163c4a11628f55a4df523b3ef60405160405180910390a461215e600083836001611880565b5050565b50805461216e90612d80565b6000825580601f10612180575061219f565b601f01602090049060005260206000209081019061219e9190612228565b5b50565b8280546121ae90612d80565b90600052602060002090601f0160209004810192826121d05760008555612217565b82601f106121e957805160ff1916838001178555612217565b82800160010185558215612217579182015b828111156122165782518255916020019190600101906121fb565b5b5090506122249190612228565b5090565b5b80821115612241576000816000905550600101612229565b5090565b600061225861225384612c56565b612c31565b90508281526020810184848401111561227057600080fd5b61227b848285612d3e565b509392505050565b60008135905061229281613235565b92915050565b6000813590506122a78161324c565b92915050565b6000813590506122bc81613263565b92915050565b6000815190506122d181613263565b92915050565b600082601f8301126122e857600080fd5b81356122f8848260208601612245565b91505092915050565b60008083601f84011261231357600080fd5b8235905067ffffffffffffffff81111561232c57600080fd5b60208301915083600182028301111561234457600080fd5b9250929050565b60008135905061235a8161327a565b92915050565b60006020828403121561237257600080fd5b600061238084828501612283565b91505092915050565b6000806040838503121561239c57600080fd5b60006123aa85828601612283565b92505060206123bb85828601612283565b9150509250929050565b6000806000606084860312156123da57600080fd5b60006123e886828701612283565b93505060206123f986828701612283565b925050604061240a8682870161234b565b9150509250925092565b6000806000806080858703121561242a57600080fd5b600061243887828801612283565b945050602061244987828801612283565b935050604061245a8782880161234b565b925050606085013567ffffffffffffffff81111561247757600080fd5b612483878288016122d7565b91505092959194509250565b600080604083850312156124a257600080fd5b60006124b085828601612283565b92505060206124c185828601612298565b9150509250929050565b6000806000604084860312156124e057600080fd5b60006124ee86828701612283565b935050602084013567ffffffffffffffff81111561250b57600080fd5b61251786828701612301565b92509250509250925092565b6000806040838503121561253657600080fd5b600061254485828601612283565b92505060206125558582860161234b565b9150509250929050565b60006020828403121561257157600080fd5b600061257f848285016122ad565b91505092915050565b60006020828403121561259a57600080fd5b60006125a8848285016122c2565b91505092915050565b6000602082840312156125c357600080fd5b60006125d18482850161234b565b91505092915050565b600080604083850312156125ed57600080fd5b60006125fb8582860161234b565b925050602061260c85828601612283565b9150509250929050565b61261f81612cca565b82525050565b61262e81612cdc565b82525050565b600061263f82612c87565b6126498185612c9d565b9350612659818560208601612d4d565b61266281612e41565b840191505092915050565b60006126798385612cae565b9350612686838584612d3e565b61268f83612e41565b840190509392505050565b60006126a582612c92565b6126af8185612cae565b93506126bf818560208601612d4d565b6126c881612e41565b840191505092915050565b60006126de82612c92565b6126e88185612cbf565b93506126f8818560208601612d4d565b80840191505092915050565b6000612711602d83612cae565b915061271c82612e52565b604082019050919050565b6000612734603283612cae565b915061273f82612ea1565b604082019050919050565b6000612757602683612cae565b915061276282612ef0565b604082019050919050565b600061277a602583612cae565b915061278582612f3f565b604082019050919050565b600061279d601c83612cae565b91506127a882612f8e565b602082019050919050565b60006127c0602483612cae565b91506127cb82612fb7565b604082019050919050565b60006127e3601983612cae565b91506127ee82613006565b602082019050919050565b6000612806602c83612cae565b91506128118261302f565b604082019050919050565b6000612829602983612cae565b91506128348261307e565b604082019050919050565b600061284c602e83612cae565b9150612857826130cd565b604082019050919050565b600061286f602083612cae565b915061287a8261311c565b602082019050919050565b6000612892602083612cae565b915061289d82613145565b602082019050919050565b60006128b5601883612cae565b91506128c08261316e565b602082019050919050565b60006128d8602183612cae565b91506128e382613197565b604082019050919050565b60006128fb603d83612cae565b9150612906826131e6565b604082019050919050565b61291a81612d34565b82525050565b600061292c82856126d3565b915061293882846126d3565b91508190509392505050565b60006020820190506129596000830184612616565b92915050565b60006080820190506129746000830187612616565b6129816020830186612616565b61298e6040830185612911565b81810360608301526129a08184612634565b905095945050505050565b60006020820190506129c06000830184612625565b92915050565b600060208201905081810360008301526129e0818461269a565b905092915050565b60006020820190508181036000830152612a0181612704565b9050919050565b60006020820190508181036000830152612a2181612727565b9050919050565b60006020820190508181036000830152612a418161274a565b9050919050565b60006020820190508181036000830152612a618161276d565b9050919050565b60006020820190508181036000830152612a8181612790565b9050919050565b60006020820190508181036000830152612aa1816127b3565b9050919050565b60006020820190508181036000830152612ac1816127d6565b9050919050565b60006020820190508181036000830152612ae1816127f9565b9050919050565b60006020820190508181036000830152612b018161281c565b9050919050565b60006020820190508181036000830152612b218161283f565b9050919050565b60006020820190508181036000830152612b4181612862565b9050919050565b60006020820190508181036000830152612b6181612885565b9050919050565b60006020820190508181036000830152612b81816128a8565b9050919050565b60006020820190508181036000830152612ba1816128cb565b9050919050565b60006020820190508181036000830152612bc1816128ee565b9050919050565b6000602082019050612bdd6000830184612911565b92915050565b6000608082019050612bf86000830188612911565b612c056020830187612616565b8181036040830152612c1881858761266d565b9050612c276060830184612616565b9695505050505050565b6000612c3b612c4c565b9050612c478282612db2565b919050565b6000604051905090565b600067ffffffffffffffff821115612c7157612c70612e12565b5b612c7a82612e41565b9050602081019050919050565b600081519050919050565b600081519050919050565b600082825260208201905092915050565b600082825260208201905092915050565b600081905092915050565b6000612cd582612d14565b9050919050565b60008115159050919050565b60007fffffffff0000000000000000000000000000000000000000000000000000000082169050919050565b600073ffffffffffffffffffffffffffffffffffffffff82169050919050565b6000819050919050565b82818337600083830152505050565b60005b83811015612d6b578082015181840152602081019050612d50565b83811115612d7a576000848401525b50505050565b60006002820490506001821680612d9857607f821691505b60208210811415612dac57612dab612de3565b5b50919050565b612dbb82612e41565b810181811067ffffffffffffffff82111715612dda57612dd9612e12565b5b80604052505050565b7f4e487b7100000000000000000000000000000000000000000000000000000000600052602260045260246000fd5b7f4e487b7100000000000000000000000000000000000000000000000000000000600052604160045260246000fd5b6000601f19601f8301169050919050565b7f4552433732313a2063616c6c6572206973206e6f7420746f6b656e206f776e6560008201527f72206f7220617070726f76656400000000000000000000000000000000000000602082015250565b7f4552433732313a207472616e7366657220746f206e6f6e20455243373231526560008201527f63656976657220696d706c656d656e7465720000000000000000000000000000602082015250565b7f4f776e61626c653a206e6577206f776e657220697320746865207a65726f206160008201527f6464726573730000000000000000000000000000000000000000000000000000602082015250565b7f4552433732313a207472616e736665722066726f6d20696e636f72726563742060008201527f6f776e6572000000000000000000000000000000000000000000000000000000602082015250565b7f4552433732313a20746f6b656e20616c7265616479206d696e74656400000000600082015250565b7f4552433732313a207472616e7366657220746f20746865207a65726f2061646460008201527f7265737300000000000000000000000000000000000000000000000000000000602082015250565b7f4552433732313a20617070726f766520746f2063616c6c657200000000000000600082015250565b7f4552433732313a206f70657261746f7220717565727920666f72206e6f6e657860008201527f697374656e7420746f6b656e0000000000000000000000000000000000000000602082015250565b7f4552433732313a2061646472657373207a65726f206973206e6f74206120766160008201527f6c6964206f776e65720000000000000000000000000000000000000000000000602082015250565b7f45524337323155524953746f726167653a2055524920736574206f66206e6f6e60008201527f6578697374656e7420746f6b656e000000000000000000000000000000000000602082015250565b7f4552433732313a206d696e7420746f20746865207a65726f2061646472657373600082015250565b7f4f776e61626c653a2063616c6c6572206973206e6f7420746865206f776e6572600082015250565b7f4552433732313a20696e76616c696420746f6b656e2049440000000000000000600082015250565b7f4552433732313a20617070726f76616c20746f2063757272656e74206f776e6560008201527f7200000000000000000000000000000000000000000000000000000000000000602082015250565b7f4552433732313a20617070726f76652063616c6c6572206973206e6f7420746f60008201527f6b656e206f776e6572206f7220617070726f76656420666f7220616c6c000000602082015250565b61323e81612cca565b811461324957600080fd5b50565b61325581612cdc565b811461326057600080fd5b50565b61326c81612ce8565b811461327757600080fd5b50565b61328381612d34565b811461328e57600080fd5b5056fea2646970667358221220b15404eac4da173cd1d54cac9589b216ed8b307a2c4205966933da8e418001de64736f6c63430008040033a2646970667358221220c61daef71cfd6d7ff23408d1ba46448ac5fe2064666250b18fb4623e10b9e0e164736f6c63430008040033",
  "linkReferences": {},
  "deployedLinkReferences": {}
}