{
  "_format": "hh-sol-artifact-1",
  "contractName": "CreathArtFactory",
  "sourceName": "contracts/CreathArtFactory.sol",
  "abi": [
    {
      "inputs": [
        {
          "internalType": "address",
          "name": "_marketplace",
          "type": "address"
        }
      ],
      "stateMutability": "nonpayable",
      "type": "constructor"
    },
    {
      "anonymous": false,
      "inputs": [
        {
          "indexed": false,
          "internalType": "address",
          "name": "creator",
          "type": "address"
        },
        {
          "indexed": false,
          "internalType": "address",
          "name": "nft",
          "type": "address"
        }
      ],
      "name": "ContractCreated",
      "type": "event"
    },
    {
      "anonymous": false,
      "inputs": [
        {
          "indexed": false,
          "internalType": "address",
          "name": "caller",
          "type": "address"
        },
        {
          "indexed": false,
          "internalType": "address",
          "name": "nft",
          "type": "address"
        }
      ],
      "name": "ContractDisabled",
      "type": "event"
    },
    {
      "anonymous": false,
      "inputs": [
        {
          "indexed": true,
          "internalType": "address",
          "name": "previousOwner",
          "type": "address"
        },
        {
          "indexed": true,
          "internalType": "address",
          "name": "newOwner",
          "type": "address"
        }
      ],
      "name": "OwnershipTransferred",
      "type": "event"
    },
    {
      "inputs": [
        {
          "internalType": "string",
          "name": "_name",
          "type": "string"
        },
        {
          "internalType": "string",
          "name": "_symbol",
          "type": "string"
        }
      ],
      "name": "createNFTContract",
      "outputs": [
        {
          "internalType": "address",
          "name": "",
          "type": "address"
        }
      ],
      "stateMutability": "nonpayable",
      "type": "function"
    },
    {
      "inputs": [
        {
          "internalType": "address",
          "name": "tokenContractAddress",
          "type": "address"
        }
      ],
      "name": "disableTokenContract",
      "outputs": [],
      "stateMutability": "nonpayable",
      "type": "function"
    },
    {
      "inputs": [
        {
          "internalType": "address",
          "name": "",
          "type": "address"
        }
      ],
      "name": "exists",
      "outputs": [
        {
          "internalType": "bool",
          "name": "",
          "type": "bool"
        }
      ],
      "stateMutability": "view",
      "type": "function"
    },
    {
      "inputs": [],
      "name": "marketplace",
      "outputs": [
        {
          "internalType": "address",
          "name": "",
          "type": "address"
        }
      ],
      "stateMutability": "view",
      "type": "function"
    },
    {
      "inputs": [],
      "name": "owner",
      "outputs": [
        {
          "internalType": "address",
          "name": "",
          "type": "address"
        }
      ],
      "stateMutability": "view",
      "type": "function"
    },
    {
      "inputs": [
        {
          "internalType": "address",
          "name": "tokenContractAddress",
          "type": "address"
        }
      ],
      "name": "registerTokenContract",
      "outputs": [],
      "stateMutability": "nonpayable",
      "type": "function"
    },
    {
      "inputs": [],
      "name": "renounceOwnership",
      "outputs": [],
      "stateMutability": "nonpayable",
      "type": "function"
    },
    {
      "inputs": [
        {
          "internalType": "address",
          "name": "newOwner",
          "type": "address"
        }
      ],
      "name": "transferOwnership",
      "outputs": [],
      "stateMutability": "nonpayable",
      "type": "function"
    },
    {
      "inputs": [
        {
          "internalType": "address",
          "name": "_marketplace",
          "type": "address"
        }
      ],
      "name": "updateMarketplace",
      "outputs": [],
      "stateMutability": "nonpayable",
      "type": "function"
    }
  ],
  "bytecode": "0x60806040523480156200001157600080fd5b5060405162004a6c38038062004a6c833981810160405281019062000037919062000182565b620000576200004b6200009f60201b60201c565b620000a760201b60201c565b80600160006101000a81548173ffffffffffffffffffffffffffffffffffffffff021916908373ffffffffffffffffffffffffffffffffffffffff16021790555050620001fc565b600033905090565b60008060009054906101000a900473ffffffffffffffffffffffffffffffffffffffff169050816000806101000a81548173ffffffffffffffffffffffffffffffffffffffff021916908373ffffffffffffffffffffffffffffffffffffffff1602179055508173ffffffffffffffffffffffffffffffffffffffff168173ffffffffffffffffffffffffffffffffffffffff167f8be0079c531659141344cd1fd0a4f28419497f9722a3daafe3b4186f6b6457e060405160405180910390a35050565b6000815190506200017c81620001e2565b92915050565b6000602082840312156200019557600080fd5b6000620001a5848285016200016b565b91505092915050565b6000620001bb82620001c2565b9050919050565b600073ffffffffffffffffffffffffffffffffffffffff82169050919050565b620001ed81620001ae565b8114620001f957600080fd5b50565b614860806200020c6000396000f3fe60806040523480156200001157600080fd5b5060043610620000a05760003560e01c8063d39bb16a116200006f578063d39bb16a146200012b578063eb636317146200014b578063f2fde38b146200016b578063f6a3d24e146200018b578063f7b0770b14620001c157620000a0565b806314d76ffc14620000a5578063715018a614620000db5780638da5cb5b14620000e7578063abc8c7af1462000109575b600080fd5b620000c36004803603810190620000bd919062000a6e565b620001e1565b604051620000d2919062000c18565b60405180910390f35b620000e56200036e565b005b620000f162000386565b60405162000100919062000c18565b60405180910390f35b62000113620003af565b60405162000122919062000c18565b60405180910390f35b62000149600480360381019062000143919062000a16565b620003d5565b005b62000169600480360381019062000163919062000a16565b6200050d565b005b62000189600480360381019062000183919062000a16565b6200055b565b005b620001a96004803603810190620001a3919062000a16565b620005e6565b604051620001b8919062000c62565b60405180910390f35b620001df6004803603810190620001d9919062000a16565b62000606565b005b6000620001ed62000817565b60008383600160009054906101000a900473ffffffffffffffffffffffffffffffffffffffff16604051620002229062000968565b620002309392919062000c9c565b604051809103906000f0801580156200024d573d6000803e3d6000fd5b5090506001600260008373ffffffffffffffffffffffffffffffffffffffff1673ffffffffffffffffffffffffffffffffffffffff16815260200190815260200160002060006101000a81548160ff0219169083151502179055508073ffffffffffffffffffffffffffffffffffffffff1663f2fde38b620002ce62000386565b6040518263ffffffff1660e01b8152600401620002ec919062000c18565b600060405180830381600087803b1580156200030757600080fd5b505af11580156200031c573d6000803e3d6000fd5b505050507f2d49c67975aadd2d389580b368cfff5b49965b0bd5da33c144922ce01e7a4d7b6200034b6200089c565b826040516200035c92919062000c35565b60405180910390a18091505092915050565b6200037862000817565b620003846000620008a4565b565b60008060009054906101000a900473ffffffffffffffffffffffffffffffffffffffff16905090565b600160009054906101000a900473ffffffffffffffffffffffffffffffffffffffff1681565b620003df62000817565b600260008273ffffffffffffffffffffffffffffffffffffffff1673ffffffffffffffffffffffffffffffffffffffff16815260200190815260200160002060009054906101000a900460ff166200046e576040517f08c379a0000000000000000000000000000000000000000000000000000000008152600401620004659062000d6f565b60405180910390fd5b6000600260008373ffffffffffffffffffffffffffffffffffffffff1673ffffffffffffffffffffffffffffffffffffffff16815260200190815260200160002060006101000a81548160ff0219169083151502179055507f0d60ee093b891105dfb73abfbe0421cc1a07500f5c1776ec7d189e6c7f6d6340620004f16200089c565b826040516200050292919062000c35565b60405180910390a150565b6200051762000817565b80600160006101000a81548173ffffffffffffffffffffffffffffffffffffffff021916908373ffffffffffffffffffffffffffffffffffffffff16021790555050565b6200056562000817565b600073ffffffffffffffffffffffffffffffffffffffff168173ffffffffffffffffffffffffffffffffffffffff161415620005d8576040517f08c379a0000000000000000000000000000000000000000000000000000000008152600401620005cf9062000ce7565b60405180910390fd5b620005e381620008a4565b50565b60026020528060005260406000206000915054906101000a900460ff1681565b6200061062000817565b600260008273ffffffffffffffffffffffffffffffffffffffff1673ffffffffffffffffffffffffffffffffffffffff16815260200190815260200160002060009054906101000a900460ff1615620006a0576040517f08c379a0000000000000000000000000000000000000000000000000000000008152600401620006979062000d09565b60405180910390fd5b8073ffffffffffffffffffffffffffffffffffffffff166301ffc9a76380ac58cd60e01b6040518263ffffffff1660e01b8152600401620006e2919062000c7f565b60206040518083038186803b158015620006fb57600080fd5b505afa15801562000710573d6000803e3d6000fd5b505050506040513d601f19601f8201168201806040525081019062000736919062000a42565b62000778576040517f08c379a00000000000000000000000000000000000000000000000000000000081526004016200076f9062000d4d565b60405180910390fd5b6001600260008373ffffffffffffffffffffffffffffffffffffffff1673ffffffffffffffffffffffffffffffffffffffff16815260200190815260200160002060006101000a81548160ff0219169083151502179055507f2d49c67975aadd2d389580b368cfff5b49965b0bd5da33c144922ce01e7a4d7b620007fb6200089c565b826040516200080c92919062000c35565b60405180910390a150565b620008216200089c565b73ffffffffffffffffffffffffffffffffffffffff166200084162000386565b73ffffffffffffffffffffffffffffffffffffffff16146200089a576040517f08c379a0000000000000000000000000000000000000000000000000000000008152600401620008919062000d2b565b60405180910390fd5b565b600033905090565b60008060009054906101000a900473ffffffffffffffffffffffffffffffffffffffff169050816000806101000a81548173ffffffffffffffffffffffffffffffffffffffff021916908373ffffffffffffffffffffffffffffffffffffffff1602179055508173ffffffffffffffffffffffffffffffffffffffff168173ffffffffffffffffffffffffffffffffffffffff167f8be0079c531659141344cd1fd0a4f28419497f9722a3daafe3b4186f6b6457e060405160405180910390a35050565b6137d0806200105b83390190565b60006200098d620009878462000dba565b62000d91565b905082815260208101848484011115620009a657600080fd5b620009b384828562000e78565b509392505050565b600081359050620009cc8162001026565b92915050565b600081519050620009e38162001040565b92915050565b600082601f830112620009fb57600080fd5b813562000a0d84826020860162000976565b91505092915050565b60006020828403121562000a2957600080fd5b600062000a3984828501620009bb565b91505092915050565b60006020828403121562000a5557600080fd5b600062000a6584828501620009d2565b91505092915050565b6000806040838503121562000a8257600080fd5b600083013567ffffffffffffffff81111562000a9d57600080fd5b62000aab85828601620009e9565b925050602083013567ffffffffffffffff81111562000ac957600080fd5b62000ad785828601620009e9565b9150509250929050565b62000aec8162000e0c565b82525050565b62000afd8162000e20565b82525050565b62000b0e8162000e2c565b82525050565b600062000b218262000df0565b62000b2d818562000dfb565b935062000b3f81856020860162000e87565b62000b4a8162000f22565b840191505092915050565b600062000b6460268362000dfb565b915062000b718262000f33565b604082019050919050565b600062000b8b601f8362000dfb565b915062000b988262000f82565b602082019050919050565b600062000bb260208362000dfb565b915062000bbf8262000fab565b602082019050919050565b600062000bd960168362000dfb565b915062000be68262000fd4565b602082019050919050565b600062000c00601e8362000dfb565b915062000c0d8262000ffd565b602082019050919050565b600060208201905062000c2f600083018462000ae1565b92915050565b600060408201905062000c4c600083018562000ae1565b62000c5b602083018462000ae1565b9392505050565b600060208201905062000c79600083018462000af2565b92915050565b600060208201905062000c96600083018462000b03565b92915050565b6000606082019050818103600083015262000cb8818662000b14565b9050818103602083015262000cce818562000b14565b905062000cdf604083018462000ae1565b949350505050565b6000602082019050818103600083015262000d028162000b55565b9050919050565b6000602082019050818103600083015262000d248162000b7c565b9050919050565b6000602082019050818103600083015262000d468162000ba3565b9050919050565b6000602082019050818103600083015262000d688162000bca565b9050919050565b6000602082019050818103600083015262000d8a8162000bf1565b9050919050565b600062000d9d62000db0565b905062000dab828262000ebd565b919050565b6000604051905090565b600067ffffffffffffffff82111562000dd85762000dd762000ef3565b5b62000de38262000f22565b9050602081019050919050565b600081519050919050565b600082825260208201905092915050565b600062000e198262000e58565b9050919050565b60008115159050919050565b60007fffffffff0000000000000000000000000000000000000000000000000000000082169050919050565b600073ffffffffffffffffffffffffffffffffffffffff82169050919050565b82818337600083830152505050565b60005b8381101562000ea757808201518184015260208101905062000e8a565b8381111562000eb7576000848401525b50505050565b62000ec88262000f22565b810181811067ffffffffffffffff8211171562000eea5762000ee962000ef3565b5b80604052505050565b7f4e487b7100000000000000000000000000000000000000000000000000000000600052604160045260246000fd5b6000601f19601f8301169050919050565b7f4f776e61626c653a206e6577206f776e657220697320746865207a65726f206160008201527f6464726573730000000000000000000000000000000000000000000000000000602082015250565b7f41727420636f6e747261637420616c7265616479207265676973746572656400600082015250565b7f4f776e61626c653a2063616c6c6572206973206e6f7420746865206f776e6572600082015250565b7f4e6f7420616e2045524337323120636f6e747261637400000000000000000000600082015250565b7f41727420636f6e7472616374206973206e6f7420726567697374657265640000600082015250565b620010318162000e0c565b81146200103d57600080fd5b50565b6200104b8162000e20565b81146200105757600080fd5b5056fe60806040523480156200001157600080fd5b50604051620037d0380380620037d083398181016040528101906200003791906200030b565b8282816000908051906020019062000051929190620001d2565b5080600190805190602001906200006a929190620001d2565b5050506200008d62000081620000ee60201b60201c565b620000f660201b60201c565b80600960006101000a81548173ffffffffffffffffffffffffffffffffffffffff021916908373ffffffffffffffffffffffffffffffffffffffff160217905550620000e56008620001bc60201b62000cf21760201c565b50505062000551565b600033905090565b6000600760009054906101000a900473ffffffffffffffffffffffffffffffffffffffff16905081600760006101000a81548173ffffffffffffffffffffffffffffffffffffffff021916908373ffffffffffffffffffffffffffffffffffffffff1602179055508173ffffffffffffffffffffffffffffffffffffffff168173ffffffffffffffffffffffffffffffffffffffff167f8be0079c531659141344cd1fd0a4f28419497f9722a3daafe3b4186f6b6457e060405160405180910390a35050565b6001816000016000828254019250508190555050565b828054620001e0906200045c565b90600052602060002090601f01602090048101928262000204576000855562000250565b82601f106200021f57805160ff191683800117855562000250565b8280016001018555821562000250579182015b828111156200024f57825182559160200191906001019062000232565b5b5090506200025f919062000263565b5090565b5b808211156200027e57600081600090555060010162000264565b5090565b6000620002996200029384620003bc565b62000393565b905082815260208101848484011115620002b257600080fd5b620002bf84828562000426565b509392505050565b600081519050620002d88162000537565b92915050565b600082601f830112620002f057600080fd5b81516200030284826020860162000282565b91505092915050565b6000806000606084860312156200032157600080fd5b600084015167ffffffffffffffff8111156200033c57600080fd5b6200034a86828701620002de565b935050602084015167ffffffffffffffff8111156200036857600080fd5b6200037686828701620002de565b92505060406200038986828701620002c7565b9150509250925092565b60006200039f620003b2565b9050620003ad828262000492565b919050565b6000604051905090565b600067ffffffffffffffff821115620003da57620003d9620004f7565b5b620003e58262000526565b9050602081019050919050565b6000620003ff8262000406565b9050919050565b600073ffffffffffffffffffffffffffffffffffffffff82169050919050565b60005b838110156200044657808201518184015260208101905062000429565b8381111562000456576000848401525b50505050565b600060028204905060018216806200047557607f821691505b602082108114156200048c576200048b620004c8565b5b50919050565b6200049d8262000526565b810181811067ffffffffffffffff82111715620004bf57620004be620004f7565b5b80604052505050565b7f4e487b7100000000000000000000000000000000000000000000000000000000600052602260045260246000fd5b7f4e487b7100000000000000000000000000000000000000000000000000000000600052604160045260246000fd5b6000601f19601f8301169050919050565b6200054281620003f2565b81146200054e57600080fd5b50565b61326f80620005616000396000f3fe608060405234801561001057600080fd5b50600436106101215760003560e01c806370a08231116100ad578063b88d4fde11610071578063b88d4fde14610306578063c87b56dd14610322578063d0def52114610352578063e985e9c51461036e578063f2fde38b1461039e57610121565b806370a0823114610274578063715018a6146102a45780638da5cb5b146102ae57806395d89b41146102cc578063a22cb465146102ea57610121565b806323b872dd116100f457806323b872dd146101c057806342842e0e146101dc57806342966c68146101f857806356c31637146102145780636352211e1461024457610121565b806301ffc9a71461012657806306fdde0314610156578063081812fc14610174578063095ea7b3146101a4575b600080fd5b610140600480360381019061013b9190612507565b6103ba565b60405161014d9190612953565b60405180910390f35b61015e61049c565b60405161016b919061296e565b60405180910390f35b61018e60048036038101906101899190612559565b61052e565b60405161019b91906128ec565b60405180910390f35b6101be60048036038101906101b991906124cb565b610574565b005b6101da60048036038101906101d5919061236d565b61068c565b005b6101f660048036038101906101f1919061236d565b6106ec565b005b610212600480360381019061020d9190612559565b61070c565b005b61022e60048036038101906102299190612582565b610720565b60405161023b9190612953565b60405180910390f35b61025e60048036038101906102599190612559565b61077a565b60405161026b91906128ec565b60405180910390f35b61028e60048036038101906102899190612308565b610801565b60405161029b9190612b70565b60405180910390f35b6102ac6108b9565b005b6102b66108cd565b6040516102c391906128ec565b60405180910390f35b6102d46108f7565b6040516102e1919061296e565b60405180910390f35b61030460048036038101906102ff9190612437565b610989565b005b610320600480360381019061031b91906123bc565b61099f565b005b61033c60048036038101906103379190612559565b610a01565b604051610349919061296e565b60405180910390f35b61036c60048036038101906103679190612473565b610b14565b005b61038860048036038101906103839190612331565b610bfa565b6040516103959190612953565b60405180910390f35b6103b860048036038101906103b39190612308565b610c6e565b005b60007f80ac58cd000000000000000000000000000000000000000000000000000000007bffffffffffffffffffffffffffffffffffffffffffffffffffffffff1916827bffffffffffffffffffffffffffffffffffffffffffffffffffffffff1916148061048557507f5b5e139f000000000000000000000000000000000000000000000000000000007bffffffffffffffffffffffffffffffffffffffffffffffffffffffff1916827bffffffffffffffffffffffffffffffffffffffffffffffffffffffff1916145b80610495575061049482610d08565b5b9050919050565b6060600080546104ab90612d28565b80601f01602080910402602001604051908101604052809291908181526020018280546104d790612d28565b80156105245780601f106104f957610100808354040283529160200191610524565b820191906000526020600020905b81548152906001019060200180831161050757829003601f168201915b5050505050905090565b600061053982610d72565b6004600083815260200190815260200160002060009054906101000a900473ffffffffffffffffffffffffffffffffffffffff169050919050565b600061057f8261077a565b90508073ffffffffffffffffffffffffffffffffffffffff168373ffffffffffffffffffffffffffffffffffffffff1614156105f0576040517f08c379a00000000000000000000000000000000000000000000000000000000081526004016105e790612b30565b60405180910390fd5b8073ffffffffffffffffffffffffffffffffffffffff1661060f610dbd565b73ffffffffffffffffffffffffffffffffffffffff16148061063e575061063d81610638610dbd565b610bfa565b5b61067d576040517f08c379a000000000000000000000000000000000000000000000000000000000815260040161067490612b50565b60405180910390fd5b6106878383610dc5565b505050565b61069d610697610dbd565b82610e7e565b6106dc576040517f08c379a00000000000000000000000000000000000000000000000000000000081526004016106d390612990565b60405180910390fd5b6106e7838383610f02565b505050565b6107078383836040518060200160405280600081525061099f565b505050565b6107146111fc565b61071d8161127a565b50565b600061073461072e8461077a565b83610bfa565b8061077257508173ffffffffffffffffffffffffffffffffffffffff1661075a8461052e565b73ffffffffffffffffffffffffffffffffffffffff16145b905092915050565b600080610786836112cd565b9050600073ffffffffffffffffffffffffffffffffffffffff168173ffffffffffffffffffffffffffffffffffffffff1614156107f8576040517f08c379a00000000000000000000000000000000000000000000000000000000081526004016107ef90612b10565b60405180910390fd5b80915050919050565b60008073ffffffffffffffffffffffffffffffffffffffff168273ffffffffffffffffffffffffffffffffffffffff161415610872576040517f08c379a000000000000000000000000000000000000000000000000000000000815260040161086990612a90565b60405180910390fd5b600360008373ffffffffffffffffffffffffffffffffffffffff1673ffffffffffffffffffffffffffffffffffffffff168152602001908152602001600020549050919050565b6108c16111fc565b6108cb600061130a565b565b6000600760009054906101000a900473ffffffffffffffffffffffffffffffffffffffff16905090565b60606001805461090690612d28565b80601f016020809104026020016040519081016040528092919081815260200182805461093290612d28565b801561097f5780601f106109545761010080835404028352916020019161097f565b820191906000526020600020905b81548152906001019060200180831161096257829003601f168201915b5050505050905090565b61099b610994610dbd565b83836113d0565b5050565b6109b06109aa610dbd565b83610e7e565b6109ef576040517f08c379a00000000000000000000000000000000000000000000000000000000081526004016109e690612990565b60405180910390fd5b6109fb8484848461153d565b50505050565b6060610a0c82610d72565b6000600660008481526020019081526020016000208054610a2c90612d28565b80601f0160208091040260200160405190810160405280929190818152602001828054610a5890612d28565b8015610aa55780601f10610a7a57610100808354040283529160200191610aa5565b820191906000526020600020905b815481529060010190602001808311610a8857829003601f168201915b505050505090506000610ab6611599565b9050600081511415610acc578192505050610b0f565b600082511115610b01578082604051602001610ae99291906128c8565b60405160208183030381529060405292505050610b0f565b610b0a846115b0565b925050505b919050565b610b1c6111fc565b6000610b286008611618565b9050610b56600960009054906101000a900473ffffffffffffffffffffffffffffffffffffffff1682611626565b610ba48184848080601f016020809104026020016040519081016040528093929190818152602001838380828437600081840152601f19601f82011690508083019250505050505050611644565b610bae6008610cf2565b7f997115af5924f5e38964c6d65c804d4cb85129b65e62eb20a8ca6329dbe57e1881858585610bdb610dbd565b604051610bec959493929190612b8b565b60405180910390a150505050565b60008173ffffffffffffffffffffffffffffffffffffffff16600960009054906101000a900473ffffffffffffffffffffffffffffffffffffffff1673ffffffffffffffffffffffffffffffffffffffff161415610c5b5760019050610c68565b610c6583836116b8565b90505b92915050565b610c766111fc565b600073ffffffffffffffffffffffffffffffffffffffff168173ffffffffffffffffffffffffffffffffffffffff161415610ce6576040517f08c379a0000000000000000000000000000000000000000000000000000000008152600401610cdd906129d0565b60405180910390fd5b610cef8161130a565b50565b6001816000016000828254019250508190555050565b60007f01ffc9a7000000000000000000000000000000000000000000000000000000007bffffffffffffffffffffffffffffffffffffffffffffffffffffffff1916827bffffffffffffffffffffffffffffffffffffffffffffffffffffffff1916149050919050565b610d7b8161174c565b610dba576040517f08c379a0000000000000000000000000000000000000000000000000000000008152600401610db190612b10565b60405180910390fd5b50565b600033905090565b816004600083815260200190815260200160002060006101000a81548173ffffffffffffffffffffffffffffffffffffffff021916908373ffffffffffffffffffffffffffffffffffffffff160217905550808273ffffffffffffffffffffffffffffffffffffffff16610e388361077a565b73ffffffffffffffffffffffffffffffffffffffff167f8c5be1e5ebec7d5bd14f71427d1e84f3dd0314c0f7b2291e5b200ac8c7c3b92560405160405180910390a45050565b6000610e898261174c565b610ec8576040517f08c379a0000000000000000000000000000000000000000000000000000000008152600401610ebf90612a70565b60405180910390fd5b6000610ed38361077a565b9050610edf8185610bfa565b15610eee576001915050610efc565b610ef8848461178d565b9150505b92915050565b8273ffffffffffffffffffffffffffffffffffffffff16610f228261077a565b73ffffffffffffffffffffffffffffffffffffffff1614610f78576040517f08c379a0000000000000000000000000000000000000000000000000000000008152600401610f6f906129f0565b60405180910390fd5b600073ffffffffffffffffffffffffffffffffffffffff168273ffffffffffffffffffffffffffffffffffffffff161415610fe8576040517f08c379a0000000000000000000000000000000000000000000000000000000008152600401610fdf90612a30565b60405180910390fd5b610ff58383836001611822565b8273ffffffffffffffffffffffffffffffffffffffff166110158261077a565b73ffffffffffffffffffffffffffffffffffffffff161461106b576040517f08c379a0000000000000000000000000000000000000000000000000000000008152600401611062906129f0565b60405180910390fd5b6004600082815260200190815260200160002060006101000a81549073ffffffffffffffffffffffffffffffffffffffff02191690556001600360008573ffffffffffffffffffffffffffffffffffffffff1673ffffffffffffffffffffffffffffffffffffffff168152602001908152602001600020600082825403925050819055506001600360008473ffffffffffffffffffffffffffffffffffffffff1673ffffffffffffffffffffffffffffffffffffffff16815260200190815260200160002060008282540192505081905550816002600083815260200190815260200160002060006101000a81548173ffffffffffffffffffffffffffffffffffffffff021916908373ffffffffffffffffffffffffffffffffffffffff160217905550808273ffffffffffffffffffffffffffffffffffffffff168473ffffffffffffffffffffffffffffffffffffffff167fddf252ad1be2c89b69c2b068fc378daa952ba7f163c4a11628f55a4df523b3ef60405160405180910390a46111f78383836001611828565b505050565b611204610dbd565b73ffffffffffffffffffffffffffffffffffffffff166112226108cd565b73ffffffffffffffffffffffffffffffffffffffff1614611278576040517f08c379a000000000000000000000000000000000000000000000000000000000815260040161126f90612af0565b60405180910390fd5b565b6112838161182e565b60006006600083815260200190815260200160002080546112a390612d28565b9050146112ca576006600082815260200190815260200160002060006112c9919061210a565b5b50565b60006002600083815260200190815260200160002060009054906101000a900473ffffffffffffffffffffffffffffffffffffffff169050919050565b6000600760009054906101000a900473ffffffffffffffffffffffffffffffffffffffff16905081600760006101000a81548173ffffffffffffffffffffffffffffffffffffffff021916908373ffffffffffffffffffffffffffffffffffffffff1602179055508173ffffffffffffffffffffffffffffffffffffffff168173ffffffffffffffffffffffffffffffffffffffff167f8be0079c531659141344cd1fd0a4f28419497f9722a3daafe3b4186f6b6457e060405160405180910390a35050565b8173ffffffffffffffffffffffffffffffffffffffff168373ffffffffffffffffffffffffffffffffffffffff16141561143f576040517f08c379a000000000000000000000000000000000000000000000000000000000815260040161143690612a50565b60405180910390fd5b80600560008573ffffffffffffffffffffffffffffffffffffffff1673ffffffffffffffffffffffffffffffffffffffff16815260200190815260200160002060008473ffffffffffffffffffffffffffffffffffffffff1673ffffffffffffffffffffffffffffffffffffffff16815260200190815260200160002060006101000a81548160ff0219169083151502179055508173ffffffffffffffffffffffffffffffffffffffff168373ffffffffffffffffffffffffffffffffffffffff167f17307eab39ab6107e8899845ad3d59bd9653f200f220920489ca2b5937696c31836040516115309190612953565b60405180910390a3505050565b611548848484610f02565b6115548484848461197c565b611593576040517f08c379a000000000000000000000000000000000000000000000000000000000815260040161158a906129b0565b60405180910390fd5b50505050565b606060405180602001604052806000815250905090565b60606115bb82610d72565b60006115c5611599565b905060008151116115e55760405180602001604052806000815250611610565b806115ef84611b13565b6040516020016116009291906128c8565b6040516020818303038152906040525b915050919050565b600081600001549050919050565b611640828260405180602001604052806000815250611c37565b5050565b61164d8261174c565b61168c576040517f08c379a000000000000000000000000000000000000000000000000000000000815260040161168390612ab0565b60405180910390fd5b806006600084815260200190815260200160002090805190602001906116b392919061214a565b505050565b6000600560008473ffffffffffffffffffffffffffffffffffffffff1673ffffffffffffffffffffffffffffffffffffffff16815260200190815260200160002060008373ffffffffffffffffffffffffffffffffffffffff1673ffffffffffffffffffffffffffffffffffffffff16815260200190815260200160002060009054906101000a900460ff16905092915050565b60008073ffffffffffffffffffffffffffffffffffffffff1661176e836112cd565b73ffffffffffffffffffffffffffffffffffffffff1614159050919050565b6000806117998361077a565b90508073ffffffffffffffffffffffffffffffffffffffff168473ffffffffffffffffffffffffffffffffffffffff1614806117db57506117da8185610bfa565b5b8061181957508373ffffffffffffffffffffffffffffffffffffffff166118018461052e565b73ffffffffffffffffffffffffffffffffffffffff16145b91505092915050565b50505050565b50505050565b60006118398261077a565b9050611849816000846001611822565b6118528261077a565b90506004600083815260200190815260200160002060006101000a81549073ffffffffffffffffffffffffffffffffffffffff02191690556001600360008373ffffffffffffffffffffffffffffffffffffffff1673ffffffffffffffffffffffffffffffffffffffff168152602001908152602001600020600082825403925050819055506002600083815260200190815260200160002060006101000a81549073ffffffffffffffffffffffffffffffffffffffff021916905581600073ffffffffffffffffffffffffffffffffffffffff168273ffffffffffffffffffffffffffffffffffffffff167fddf252ad1be2c89b69c2b068fc378daa952ba7f163c4a11628f55a4df523b3ef60405160405180910390a4611978816000846001611828565b5050565b600061199d8473ffffffffffffffffffffffffffffffffffffffff16611c92565b15611b06578373ffffffffffffffffffffffffffffffffffffffff1663150b7a026119c6610dbd565b8786866040518563ffffffff1660e01b81526004016119e89493929190612907565b602060405180830381600087803b158015611a0257600080fd5b505af1925050508015611a3357506040513d601f19601f82011682018060405250810190611a309190612530565b60015b611ab6573d8060008114611a63576040519150601f19603f3d011682016040523d82523d6000602084013e611a68565b606091505b50600081511415611aae576040517f08c379a0000000000000000000000000000000000000000000000000000000008152600401611aa5906129b0565b60405180910390fd5b805181602001fd5b63150b7a0260e01b7bffffffffffffffffffffffffffffffffffffffffffffffffffffffff1916817bffffffffffffffffffffffffffffffffffffffffffffffffffffffff191614915050611b0b565b600190505b949350505050565b606060006001611b2284611cb5565b01905060008167ffffffffffffffff811115611b67577f4e487b7100000000000000000000000000000000000000000000000000000000600052604160045260246000fd5b6040519080825280601f01601f191660200182016040528015611b995781602001600182028036833780820191505090505b509050600082602001820190505b600115611c2c578080600190039150507f3031323334353637383961626364656600000000000000000000000000000000600a86061a8153600a8581611c16577f4e487b7100000000000000000000000000000000000000000000000000000000600052601260045260246000fd5b0494506000851415611c2757611c2c565b611ba7565b819350505050919050565b611c418383611eec565b611c4e600084848461197c565b611c8d576040517f08c379a0000000000000000000000000000000000000000000000000000000008152600401611c84906129b0565b60405180910390fd5b505050565b6000808273ffffffffffffffffffffffffffffffffffffffff163b119050919050565b600080600090507a184f03e93ff9f4daa797ed6e38ed64bf6a1f0100000000000000008310611d39577a184f03e93ff9f4daa797ed6e38ed64bf6a1f0100000000000000008381611d2f577f4e487b7100000000000000000000000000000000000000000000000000000000600052601260045260246000fd5b0492506040810190505b6d04ee2d6d415b85acef81000000008310611d9c576d04ee2d6d415b85acef81000000008381611d92577f4e487b7100000000000000000000000000000000000000000000000000000000600052601260045260246000fd5b0492506020810190505b662386f26fc100008310611df157662386f26fc100008381611de7577f4e487b7100000000000000000000000000000000000000000000000000000000600052601260045260246000fd5b0492506010810190505b6305f5e1008310611e40576305f5e1008381611e36577f4e487b7100000000000000000000000000000000000000000000000000000000600052601260045260246000fd5b0492506008810190505b6127108310611e8b576127108381611e81577f4e487b7100000000000000000000000000000000000000000000000000000000600052601260045260246000fd5b0492506004810190505b60648310611ed45760648381611eca577f4e487b7100000000000000000000000000000000000000000000000000000000600052601260045260246000fd5b0492506002810190505b600a8310611ee3576001810190505b80915050919050565b600073ffffffffffffffffffffffffffffffffffffffff168273ffffffffffffffffffffffffffffffffffffffff161415611f5c576040517f08c379a0000000000000000000000000000000000000000000000000000000008152600401611f5390612ad0565b60405180910390fd5b611f658161174c565b15611fa5576040517f08c379a0000000000000000000000000000000000000000000000000000000008152600401611f9c90612a10565b60405180910390fd5b611fb3600083836001611822565b611fbc8161174c565b15611ffc576040517f08c379a0000000000000000000000000000000000000000000000000000000008152600401611ff390612a10565b60405180910390fd5b6001600360008473ffffffffffffffffffffffffffffffffffffffff1673ffffffffffffffffffffffffffffffffffffffff16815260200190815260200160002060008282540192505081905550816002600083815260200190815260200160002060006101000a81548173ffffffffffffffffffffffffffffffffffffffff021916908373ffffffffffffffffffffffffffffffffffffffff160217905550808273ffffffffffffffffffffffffffffffffffffffff16600073ffffffffffffffffffffffffffffffffffffffff167fddf252ad1be2c89b69c2b068fc378daa952ba7f163c4a11628f55a4df523b3ef60405160405180910390a4612106600083836001611828565b5050565b50805461211690612d28565b6000825580601f106121285750612147565b601f01602090049060005260206000209081019061214691906121d0565b5b50565b82805461215690612d28565b90600052602060002090601f01602090048101928261217857600085556121bf565b82601f1061219157805160ff19168380011785556121bf565b828001600101855582156121bf579182015b828111156121be5782518255916020019190600101906121a3565b5b5090506121cc91906121d0565b5090565b5b808211156121e95760008160009055506001016121d1565b5090565b60006122006121fb84612bfe565b612bd9565b90508281526020810184848401111561221857600080fd5b612223848285612ce6565b509392505050565b60008135905061223a816131dd565b92915050565b60008135905061224f816131f4565b92915050565b6000813590506122648161320b565b92915050565b6000815190506122798161320b565b92915050565b600082601f83011261229057600080fd5b81356122a08482602086016121ed565b91505092915050565b60008083601f8401126122bb57600080fd5b8235905067ffffffffffffffff8111156122d457600080fd5b6020830191508360018202830111156122ec57600080fd5b9250929050565b60008135905061230281613222565b92915050565b60006020828403121561231a57600080fd5b60006123288482850161222b565b91505092915050565b6000806040838503121561234457600080fd5b60006123528582860161222b565b92505060206123638582860161222b565b9150509250929050565b60008060006060848603121561238257600080fd5b60006123908682870161222b565b93505060206123a18682870161222b565b92505060406123b2868287016122f3565b9150509250925092565b600080600080608085870312156123d257600080fd5b60006123e08782880161222b565b94505060206123f18782880161222b565b9350506040612402878288016122f3565b925050606085013567ffffffffffffffff81111561241f57600080fd5b61242b8782880161227f565b91505092959194509250565b6000806040838503121561244a57600080fd5b60006124588582860161222b565b925050602061246985828601612240565b9150509250929050565b60008060006040848603121561248857600080fd5b60006124968682870161222b565b935050602084013567ffffffffffffffff8111156124b357600080fd5b6124bf868287016122a9565b92509250509250925092565b600080604083850312156124de57600080fd5b60006124ec8582860161222b565b92505060206124fd858286016122f3565b9150509250929050565b60006020828403121561251957600080fd5b600061252784828501612255565b91505092915050565b60006020828403121561254257600080fd5b60006125508482850161226a565b91505092915050565b60006020828403121561256b57600080fd5b6000612579848285016122f3565b91505092915050565b6000806040838503121561259557600080fd5b60006125a3858286016122f3565b92505060206125b48582860161222b565b9150509250929050565b6125c781612c72565b82525050565b6125d681612c84565b82525050565b60006125e782612c2f565b6125f18185612c45565b9350612601818560208601612cf5565b61260a81612de9565b840191505092915050565b60006126218385612c56565b935061262e838584612ce6565b61263783612de9565b840190509392505050565b600061264d82612c3a565b6126578185612c56565b9350612667818560208601612cf5565b61267081612de9565b840191505092915050565b600061268682612c3a565b6126908185612c67565b93506126a0818560208601612cf5565b80840191505092915050565b60006126b9602d83612c56565b91506126c482612dfa565b604082019050919050565b60006126dc603283612c56565b91506126e782612e49565b604082019050919050565b60006126ff602683612c56565b915061270a82612e98565b604082019050919050565b6000612722602583612c56565b915061272d82612ee7565b604082019050919050565b6000612745601c83612c56565b915061275082612f36565b602082019050919050565b6000612768602483612c56565b915061277382612f5f565b604082019050919050565b600061278b601983612c56565b915061279682612fae565b602082019050919050565b60006127ae602c83612c56565b91506127b982612fd7565b604082019050919050565b60006127d1602983612c56565b91506127dc82613026565b604082019050919050565b60006127f4602e83612c56565b91506127ff82613075565b604082019050919050565b6000612817602083612c56565b9150612822826130c4565b602082019050919050565b600061283a602083612c56565b9150612845826130ed565b602082019050919050565b600061285d601883612c56565b915061286882613116565b602082019050919050565b6000612880602183612c56565b915061288b8261313f565b604082019050919050565b60006128a3603d83612c56565b91506128ae8261318e565b604082019050919050565b6128c281612cdc565b82525050565b60006128d4828561267b565b91506128e0828461267b565b91508190509392505050565b600060208201905061290160008301846125be565b92915050565b600060808201905061291c60008301876125be565b61292960208301866125be565b61293660408301856128b9565b818103606083015261294881846125dc565b905095945050505050565b600060208201905061296860008301846125cd565b92915050565b600060208201905081810360008301526129888184612642565b905092915050565b600060208201905081810360008301526129a9816126ac565b9050919050565b600060208201905081810360008301526129c9816126cf565b9050919050565b600060208201905081810360008301526129e9816126f2565b9050919050565b60006020820190508181036000830152612a0981612715565b9050919050565b60006020820190508181036000830152612a2981612738565b9050919050565b60006020820190508181036000830152612a498161275b565b9050919050565b60006020820190508181036000830152612a698161277e565b9050919050565b60006020820190508181036000830152612a89816127a1565b9050919050565b60006020820190508181036000830152612aa9816127c4565b9050919050565b60006020820190508181036000830152612ac9816127e7565b9050919050565b60006020820190508181036000830152612ae98161280a565b9050919050565b60006020820190508181036000830152612b098161282d565b9050919050565b60006020820190508181036000830152612b2981612850565b9050919050565b60006020820190508181036000830152612b4981612873565b9050919050565b60006020820190508181036000830152612b6981612896565b9050919050565b6000602082019050612b8560008301846128b9565b92915050565b6000608082019050612ba060008301886128b9565b612bad60208301876125be565b8181036040830152612bc0818587612615565b9050612bcf60608301846125be565b9695505050505050565b6000612be3612bf4565b9050612bef8282612d5a565b919050565b6000604051905090565b600067ffffffffffffffff821115612c1957612c18612dba565b5b612c2282612de9565b9050602081019050919050565b600081519050919050565b600081519050919050565b600082825260208201905092915050565b600082825260208201905092915050565b600081905092915050565b6000612c7d82612cbc565b9050919050565b60008115159050919050565b60007fffffffff0000000000000000000000000000000000000000000000000000000082169050919050565b600073ffffffffffffffffffffffffffffffffffffffff82169050919050565b6000819050919050565b82818337600083830152505050565b60005b83811015612d13578082015181840152602081019050612cf8565b83811115612d22576000848401525b50505050565b60006002820490506001821680612d4057607f821691505b60208210811415612d5457612d53612d8b565b5b50919050565b612d6382612de9565b810181811067ffffffffffffffff82111715612d8257612d81612dba565b5b80604052505050565b7f4e487b7100000000000000000000000000000000000000000000000000000000600052602260045260246000fd5b7f4e487b7100000000000000000000000000000000000000000000000000000000600052604160045260246000fd5b6000601f19601f8301169050919050565b7f4552433732313a2063616c6c6572206973206e6f7420746f6b656e206f776e6560008201527f72206f7220617070726f76656400000000000000000000000000000000000000602082015250565b7f4552433732313a207472616e7366657220746f206e6f6e20455243373231526560008201527f63656976657220696d706c656d656e7465720000000000000000000000000000602082015250565b7f4f776e61626c653a206e6577206f776e657220697320746865207a65726f206160008201527f6464726573730000000000000000000000000000000000000000000000000000602082015250565b7f4552433732313a207472616e736665722066726f6d20696e636f72726563742060008201527f6f776e6572000000000000000000000000000000000000000000000000000000602082015250565b7f4552433732313a20746f6b656e20616c7265616479206d696e74656400000000600082015250565b7f4552433732313a207472616e7366657220746f20746865207a65726f2061646460008201527f7265737300000000000000000000000000000000000000000000000000000000602082015250565b7f4552433732313a20617070726f766520746f2063616c6c657200000000000000600082015250565b7f4552433732313a206f70657261746f7220717565727920666f72206e6f6e657860008201527f697374656e7420746f6b656e0000000000000000000000000000000000000000602082015250565b7f4552433732313a2061646472657373207a65726f206973206e6f74206120766160008201527f6c6964206f776e65720000000000000000000000000000000000000000000000602082015250565b7f45524337323155524953746f726167653a2055524920736574206f66206e6f6e60008201527f6578697374656e7420746f6b656e000000000000000000000000000000000000602082015250565b7f4552433732313a206d696e7420746f20746865207a65726f2061646472657373600082015250565b7f4f776e61626c653a2063616c6c6572206973206e6f7420746865206f776e6572600082015250565b7f4552433732313a20696e76616c696420746f6b656e2049440000000000000000600082015250565b7f4552433732313a20617070726f76616c20746f2063757272656e74206f776e6560008201527f7200000000000000000000000000000000000000000000000000000000000000602082015250565b7f4552433732313a20617070726f76652063616c6c6572206973206e6f7420746f60008201527f6b656e206f776e6572206f7220617070726f76656420666f7220616c6c000000602082015250565b6131e681612c72565b81146131f157600080fd5b50565b6131fd81612c84565b811461320857600080fd5b50565b61321481612c90565b811461321f57600080fd5b50565b61322b81612cdc565b811461323657600080fd5b5056fea2646970667358221220cf4d756c5d86ca871a4679eb0cc534ddb631acdd33cc2563425f9bfeb26a9dfc64736f6c63430008040033a2646970667358221220bbc035fb86aeed3f035c5bd0a8caa53a7954fd149816263f52b0d279c257b03864736f6c63430008040033",
  "linkReferences": {},
  "deployedLinkReferences": {}
}