{
  "_format": "hh-sol-artifact-1",
  "contractName": "CreathAuction",
  "sourceName": "contracts/CreathAuction.sol",
  "abi": [
    {
      "anonymous": false,
      "inputs": [
        {
          "indexed": false,
          "internalType": "address",
          "name": "previousAdmin",
          "type": "address"
        },
        {
          "indexed": false,
          "internalType": "address",
          "name": "newAdmin",
          "type": "address"
        }
      ],
      "name": "AdminChanged",
      "type": "event"
    },
    {
      "anonymous": false,
      "inputs": [
        {
          "indexed": true,
          "internalType": "address",
          "name": "nftAddress",
          "type": "address"
        },
        {
          "indexed": true,
          "internalType": "uint256",
          "name": "tokenId",
          "type": "uint256"
        }
      ],
      "name": "AuctionCancelled",
      "type": "event"
    },
    {
      "anonymous": false,
      "inputs": [
        {
          "indexed": true,
          "internalType": "address",
          "name": "nftAddress",
          "type": "address"
        },
        {
          "indexed": true,
          "internalType": "uint256",
          "name": "tokenId",
          "type": "uint256"
        },
        {
          "indexed": false,
          "internalType": "address",
          "name": "payToken",
          "type": "address"
        }
      ],
      "name": "AuctionCreated",
      "type": "event"
    },
    {
      "anonymous": false,
      "inputs": [
        {
          "indexed": false,
          "internalType": "address",
          "name": "oldOwner",
          "type": "address"
        },
        {
          "indexed": true,
          "internalType": "address",
          "name": "nftAddress",
          "type": "address"
        },
        {
          "indexed": true,
          "internalType": "uint256",
          "name": "tokenId",
          "type": "uint256"
        },
        {
          "indexed": true,
          "internalType": "address",
          "name": "winner",
          "type": "address"
        },
        {
          "indexed": false,
          "internalType": "address",
          "name": "payToken",
          "type": "address"
        },
        {
          "indexed": false,
          "internalType": "int256",
          "name": "unitPrice",
          "type": "int256"
        },
        {
          "indexed": false,
          "internalType": "uint256",
          "name": "winningBid",
          "type": "uint256"
        }
      ],
      "name": "AuctionResulted",
      "type": "event"
    },
    {
      "anonymous": false,
      "inputs": [
        {
          "indexed": true,
          "internalType": "address",
          "name": "beacon",
          "type": "address"
        }
      ],
      "name": "BeaconUpgraded",
      "type": "event"
    },
    {
      "anonymous": false,
      "inputs": [
        {
          "indexed": true,
          "internalType": "address",
          "name": "nftAddress",
          "type": "address"
        },
        {
          "indexed": true,
          "internalType": "uint256",
          "name": "tokenId",
          "type": "uint256"
        },
        {
          "indexed": true,
          "internalType": "address",
          "name": "bidder",
          "type": "address"
        },
        {
          "indexed": false,
          "internalType": "uint256",
          "name": "bid",
          "type": "uint256"
        }
      ],
      "name": "BidPlaced",
      "type": "event"
    },
    {
      "anonymous": false,
      "inputs": [
        {
          "indexed": true,
          "internalType": "address",
          "name": "nftAddress",
          "type": "address"
        },
        {
          "indexed": true,
          "internalType": "uint256",
          "name": "tokenId",
          "type": "uint256"
        },
        {
          "indexed": true,
          "internalType": "address",
          "name": "bidder",
          "type": "address"
        },
        {
          "indexed": false,
          "internalType": "uint256",
          "name": "bid",
          "type": "uint256"
        }
      ],
      "name": "BidRefunded",
      "type": "event"
    },
    {
      "anonymous": false,
      "inputs": [
        {
          "indexed": true,
          "internalType": "address",
          "name": "nftAddress",
          "type": "address"
        },
        {
          "indexed": true,
          "internalType": "uint256",
          "name": "tokenId",
          "type": "uint256"
        },
        {
          "indexed": true,
          "internalType": "address",
          "name": "bidder",
          "type": "address"
        },
        {
          "indexed": false,
          "internalType": "uint256",
          "name": "bid",
          "type": "uint256"
        }
      ],
      "name": "BidWithdrawn",
      "type": "event"
    },
    {
      "anonymous": false,
      "inputs": [
        {
          "indexed": false,
          "internalType": "uint8",
          "name": "version",
          "type": "uint8"
        }
      ],
      "name": "Initialized",
      "type": "event"
    },
    {
      "anonymous": false,
      "inputs": [
        {
          "indexed": true,
          "internalType": "address",
          "name": "previousOwner",
          "type": "address"
        },
        {
          "indexed": true,
          "internalType": "address",
          "name": "newOwner",
          "type": "address"
        }
      ],
      "name": "OwnershipTransferred",
      "type": "event"
    },
    {
      "anonymous": false,
      "inputs": [
        {
          "indexed": false,
          "internalType": "bool",
          "name": "isPaused",
          "type": "bool"
        }
      ],
      "name": "PauseToggled",
      "type": "event"
    },
    {
      "anonymous": false,
      "inputs": [
        {
          "indexed": true,
          "internalType": "address",
          "name": "nftAddress",
          "type": "address"
        },
        {
          "indexed": true,
          "internalType": "uint256",
          "name": "tokenId",
          "type": "uint256"
        },
        {
          "indexed": false,
          "internalType": "uint256",
          "name": "endTime",
          "type": "uint256"
        }
      ],
      "name": "UpdateAuctionEndTime",
      "type": "event"
    },
    {
      "anonymous": false,
      "inputs": [
        {
          "indexed": true,
          "internalType": "address",
          "name": "nftAddress",
          "type": "address"
        },
        {
          "indexed": true,
          "internalType": "uint256",
          "name": "tokenId",
          "type": "uint256"
        },
        {
          "indexed": false,
          "internalType": "address",
          "name": "payToken",
          "type": "address"
        },
        {
          "indexed": false,
          "internalType": "uint256",
          "name": "reservePrice",
          "type": "uint256"
        }
      ],
      "name": "UpdateAuctionReservePrice",
      "type": "event"
    },
    {
      "anonymous": false,
      "inputs": [
        {
          "indexed": true,
          "internalType": "address",
          "name": "nftAddress",
          "type": "address"
        },
        {
          "indexed": true,
          "internalType": "uint256",
          "name": "tokenId",
          "type": "uint256"
        },
        {
          "indexed": false,
          "internalType": "uint256",
          "name": "startTime",
          "type": "uint256"
        }
      ],
      "name": "UpdateAuctionStartTime",
      "type": "event"
    },
    {
      "anonymous": false,
      "inputs": [
        {
          "indexed": false,
          "internalType": "uint256",
          "name": "bidWithdrawalLockTime",
          "type": "uint256"
        }
      ],
      "name": "UpdateBidWithdrawalLockTime",
      "type": "event"
    },
    {
      "anonymous": false,
      "inputs": [
        {
          "indexed": false,
          "internalType": "uint256",
          "name": "minBidIncrement",
          "type": "uint256"
        }
      ],
      "name": "UpdateMinBidIncrement",
      "type": "event"
    },
    {
      "anonymous": false,
      "inputs": [
        {
          "indexed": false,
          "internalType": "uint256",
          "name": "platformFee",
          "type": "uint256"
        }
      ],
      "name": "UpdatePlatformFee",
      "type": "event"
    },
    {
      "anonymous": false,
      "inputs": [
        {
          "indexed": false,
          "internalType": "address payable",
          "name": "platformFeeRecipient",
          "type": "address"
        }
      ],
      "name": "UpdatePlatformFeeRecipient",
      "type": "event"
    },
    {
      "anonymous": false,
      "inputs": [
        {
          "indexed": true,
          "internalType": "address",
          "name": "implementation",
          "type": "address"
        }
      ],
      "name": "Upgraded",
      "type": "event"
    },
    {
      "inputs": [],
      "name": "addressRegistry",
      "outputs": [
        {
          "internalType": "contract ICreathAddressRegistry",
          "name": "",
          "type": "address"
        }
      ],
      "stateMutability": "view",
      "type": "function"
    },
    {
      "inputs": [
        {
          "internalType": "address",
          "name": "",
          "type": "address"
        },
        {
          "internalType": "uint256",
          "name": "",
          "type": "uint256"
        }
      ],
      "name": "auctions",
      "outputs": [
        {
          "internalType": "address",
          "name": "owner",
          "type": "address"
        },
        {
          "internalType": "address",
          "name": "payToken",
          "type": "address"
        },
        {
          "internalType": "uint256",
          "name": "minBid",
          "type": "uint256"
        },
        {
          "internalType": "uint256",
          "name": "reservePrice",
          "type": "uint256"
        },
        {
          "internalType": "uint256",
          "name": "startTime",
          "type": "uint256"
        },
        {
          "internalType": "uint256",
          "name": "endTime",
          "type": "uint256"
        },
        {
          "internalType": "bool",
          "name": "resulted",
          "type": "bool"
        }
      ],
      "stateMutability": "view",
      "type": "function"
    },
    {
      "inputs": [],
      "name": "bidWithdrawalLockTime",
      "outputs": [
        {
          "internalType": "uint256",
          "name": "",
          "type": "uint256"
        }
      ],
      "stateMutability": "view",
      "type": "function"
    },
    {
      "inputs": [
        {
          "internalType": "address",
          "name": "_nftAddress",
          "type": "address"
        },
        {
          "internalType": "uint256",
          "name": "_tokenId",
          "type": "uint256"
        }
      ],
      "name": "cancelAuction",
      "outputs": [],
      "stateMutability": "nonpayable",
      "type": "function"
    },
    {
      "inputs": [
        {
          "internalType": "address",
          "name": "_nftAddress",
          "type": "address"
        },
        {
          "internalType": "uint256",
          "name": "_tokenId",
          "type": "uint256"
        },
        {
          "internalType": "address",
          "name": "_payToken",
          "type": "address"
        },
        {
          "internalType": "uint256",
          "name": "_reservePrice",
          "type": "uint256"
        },
        {
          "internalType": "uint256",
          "name": "_startTimestamp",
          "type": "uint256"
        },
        {
          "internalType": "bool",
          "name": "minBidReserve",
          "type": "bool"
        },
        {
          "internalType": "uint256",
          "name": "_endTimestamp",
          "type": "uint256"
        }
      ],
      "name": "createAuction",
      "outputs": [],
      "stateMutability": "nonpayable",
      "type": "function"
    },
    {
      "inputs": [
        {
          "internalType": "address",
          "name": "_nftAddress",
          "type": "address"
        },
        {
          "internalType": "uint256",
          "name": "_tokenId",
          "type": "uint256"
        }
      ],
      "name": "getAuction",
      "outputs": [
        {
          "internalType": "address",
          "name": "_owner",
          "type": "address"
        },
        {
          "internalType": "address",
          "name": "_payToken",
          "type": "address"
        },
        {
          "internalType": "uint256",
          "name": "_reservePrice",
          "type": "uint256"
        },
        {
          "internalType": "uint256",
          "name": "_startTime",
          "type": "uint256"
        },
        {
          "internalType": "uint256",
          "name": "_endTime",
          "type": "uint256"
        },
        {
          "internalType": "bool",
          "name": "_resulted",
          "type": "bool"
        },
        {
          "internalType": "uint256",
          "name": "minBid",
          "type": "uint256"
        }
      ],
      "stateMutability": "view",
      "type": "function"
    },
    {
      "inputs": [
        {
          "internalType": "address",
          "name": "_nftAddress",
          "type": "address"
        },
        {
          "internalType": "uint256",
          "name": "_tokenId",
          "type": "uint256"
        }
      ],
      "name": "getHighestBidder",
      "outputs": [
        {
          "internalType": "address payable",
          "name": "_bidder",
          "type": "address"
        },
        {
          "internalType": "uint256",
          "name": "_bid",
          "type": "uint256"
        },
        {
          "internalType": "uint256",
          "name": "_lastBidTime",
          "type": "uint256"
        }
      ],
      "stateMutability": "view",
      "type": "function"
    },
    {
      "inputs": [
        {
          "internalType": "address",
          "name": "",
          "type": "address"
        },
        {
          "internalType": "uint256",
          "name": "",
          "type": "uint256"
        }
      ],
      "name": "highestBids",
      "outputs": [
        {
          "internalType": "address payable",
          "name": "bidder",
          "type": "address"
        },
        {
          "internalType": "uint256",
          "name": "bid",
          "type": "uint256"
        },
        {
          "internalType": "uint256",
          "name": "lastBidTime",
          "type": "uint256"
        }
      ],
      "stateMutability": "view",
      "type": "function"
    },
    {
      "inputs": [
        {
          "internalType": "address payable",
          "name": "_platformFeeRecipient",
          "type": "address"
        },
        {
          "internalType": "uint256",
          "name": "_platformFee",
          "type": "uint256"
        },
        {
          "internalType": "uint256",
          "name": "_minBidIncrement",
          "type": "uint256"
        },
        {
          "internalType": "uint256",
          "name": "_bidWithdrawalLockTime",
          "type": "uint256"
        }
      ],
      "name": "initialize",
      "outputs": [],
      "stateMutability": "nonpayable",
      "type": "function"
    },
    {
      "inputs": [],
      "name": "isPaused",
      "outputs": [
        {
          "internalType": "bool",
          "name": "",
          "type": "bool"
        }
      ],
      "stateMutability": "view",
      "type": "function"
    },
    {
      "inputs": [],
      "name": "minBidIncrement",
      "outputs": [
        {
          "internalType": "uint256",
          "name": "",
          "type": "uint256"
        }
      ],
      "stateMutability": "view",
      "type": "function"
    },
    {
      "inputs": [],
      "name": "owner",
      "outputs": [
        {
          "internalType": "address",
          "name": "",
          "type": "address"
        }
      ],
      "stateMutability": "view",
      "type": "function"
    },
    {
      "inputs": [
        {
          "internalType": "address",
          "name": "_nftAddress",
          "type": "address"
        },
        {
          "internalType": "uint256",
          "name": "_tokenId",
          "type": "uint256"
        },
        {
          "internalType": "uint256",
          "name": "_bidAmount",
          "type": "uint256"
        }
      ],
      "name": "placeBid",
      "outputs": [],
      "stateMutability": "nonpayable",
      "type": "function"
    },
    {
      "inputs": [],
      "name": "platformFee",
      "outputs": [
        {
          "internalType": "uint256",
          "name": "",
          "type": "uint256"
        }
      ],
      "stateMutability": "view",
      "type": "function"
    },
    {
      "inputs": [],
      "name": "platformFeeRecipient",
      "outputs": [
        {
          "internalType": "address payable",
          "name": "",
          "type": "address"
        }
      ],
      "stateMutability": "view",
      "type": "function"
    },
    {
      "inputs": [],
      "name": "proxiableUUID",
      "outputs": [
        {
          "internalType": "bytes32",
          "name": "",
          "type": "bytes32"
        }
      ],
      "stateMutability": "view",
      "type": "function"
    },
    {
      "inputs": [
        {
          "internalType": "address",
          "name": "_tokenContract",
          "type": "address"
        }
      ],
      "name": "reclaimERC20",
      "outputs": [],
      "stateMutability": "nonpayable",
      "type": "function"
    },
    {
      "inputs": [],
      "name": "renounceOwnership",
      "outputs": [],
      "stateMutability": "nonpayable",
      "type": "function"
    },
    {
      "inputs": [
        {
          "internalType": "address",
          "name": "_nftAddress",
          "type": "address"
        },
        {
          "internalType": "uint256",
          "name": "_tokenId",
          "type": "uint256"
        }
      ],
      "name": "resultAuction",
      "outputs": [],
      "stateMutability": "nonpayable",
      "type": "function"
    },
    {
      "inputs": [],
      "name": "toggleIsPaused",
      "outputs": [],
      "stateMutability": "nonpayable",
      "type": "function"
    },
    {
      "inputs": [
        {
          "internalType": "address",
          "name": "newOwner",
          "type": "address"
        }
      ],
      "name": "transferOwnership",
      "outputs": [],
      "stateMutability": "nonpayable",
      "type": "function"
    },
    {
      "inputs": [
        {
          "internalType": "address",
          "name": "_registry",
          "type": "address"
        }
      ],
      "name": "updateAddressRegistry",
      "outputs": [],
      "stateMutability": "nonpayable",
      "type": "function"
    },
    {
      "inputs": [
        {
          "internalType": "address",
          "name": "_nftAddress",
          "type": "address"
        },
        {
          "internalType": "uint256",
          "name": "_tokenId",
          "type": "uint256"
        },
        {
          "internalType": "uint256",
          "name": "_endTimestamp",
          "type": "uint256"
        }
      ],
      "name": "updateAuctionEndTime",
      "outputs": [],
      "stateMutability": "nonpayable",
      "type": "function"
    },
    {
      "inputs": [
        {
          "internalType": "address",
          "name": "_nftAddress",
          "type": "address"
        },
        {
          "internalType": "uint256",
          "name": "_tokenId",
          "type": "uint256"
        },
        {
          "internalType": "uint256",
          "name": "_reservePrice",
          "type": "uint256"
        }
      ],
      "name": "updateAuctionReservePrice",
      "outputs": [],
      "stateMutability": "nonpayable",
      "type": "function"
    },
    {
      "inputs": [
        {
          "internalType": "address",
          "name": "_nftAddress",
          "type": "address"
        },
        {
          "internalType": "uint256",
          "name": "_tokenId",
          "type": "uint256"
        },
        {
          "internalType": "uint256",
          "name": "_startTime",
          "type": "uint256"
        }
      ],
      "name": "updateAuctionStartTime",
      "outputs": [],
      "stateMutability": "nonpayable",
      "type": "function"
    },
    {
      "inputs": [
        {
          "internalType": "uint256",
          "name": "_bidWithdrawalLockTime",
          "type": "uint256"
        }
      ],
      "name": "updateBidWithdrawalLockTime",
      "outputs": [],
      "stateMutability": "nonpayable",
      "type": "function"
    },
    {
      "inputs": [
        {
          "internalType": "uint256",
          "name": "_minBidIncrement",
          "type": "uint256"
        }
      ],
      "name": "updateMinBidIncrement",
      "outputs": [],
      "stateMutability": "nonpayable",
      "type": "function"
    },
    {
      "inputs": [
        {
          "internalType": "uint256",
          "name": "_platformFee",
          "type": "uint256"
        }
      ],
      "name": "updatePlatformFee",
      "outputs": [],
      "stateMutability": "nonpayable",
      "type": "function"
    },
    {
      "inputs": [
        {
          "internalType": "address payable",
          "name": "_platformFeeRecipient",
          "type": "address"
        }
      ],
      "name": "updatePlatformFeeRecipient",
      "outputs": [],
      "stateMutability": "nonpayable",
      "type": "function"
    },
    {
      "inputs": [
        {
          "internalType": "address",
          "name": "newImplementation",
          "type": "address"
        }
      ],
      "name": "upgradeTo",
      "outputs": [],
      "stateMutability": "nonpayable",
      "type": "function"
    },
    {
      "inputs": [
        {
          "internalType": "address",
          "name": "newImplementation",
          "type": "address"
        },
        {
          "internalType": "bytes",
          "name": "data",
          "type": "bytes"
        }
      ],
      "name": "upgradeToAndCall",
      "outputs": [],
      "stateMutability": "payable",
      "type": "function"
    },
    {
      "inputs": [
        {
          "internalType": "address",
          "name": "_nftAddress",
          "type": "address"
        },
        {
          "internalType": "uint256",
          "name": "_tokenId",
          "type": "uint256"
        }
      ],
      "name": "withdrawBid",
      "outputs": [],
      "stateMutability": "nonpayable",
      "type": "function"
    }
  ],
  "bytecode": "0x60a06040523073ffffffffffffffffffffffffffffffffffffffff1660809073ffffffffffffffffffffffffffffffffffffffff1660601b81525034801561004657600080fd5b5060805160601c617cec6200008260003960008181610aa301528181610b3201528181611220015281816112af015261135f0152617cec6000f3fe6080604052600436106101e35760003560e01c8063715018a611610102578063aa0b598811610095578063f2fde38b11610064578063f2fde38b146106b3578063f3ad65f4146106dc578063f5fe7f7114610707578063f9613d7f14610730576101e3565b8063aa0b59881461060b578063ab2870e214610634578063b187bd261461065d578063eb13554f14610688576101e3565b80638da5cb5b116100d15780638da5cb5b1461054f5780639ad2d9ec1461057a578063a062feb9146105a3578063a670a9b4146105cc576101e3565b8063715018a6146104a3578063762a66a2146104ba578063859b97fe146104fd5780638905fd4f14610526576101e3565b80634f1ef2861161017a57806368e79e891161014957806368e79e89146103e75780636a5362f6146104105780636b753f361461043b5780636c58a5a41461047a576101e3565b80634f1ef2861461034e57806352d1902d1461036a5780635f7063ef14610395578063623de5ad146103be576101e3565b80633659cfe6116101b65780633659cfe61461029057806344f91c1e146102b95780634cb8ef5b146102fc5780634ec81af114610325576101e3565b806304717aca146101e8578063083759e01461021157806326232a2e1461023a578063335b115e14610265575b600080fd5b3480156101f457600080fd5b5061020f600480360381019061020a9190615833565b610747565b005b34801561021d57600080fd5b5061023860048036038101906102339190615975565b610a4c565b005b34801561024657600080fd5b5061024f610a95565b60405161025c9190616a67565b60405180910390f35b34801561027157600080fd5b5061027a610a9b565b6040516102879190616a67565b60405180910390f35b34801561029c57600080fd5b506102b760048036038101906102b29190615627565b610aa1565b005b3480156102c557600080fd5b506102e060048036038101906102db9190615759565b610c50565b6040516102f39796959493929190616341565b60405180910390f35b34801561030857600080fd5b50610323600480360381019061031e9190615759565b610cec565b005b34801561033157600080fd5b5061034c600480360381019061034791906156a2565b611015565b005b61036860048036038101906103639190615705565b61121e565b005b34801561037657600080fd5b5061037f61135b565b60405161038c91906163f4565b60405180910390f35b3480156103a157600080fd5b506103bc60048036038101906103b79190615759565b611414565b005b3480156103ca57600080fd5b506103e560048036038101906103e09190615975565b6129b8565b005b3480156103f357600080fd5b5061040e60048036038101906104099190615627565b612a01565b005b34801561041c57600080fd5b50610425612a4e565b6040516104329190616a67565b60405180910390f35b34801561044757600080fd5b50610462600480360381019061045d9190615759565b612a54565b604051610471939291906161f6565b60405180910390f35b34801561048657600080fd5b506104a1600480360381019061049c9190615833565b612aab565b005b3480156104af57600080fd5b506104b8612d7e565b005b3480156104c657600080fd5b506104e160048036038101906104dc9190615759565b612d92565b6040516104f497969594939291906162d2565b60405180910390f35b34801561050957600080fd5b50610524600480360381019061051f9190615759565b612e7b565b005b34801561053257600080fd5b5061054d60048036038101906105489190615627565b6131b3565b005b34801561055b57600080fd5b50610564613395565b6040516105719190616197565b60405180910390f35b34801561058657600080fd5b506105a1600480360381019061059c9190615833565b6133bf565b005b3480156105af57600080fd5b506105ca60048036038101906105c59190615833565b61363a565b005b3480156105d857600080fd5b506105f360048036038101906105ee9190615759565b613844565b604051610602939291906161f6565b60405180910390f35b34801561061757600080fd5b50610632600480360381019061062d9190615975565b6138d9565b005b34801561064057600080fd5b5061065b60048036038101906106569190615795565b613922565b005b34801561066957600080fd5b50610672613d9c565b60405161067f91906163d9565b60405180910390f35b34801561069457600080fd5b5061069d613db0565b6040516106aa91906161b2565b60405180910390f35b3480156106bf57600080fd5b506106da60048036038101906106d59190615627565b613dd7565b005b3480156106e857600080fd5b506106f1613e5b565b6040516106fe919061640f565b60405180910390f35b34801561071357600080fd5b5061072e60048036038101906107299190615679565b613e82565b005b34801561073c57600080fd5b50610745613f76565b005b61074f613ff3565b61010160149054906101000a900460ff16156107a0576040517f08c379a0000000000000000000000000000000000000000000000000000000008152600401610797906168c7565b60405180910390fd5b600015156107ca6107af614043565b73ffffffffffffffffffffffffffffffffffffffff1661404b565b15151461080c576040517f08c379a000000000000000000000000000000000000000000000000000000000815260040161080390616a27565b60405180910390fd5b600060fb60008573ffffffffffffffffffffffffffffffffffffffff1673ffffffffffffffffffffffffffffffffffffffff16815260200190815260200160002060008481526020019081526020016000206040518060e00160405290816000820160009054906101000a900473ffffffffffffffffffffffffffffffffffffffff1673ffffffffffffffffffffffffffffffffffffffff1673ffffffffffffffffffffffffffffffffffffffff1681526020016001820160009054906101000a900473ffffffffffffffffffffffffffffffffffffffff1673ffffffffffffffffffffffffffffffffffffffff1673ffffffffffffffffffffffffffffffffffffffff168152602001600282015481526020016003820154815260200160048201548152602001600582015481526020016006820160009054906101000a900460ff1615151515815250509050806080015161096761406e565b1015801561098057508060a0015161097d61406e565b11155b6109bf576040517f08c379a00000000000000000000000000000000000000000000000000000000081526004016109b690616787565b60405180910390fd5b600073ffffffffffffffffffffffffffffffffffffffff16816020015173ffffffffffffffffffffffffffffffffffffffff161415610a33576040517f08c379a0000000000000000000000000000000000000000000000000000000008152600401610a2a90616827565b60405180910390fd5b610a3e848484614076565b50610a476144e4565b505050565b610a546144ee565b8060fd819055507f489b0441344cbdcb036bee4857de51567f580e9747166f76b581be803ca45fcb81604051610a8a9190616a67565b60405180910390a150565b60ff5481565b60fd5481565b7f000000000000000000000000000000000000000000000000000000000000000073ffffffffffffffffffffffffffffffffffffffff163073ffffffffffffffffffffffffffffffffffffffff161415610b30576040517f08c379a0000000000000000000000000000000000000000000000000000000008152600401610b2790616527565b60405180910390fd5b7f000000000000000000000000000000000000000000000000000000000000000073ffffffffffffffffffffffffffffffffffffffff16610b6f61456c565b73ffffffffffffffffffffffffffffffffffffffff1614610bc5576040517f08c379a0000000000000000000000000000000000000000000000000000000008152600401610bbc90616687565b60405180910390fd5b610bce816145c3565b610c4d81600067ffffffffffffffff811115610c13577f4e487b7100000000000000000000000000000000000000000000000000000000600052604160045260246000fd5b6040519080825280601f01601f191660200182016040528015610c455781602001600182028036833780820191505090505b5060006145ce565b50565b60fb602052816000526040600020602052806000526040600020600091509150508060000160009054906101000a900473ffffffffffffffffffffffffffffffffffffffff16908060010160009054906101000a900473ffffffffffffffffffffffffffffffffffffffff16908060020154908060030154908060040154908060050154908060060160009054906101000a900460ff16905087565b610cf4613ff3565b61010160149054906101000a900460ff1615610d45576040517f08c379a0000000000000000000000000000000000000000000000000000000008152600401610d3c906168c7565b60405180910390fd5b600060fc60008473ffffffffffffffffffffffffffffffffffffffff1673ffffffffffffffffffffffffffffffffffffffff16815260200190815260200160002060008381526020019081526020016000209050610da1614043565b73ffffffffffffffffffffffffffffffffffffffff168160000160009054906101000a900473ffffffffffffffffffffffffffffffffffffffff1673ffffffffffffffffffffffffffffffffffffffff1614610e32576040517f08c379a0000000000000000000000000000000000000000000000000000000008152600401610e29906169a7565b60405180910390fd5b600060fb60008573ffffffffffffffffffffffffffffffffffffffff1673ffffffffffffffffffffffffffffffffffffffff168152602001908152602001600020600084815260200190815260200160002060050154905080610e9361406e565b118015610eb4575061a8c081610ea761406e565b610eb19190616beb565b10155b610ef3576040517f08c379a0000000000000000000000000000000000000000000000000000000008152600401610eea906166a7565b60405180910390fd5b60008260010154905060fc60008673ffffffffffffffffffffffffffffffffffffffff1673ffffffffffffffffffffffffffffffffffffffff1681526020019081526020016000206000858152602001908152602001600020600080820160006101000a81549073ffffffffffffffffffffffffffffffffffffffff0219169055600182016000905560028201600090555050610f998585610f93614043565b8461474b565b610fa1614043565b73ffffffffffffffffffffffffffffffffffffffff16848673ffffffffffffffffffffffffffffffffffffffff167f867b8ea96dd803063f905a19f8117cbb1866ec7a594dfede75ab4a5235f61d7c84604051610ffe9190616a67565b60405180910390a45050506110116144e4565b5050565b60008060019054906101000a900460ff161590508080156110465750600160008054906101000a900460ff1660ff16105b8061107357506110553061404b565b1580156110725750600160008054906101000a900460ff1660ff16145b5b6110b2576040517f08c379a00000000000000000000000000000000000000000000000000000000081526004016110a990616747565b60405180910390fd5b60016000806101000a81548160ff021916908360ff16021790555080156110ef576001600060016101000a81548160ff0219169083151502179055505b6110f7614ac8565b600073ffffffffffffffffffffffffffffffffffffffff168573ffffffffffffffffffffffffffffffffffffffff161415611167576040517f08c379a000000000000000000000000000000000000000000000000000000000815260040161115e90616a47565b60405180910390fd5b8461010060006101000a81548173ffffffffffffffffffffffffffffffffffffffff021916908373ffffffffffffffffffffffffffffffffffffffff1602179055508360ff819055508260fd819055508160fe8190555080156112175760008060016101000a81548160ff0219169083151502179055507f7f26b83ff96e1f2b6a682f133852f6798a09c465da95921460cefb3847402498600160405161120e919061642a565b60405180910390a15b5050505050565b7f000000000000000000000000000000000000000000000000000000000000000073ffffffffffffffffffffffffffffffffffffffff163073ffffffffffffffffffffffffffffffffffffffff1614156112ad576040517f08c379a00000000000000000000000000000000000000000000000000000000081526004016112a490616527565b60405180910390fd5b7f000000000000000000000000000000000000000000000000000000000000000073ffffffffffffffffffffffffffffffffffffffff166112ec61456c565b73ffffffffffffffffffffffffffffffffffffffff1614611342576040517f08c379a000000000000000000000000000000000000000000000000000000000815260040161133990616687565b60405180910390fd5b61134b826145c3565b611357828260016145ce565b5050565b60007f000000000000000000000000000000000000000000000000000000000000000073ffffffffffffffffffffffffffffffffffffffff163073ffffffffffffffffffffffffffffffffffffffff16146113eb576040517f08c379a00000000000000000000000000000000000000000000000000000000081526004016113e2906166e7565b60405180910390fd5b7f360894a13ba1a3210667c828492db98dca3e2076cc3735a920a3ca505d382bbc60001b905090565b61141c613ff3565b600060fb60008473ffffffffffffffffffffffffffffffffffffffff1673ffffffffffffffffffffffffffffffffffffffff16815260200190815260200160002060008381526020019081526020016000209050611478614043565b73ffffffffffffffffffffffffffffffffffffffff168373ffffffffffffffffffffffffffffffffffffffff16636352211e846040518263ffffffff1660e01b81526004016114c79190616a67565b60206040518083038186803b1580156114df57600080fd5b505afa1580156114f3573d6000803e3d6000fd5b505050506040513d601f19601f820116820180604052508101906115179190615650565b73ffffffffffffffffffffffffffffffffffffffff1614801561159057508060000160009054906101000a900473ffffffffffffffffffffffffffffffffffffffff1673ffffffffffffffffffffffffffffffffffffffff16611578614043565b73ffffffffffffffffffffffffffffffffffffffff16145b6115cf576040517f08c379a00000000000000000000000000000000000000000000000000000000081526004016115c690616627565b60405180910390fd5b6000816005015411611616576040517f08c379a000000000000000000000000000000000000000000000000000000000815260040161160d90616507565b60405180910390fd5b806005015461162361406e565b11611663576040517f08c379a000000000000000000000000000000000000000000000000000000000815260040161165a90616847565b60405180910390fd5b8060060160009054906101000a900460ff16156116b5576040517f08c379a00000000000000000000000000000000000000000000000000000000081526004016116ac90616547565b60405180910390fd5b600060fc60008573ffffffffffffffffffffffffffffffffffffffff1673ffffffffffffffffffffffffffffffffffffffff1681526020019081526020016000206000848152602001908152602001600020905060008160000160009054906101000a900473ffffffffffffffffffffffffffffffffffffffff169050600082600101549050600073ffffffffffffffffffffffffffffffffffffffff168273ffffffffffffffffffffffffffffffffffffffff1614156117ab576040517f08c379a00000000000000000000000000000000000000000000000000000000081526004016117a290616707565b60405180910390fd5b83600301548110156117f2576040517f08c379a00000000000000000000000000000000000000000000000000000000081526004016117e990616907565b60405180910390fd5b8573ffffffffffffffffffffffffffffffffffffffff1663e985e9c5611816614043565b306040518363ffffffff1660e01b815260040161183492919061622d565b60206040518083038186803b15801561184c57600080fd5b505afa158015611860573d6000803e3d6000fd5b505050506040513d601f19601f820116820180604052508101906118849190615882565b6118c3576040517f08c379a00000000000000000000000000000000000000000000000000000000081526004016118ba90616467565b60405180910390fd5b60018460060160006101000a81548160ff02191690831515021790555060fc60008773ffffffffffffffffffffffffffffffffffffffff1673ffffffffffffffffffffffffffffffffffffffff1681526020019081526020016000206000868152602001908152602001600020600080820160006101000a81549073ffffffffffffffffffffffffffffffffffffffff021916905560018201600090556002820160009055505060008460030154821115611c24576000611991866003015484614b2190919063ffffffff16565b905060006119be6103e86119b060ff5485614b3790919063ffffffff16565b614b4d90919063ffffffff16565b9050600073ffffffffffffffffffffffffffffffffffffffff168760010160009054906101000a900473ffffffffffffffffffffffffffffffffffffffff1673ffffffffffffffffffffffffffffffffffffffff161415611aee57600061010060009054906101000a900473ffffffffffffffffffffffffffffffffffffffff1673ffffffffffffffffffffffffffffffffffffffff1682604051611a6290616182565b60006040518083038185875af1925050503d8060008114611a9f576040519150601f19603f3d011682016040523d82523d6000602084013e611aa4565b606091505b5050905080611ae8576040517f08c379a0000000000000000000000000000000000000000000000000000000008152600401611adf906164e7565b60405180910390fd5b50611c08565b60008760010160009054906101000a900473ffffffffffffffffffffffffffffffffffffffff1690508073ffffffffffffffffffffffffffffffffffffffff1663a9059cbb61010060009054906101000a900473ffffffffffffffffffffffffffffffffffffffff16846040518363ffffffff1660e01b8152600401611b759291906161cd565b602060405180830381600087803b158015611b8f57600080fd5b505af1158015611ba3573d6000803e3d6000fd5b505050506040513d601f19601f82011682018060405250810190611bc79190615882565b611c06576040517f08c379a0000000000000000000000000000000000000000000000000000000008152600401611bfd906165a7565b60405180910390fd5b505b611c1b8185614b2190919063ffffffff16565b92505050611c28565b8190505b600061010160009054906101000a900473ffffffffffffffffffffffffffffffffffffffff1673ffffffffffffffffffffffffffffffffffffffff1663abc8c7af6040518163ffffffff1660e01b815260040160206040518083038186803b158015611c9357600080fd5b505afa158015611ca7573d6000803e3d6000fd5b505050506040513d601f19601f82011682018060405250810190611ccb9190615650565b905060008173ffffffffffffffffffffffffffffffffffffffff166378746d0d8a8a6040518363ffffffff1660e01b8152600401611d0a9291906163b0565b60206040518083038186803b158015611d2257600080fd5b505afa158015611d36573d6000803e3d6000fd5b505050506040513d601f19601f82011682018060405250810190611d5a9190615650565b905060008273ffffffffffffffffffffffffffffffffffffffff1663e1e549c48b8b6040518363ffffffff1660e01b8152600401611d999291906163b0565b60206040518083038186803b158015611db157600080fd5b505afa158015611dc5573d6000803e3d6000fd5b505050506040513d601f19601f82011682018060405250810190611de991906158fd565b9050600073ffffffffffffffffffffffffffffffffffffffff168273ffffffffffffffffffffffffffffffffffffffff1614158015611e2d575060008161ffff1614155b1561207e576000611e5f612710611e518461ffff1688614b3790919063ffffffff16565b614b4d90919063ffffffff16565b9050600073ffffffffffffffffffffffffffffffffffffffff168960010160009054906101000a900473ffffffffffffffffffffffffffffffffffffffff1673ffffffffffffffffffffffffffffffffffffffff161415611f6c5760008373ffffffffffffffffffffffffffffffffffffffff1682604051611ee090616182565b60006040518083038185875af1925050503d8060008114611f1d576040519150601f19603f3d011682016040523d82523d6000602084013e611f22565b606091505b5050905080611f66576040517f08c379a0000000000000000000000000000000000000000000000000000000008152600401611f5d90616767565b60405180910390fd5b50612063565b60008960010160009054906101000a900473ffffffffffffffffffffffffffffffffffffffff1690508073ffffffffffffffffffffffffffffffffffffffff1663a9059cbb85846040518363ffffffff1660e01b8152600401611fd09291906163b0565b602060405180830381600087803b158015611fea57600080fd5b505af1158015611ffe573d6000803e3d6000fd5b505050506040513d601f19601f820116820180604052508101906120229190615882565b612061576040517f08c379a000000000000000000000000000000000000000000000000000000000815260040161205890616767565b60405180910390fd5b505b6120768186614b2190919063ffffffff16565b9450506123a1565b8273ffffffffffffffffffffffffffffffffffffffff166357b275b48b6040518263ffffffff1660e01b81526004016120b79190616197565b60606040518083038186803b1580156120cf57600080fd5b505afa1580156120e3573d6000803e3d6000fd5b505050506040513d601f19601f820116820180604052508101906121079190615926565b90508093508192505050600073ffffffffffffffffffffffffffffffffffffffff168273ffffffffffffffffffffffffffffffffffffffff1614158015612153575060008161ffff1614155b156123a05760006121856127106121778461ffff1688614b3790919063ffffffff16565b614b4d90919063ffffffff16565b9050600073ffffffffffffffffffffffffffffffffffffffff168960010160009054906101000a900473ffffffffffffffffffffffffffffffffffffffff1673ffffffffffffffffffffffffffffffffffffffff1614156122925760008373ffffffffffffffffffffffffffffffffffffffff168260405161220690616182565b60006040518083038185875af1925050503d8060008114612243576040519150601f19603f3d011682016040523d82523d6000602084013e612248565b606091505b505090508061228c576040517f08c379a000000000000000000000000000000000000000000000000000000000815260040161228390616987565b60405180910390fd5b50612389565b60008960010160009054906101000a900473ffffffffffffffffffffffffffffffffffffffff1690508073ffffffffffffffffffffffffffffffffffffffff1663a9059cbb85846040518363ffffffff1660e01b81526004016122f69291906163b0565b602060405180830381600087803b15801561231057600080fd5b505af1158015612324573d6000803e3d6000fd5b505050506040513d601f19601f820116820180604052508101906123489190615882565b612387576040517f08c379a000000000000000000000000000000000000000000000000000000000815260040161237e90616987565b60405180910390fd5b505b61239c8186614b2190919063ffffffff16565b9450505b5b60008411156125f557600073ffffffffffffffffffffffffffffffffffffffff168860010160009054906101000a900473ffffffffffffffffffffffffffffffffffffffff1673ffffffffffffffffffffffffffffffffffffffff1614156124d95760008860000160009054906101000a900473ffffffffffffffffffffffffffffffffffffffff1673ffffffffffffffffffffffffffffffffffffffff168560405161244d90616182565b60006040518083038185875af1925050503d806000811461248a576040519150601f19603f3d011682016040523d82523d6000602084013e61248f565b606091505b50509050806124d3576040517f08c379a00000000000000000000000000000000000000000000000000000000081526004016124ca90616647565b60405180910390fd5b506125f4565b60008860010160009054906101000a900473ffffffffffffffffffffffffffffffffffffffff1690508073ffffffffffffffffffffffffffffffffffffffff1663a9059cbb8a60000160009054906101000a900473ffffffffffffffffffffffffffffffffffffffff16876040518363ffffffff1660e01b81526004016125619291906163b0565b602060405180830381600087803b15801561257b57600080fd5b505af115801561258f573d6000803e3d6000fd5b505050506040513d601f19601f820116820180604052508101906125b39190615882565b6125f2576040517f08c379a00000000000000000000000000000000000000000000000000000000081526004016125e990616647565b60405180910390fd5b505b5b8973ffffffffffffffffffffffffffffffffffffffff166342842e0e8b73ffffffffffffffffffffffffffffffffffffffff16636352211e8c6040518263ffffffff1660e01b815260040161264a9190616a67565b60206040518083038186803b15801561266257600080fd5b505afa158015612676573d6000803e3d6000fd5b505050506040513d601f19601f8201168201806040525081019061269a9190615650565b888c6040518463ffffffff1660e01b81526004016126ba9392919061629b565b600060405180830381600087803b1580156126d457600080fd5b505af11580156126e8573d6000803e3d6000fd5b505050508573ffffffffffffffffffffffffffffffffffffffff16898b73ffffffffffffffffffffffffffffffffffffffff167fa717395bf4be1915f0bc8e6cf9b0f526c5ad40a0c3750b709a29a834daf0fd9b612744614043565b8c60010160009054906101000a900473ffffffffffffffffffffffffffffffffffffffff1661010160009054906101000a900473ffffffffffffffffffffffffffffffffffffffff1673ffffffffffffffffffffffffffffffffffffffff1663abc8c7af6040518163ffffffff1660e01b815260040160206040518083038186803b1580156127d257600080fd5b505afa1580156127e6573d6000803e3d6000fd5b505050506040513d601f19601f8201168201806040525081019061280a9190615650565b73ffffffffffffffffffffffffffffffffffffffff166341976e098f60010160009054906101000a900473ffffffffffffffffffffffffffffffffffffffff166040518263ffffffff1660e01b81526004016128669190616197565b60206040518083038186803b15801561287e57600080fd5b505afa158015612892573d6000803e3d6000fd5b505050506040513d601f19601f820116820180604052508101906128b691906158d4565b8b6040516128c79493929190616256565b60405180910390a460fb60008b73ffffffffffffffffffffffffffffffffffffffff1673ffffffffffffffffffffffffffffffffffffffff16815260200190815260200160002060008a8152602001908152602001600020600080820160006101000a81549073ffffffffffffffffffffffffffffffffffffffff02191690556001820160006101000a81549073ffffffffffffffffffffffffffffffffffffffff021916905560028201600090556003820160009055600482016000905560058201600090556006820160006101000a81549060ff0219169055505050505050505050506129b46144e4565b5050565b6129c06144ee565b8060fe819055507ff9e4b69944d3fbdd96aedcda02032e2091346ececc3b55a485b40a6dc09bb9e0816040516129f69190616a67565b60405180910390a150565b612a096144ee565b8061010160006101000a81548173ffffffffffffffffffffffffffffffffffffffff021916908373ffffffffffffffffffffffffffffffffffffffff16021790555050565b60fe5481565b60fc602052816000526040600020602052806000526040600020600091509150508060000160009054906101000a900473ffffffffffffffffffffffffffffffffffffffff16908060010154908060020154905083565b600060fb60008573ffffffffffffffffffffffffffffffffffffffff1673ffffffffffffffffffffffffffffffffffffffff168152602001908152602001600020600084815260200190815260200160002090508060000160009054906101000a900473ffffffffffffffffffffffffffffffffffffffff1673ffffffffffffffffffffffffffffffffffffffff16612b42614043565b73ffffffffffffffffffffffffffffffffffffffff1614612b98576040517f08c379a0000000000000000000000000000000000000000000000000000000008152600401612b8f906168a7565b60405180910390fd5b60008211612bdb576040517f08c379a0000000000000000000000000000000000000000000000000000000008152600401612bd290616a07565b60405180910390fd5b612be361406e565b603c8260040154612bf49190616b0a565b11612c34576040517f08c379a0000000000000000000000000000000000000000000000000000000008152600401612c2b90616667565b60405180910390fd5b806005015461012c83612c479190616b0a565b10612c87576040517f08c379a0000000000000000000000000000000000000000000000000000000008152600401612c7e90616947565b60405180910390fd5b8060060160009054906101000a900460ff1615612cd9576040517f08c379a0000000000000000000000000000000000000000000000000000000008152600401612cd090616547565b60405180910390fd5b6000816005015411612d20576040517f08c379a0000000000000000000000000000000000000000000000000000000008152600401612d1790616507565b60405180910390fd5b818160040181905550828473ffffffffffffffffffffffffffffffffffffffff167ff123182d1bfce603eb20a2f74cce94af6542f353a4c2a8d5cfadf41822b32b3884604051612d709190616a67565b60405180910390a350505050565b612d866144ee565b612d906000614b63565b565b60008060008060008060008060fb60008b73ffffffffffffffffffffffffffffffffffffffff1673ffffffffffffffffffffffffffffffffffffffff16815260200190815260200160002060008a815260200190815260200160002090508060000160009054906101000a900473ffffffffffffffffffffffffffffffffffffffff168160010160009054906101000a900473ffffffffffffffffffffffffffffffffffffffff168260030154836004015484600501548560060160009054906101000a900460ff16866002015497509750975097509750975097505092959891949750929550565b612e83613ff3565b600060fb60008473ffffffffffffffffffffffffffffffffffffffff1673ffffffffffffffffffffffffffffffffffffffff16815260200190815260200160002060008381526020019081526020016000206040518060e00160405290816000820160009054906101000a900473ffffffffffffffffffffffffffffffffffffffff1673ffffffffffffffffffffffffffffffffffffffff1673ffffffffffffffffffffffffffffffffffffffff1681526020016001820160009054906101000a900473ffffffffffffffffffffffffffffffffffffffff1673ffffffffffffffffffffffffffffffffffffffff1673ffffffffffffffffffffffffffffffffffffffff168152602001600282015481526020016003820154815260200160048201548152602001600582015481526020016006820160009054906101000a900460ff1615151515815250509050612fd9614043565b73ffffffffffffffffffffffffffffffffffffffff168373ffffffffffffffffffffffffffffffffffffffff16636352211e846040518263ffffffff1660e01b81526004016130289190616a67565b60206040518083038186803b15801561304057600080fd5b505afa158015613054573d6000803e3d6000fd5b505050506040513d601f19601f820116820180604052508101906130789190615650565b73ffffffffffffffffffffffffffffffffffffffff161480156130d15750806000015173ffffffffffffffffffffffffffffffffffffffff166130b9614043565b73ffffffffffffffffffffffffffffffffffffffff16145b613110576040517f08c379a0000000000000000000000000000000000000000000000000000000008152600401613107906168a7565b60405180910390fd5b60008160a0015111613157576040517f08c379a000000000000000000000000000000000000000000000000000000000815260040161314e90616507565b60405180910390fd5b8060c001511561319c576040517f08c379a000000000000000000000000000000000000000000000000000000000815260040161319390616547565b60405180910390fd5b6131a68383614c29565b506131af6144e4565b5050565b6131bb6144ee565b600073ffffffffffffffffffffffffffffffffffffffff168173ffffffffffffffffffffffffffffffffffffffff16141561322b576040517f08c379a0000000000000000000000000000000000000000000000000000000008152600401613222906169e7565b60405180910390fd5b600081905060008173ffffffffffffffffffffffffffffffffffffffff166370a08231306040518263ffffffff1660e01b815260040161326b9190616197565b60206040518083038186803b15801561328357600080fd5b505afa158015613297573d6000803e3d6000fd5b505050506040513d601f19601f820116820180604052508101906132bb919061599e565b90508173ffffffffffffffffffffffffffffffffffffffff1663a9059cbb6132e1614043565b836040518363ffffffff1660e01b81526004016132ff9291906163b0565b602060405180830381600087803b15801561331957600080fd5b505af115801561332d573d6000803e3d6000fd5b505050506040513d601f19601f820116820180604052508101906133519190615882565b613390576040517f08c379a000000000000000000000000000000000000000000000000000000000815260040161338790616567565b60405180910390fd5b505050565b6000609760009054906101000a900473ffffffffffffffffffffffffffffffffffffffff16905090565b600060fb60008573ffffffffffffffffffffffffffffffffffffffff1673ffffffffffffffffffffffffffffffffffffffff168152602001908152602001600020600084815260200190815260200160002090508060000160009054906101000a900473ffffffffffffffffffffffffffffffffffffffff1673ffffffffffffffffffffffffffffffffffffffff16613456614043565b73ffffffffffffffffffffffffffffffffffffffff16146134ac576040517f08c379a00000000000000000000000000000000000000000000000000000000081526004016134a3906168a7565b60405180910390fd5b80600501546134b961406e565b106134f9576040517f08c379a00000000000000000000000000000000000000000000000000000000081526004016134f0906165c7565b60405180910390fd5b6000816005015411613540576040517f08c379a000000000000000000000000000000000000000000000000000000000815260040161353790616507565b60405180910390fd5b81816004015410613586576040517f08c379a000000000000000000000000000000000000000000000000000000000815260040161357d90616927565b60405180910390fd5b61012c61359161406e565b61359b9190616b0a565b82116135dc576040517f08c379a00000000000000000000000000000000000000000000000000000000081526004016135d3906165e7565b60405180910390fd5b818160050181905550828473ffffffffffffffffffffffffffffffffffffffff167fd8aaad775c4c9b21112b5cb22ab4618c74936d873850fbd6f2e691701119ffe18460405161362c9190616a67565b60405180910390a350505050565b600060fb60008573ffffffffffffffffffffffffffffffffffffffff1673ffffffffffffffffffffffffffffffffffffffff168152602001908152602001600020600084815260200190815260200160002090508060000160009054906101000a900473ffffffffffffffffffffffffffffffffffffffff1673ffffffffffffffffffffffffffffffffffffffff166136d1614043565b73ffffffffffffffffffffffffffffffffffffffff1614613727576040517f08c379a000000000000000000000000000000000000000000000000000000000815260040161371e90616627565b60405180910390fd5b8060060160009054906101000a900460ff1615613779576040517f08c379a000000000000000000000000000000000000000000000000000000000815260040161377090616547565b60405180910390fd5b60008160050154116137c0576040517f08c379a00000000000000000000000000000000000000000000000000000000081526004016137b790616507565b60405180910390fd5b818160030181905550828473ffffffffffffffffffffffffffffffffffffffff167f1492815b4a41d34cc0015f8ba8013fa45717ea6d8591db6036bdca706981fe838360010160009054906101000a900473ffffffffffffffffffffffffffffffffffffffff16856040516138369291906163b0565b60405180910390a350505050565b60008060008060fc60008773ffffffffffffffffffffffffffffffffffffffff1673ffffffffffffffffffffffffffffffffffffffff168152602001908152602001600020600086815260200190815260200160002090508060000160009054906101000a900473ffffffffffffffffffffffffffffffffffffffff1681600101548260020154935093509350509250925092565b6138e16144ee565b8060ff819055507f2644fd26359c107ff7991b6dfc36ce902b334ce4e3891bbecacc5922aa620efa816040516139179190616a67565b60405180910390a150565b61010160149054906101000a900460ff1615613973576040517f08c379a000000000000000000000000000000000000000000000000000000000815260040161396a906168c7565b60405180910390fd5b61397b614043565b73ffffffffffffffffffffffffffffffffffffffff168773ffffffffffffffffffffffffffffffffffffffff16636352211e886040518263ffffffff1660e01b81526004016139ca9190616a67565b60206040518083038186803b1580156139e257600080fd5b505afa1580156139f6573d6000803e3d6000fd5b505050506040513d601f19601f82011682018060405250810190613a1a9190615650565b73ffffffffffffffffffffffffffffffffffffffff16148015613acb57508673ffffffffffffffffffffffffffffffffffffffff1663e985e9c5613a5c614043565b306040518363ffffffff1660e01b8152600401613a7a92919061622d565b60206040518083038186803b158015613a9257600080fd5b505afa158015613aa6573d6000803e3d6000fd5b505050506040513d601f19601f82011682018060405250810190613aca9190615882565b5b613b0a576040517f08c379a0000000000000000000000000000000000000000000000000000000008152600401613b01906164c7565b60405180910390fd5b600073ffffffffffffffffffffffffffffffffffffffff168573ffffffffffffffffffffffffffffffffffffffff161480613d455750600073ffffffffffffffffffffffffffffffffffffffff1661010160009054906101000a900473ffffffffffffffffffffffffffffffffffffffff1673ffffffffffffffffffffffffffffffffffffffff16639d23c4c76040518163ffffffff1660e01b815260040160206040518083038186803b158015613bc157600080fd5b505afa158015613bd5573d6000803e3d6000fd5b505050506040513d601f19601f82011682018060405250810190613bf99190615650565b73ffffffffffffffffffffffffffffffffffffffff1614158015613d44575061010160009054906101000a900473ffffffffffffffffffffffffffffffffffffffff1673ffffffffffffffffffffffffffffffffffffffff16639d23c4c76040518163ffffffff1660e01b815260040160206040518083038186803b158015613c8157600080fd5b505afa158015613c95573d6000803e3d6000fd5b505050506040513d601f19601f82011682018060405250810190613cb99190615650565b73ffffffffffffffffffffffffffffffffffffffff166398afdfe3866040518263ffffffff1660e01b8152600401613cf19190616197565b602060405180830381600087803b158015613d0b57600080fd5b505af1158015613d1f573d6000803e3d6000fd5b505050506040513d601f19601f82011682018060405250810190613d439190615882565b5b5b613d84576040517f08c379a0000000000000000000000000000000000000000000000000000000008152600401613d7b90616867565b60405180910390fd5b613d9387878787878787614eb2565b50505050505050565b61010160149054906101000a900460ff1681565b61010060009054906101000a900473ffffffffffffffffffffffffffffffffffffffff1681565b613ddf6144ee565b600073ffffffffffffffffffffffffffffffffffffffff168173ffffffffffffffffffffffffffffffffffffffff161415613e4f576040517f08c379a0000000000000000000000000000000000000000000000000000000008152600401613e4690616487565b60405180910390fd5b613e5881614b63565b50565b61010160009054906101000a900473ffffffffffffffffffffffffffffffffffffffff1681565b613e8a6144ee565b600073ffffffffffffffffffffffffffffffffffffffff168173ffffffffffffffffffffffffffffffffffffffff161415613efa576040517f08c379a0000000000000000000000000000000000000000000000000000000008152600401613ef1906166c7565b60405180910390fd5b8061010060006101000a81548173ffffffffffffffffffffffffffffffffffffffff021916908373ffffffffffffffffffffffffffffffffffffffff1602179055507fe57e7c1f36cc83fade34e32351e6eee7eb9da532662b1b5da10c631e8222aca781604051613f6b91906161b2565b60405180910390a150565b613f7e6144ee565b61010160149054906101000a900460ff161561010160146101000a81548160ff0219169083151502179055507f9077d36bc00859b5c3f320310707208543dd35092cb0a0fe117d0c6a558b148b61010160149054906101000a900460ff16604051613fe991906163d9565b60405180910390a1565b600260c9541415614039576040517f08c379a0000000000000000000000000000000000000000000000000000000008152600401614030906169c7565b60405180910390fd5b600260c981905550565b600033905090565b6000808273ffffffffffffffffffffffffffffffffffffffff163b119050919050565b600042905090565b61010160149054906101000a900460ff16156140c7576040517f08c379a00000000000000000000000000000000000000000000000000000000081526004016140be906168c7565b60405180910390fd5b600060fb60008573ffffffffffffffffffffffffffffffffffffffff1673ffffffffffffffffffffffffffffffffffffffff16815260200190815260200160002060008481526020019081526020016000209050806003015481600201541415614173578060030154821015614172576040517f08c379a0000000000000000000000000000000000000000000000000000000008152600401614169906164a7565b60405180910390fd5b5b600060fc60008673ffffffffffffffffffffffffffffffffffffffff1673ffffffffffffffffffffffffffffffffffffffff1681526020019081526020016000206000858152602001908152602001600020905060006141e260fd5483600101546151d890919063ffffffff16565b905080841015614227576040517f08c379a000000000000000000000000000000000000000000000000000000000815260040161421e906168e7565b60405180910390fd5b600073ffffffffffffffffffffffffffffffffffffffff168360010160009054906101000a900473ffffffffffffffffffffffffffffffffffffffff1673ffffffffffffffffffffffffffffffffffffffff161461437f5760008360010160009054906101000a900473ffffffffffffffffffffffffffffffffffffffff1690508073ffffffffffffffffffffffffffffffffffffffff166323b872dd6142cc614043565b30886040518463ffffffff1660e01b81526004016142ec9392919061629b565b602060405180830381600087803b15801561430657600080fd5b505af115801561431a573d6000803e3d6000fd5b505050506040513d601f19601f8201168201806040525081019061433e9190615882565b61437d576040517f08c379a000000000000000000000000000000000000000000000000000000000815260040161437490616807565b60405180910390fd5b505b600073ffffffffffffffffffffffffffffffffffffffff168260000160009054906101000a900473ffffffffffffffffffffffffffffffffffffffff1673ffffffffffffffffffffffffffffffffffffffff161461440c5761440b86868460000160009054906101000a900473ffffffffffffffffffffffffffffffffffffffff16856001015461474b565b5b614414614043565b8260000160006101000a81548173ffffffffffffffffffffffffffffffffffffffff021916908373ffffffffffffffffffffffffffffffffffffffff16021790555083826001018190555061446761406e565b8260020181905550614477614043565b73ffffffffffffffffffffffffffffffffffffffff16858773ffffffffffffffffffffffffffffffffffffffff167f0158f5674dc243762459b88cfc91b10d2d1ef9d40821cca978c2b680aa444682876040516144d49190616a67565b60405180910390a4505050505050565b600160c981905550565b6144f6614043565b73ffffffffffffffffffffffffffffffffffffffff16614514613395565b73ffffffffffffffffffffffffffffffffffffffff161461456a576040517f08c379a0000000000000000000000000000000000000000000000000000000008152600401614561906167e7565b60405180910390fd5b565b600061459a7f360894a13ba1a3210667c828492db98dca3e2076cc3735a920a3ca505d382bbc60001b6151ee565b60000160009054906101000a900473ffffffffffffffffffffffffffffffffffffffff16905090565b6145cb6144ee565b50565b6145fa7f4910fdfa16fed3260ed0e7147f7cc6da11a60208b5b9406d12a635614ffd914360001b6151f8565b60000160009054906101000a900460ff161561461e5761461983615202565b614746565b8273ffffffffffffffffffffffffffffffffffffffff166352d1902d6040518163ffffffff1660e01b815260040160206040518083038186803b15801561466457600080fd5b505afa92505050801561469557506040513d601f19601f8201168201806040525081019061469291906158ab565b60015b6146d4576040517f08c379a00000000000000000000000000000000000000000000000000000000081526004016146cb906167a7565b60405180910390fd5b7f360894a13ba1a3210667c828492db98dca3e2076cc3735a920a3ca505d382bbc60001b8114614739576040517f08c379a000000000000000000000000000000000000000000000000000000000815260040161473090616727565b60405180910390fd5b506147458383836152bb565b5b505050565b600060fb60008673ffffffffffffffffffffffffffffffffffffffff1673ffffffffffffffffffffffffffffffffffffffff16815260200190815260200160002060008581526020019081526020016000206040518060e00160405290816000820160009054906101000a900473ffffffffffffffffffffffffffffffffffffffff1673ffffffffffffffffffffffffffffffffffffffff1673ffffffffffffffffffffffffffffffffffffffff1681526020016001820160009054906101000a900473ffffffffffffffffffffffffffffffffffffffff1673ffffffffffffffffffffffffffffffffffffffff1673ffffffffffffffffffffffffffffffffffffffff168152602001600282015481526020016003820154815260200160048201548152602001600582015481526020016006820160009054906101000a900460ff1615151515815250509050600073ffffffffffffffffffffffffffffffffffffffff16816020015173ffffffffffffffffffffffffffffffffffffffff1614156149845760008373ffffffffffffffffffffffffffffffffffffffff16836040516148f890616182565b60006040518083038185875af1925050503d8060008114614935576040519150601f19603f3d011682016040523d82523d6000602084013e61493a565b606091505b505090508061497e576040517f08c379a000000000000000000000000000000000000000000000000000000000815260040161497590616587565b60405180910390fd5b50614a5b565b6000816020015190508073ffffffffffffffffffffffffffffffffffffffff1663a9059cbb85856040518363ffffffff1660e01b81526004016149c89291906161cd565b602060405180830381600087803b1580156149e257600080fd5b505af11580156149f6573d6000803e3d6000fd5b505050506040513d601f19601f82011682018060405250810190614a1a9190615882565b614a59576040517f08c379a0000000000000000000000000000000000000000000000000000000008152600401614a5090616587565b60405180910390fd5b505b8273ffffffffffffffffffffffffffffffffffffffff16848673ffffffffffffffffffffffffffffffffffffffff167f90e20d1ba82eaa07a212267355536f76bc83bf91c81fd41b74283c4082e7695285604051614ab99190616a67565b60405180910390a45050505050565b600060019054906101000a900460ff16614b17576040517f08c379a0000000000000000000000000000000000000000000000000000000008152600401614b0e90616967565b60405180910390fd5b614b1f6152e7565b565b60008183614b2f9190616beb565b905092915050565b60008183614b459190616b91565b905092915050565b60008183614b5b9190616b60565b905092915050565b6000609760009054906101000a900473ffffffffffffffffffffffffffffffffffffffff16905081609760006101000a81548173ffffffffffffffffffffffffffffffffffffffff021916908373ffffffffffffffffffffffffffffffffffffffff1602179055508173ffffffffffffffffffffffffffffffffffffffff168173ffffffffffffffffffffffffffffffffffffffff167f8be0079c531659141344cd1fd0a4f28419497f9722a3daafe3b4186f6b6457e060405160405180910390a35050565b600060fc60008473ffffffffffffffffffffffffffffffffffffffff1673ffffffffffffffffffffffffffffffffffffffff16815260200190815260200160002060008381526020019081526020016000209050600073ffffffffffffffffffffffffffffffffffffffff168160000160009054906101000a900473ffffffffffffffffffffffffffffffffffffffff1673ffffffffffffffffffffffffffffffffffffffff1614614d9457614d0983838360000160009054906101000a900473ffffffffffffffffffffffffffffffffffffffff16846001015461474b565b60fc60008473ffffffffffffffffffffffffffffffffffffffff1673ffffffffffffffffffffffffffffffffffffffff1681526020019081526020016000206000838152602001908152602001600020600080820160006101000a81549073ffffffffffffffffffffffffffffffffffffffff02191690556001820160009055600282016000905550505b60fb60008473ffffffffffffffffffffffffffffffffffffffff1673ffffffffffffffffffffffffffffffffffffffff1681526020019081526020016000206000838152602001908152602001600020600080820160006101000a81549073ffffffffffffffffffffffffffffffffffffffff02191690556001820160006101000a81549073ffffffffffffffffffffffffffffffffffffffff021916905560028201600090556003820160009055600482016000905560058201600090556006820160006101000a81549060ff02191690555050818373ffffffffffffffffffffffffffffffffffffffff167f018b64b6242d32aa550e95d78985b938d71af5b3f10827b0683f55da1639304860405160405180910390a3505050565b600060fb60008973ffffffffffffffffffffffffffffffffffffffff1673ffffffffffffffffffffffffffffffffffffffff16815260200190815260200160002060008881526020019081526020016000206005015414614f48576040517f08c379a0000000000000000000000000000000000000000000000000000000008152600401614f3f90616667565b60405180910390fd5b61012c83614f569190616b0a565b811015614f98576040517f08c379a0000000000000000000000000000000000000000000000000000000008152600401614f8f90616607565b60405180910390fd5b614fa061406e565b8311614fe1576040517f08c379a0000000000000000000000000000000000000000000000000000000008152600401614fd890616a07565b60405180910390fd5b60008215614fed578490505b6040518060e00160405280615000614043565b73ffffffffffffffffffffffffffffffffffffffff1681526020018773ffffffffffffffffffffffffffffffffffffffff1681526020018281526020018681526020018581526020018381526020016000151581525060fb60008a73ffffffffffffffffffffffffffffffffffffffff1673ffffffffffffffffffffffffffffffffffffffff168152602001908152602001600020600089815260200190815260200160002060008201518160000160006101000a81548173ffffffffffffffffffffffffffffffffffffffff021916908373ffffffffffffffffffffffffffffffffffffffff16021790555060208201518160010160006101000a81548173ffffffffffffffffffffffffffffffffffffffff021916908373ffffffffffffffffffffffffffffffffffffffff16021790555060408201518160020155606082015181600301556080820151816004015560a0820151816005015560c08201518160060160006101000a81548160ff021916908315150217905550905050868873ffffffffffffffffffffffffffffffffffffffff167fca437d90ed6373b827a01275bd2fdfe7e6406d7ecd400662ee0533d3546ab17a886040516151c69190616197565b60405180910390a35050505050505050565b600081836151e69190616b0a565b905092915050565b6000819050919050565b6000819050919050565b61520b8161404b565b61524a576040517f08c379a0000000000000000000000000000000000000000000000000000000008152600401615241906167c7565b60405180910390fd5b806152777f360894a13ba1a3210667c828492db98dca3e2076cc3735a920a3ca505d382bbc60001b6151ee565b60000160006101000a81548173ffffffffffffffffffffffffffffffffffffffff021916908373ffffffffffffffffffffffffffffffffffffffff16021790555050565b6152c483615348565b6000825111806152d15750805b156152e2576152e08383615397565b505b505050565b600060019054906101000a900460ff16615336576040517f08c379a000000000000000000000000000000000000000000000000000000000815260040161532d90616967565b60405180910390fd5b615346615341614043565b614b63565b565b61535181615202565b8073ffffffffffffffffffffffffffffffffffffffff167fbc7cd75a20ee27fd9adebab32041f755214dbc6bffa90cc0225b39da2e5c2d3b60405160405180910390a250565b60606153a28361404b565b6153e1576040517f08c379a00000000000000000000000000000000000000000000000000000000081526004016153d890616887565b60405180910390fd5b6000808473ffffffffffffffffffffffffffffffffffffffff1684604051615409919061616b565b600060405180830381855af49150503d8060008114615444576040519150601f19603f3d011682016040523d82523d6000602084013e615449565b606091505b50915091506154718282604051806060016040528060278152602001617c906027913961547b565b9250505092915050565b6060831561548b57829050615496565b615495838361549d565b5b9392505050565b6000825111156154b05781518083602001fd5b806040517f08c379a00000000000000000000000000000000000000000000000000000000081526004016154e49190616445565b60405180910390fd5b60006155006154fb84616aa7565b616a82565b90508281526020810184848401111561551857600080fd5b615523848285616d14565b509392505050565b60008135905061553a81617bee565b92915050565b60008151905061554f81617bee565b92915050565b60008135905061556481617c05565b92915050565b60008135905061557981617c1c565b92915050565b60008151905061558e81617c1c565b92915050565b6000815190506155a381617c33565b92915050565b600082601f8301126155ba57600080fd5b81356155ca8482602086016154ed565b91505092915050565b6000815190506155e281617c4a565b92915050565b6000815190506155f781617c61565b92915050565b60008135905061560c81617c78565b92915050565b60008151905061562181617c78565b92915050565b60006020828403121561563957600080fd5b60006156478482850161552b565b91505092915050565b60006020828403121561566257600080fd5b600061567084828501615540565b91505092915050565b60006020828403121561568b57600080fd5b600061569984828501615555565b91505092915050565b600080600080608085870312156156b857600080fd5b60006156c687828801615555565b94505060206156d7878288016155fd565b93505060406156e8878288016155fd565b92505060606156f9878288016155fd565b91505092959194509250565b6000806040838503121561571857600080fd5b60006157268582860161552b565b925050602083013567ffffffffffffffff81111561574357600080fd5b61574f858286016155a9565b9150509250929050565b6000806040838503121561576c57600080fd5b600061577a8582860161552b565b925050602061578b858286016155fd565b9150509250929050565b600080600080600080600060e0888a0312156157b057600080fd5b60006157be8a828b0161552b565b97505060206157cf8a828b016155fd565b96505060406157e08a828b0161552b565b95505060606157f18a828b016155fd565b94505060806158028a828b016155fd565b93505060a06158138a828b0161556a565b92505060c06158248a828b016155fd565b91505092959891949750929550565b60008060006060848603121561584857600080fd5b60006158568682870161552b565b9350506020615867868287016155fd565b9250506040615878868287016155fd565b9150509250925092565b60006020828403121561589457600080fd5b60006158a28482850161557f565b91505092915050565b6000602082840312156158bd57600080fd5b60006158cb84828501615594565b91505092915050565b6000602082840312156158e657600080fd5b60006158f4848285016155d3565b91505092915050565b60006020828403121561590f57600080fd5b600061591d848285016155e8565b91505092915050565b60008060006060848603121561593b57600080fd5b6000615949868287016155e8565b935050602061595a86828701615540565b925050604061596b86828701615540565b9150509250925092565b60006020828403121561598757600080fd5b6000615995848285016155fd565b91505092915050565b6000602082840312156159b057600080fd5b60006159be84828501615612565b91505092915050565b6159d081616ca8565b82525050565b6159df81616c31565b82525050565b6159ee81616c1f565b82525050565b6159fd81616c43565b82525050565b615a0c81616c4f565b82525050565b6000615a1d82616ad8565b615a278185616aee565b9350615a37818560208601616d23565b80840191505092915050565b615a4c81616cba565b82525050565b615a5b81616c59565b82525050565b615a6a81616cde565b82525050565b6000615a7b82616ae3565b615a858185616af9565b9350615a95818560208601616d23565b615a9e81616e14565b840191505092915050565b6000615ab6602383616af9565b9150615ac182616e25565b604082019050919050565b6000615ad9602683616af9565b9150615ae482616e74565b604082019050919050565b6000615afc603583616af9565b9150615b0782616ec3565b604082019050919050565b6000615b1f603483616af9565b9150615b2a82616f12565b604082019050919050565b6000615b42602a83616af9565b9150615b4d82616f61565b604082019050919050565b6000615b65602083616af9565b9150615b7082616fb0565b602082019050919050565b6000615b88602c83616af9565b9150615b9382616fd9565b604082019050919050565b6000615bab602783616af9565b9150615bb682617028565b604082019050919050565b6000615bce601e83616af9565b9150615bd982617077565b602082019050919050565b6000615bf1602f83616af9565b9150615bfc826170a0565b604082019050919050565b6000615c14602983616af9565b9150615c1f826170ef565b604082019050919050565b6000615c37602383616af9565b9150615c428261713e565b604082019050919050565b6000615c5a603183616af9565b9150615c658261718d565b604082019050919050565b6000615c7d604183616af9565b9150615c88826171dc565b606082019050919050565b6000615ca0602883616af9565b9150615cab82617251565b604082019050919050565b6000615cc3603b83616af9565b9150615cce826172a0565b604082019050919050565b6000615ce6602683616af9565b9150615cf1826172ef565b604082019050919050565b6000615d09602c83616af9565b9150615d148261733e565b604082019050919050565b6000615d2c604583616af9565b9150615d378261738d565b606082019050919050565b6000615d4f601b83616af9565b9150615d5a82617402565b602082019050919050565b6000615d72603883616af9565b9150615d7d8261742b565b604082019050919050565b6000615d95601b83616af9565b9150615da08261747a565b602082019050919050565b6000615db8602983616af9565b9150615dc3826174a3565b604082019050919050565b6000615ddb602e83616af9565b9150615de6826174f2565b604082019050919050565b6000615dfe603783616af9565b9150615e0982617541565b604082019050919050565b6000615e21603383616af9565b9150615e2c82617590565b604082019050919050565b6000615e44602e83616af9565b9150615e4f826175df565b604082019050919050565b6000615e67602d83616af9565b9150615e728261762e565b604082019050919050565b6000615e8a602083616af9565b9150615e958261767d565b602082019050919050565b6000615ead603383616af9565b9150615eb8826176a6565b604082019050919050565b6000615ed0602f83616af9565b9150615edb826176f5565b604082019050919050565b6000615ef3602083616af9565b9150615efe82617744565b602082019050919050565b6000615f16601f83616af9565b9150615f218261776d565b602082019050919050565b6000615f39602683616af9565b9150615f4482617796565b604082019050919050565b6000615f5c602383616af9565b9150615f67826177e5565b604082019050919050565b6000615f7f600083616aee565b9150615f8a82617834565b600082019050919050565b6000615fa2600f83616af9565b9150615fad82617837565b602082019050919050565b6000615fc5602d83616af9565b9150615fd082617860565b604082019050919050565b6000615fe8603083616af9565b9150615ff3826178af565b604082019050919050565b600061600b603283616af9565b9150616016826178fe565b604082019050919050565b600061602e604583616af9565b91506160398261794d565b606082019050919050565b6000616051602b83616af9565b915061605c826179c2565b604082019050919050565b6000616074602b83616af9565b915061607f82617a11565b604082019050919050565b6000616097602d83616af9565b91506160a282617a60565b604082019050919050565b60006160ba601f83616af9565b91506160c582617aaf565b602082019050919050565b60006160dd601e83616af9565b91506160e882617ad8565b602082019050919050565b6000616100602183616af9565b915061610b82617b01565b604082019050919050565b6000616123602483616af9565b915061612e82617b50565b604082019050919050565b6000616146602d83616af9565b915061615182617b9f565b604082019050919050565b61616581616c91565b82525050565b60006161778284615a12565b915081905092915050565b600061618d82615f72565b9150819050919050565b60006020820190506161ac60008301846159e5565b92915050565b60006020820190506161c760008301846159d6565b92915050565b60006040820190506161e260008301856159c7565b6161ef602083018461615c565b9392505050565b600060608201905061620b60008301866159d6565b616218602083018561615c565b616225604083018461615c565b949350505050565b600060408201905061624260008301856159e5565b61624f60208301846159e5565b9392505050565b600060808201905061626b60008301876159e5565b61627860208301866159e5565b6162856040830185615a52565b616292606083018461615c565b95945050505050565b60006060820190506162b060008301866159e5565b6162bd60208301856159e5565b6162ca604083018461615c565b949350505050565b600060e0820190506162e7600083018a6159e5565b6162f460208301896159e5565b616301604083018861615c565b61630e606083018761615c565b61631b608083018661615c565b61632860a08301856159f4565b61633560c083018461615c565b98975050505050505050565b600060e082019050616356600083018a6159e5565b61636360208301896159e5565b616370604083018861615c565b61637d606083018761615c565b61638a608083018661615c565b61639760a083018561615c565b6163a460c08301846159f4565b98975050505050505050565b60006040820190506163c560008301856159e5565b6163d2602083018461615c565b9392505050565b60006020820190506163ee60008301846159f4565b92915050565b60006020820190506164096000830184615a03565b92915050565b60006020820190506164246000830184615a43565b92915050565b600060208201905061643f6000830184615a61565b92915050565b6000602082019050818103600083015261645f8184615a70565b905092915050565b6000602082019050818103600083015261648081615aa9565b9050919050565b600060208201905081810360008301526164a081615acc565b9050919050565b600060208201905081810360008301526164c081615aef565b9050919050565b600060208201905081810360008301526164e081615b12565b9050919050565b6000602082019050818103600083015261650081615b35565b9050919050565b6000602082019050818103600083015261652081615b58565b9050919050565b6000602082019050818103600083015261654081615b7b565b9050919050565b6000602082019050818103600083015261656081615b9e565b9050919050565b6000602082019050818103600083015261658081615bc1565b9050919050565b600060208201905081810360008301526165a081615be4565b9050919050565b600060208201905081810360008301526165c081615c07565b9050919050565b600060208201905081810360008301526165e081615c2a565b9050919050565b6000602082019050818103600083015261660081615c4d565b9050919050565b6000602082019050818103600083015261662081615c70565b9050919050565b6000602082019050818103600083015261664081615c93565b9050919050565b6000602082019050818103600083015261666081615cb6565b9050919050565b6000602082019050818103600083015261668081615cd9565b9050919050565b600060208201905081810360008301526166a081615cfc565b9050919050565b600060208201905081810360008301526166c081615d1f565b9050919050565b600060208201905081810360008301526166e081615d42565b9050919050565b6000602082019050818103600083015261670081615d65565b9050919050565b6000602082019050818103600083015261672081615d88565b9050919050565b6000602082019050818103600083015261674081615dab565b9050919050565b6000602082019050818103600083015261676081615dce565b9050919050565b6000602082019050818103600083015261678081615df1565b9050919050565b600060208201905081810360008301526167a081615e14565b9050919050565b600060208201905081810360008301526167c081615e37565b9050919050565b600060208201905081810360008301526167e081615e5a565b9050919050565b6000602082019050818103600083015261680081615e7d565b9050919050565b6000602082019050818103600083015261682081615ea0565b9050919050565b6000602082019050818103600083015261684081615ec3565b9050919050565b6000602082019050818103600083015261686081615ee6565b9050919050565b6000602082019050818103600083015261688081615f09565b9050919050565b600060208201905081810360008301526168a081615f2c565b9050919050565b600060208201905081810360008301526168c081615f4f565b9050919050565b600060208201905081810360008301526168e081615f95565b9050919050565b6000602082019050818103600083015261690081615fb8565b9050919050565b6000602082019050818103600083015261692081615fdb565b9050919050565b6000602082019050818103600083015261694081615ffe565b9050919050565b6000602082019050818103600083015261696081616021565b9050919050565b6000602082019050818103600083015261698081616044565b9050919050565b600060208201905081810360008301526169a081616067565b9050919050565b600060208201905081810360008301526169c08161608a565b9050919050565b600060208201905081810360008301526169e0816160ad565b9050919050565b60006020820190508181036000830152616a00816160d0565b9050919050565b60006020820190508181036000830152616a20816160f3565b9050919050565b60006020820190508181036000830152616a4081616116565b9050919050565b60006020820190508181036000830152616a6081616139565b9050919050565b6000602082019050616a7c600083018461615c565b92915050565b6000616a8c616a9d565b9050616a988282616d56565b919050565b6000604051905090565b600067ffffffffffffffff821115616ac257616ac1616de5565b5b616acb82616e14565b9050602081019050919050565b600081519050919050565b600081519050919050565b600081905092915050565b600082825260208201905092915050565b6000616b1582616c91565b9150616b2083616c91565b9250827fffffffffffffffffffffffffffffffffffffffffffffffffffffffffffffffff03821115616b5557616b54616d87565b5b828201905092915050565b6000616b6b82616c91565b9150616b7683616c91565b925082616b8657616b85616db6565b5b828204905092915050565b6000616b9c82616c91565b9150616ba783616c91565b9250817fffffffffffffffffffffffffffffffffffffffffffffffffffffffffffffffff0483118215151615616be057616bdf616d87565b5b828202905092915050565b6000616bf682616c91565b9150616c0183616c91565b925082821015616c1457616c13616d87565b5b828203905092915050565b6000616c2a82616c71565b9050919050565b6000616c3c82616c71565b9050919050565b60008115159050919050565b6000819050919050565b6000819050919050565b600061ffff82169050919050565b600073ffffffffffffffffffffffffffffffffffffffff82169050919050565b6000819050919050565b600060ff82169050919050565b6000616cb382616cf0565b9050919050565b6000616cc582616ccc565b9050919050565b6000616cd782616c71565b9050919050565b6000616ce982616c9b565b9050919050565b6000616cfb82616d02565b9050919050565b6000616d0d82616c71565b9050919050565b82818337600083830152505050565b60005b83811015616d41578082015181840152602081019050616d26565b83811115616d50576000848401525b50505050565b616d5f82616e14565b810181811067ffffffffffffffff82111715616d7e57616d7d616de5565b5b80604052505050565b7f4e487b7100000000000000000000000000000000000000000000000000000000600052601160045260246000fd5b7f4e487b7100000000000000000000000000000000000000000000000000000000600052601260045260246000fd5b7f4e487b7100000000000000000000000000000000000000000000000000000000600052604160045260246000fd5b6000601f19601f8301169050919050565b7f43726561746841756374696f6e3a2061756374696f6e206e6f7420617070726f60008201527f7665640000000000000000000000000000000000000000000000000000000000602082015250565b7f4f776e61626c653a206e6577206f776e657220697320746865207a65726f206160008201527f6464726573730000000000000000000000000000000000000000000000000000602082015250565b7f43726561746841756374696f6e3a206269642063616e6e6f74206265206c6f7760008201527f6572207468616e20726573657276652070726963650000000000000000000000602082015250565b7f43726561746841756374696f6e3a6e6f74206f776e657220616e64206f72206360008201527f6f6e7472616374206e6f7420617070726f766564000000000000000000000000602082015250565b7f43726561746841756374696f6e3a206661696c656420746f2073656e6420706c60008201527f6174666f726d2066656500000000000000000000000000000000000000000000602082015250565b7f43726561746841756374696f6e3a206e6f2061756374696f6e20657869737473600082015250565b7f46756e6374696f6e206d7573742062652063616c6c6564207468726f7567682060008201527f64656c656761746563616c6c0000000000000000000000000000000000000000602082015250565b7f43726561746841756374696f6e3a2061756374696f6e20616c7265616479207260008201527f6573756c74656400000000000000000000000000000000000000000000000000602082015250565b7f43726561746841756374696f6e3a205472616e73666572206661696c65640000600082015250565b7f43726561746841756374696f6e3a206661696c656420746f20726566756e642060008201527f70726576696f7573206269646465720000000000000000000000000000000000602082015250565b7f43726561746841756374696f6e3a6661696c656420746f2073656e6420706c6160008201527f74666f726d206665650000000000000000000000000000000000000000000000602082015250565b7f43726561746841756374696f6e3a61756374696f6e20616c726561647920656e60008201527f6465640000000000000000000000000000000000000000000000000000000000602082015250565b7f43726561746841756374696f6e3a2061756374696f6e2073686f756c6420656e60008201527f642061667465722035206d696e75746573000000000000000000000000000000602082015250565b7f43726561746841756374696f6e3a20656e642074696d65206d7573742062652060008201527f67726561746572207468616e207374617274202862792035206d696e7574657360208201527f2900000000000000000000000000000000000000000000000000000000000000604082015250565b7f43726561746841756374696f6e3a2073656e646572206d75737420626520697460008201527f656d206f776e6572000000000000000000000000000000000000000000000000602082015250565b7f43726561746841756374696f6e3a206661696c656420746f2073656e6420746860008201527f65206f776e6572207468652061756374696f6e2062616c616e63650000000000602082015250565b7f43726561746841756374696f6e3a2061756374696f6e20616c7265616479207360008201527f7461727465640000000000000000000000000000000000000000000000000000602082015250565b7f46756e6374696f6e206d7573742062652063616c6c6564207468726f7567682060008201527f6163746976652070726f78790000000000000000000000000000000000000000602082015250565b7f43726561746841756374696f6e3a2063616e207769746864726177206f6e6c7960008201527f20616674657220313220686f757273202861667465722061756374696f6e206560208201527f6e64656429000000000000000000000000000000000000000000000000000000604082015250565b7f43726561746841756374696f6e3a207a65726f20616464726573730000000000600082015250565b7f555550535570677261646561626c653a206d757374206e6f742062652063616c60008201527f6c6564207468726f7567682064656c656761746563616c6c0000000000000000602082015250565b7f43726561746841756374696f6e3a206e6f206f70656e20626964730000000000600082015250565b7f45524331393637557067726164653a20756e737570706f727465642070726f7860008201527f6961626c65555549440000000000000000000000000000000000000000000000602082015250565b7f496e697469616c697a61626c653a20636f6e747261637420697320616c72656160008201527f647920696e697469616c697a6564000000000000000000000000000000000000602082015250565b7f43726561746841756374696f6e3a206661696c656420746f2073656e6420746860008201527f65206f776e657220746865697220726f79616c74696573000000000000000000602082015250565b7f43726561746841756374696f6e3a62696464696e67206f757473696465206f6660008201527f207468652061756374696f6e2077696e646f7700000000000000000000000000602082015250565b7f45524331393637557067726164653a206e657720696d706c656d656e7461746960008201527f6f6e206973206e6f742055555053000000000000000000000000000000000000602082015250565b7f455243313936373a206e657720696d706c656d656e746174696f6e206973206e60008201527f6f74206120636f6e747261637400000000000000000000000000000000000000602082015250565b7f4f776e61626c653a2063616c6c6572206973206e6f7420746865206f776e6572600082015250565b7f43726561746841756374696f6e3a20696e73756666696369656e742062616c6160008201527f6e6365206f72206e6f7420617070726f76656400000000000000000000000000602082015250565b7f43726561746841756374696f6e3a4552433230206d6574686f6420757365642060008201527f666f72204554482061756374696f6e0000000000000000000000000000000000602082015250565b7f43726561746841756374696f6e3a2061756374696f6e206e6f7420656e646564600082015250565b7f43726561746841756374696f6e3a696e76616c69642070617920746f6b656e00600082015250565b7f416464726573733a2064656c65676174652063616c6c20746f206e6f6e2d636f60008201527f6e74726163740000000000000000000000000000000000000000000000000000602082015250565b7f43726561746841756374696f6e3a2073656e646572206d757374206265206f7760008201527f6e65720000000000000000000000000000000000000000000000000000000000602082015250565b50565b7f636f6e7472616374207061757365640000000000000000000000000000000000600082015250565b7f43726561746841756374696f6e3a6661696c656420746f206f7574626964206860008201527f6967686573742062696464657200000000000000000000000000000000000000602082015250565b7f43726561746841756374696f6e3a20686967686573742062696420697320626560008201527f6c6f772072657365727665507269636500000000000000000000000000000000602082015250565b7f43726561746841756374696f6e3a20656e642074696d65206d7573742062652060008201527f67726561746572207468616e2073746172740000000000000000000000000000602082015250565b7f43726561746841756374696f6e3a2073746172742074696d652073686f756c6460008201527f206265206c657373207468616e20656e642074696d65202862792035206d696e60208201527f7574657329000000000000000000000000000000000000000000000000000000604082015250565b7f496e697469616c697a61626c653a20636f6e7472616374206973206e6f74206960008201527f6e697469616c697a696e67000000000000000000000000000000000000000000602082015250565b7f43726561746841756374696f6e3a206661696c656420746f2073656e6420746860008201527f6520726f79616c74696573000000000000000000000000000000000000000000602082015250565b7f43726561746841756374696f6e3a20796f7520617265206e6f7420746865206860008201527f6967686573742062696464657200000000000000000000000000000000000000602082015250565b7f5265656e7472616e637947756172643a207265656e7472616e742063616c6c00600082015250565b7f43726561746841756374696f6e3a20496e76616c696420616464726573730000600082015250565b7f43726561746841756374696f6e3a20696e76616c69642073746172742074696d60008201527f6500000000000000000000000000000000000000000000000000000000000000602082015250565b7f43726561746841756374696f6e3a6e6f20636f6e747261637473207065726d6960008201527f7474656400000000000000000000000000000000000000000000000000000000602082015250565b7f43726561746841756374696f6e3a20496e76616c696420506c6174666f726d2060008201527f46656520526563697069656e7400000000000000000000000000000000000000602082015250565b617bf781616c1f565b8114617c0257600080fd5b50565b617c0e81616c31565b8114617c1957600080fd5b50565b617c2581616c43565b8114617c3057600080fd5b50565b617c3c81616c4f565b8114617c4757600080fd5b50565b617c5381616c59565b8114617c5e57600080fd5b50565b617c6a81616c63565b8114617c7557600080fd5b50565b617c8181616c91565b8114617c8c57600080fd5b5056fe416464726573733a206c6f772d6c6576656c2064656c65676174652063616c6c206661696c6564a264697066735822122049f1b24bb0a4e3366003534dc71fe6fe90de795580b8f399960dd3912f91f1f764736f6c63430008040033",
  "linkReferences": {},
  "deployedLinkReferences": {}
}