{
  "_format": "hh-sol-artifact-1",
  "contractName": "CreathAddressRegistry",
  "sourceName": "contracts/CreathAddressRegistry.sol",
  "abi": [
    {
      "anonymous": false,
      "inputs": [
        {
          "indexed": true,
          "internalType": "address",
          "name": "previousOwner",
          "type": "address"
        },
        {
          "indexed": true,
          "internalType": "address",
          "name": "newOwner",
          "type": "address"
        }
      ],
      "name": "OwnershipTransferred",
      "type": "event"
    },
    {
      "inputs": [],
      "name": "auction",
      "outputs": [
        {
          "internalType": "address",
          "name": "",
          "type": "address"
        }
      ],
      "stateMutability": "view",
      "type": "function"
    },
    {
      "inputs": [],
      "name": "creath",
      "outputs": [
        {
          "internalType": "address",
          "name": "",
          "type": "address"
        }
      ],
      "stateMutability": "view",
      "type": "function"
    },
    {
      "inputs": [],
      "name": "factory",
      "outputs": [
        {
          "internalType": "address",
          "name": "",
          "type": "address"
        }
      ],
      "stateMutability": "view",
      "type": "function"
    },
    {
      "inputs": [],
      "name": "marketplace",
      "outputs": [
        {
          "internalType": "address",
          "name": "",
          "type": "address"
        }
      ],
      "stateMutability": "view",
      "type": "function"
    },
    {
      "inputs": [],
      "name": "owner",
      "outputs": [
        {
          "internalType": "address",
          "name": "",
          "type": "address"
        }
      ],
      "stateMutability": "view",
      "type": "function"
    },
    {
      "inputs": [],
      "name": "renounceOwnership",
      "outputs": [],
      "stateMutability": "nonpayable",
      "type": "function"
    },
    {
      "inputs": [],
      "name": "tokenRegistry",
      "outputs": [
        {
          "internalType": "address",
          "name": "",
          "type": "address"
        }
      ],
      "stateMutability": "view",
      "type": "function"
    },
    {
      "inputs": [
        {
          "internalType": "address",
          "name": "newOwner",
          "type": "address"
        }
      ],
      "name": "transferOwnership",
      "outputs": [],
      "stateMutability": "nonpayable",
      "type": "function"
    },
    {
      "inputs": [
        {
          "internalType": "address",
          "name": "_factory",
          "type": "address"
        }
      ],
      "name": "updateArtFactory",
      "outputs": [],
      "stateMutability": "nonpayable",
      "type": "function"
    },
    {
      "inputs": [
        {
          "internalType": "address",
          "name": "_auction",
          "type": "address"
        }
      ],
      "name": "updateAuction",
      "outputs": [],
      "stateMutability": "nonpayable",
      "type": "function"
    },
    {
      "inputs": [
        {
          "internalType": "address",
          "name": "_creath",
          "type": "address"
        }
      ],
      "name": "updateCreath",
      "outputs": [],
      "stateMutability": "nonpayable",
      "type": "function"
    },
    {
      "inputs": [
        {
          "internalType": "address",
          "name": "_marketplace",
          "type": "address"
        }
      ],
      "name": "updateMarketplace",
      "outputs": [],
      "stateMutability": "nonpayable",
      "type": "function"
    },
    {
      "inputs": [
        {
          "internalType": "address",
          "name": "_tokenRegistry",
          "type": "address"
        }
      ],
      "name": "updateTokenRegistry",
      "outputs": [],
      "stateMutability": "nonpayable",
      "type": "function"
    }
  ],
  "bytecode": "0x608060405234801561001057600080fd5b5061002d61002261003260201b60201c565b61003a60201b60201c565b6100fe565b600033905090565b60008060009054906101000a900473ffffffffffffffffffffffffffffffffffffffff169050816000806101000a81548173ffffffffffffffffffffffffffffffffffffffff021916908373ffffffffffffffffffffffffffffffffffffffff1602179055508173ffffffffffffffffffffffffffffffffffffffff168173ffffffffffffffffffffffffffffffffffffffff167f8be0079c531659141344cd1fd0a4f28419497f9722a3daafe3b4186f6b6457e060405160405180910390a35050565b610a678061010d6000396000f3fe608060405234801561001057600080fd5b50600436106100cf5760003560e01c80638da5cb5b1161008c578063ac8cfae211610066578063ac8cfae2146101c6578063c45a0155146101e4578063eb63631714610202578063f2fde38b1461021e576100cf565b80638da5cb5b1461016c5780639d23c4c71461018a578063abc8c7af146101a8576100cf565b80631fa915a4146100d45780633402a036146100f05780636c3421df1461010c578063715018a6146101285780637d9f6db5146101325780638590f29514610150575b600080fd5b6100ee60048036038101906100e99190610778565b61023a565b005b61010a60048036038101906101059190610778565b610286565b005b61012660048036038101906101219190610778565b6102d2565b005b6101306103ed565b005b61013a610401565b6040516101479190610851565b60405180910390f35b61016a60048036038101906101659190610778565b610427565b005b610174610473565b6040516101819190610851565b60405180910390f35b61019261049c565b60405161019f9190610851565b60405180910390f35b6101b06104c2565b6040516101bd9190610851565b60405180910390f35b6101ce6104e8565b6040516101db9190610851565b60405180910390f35b6101ec61050e565b6040516101f99190610851565b60405180910390f35b61021c60048036038101906102179190610778565b610534565b005b61023860048036038101906102339190610778565b610580565b005b610242610604565b80600560006101000a81548173ffffffffffffffffffffffffffffffffffffffff021916908373ffffffffffffffffffffffffffffffffffffffff16021790555050565b61028e610604565b80600260006101000a81548173ffffffffffffffffffffffffffffffffffffffff021916908373ffffffffffffffffffffffffffffffffffffffff16021790555050565b6102da610604565b8073ffffffffffffffffffffffffffffffffffffffff166301ffc9a76380ac58cd60e01b6040518263ffffffff1660e01b815260040161031a919061086c565b60206040518083038186803b15801561033257600080fd5b505afa158015610346573d6000803e3d6000fd5b505050506040513d601f19601f8201168201806040525081019061036a91906107a1565b6103a9576040517f08c379a00000000000000000000000000000000000000000000000000000000081526004016103a0906108c7565b60405180910390fd5b80600160006101000a81548173ffffffffffffffffffffffffffffffffffffffff021916908373ffffffffffffffffffffffffffffffffffffffff16021790555050565b6103f5610604565b6103ff6000610682565b565b600260009054906101000a900473ffffffffffffffffffffffffffffffffffffffff1681565b61042f610604565b80600460006101000a81548173ffffffffffffffffffffffffffffffffffffffff021916908373ffffffffffffffffffffffffffffffffffffffff16021790555050565b60008060009054906101000a900473ffffffffffffffffffffffffffffffffffffffff16905090565b600560009054906101000a900473ffffffffffffffffffffffffffffffffffffffff1681565b600360009054906101000a900473ffffffffffffffffffffffffffffffffffffffff1681565b600160009054906101000a900473ffffffffffffffffffffffffffffffffffffffff1681565b600460009054906101000a900473ffffffffffffffffffffffffffffffffffffffff1681565b61053c610604565b80600360006101000a81548173ffffffffffffffffffffffffffffffffffffffff021916908373ffffffffffffffffffffffffffffffffffffffff16021790555050565b610588610604565b600073ffffffffffffffffffffffffffffffffffffffff168173ffffffffffffffffffffffffffffffffffffffff1614156105f8576040517f08c379a00000000000000000000000000000000000000000000000000000000081526004016105ef90610887565b60405180910390fd5b61060181610682565b50565b61060c610746565b73ffffffffffffffffffffffffffffffffffffffff1661062a610473565b73ffffffffffffffffffffffffffffffffffffffff1614610680576040517f08c379a0000000000000000000000000000000000000000000000000000000008152600401610677906108a7565b60405180910390fd5b565b60008060009054906101000a900473ffffffffffffffffffffffffffffffffffffffff169050816000806101000a81548173ffffffffffffffffffffffffffffffffffffffff021916908373ffffffffffffffffffffffffffffffffffffffff1602179055508173ffffffffffffffffffffffffffffffffffffffff168173ffffffffffffffffffffffffffffffffffffffff167f8be0079c531659141344cd1fd0a4f28419497f9722a3daafe3b4186f6b6457e060405160405180910390a35050565b600033905090565b60008135905061075d81610a03565b92915050565b60008151905061077281610a1a565b92915050565b60006020828403121561078a57600080fd5b60006107988482850161074e565b91505092915050565b6000602082840312156107b357600080fd5b60006107c184828501610763565b91505092915050565b6107d3816108f8565b82525050565b6107e281610916565b82525050565b60006107f56026836108e7565b915061080082610962565b604082019050919050565b60006108186020836108e7565b9150610823826109b1565b602082019050919050565b600061083b600a836108e7565b9150610846826109da565b602082019050919050565b600060208201905061086660008301846107ca565b92915050565b600060208201905061088160008301846107d9565b92915050565b600060208201905081810360008301526108a0816107e8565b9050919050565b600060208201905081810360008301526108c08161080b565b9050919050565b600060208201905081810360008301526108e08161082e565b9050919050565b600082825260208201905092915050565b600061090382610942565b9050919050565b60008115159050919050565b60007fffffffff0000000000000000000000000000000000000000000000000000000082169050919050565b600073ffffffffffffffffffffffffffffffffffffffff82169050919050565b7f4f776e61626c653a206e6577206f776e657220697320746865207a65726f206160008201527f6464726573730000000000000000000000000000000000000000000000000000602082015250565b7f4f776e61626c653a2063616c6c6572206973206e6f7420746865206f776e6572600082015250565b7f4e6f742045524337323100000000000000000000000000000000000000000000600082015250565b610a0c816108f8565b8114610a1757600080fd5b50565b610a238161090a565b8114610a2e57600080fd5b5056fea26469706673582212200707e6f5df38bf5bf597b8077f4e50168626b26f452a7b1f2fe8f41973f1bbdf64736f6c63430008040033",
  "linkReferences": {},
  "deployedLinkReferences": {}
}