{
  "_format": "hh-sol-artifact-1",
  "contractName": "CreathAddressRegistry",
  "sourceName": "contracts/CreathAddressRegistry.sol",
  "abi": [
    {
      "inputs": [
        {
          "internalType": "address",
          "name": "_creath",
          "type": "address"
        },
        {
          "internalType": "address",
          "name": "_marketplace",
          "type": "address"
        },
        {
          "internalType": "address",
          "name": "_factory",
          "type": "address"
        },
        {
          "internalType": "address",
          "name": "_tokenRegistry",
          "type": "address"
        }
      ],
      "stateMutability": "nonpayable",
      "type": "constructor"
    },
    {
      "anonymous": false,
      "inputs": [
        {
          "indexed": true,
          "internalType": "address",
          "name": "previousOwner",
          "type": "address"
        },
        {
          "indexed": true,
          "internalType": "address",
          "name": "newOwner",
          "type": "address"
        }
      ],
      "name": "OwnershipTransferred",
      "type": "event"
    },
    {
      "inputs": [],
      "name": "creath",
      "outputs": [
        {
          "internalType": "address",
          "name": "",
          "type": "address"
        }
      ],
      "stateMutability": "view",
      "type": "function"
    },
    {
      "inputs": [],
      "name": "factory",
      "outputs": [
        {
          "internalType": "address",
          "name": "",
          "type": "address"
        }
      ],
      "stateMutability": "view",
      "type": "function"
    },
    {
      "inputs": [],
      "name": "marketplace",
      "outputs": [
        {
          "internalType": "address",
          "name": "",
          "type": "address"
        }
      ],
      "stateMutability": "view",
      "type": "function"
    },
    {
      "inputs": [],
      "name": "owner",
      "outputs": [
        {
          "internalType": "address",
          "name": "",
          "type": "address"
        }
      ],
      "stateMutability": "view",
      "type": "function"
    },
    {
      "inputs": [],
      "name": "renounceOwnership",
      "outputs": [],
      "stateMutability": "nonpayable",
      "type": "function"
    },
    {
      "inputs": [],
      "name": "tokenRegistry",
      "outputs": [
        {
          "internalType": "address",
          "name": "",
          "type": "address"
        }
      ],
      "stateMutability": "view",
      "type": "function"
    },
    {
      "inputs": [
        {
          "internalType": "address",
          "name": "newOwner",
          "type": "address"
        }
      ],
      "name": "transferOwnership",
      "outputs": [],
      "stateMutability": "nonpayable",
      "type": "function"
    },
    {
      "inputs": [
        {
          "internalType": "address",
          "name": "_factory",
          "type": "address"
        }
      ],
      "name": "updateArtFactory",
      "outputs": [],
      "stateMutability": "nonpayable",
      "type": "function"
    },
    {
      "inputs": [
        {
          "internalType": "address",
          "name": "_creath",
          "type": "address"
        }
      ],
      "name": "updateCreath",
      "outputs": [],
      "stateMutability": "nonpayable",
      "type": "function"
    },
    {
      "inputs": [
        {
          "internalType": "address",
          "name": "_marketplace",
          "type": "address"
        }
      ],
      "name": "updateMarketplace",
      "outputs": [],
      "stateMutability": "nonpayable",
      "type": "function"
    },
    {
      "inputs": [
        {
          "internalType": "address",
          "name": "_tokenRegistry",
          "type": "address"
        }
      ],
      "name": "updateTokenRegistry",
      "outputs": [],
      "stateMutability": "nonpayable",
      "type": "function"
    }
  ],
  "bytecode": "0x608060405234801561001057600080fd5b50604051610c8c380380610c8c8339818101604052810190610032919061023c565b61004e61004361015b60201b60201c565b61016360201b60201c565b83600160006101000a81548173ffffffffffffffffffffffffffffffffffffffff021916908373ffffffffffffffffffffffffffffffffffffffff16021790555082600260006101000a81548173ffffffffffffffffffffffffffffffffffffffff021916908373ffffffffffffffffffffffffffffffffffffffff16021790555081600360006101000a81548173ffffffffffffffffffffffffffffffffffffffff021916908373ffffffffffffffffffffffffffffffffffffffff16021790555080600460006101000a81548173ffffffffffffffffffffffffffffffffffffffff021916908373ffffffffffffffffffffffffffffffffffffffff160217905550505050506102e8565b600033905090565b60008060009054906101000a900473ffffffffffffffffffffffffffffffffffffffff169050816000806101000a81548173ffffffffffffffffffffffffffffffffffffffff021916908373ffffffffffffffffffffffffffffffffffffffff1602179055508173ffffffffffffffffffffffffffffffffffffffff168173ffffffffffffffffffffffffffffffffffffffff167f8be0079c531659141344cd1fd0a4f28419497f9722a3daafe3b4186f6b6457e060405160405180910390a35050565b600081519050610236816102d1565b92915050565b6000806000806080858703121561025257600080fd5b600061026087828801610227565b945050602061027187828801610227565b935050604061028287828801610227565b925050606061029387828801610227565b91505092959194509250565b60006102aa826102b1565b9050919050565b600073ffffffffffffffffffffffffffffffffffffffff82169050919050565b6102da8161029f565b81146102e557600080fd5b50565b610995806102f76000396000f3fe608060405234801561001057600080fd5b50600436106100a95760003560e01c80639d23c4c7116100715780639d23c4c71461012a578063abc8c7af14610148578063ac8cfae214610166578063c45a015514610184578063eb636317146101a2578063f2fde38b146101be576100a9565b80631fa915a4146100ae5780636c3421df146100ca578063715018a6146100e65780638590f295146100f05780638da5cb5b1461010c575b600080fd5b6100c860048036038101906100c391906106a6565b6101da565b005b6100e460048036038101906100df91906106a6565b610226565b005b6100ee610341565b005b61010a600480360381019061010591906106a6565b610355565b005b6101146103a1565b604051610121919061077f565b60405180910390f35b6101326103ca565b60405161013f919061077f565b60405180910390f35b6101506103f0565b60405161015d919061077f565b60405180910390f35b61016e610416565b60405161017b919061077f565b60405180910390f35b61018c61043c565b604051610199919061077f565b60405180910390f35b6101bc60048036038101906101b791906106a6565b610462565b005b6101d860048036038101906101d391906106a6565b6104ae565b005b6101e2610532565b80600460006101000a81548173ffffffffffffffffffffffffffffffffffffffff021916908373ffffffffffffffffffffffffffffffffffffffff16021790555050565b61022e610532565b8073ffffffffffffffffffffffffffffffffffffffff166301ffc9a76380ac58cd60e01b6040518263ffffffff1660e01b815260040161026e919061079a565b60206040518083038186803b15801561028657600080fd5b505afa15801561029a573d6000803e3d6000fd5b505050506040513d601f19601f820116820180604052508101906102be91906106cf565b6102fd576040517f08c379a00000000000000000000000000000000000000000000000000000000081526004016102f4906107f5565b60405180910390fd5b80600160006101000a81548173ffffffffffffffffffffffffffffffffffffffff021916908373ffffffffffffffffffffffffffffffffffffffff16021790555050565b610349610532565b61035360006105b0565b565b61035d610532565b80600360006101000a81548173ffffffffffffffffffffffffffffffffffffffff021916908373ffffffffffffffffffffffffffffffffffffffff16021790555050565b60008060009054906101000a900473ffffffffffffffffffffffffffffffffffffffff16905090565b600460009054906101000a900473ffffffffffffffffffffffffffffffffffffffff1681565b600260009054906101000a900473ffffffffffffffffffffffffffffffffffffffff1681565b600160009054906101000a900473ffffffffffffffffffffffffffffffffffffffff1681565b600360009054906101000a900473ffffffffffffffffffffffffffffffffffffffff1681565b61046a610532565b80600260006101000a81548173ffffffffffffffffffffffffffffffffffffffff021916908373ffffffffffffffffffffffffffffffffffffffff16021790555050565b6104b6610532565b600073ffffffffffffffffffffffffffffffffffffffff168173ffffffffffffffffffffffffffffffffffffffff161415610526576040517f08c379a000000000000000000000000000000000000000000000000000000000815260040161051d906107b5565b60405180910390fd5b61052f816105b0565b50565b61053a610674565b73ffffffffffffffffffffffffffffffffffffffff166105586103a1565b73ffffffffffffffffffffffffffffffffffffffff16146105ae576040517f08c379a00000000000000000000000000000000000000000000000000000000081526004016105a5906107d5565b60405180910390fd5b565b60008060009054906101000a900473ffffffffffffffffffffffffffffffffffffffff169050816000806101000a81548173ffffffffffffffffffffffffffffffffffffffff021916908373ffffffffffffffffffffffffffffffffffffffff1602179055508173ffffffffffffffffffffffffffffffffffffffff168173ffffffffffffffffffffffffffffffffffffffff167f8be0079c531659141344cd1fd0a4f28419497f9722a3daafe3b4186f6b6457e060405160405180910390a35050565b600033905090565b60008135905061068b81610931565b92915050565b6000815190506106a081610948565b92915050565b6000602082840312156106b857600080fd5b60006106c68482850161067c565b91505092915050565b6000602082840312156106e157600080fd5b60006106ef84828501610691565b91505092915050565b61070181610826565b82525050565b61071081610844565b82525050565b6000610723602683610815565b915061072e82610890565b604082019050919050565b6000610746602083610815565b9150610751826108df565b602082019050919050565b6000610769600a83610815565b915061077482610908565b602082019050919050565b600060208201905061079460008301846106f8565b92915050565b60006020820190506107af6000830184610707565b92915050565b600060208201905081810360008301526107ce81610716565b9050919050565b600060208201905081810360008301526107ee81610739565b9050919050565b6000602082019050818103600083015261080e8161075c565b9050919050565b600082825260208201905092915050565b600061083182610870565b9050919050565b60008115159050919050565b60007fffffffff0000000000000000000000000000000000000000000000000000000082169050919050565b600073ffffffffffffffffffffffffffffffffffffffff82169050919050565b7f4f776e61626c653a206e6577206f776e657220697320746865207a65726f206160008201527f6464726573730000000000000000000000000000000000000000000000000000602082015250565b7f4f776e61626c653a2063616c6c6572206973206e6f7420746865206f776e6572600082015250565b7f4e6f742045524337323100000000000000000000000000000000000000000000600082015250565b61093a81610826565b811461094557600080fd5b50565b61095181610838565b811461095c57600080fd5b5056fea2646970667358221220ff5e9becbb477a7234e680b62d91f2c36849d52493c5332e4d6c782fb8f7f08264736f6c63430008040033",
  "linkReferences": {},
  "deployedLinkReferences": {}
}