{
  "_format": "hh-sol-artifact-1",
  "contractName": "CreathTokenRegistry",
  "sourceName": "contracts/CreathTokenRegistry.sol",
  "abi": [
    {
      "anonymous": false,
      "inputs": [
        {
          "indexed": true,
          "internalType": "address",
          "name": "previousOwner",
          "type": "address"
        },
        {
          "indexed": true,
          "internalType": "address",
          "name": "newOwner",
          "type": "address"
        }
      ],
      "name": "OwnershipTransferred",
      "type": "event"
    },
    {
      "anonymous": false,
      "inputs": [
        {
          "indexed": false,
          "internalType": "address",
          "name": "token",
          "type": "address"
        }
      ],
      "name": "TokenAdded",
      "type": "event"
    },
    {
      "anonymous": false,
      "inputs": [
        {
          "indexed": false,
          "internalType": "address",
          "name": "token",
          "type": "address"
        }
      ],
      "name": "TokenRemoved",
      "type": "event"
    },
    {
      "inputs": [
        {
          "internalType": "address",
          "name": "token",
          "type": "address"
        }
      ],
      "name": "add",
      "outputs": [],
      "stateMutability": "nonpayable",
      "type": "function"
    },
    {
      "inputs": [
        {
          "internalType": "address",
          "name": "",
          "type": "address"
        }
      ],
      "name": "enabled",
      "outputs": [
        {
          "internalType": "bool",
          "name": "",
          "type": "bool"
        }
      ],
      "stateMutability": "view",
      "type": "function"
    },
    {
      "inputs": [],
      "name": "owner",
      "outputs": [
        {
          "internalType": "address",
          "name": "",
          "type": "address"
        }
      ],
      "stateMutability": "view",
      "type": "function"
    },
    {
      "inputs": [
        {
          "internalType": "address",
          "name": "token",
          "type": "address"
        }
      ],
      "name": "remove",
      "outputs": [],
      "stateMutability": "nonpayable",
      "type": "function"
    },
    {
      "inputs": [],
      "name": "renounceOwnership",
      "outputs": [],
      "stateMutability": "nonpayable",
      "type": "function"
    },
    {
      "inputs": [
        {
          "internalType": "address",
          "name": "newOwner",
          "type": "address"
        }
      ],
      "name": "transferOwnership",
      "outputs": [],
      "stateMutability": "nonpayable",
      "type": "function"
    }
  ],
  "bytecode": "0x608060405234801561001057600080fd5b5061002d61002261003260201b60201c565b61003a60201b60201c565b6100fe565b600033905090565b60008060009054906101000a900473ffffffffffffffffffffffffffffffffffffffff169050816000806101000a81548173ffffffffffffffffffffffffffffffffffffffff021916908373ffffffffffffffffffffffffffffffffffffffff1602179055508173ffffffffffffffffffffffffffffffffffffffff168173ffffffffffffffffffffffffffffffffffffffff167f8be0079c531659141344cd1fd0a4f28419497f9722a3daafe3b4186f6b6457e060405160405180910390a35050565b6108da8061010d6000396000f3fe608060405234801561001057600080fd5b50600436106100625760003560e01c80630a3b0a4f1461006757806329092d0e14610083578063715018a61461009f5780638da5cb5b146100a957806398afdfe3146100c7578063f2fde38b146100f7575b600080fd5b610081600480360381019061007c919061059f565b610113565b005b61009d6004803603810190610098919061059f565b610239565b005b6100a761035f565b005b6100b1610373565b6040516100be9190610672565b60405180910390f35b6100e160048036038101906100dc919061059f565b61039c565b6040516100ee919061068d565b60405180910390f35b610111600480360381019061010c919061059f565b6103bc565b005b61011b610440565b600160008273ffffffffffffffffffffffffffffffffffffffff1673ffffffffffffffffffffffffffffffffffffffff16815260200190815260200160002060009054906101000a900460ff16156101a8576040517f08c379a000000000000000000000000000000000000000000000000000000000815260040161019f906106c8565b60405180910390fd5b60018060008373ffffffffffffffffffffffffffffffffffffffff1673ffffffffffffffffffffffffffffffffffffffff16815260200190815260200160002060006101000a81548160ff0219169083151502179055507f784c8f4dbf0ffedd6e72c76501c545a70f8b203b30a26ce542bf92ba87c248a48160405161022e9190610672565b60405180910390a150565b610241610440565b600160008273ffffffffffffffffffffffffffffffffffffffff1673ffffffffffffffffffffffffffffffffffffffff16815260200190815260200160002060009054906101000a900460ff166102cd576040517f08c379a00000000000000000000000000000000000000000000000000000000081526004016102c4906106a8565b60405180910390fd5b6000600160008373ffffffffffffffffffffffffffffffffffffffff1673ffffffffffffffffffffffffffffffffffffffff16815260200190815260200160002060006101000a81548160ff0219169083151502179055507f4c910b69fe65a61f7531b9c5042b2329ca7179c77290aa7e2eb3afa3c8511fd3816040516103549190610672565b60405180910390a150565b610367610440565b61037160006104be565b565b60008060009054906101000a900473ffffffffffffffffffffffffffffffffffffffff16905090565b60016020528060005260406000206000915054906101000a900460ff1681565b6103c4610440565b600073ffffffffffffffffffffffffffffffffffffffff168173ffffffffffffffffffffffffffffffffffffffff161415610434576040517f08c379a000000000000000000000000000000000000000000000000000000000815260040161042b906106e8565b60405180910390fd5b61043d816104be565b50565b610448610582565b73ffffffffffffffffffffffffffffffffffffffff16610466610373565b73ffffffffffffffffffffffffffffffffffffffff16146104bc576040517f08c379a00000000000000000000000000000000000000000000000000000000081526004016104b390610708565b60405180910390fd5b565b60008060009054906101000a900473ffffffffffffffffffffffffffffffffffffffff169050816000806101000a81548173ffffffffffffffffffffffffffffffffffffffff021916908373ffffffffffffffffffffffffffffffffffffffff1602179055508173ffffffffffffffffffffffffffffffffffffffff168173ffffffffffffffffffffffffffffffffffffffff167f8be0079c531659141344cd1fd0a4f28419497f9722a3daafe3b4186f6b6457e060405160405180910390a35050565b600033905090565b6000813590506105998161088d565b92915050565b6000602082840312156105b157600080fd5b60006105bf8482850161058a565b91505092915050565b6105d181610739565b82525050565b6105e08161074b565b82525050565b60006105f3602383610728565b91506105fe82610777565b604082019050919050565b6000610616602783610728565b9150610621826107c6565b604082019050919050565b6000610639602683610728565b915061064482610815565b604082019050919050565b600061065c602083610728565b915061066782610864565b602082019050919050565b600060208201905061068760008301846105c8565b92915050565b60006020820190506106a260008301846105d7565b92915050565b600060208201905081810360008301526106c1816105e6565b9050919050565b600060208201905081810360008301526106e181610609565b9050919050565b600060208201905081810360008301526107018161062c565b9050919050565b600060208201905081810360008301526107218161064f565b9050919050565b600082825260208201905092915050565b600061074482610757565b9050919050565b60008115159050919050565b600073ffffffffffffffffffffffffffffffffffffffff82169050919050565b7f437265617468546f6b656e52656769737472793a746f6b656e206e6f7420657860008201527f6973740000000000000000000000000000000000000000000000000000000000602082015250565b7f437265617468546f6b656e52656769737472793a746f6b656e20616c7265616460008201527f7920616464656400000000000000000000000000000000000000000000000000602082015250565b7f4f776e61626c653a206e6577206f776e657220697320746865207a65726f206160008201527f6464726573730000000000000000000000000000000000000000000000000000602082015250565b7f4f776e61626c653a2063616c6c6572206973206e6f7420746865206f776e6572600082015250565b61089681610739565b81146108a157600080fd5b5056fea2646970667358221220e27ce5e45b5413e0ec00317c7d13e90c1b4001546d6e7ed1d6b92c4159f0119164736f6c63430008040033",
  "linkReferences": {},
  "deployedLinkReferences": {}
}