{
  "_format": "hh-sol-artifact-1",
  "contractName": "CreathTreasury",
  "sourceName": "contracts/CreathTreasury.sol",
  "abi": [
    {
      "inputs": [
        {
          "internalType": "address",
          "name": "_admin",
          "type": "address"
        }
      ],
      "stateMutability": "nonpayable",
      "type": "constructor"
    },
    {
      "anonymous": false,
      "inputs": [
        {
          "indexed": false,
          "internalType": "address",
          "name": "_address",
          "type": "address"
        }
      ],
      "name": "MarketplaceUpdated",
      "type": "event"
    },
    {
      "anonymous": false,
      "inputs": [
        {
          "indexed": true,
          "internalType": "bytes32",
          "name": "role",
          "type": "bytes32"
        },
        {
          "indexed": true,
          "internalType": "bytes32",
          "name": "previousAdminRole",
          "type": "bytes32"
        },
        {
          "indexed": true,
          "internalType": "bytes32",
          "name": "newAdminRole",
          "type": "bytes32"
        }
      ],
      "name": "RoleAdminChanged",
      "type": "event"
    },
    {
      "anonymous": false,
      "inputs": [
        {
          "indexed": true,
          "internalType": "bytes32",
          "name": "role",
          "type": "bytes32"
        },
        {
          "indexed": true,
          "internalType": "address",
          "name": "account",
          "type": "address"
        },
        {
          "indexed": true,
          "internalType": "address",
          "name": "sender",
          "type": "address"
        }
      ],
      "name": "RoleGranted",
      "type": "event"
    },
    {
      "anonymous": false,
      "inputs": [
        {
          "indexed": true,
          "internalType": "bytes32",
          "name": "role",
          "type": "bytes32"
        },
        {
          "indexed": true,
          "internalType": "address",
          "name": "account",
          "type": "address"
        },
        {
          "indexed": true,
          "internalType": "address",
          "name": "sender",
          "type": "address"
        }
      ],
      "name": "RoleRevoked",
      "type": "event"
    },
    {
      "anonymous": false,
      "inputs": [
        {
          "indexed": true,
          "internalType": "address",
          "name": "user",
          "type": "address"
        },
        {
          "indexed": false,
          "internalType": "uint256",
          "name": "amount",
          "type": "uint256"
        }
      ],
      "name": "Withdraw",
      "type": "event"
    },
    {
      "inputs": [],
      "name": "DEFAULT_ADMIN_ROLE",
      "outputs": [
        {
          "internalType": "bytes32",
          "name": "",
          "type": "bytes32"
        }
      ],
      "stateMutability": "view",
      "type": "function"
    },
    {
      "inputs": [
        {
          "internalType": "bytes32",
          "name": "role",
          "type": "bytes32"
        }
      ],
      "name": "getRoleAdmin",
      "outputs": [
        {
          "internalType": "bytes32",
          "name": "",
          "type": "bytes32"
        }
      ],
      "stateMutability": "view",
      "type": "function"
    },
    {
      "inputs": [
        {
          "internalType": "bytes32",
          "name": "role",
          "type": "bytes32"
        },
        {
          "internalType": "address",
          "name": "account",
          "type": "address"
        }
      ],
      "name": "grantRole",
      "outputs": [],
      "stateMutability": "nonpayable",
      "type": "function"
    },
    {
      "inputs": [
        {
          "internalType": "bytes32",
          "name": "role",
          "type": "bytes32"
        },
        {
          "internalType": "address",
          "name": "account",
          "type": "address"
        }
      ],
      "name": "hasRole",
      "outputs": [
        {
          "internalType": "bool",
          "name": "",
          "type": "bool"
        }
      ],
      "stateMutability": "view",
      "type": "function"
    },
    {
      "inputs": [
        {
          "internalType": "address",
          "name": "account",
          "type": "address"
        }
      ],
      "name": "isAuthorized",
      "outputs": [
        {
          "internalType": "bool",
          "name": "",
          "type": "bool"
        }
      ],
      "stateMutability": "view",
      "type": "function"
    },
    {
      "inputs": [],
      "name": "marketplace",
      "outputs": [
        {
          "internalType": "address",
          "name": "",
          "type": "address"
        }
      ],
      "stateMutability": "view",
      "type": "function"
    },
    {
      "inputs": [
        {
          "internalType": "bytes32",
          "name": "role",
          "type": "bytes32"
        },
        {
          "internalType": "address",
          "name": "account",
          "type": "address"
        }
      ],
      "name": "renounceRole",
      "outputs": [],
      "stateMutability": "nonpayable",
      "type": "function"
    },
    {
      "inputs": [
        {
          "internalType": "bytes32",
          "name": "role",
          "type": "bytes32"
        },
        {
          "internalType": "address",
          "name": "account",
          "type": "address"
        }
      ],
      "name": "revokeRole",
      "outputs": [],
      "stateMutability": "nonpayable",
      "type": "function"
    },
    {
      "inputs": [
        {
          "internalType": "bytes4",
          "name": "interfaceId",
          "type": "bytes4"
        }
      ],
      "name": "supportsInterface",
      "outputs": [
        {
          "internalType": "bool",
          "name": "",
          "type": "bool"
        }
      ],
      "stateMutability": "view",
      "type": "function"
    },
    {
      "inputs": [
        {
          "internalType": "address",
          "name": "admin",
          "type": "address"
        }
      ],
      "name": "updateAdmin",
      "outputs": [],
      "stateMutability": "nonpayable",
      "type": "function"
    },
    {
      "inputs": [
        {
          "internalType": "address",
          "name": "_marketplace",
          "type": "address"
        }
      ],
      "name": "updateMarketplace",
      "outputs": [],
      "stateMutability": "nonpayable",
      "type": "function"
    },
    {
      "inputs": [
        {
          "internalType": "uint256",
          "name": "_amount",
          "type": "uint256"
        },
        {
          "internalType": "address",
          "name": "_to",
          "type": "address"
        }
      ],
      "name": "withdraw",
      "outputs": [],
      "stateMutability": "nonpayable",
      "type": "function"
    },
    {
      "inputs": [
        {
          "internalType": "address",
          "name": "_token",
          "type": "address"
        },
        {
          "internalType": "address",
          "name": "_to",
          "type": "address"
        },
        {
          "internalType": "uint256",
          "name": "_amount",
          "type": "uint256"
        }
      ],
      "name": "withdrawToken",
      "outputs": [],
      "stateMutability": "nonpayable",
      "type": "function"
    },
    {
      "stateMutability": "payable",
      "type": "receive"
    }
  ],
  "bytecode": "0x60806040523480156200001157600080fd5b5060405162001f6638038062001f66833981810160405281019062000037919062000241565b620000697f61646d696e00000000000000000000000000000000000000000000000000000082620000b160201b60201c565b80600260006101000a81548173ffffffffffffffffffffffffffffffffffffffff021916908373ffffffffffffffffffffffffffffffffffffffff16021790555050620002bb565b620000c38282620000c760201b60201c565b5050565b620000d98282620001b860201b60201c565b620001b457600160008084815260200190815260200160002060000160008373ffffffffffffffffffffffffffffffffffffffff1673ffffffffffffffffffffffffffffffffffffffff16815260200190815260200160002060006101000a81548160ff021916908315150217905550620001596200022260201b60201c565b73ffffffffffffffffffffffffffffffffffffffff168173ffffffffffffffffffffffffffffffffffffffff16837f2f8788117e7eff1d82e926ec794901d17c78024a50270940304540a733656f0d60405160405180910390a45b5050565b600080600084815260200190815260200160002060000160008373ffffffffffffffffffffffffffffffffffffffff1673ffffffffffffffffffffffffffffffffffffffff16815260200190815260200160002060009054906101000a900460ff16905092915050565b600033905090565b6000815190506200023b81620002a1565b92915050565b6000602082840312156200025457600080fd5b600062000264848285016200022a565b91505092915050565b60006200027a8262000281565b9050919050565b600073ffffffffffffffffffffffffffffffffffffffff82169050919050565b620002ac816200026d565b8114620002b857600080fd5b50565b611c9b80620002cb6000396000f3fe6080604052600436106100c55760003560e01c806391d148541161007f578063d547741f11610059578063d547741f14610282578063e2f273bd146102ab578063eb636317146102d4578063fe9fbb80146102fd576100cc565b806391d14854146101ef578063a217fddf1461022c578063abc8c7af14610257576100cc565b8062f714ce146100d157806301e33667146100fa57806301ffc9a714610123578063248a9ca3146101605780632f2ff15d1461019d57806336568abe146101c6576100cc565b366100cc57005b600080fd5b3480156100dd57600080fd5b506100f860048036038101906100f39190611417565b61033a565b005b34801561010657600080fd5b50610121600480360381019061011c9190611311565b61041b565b005b34801561012f57600080fd5b5061014a600480360381019061014591906113ee565b6104e1565b60405161015791906116d7565b60405180910390f35b34801561016c57600080fd5b5061018760048036038101906101829190611389565b61055b565b60405161019491906116f2565b60405180910390f35b3480156101a957600080fd5b506101c460048036038101906101bf91906113b2565b61057a565b005b3480156101d257600080fd5b506101ed60048036038101906101e891906113b2565b61059b565b005b3480156101fb57600080fd5b50610216600480360381019061021191906113b2565b61061e565b60405161022391906116d7565b60405180910390f35b34801561023857600080fd5b50610241610688565b60405161024e91906116f2565b60405180910390f35b34801561026357600080fd5b5061026c61068f565b6040516102799190611693565b60405180910390f35b34801561028e57600080fd5b506102a960048036038101906102a491906113b2565b6106b5565b005b3480156102b757600080fd5b506102d260048036038101906102cd91906112e8565b6106d6565b005b3480156102e057600080fd5b506102fb60048036038101906102f691906112e8565b6107bb565b005b34801561030957600080fd5b50610324600480360381019061031f91906112e8565b6108e6565b60405161033191906116d7565b60405180910390f35b610343336108e6565b610382576040517f08c379a00000000000000000000000000000000000000000000000000000000081526004016103799061174f565b60405180910390fd5b8073ffffffffffffffffffffffffffffffffffffffff166108fc839081150290604051600060405180830381858888f193505050501580156103c8573d6000803e3d6000fd5b503373ffffffffffffffffffffffffffffffffffffffff167f884edad9ce6fa2440d8a54cc123490eb96d2768479d49ff9c7366125a94243648360405161040f91906117ef565b60405180910390a25050565b610424336108e6565b610463576040517f08c379a000000000000000000000000000000000000000000000000000000000815260040161045a9061174f565b60405180910390fd5b61048e82828573ffffffffffffffffffffffffffffffffffffffff166109629092919063ffffffff16565b8173ffffffffffffffffffffffffffffffffffffffff167f884edad9ce6fa2440d8a54cc123490eb96d2768479d49ff9c7366125a9424364826040516104d491906117ef565b60405180910390a2505050565b60007f7965db0b000000000000000000000000000000000000000000000000000000007bffffffffffffffffffffffffffffffffffffffffffffffffffffffff1916827bffffffffffffffffffffffffffffffffffffffffffffffffffffffff191614806105545750610553826109e8565b5b9050919050565b6000806000838152602001908152602001600020600101549050919050565b6105838261055b565b61058c81610a52565b6105968383610a66565b505050565b6105a3610b46565b73ffffffffffffffffffffffffffffffffffffffff168173ffffffffffffffffffffffffffffffffffffffff1614610610576040517f08c379a0000000000000000000000000000000000000000000000000000000008152600401610607906117cf565b60405180910390fd5b61061a8282610b4e565b5050565b600080600084815260200190815260200160002060000160008373ffffffffffffffffffffffffffffffffffffffff1673ffffffffffffffffffffffffffffffffffffffff16815260200190815260200160002060009054906101000a900460ff16905092915050565b6000801b81565b600160009054906101000a900473ffffffffffffffffffffffffffffffffffffffff1681565b6106be8261055b565b6106c781610a52565b6106d18383610b4e565b505050565b7f61646d696e00000000000000000000000000000000000000000000000000000061070081610a52565b61072a7f61646d696e00000000000000000000000000000000000000000000000000000083610a66565b6107767f61646d696e000000000000000000000000000000000000000000000000000000600260009054906101000a900473ffffffffffffffffffffffffffffffffffffffff16610b4e565b81600260006101000a81548173ffffffffffffffffffffffffffffffffffffffff021916908373ffffffffffffffffffffffffffffffffffffffff1602179055505050565b7f61646d696e0000000000000000000000000000000000000000000000000000006107e581610a52565b600160009054906101000a900473ffffffffffffffffffffffffffffffffffffffff1673ffffffffffffffffffffffffffffffffffffffff168273ffffffffffffffffffffffffffffffffffffffff16141561084057600080fd5b61086a7f6d61726b6574706c61636500000000000000000000000000000000000000000083610c2f565b81600160006101000a81548173ffffffffffffffffffffffffffffffffffffffff021916908373ffffffffffffffffffffffffffffffffffffffff1602179055507f210690abd7fd6cdbb8f2beb202b2a253d58d7a0813b2175c4172c14c0c1af6dc826040516108da9190611693565b60405180910390a15050565b60006109127f61646d696e0000000000000000000000000000000000000000000000000000008361061e565b15610920576001905061095d565b61094a7f6d61726b6574706c6163650000000000000000000000000000000000000000008361061e565b15610958576001905061095d565b600090505b919050565b6109e38363a9059cbb60e01b84846040516024016109819291906116ae565b604051602081830303815290604052907bffffffffffffffffffffffffffffffffffffffffffffffffffffffff19166020820180517bffffffffffffffffffffffffffffffffffffffffffffffffffffffff8381831617835250505050610c3d565b505050565b60007f01ffc9a7000000000000000000000000000000000000000000000000000000007bffffffffffffffffffffffffffffffffffffffffffffffffffffffff1916827bffffffffffffffffffffffffffffffffffffffffffffffffffffffff1916149050919050565b610a6381610a5e610b46565b610d05565b50565b610a70828261061e565b610b4257600160008084815260200190815260200160002060000160008373ffffffffffffffffffffffffffffffffffffffff1673ffffffffffffffffffffffffffffffffffffffff16815260200190815260200160002060006101000a81548160ff021916908315150217905550610ae7610b46565b73ffffffffffffffffffffffffffffffffffffffff168173ffffffffffffffffffffffffffffffffffffffff16837f2f8788117e7eff1d82e926ec794901d17c78024a50270940304540a733656f0d60405160405180910390a45b5050565b600033905090565b610b58828261061e565b15610c2b57600080600084815260200190815260200160002060000160008373ffffffffffffffffffffffffffffffffffffffff1673ffffffffffffffffffffffffffffffffffffffff16815260200190815260200160002060006101000a81548160ff021916908315150217905550610bd0610b46565b73ffffffffffffffffffffffffffffffffffffffff168173ffffffffffffffffffffffffffffffffffffffff16837ff6391f5c32d9c69d2a47ea670b442974b53935d1edc7fd64eb21e047a839171b60405160405180910390a45b5050565b610c398282610a66565b5050565b6000610c9f826040518060400160405280602081526020017f5361666545524332303a206c6f772d6c6576656c2063616c6c206661696c65648152508573ffffffffffffffffffffffffffffffffffffffff16610d8a9092919063ffffffff16565b9050600081511480610cc1575080806020019051810190610cc09190611360565b5b610d00576040517f08c379a0000000000000000000000000000000000000000000000000000000008152600401610cf7906117af565b60405180910390fd5b505050565b610d0f828261061e565b610d8657610d1c81610da2565b610d2a8360001c6020610dcf565b604051602001610d3b929190611659565b6040516020818303038152906040526040517f08c379a0000000000000000000000000000000000000000000000000000000008152600401610d7d919061170d565b60405180910390fd5b5050565b6060610d9984846000856110c9565b90509392505050565b6060610dc88273ffffffffffffffffffffffffffffffffffffffff16601460ff16610dcf565b9050919050565b606060006002836002610de2919061189d565b610dec9190611847565b67ffffffffffffffff811115610e2b577f4e487b7100000000000000000000000000000000000000000000000000000000600052604160045260246000fd5b6040519080825280601f01601f191660200182016040528015610e5d5781602001600182028036833780820191505090505b5090507f300000000000000000000000000000000000000000000000000000000000000081600081518110610ebb577f4e487b7100000000000000000000000000000000000000000000000000000000600052603260045260246000fd5b60200101907effffffffffffffffffffffffffffffffffffffffffffffffffffffffffffff1916908160001a9053507f780000000000000000000000000000000000000000000000000000000000000081600181518110610f45577f4e487b7100000000000000000000000000000000000000000000000000000000600052603260045260246000fd5b60200101907effffffffffffffffffffffffffffffffffffffffffffffffffffffffffffff1916908160001a90535060006001846002610f85919061189d565b610f8f9190611847565b90505b600181111561107b577f3031323334353637383961626364656600000000000000000000000000000000600f861660108110610ff7577f4e487b7100000000000000000000000000000000000000000000000000000000600052603260045260246000fd5b1a60f81b828281518110611034577f4e487b7100000000000000000000000000000000000000000000000000000000600052603260045260246000fd5b60200101907effffffffffffffffffffffffffffffffffffffffffffffffffffffffffffff1916908160001a905350600485901c945080611074906119a8565b9050610f92565b50600084146110bf576040517f08c379a00000000000000000000000000000000000000000000000000000000081526004016110b69061172f565b60405180910390fd5b8091505092915050565b60608247101561110e576040517f08c379a00000000000000000000000000000000000000000000000000000000081526004016111059061176f565b60405180910390fd5b6000808673ffffffffffffffffffffffffffffffffffffffff1685876040516111379190611642565b60006040518083038185875af1925050503d8060008114611174576040519150601f19603f3d011682016040523d82523d6000602084013e611179565b606091505b509150915061118a87838387611196565b92505050949350505050565b606083156111f9576000835114156111f1576111b18561120c565b6111f0576040517f08c379a00000000000000000000000000000000000000000000000000000000081526004016111e79061178f565b60405180910390fd5b5b829050611204565b611203838361122f565b5b949350505050565b6000808273ffffffffffffffffffffffffffffffffffffffff163b119050919050565b6000825111156112425781518083602001fd5b806040517f08c379a0000000000000000000000000000000000000000000000000000000008152600401611276919061170d565b60405180910390fd5b60008135905061128e81611bf2565b92915050565b6000815190506112a381611c09565b92915050565b6000813590506112b881611c20565b92915050565b6000813590506112cd81611c37565b92915050565b6000813590506112e281611c4e565b92915050565b6000602082840312156112fa57600080fd5b60006113088482850161127f565b91505092915050565b60008060006060848603121561132657600080fd5b60006113348682870161127f565b93505060206113458682870161127f565b9250506040611356868287016112d3565b9150509250925092565b60006020828403121561137257600080fd5b600061138084828501611294565b91505092915050565b60006020828403121561139b57600080fd5b60006113a9848285016112a9565b91505092915050565b600080604083850312156113c557600080fd5b60006113d3858286016112a9565b92505060206113e48582860161127f565b9150509250929050565b60006020828403121561140057600080fd5b600061140e848285016112be565b91505092915050565b6000806040838503121561142a57600080fd5b6000611438858286016112d3565b92505060206114498582860161127f565b9150509250929050565b61145c816118f7565b82525050565b61146b81611909565b82525050565b61147a81611915565b82525050565b600061148b8261180a565b6114958185611820565b93506114a5818560208601611975565b80840191505092915050565b60006114bc82611815565b6114c6818561182b565b93506114d6818560208601611975565b6114df81611a01565b840191505092915050565b60006114f582611815565b6114ff818561183c565b935061150f818560208601611975565b80840191505092915050565b600061152860208361182b565b915061153382611a12565b602082019050919050565b600061154b60308361182b565b915061155682611a3b565b604082019050919050565b600061156e60268361182b565b915061157982611a8a565b604082019050919050565b6000611591601d8361182b565b915061159c82611ad9565b602082019050919050565b60006115b460178361183c565b91506115bf82611b02565b601782019050919050565b60006115d7602a8361182b565b91506115e282611b2b565b604082019050919050565b60006115fa60118361183c565b915061160582611b7a565b601182019050919050565b600061161d602f8361182b565b915061162882611ba3565b604082019050919050565b61163c8161196b565b82525050565b600061164e8284611480565b915081905092915050565b6000611664826115a7565b915061167082856114ea565b915061167b826115ed565b915061168782846114ea565b91508190509392505050565b60006020820190506116a86000830184611453565b92915050565b60006040820190506116c36000830185611453565b6116d06020830184611633565b9392505050565b60006020820190506116ec6000830184611462565b92915050565b60006020820190506117076000830184611471565b92915050565b6000602082019050818103600083015261172781846114b1565b905092915050565b600060208201905081810360008301526117488161151b565b9050919050565b600060208201905081810360008301526117688161153e565b9050919050565b6000602082019050818103600083015261178881611561565b9050919050565b600060208201905081810360008301526117a881611584565b9050919050565b600060208201905081810360008301526117c8816115ca565b9050919050565b600060208201905081810360008301526117e881611610565b9050919050565b60006020820190506118046000830184611633565b92915050565b600081519050919050565b600081519050919050565b600081905092915050565b600082825260208201905092915050565b600081905092915050565b60006118528261196b565b915061185d8361196b565b9250827fffffffffffffffffffffffffffffffffffffffffffffffffffffffffffffffff03821115611892576118916119d2565b5b828201905092915050565b60006118a88261196b565b91506118b38361196b565b9250817fffffffffffffffffffffffffffffffffffffffffffffffffffffffffffffffff04831182151516156118ec576118eb6119d2565b5b828202905092915050565b60006119028261194b565b9050919050565b60008115159050919050565b6000819050919050565b60007fffffffff0000000000000000000000000000000000000000000000000000000082169050919050565b600073ffffffffffffffffffffffffffffffffffffffff82169050919050565b6000819050919050565b60005b83811015611993578082015181840152602081019050611978565b838111156119a2576000848401525b50505050565b60006119b38261196b565b915060008214156119c7576119c66119d2565b5b600182039050919050565b7f4e487b7100000000000000000000000000000000000000000000000000000000600052601160045260246000fd5b6000601f19601f8301169050919050565b7f537472696e67733a20686578206c656e67746820696e73756666696369656e74600082015250565b7f54726561737572793a5265737472696374656420746f206f6e6c79206175746860008201527f6f72697a6564206163636f756e74732e00000000000000000000000000000000602082015250565b7f416464726573733a20696e73756666696369656e742062616c616e636520666f60008201527f722063616c6c0000000000000000000000000000000000000000000000000000602082015250565b7f416464726573733a2063616c6c20746f206e6f6e2d636f6e7472616374000000600082015250565b7f416363657373436f6e74726f6c3a206163636f756e7420000000000000000000600082015250565b7f5361666545524332303a204552433230206f7065726174696f6e20646964206e60008201527f6f74207375636365656400000000000000000000000000000000000000000000602082015250565b7f206973206d697373696e6720726f6c6520000000000000000000000000000000600082015250565b7f416363657373436f6e74726f6c3a2063616e206f6e6c792072656e6f756e636560008201527f20726f6c657320666f722073656c660000000000000000000000000000000000602082015250565b611bfb816118f7565b8114611c0657600080fd5b50565b611c1281611909565b8114611c1d57600080fd5b50565b611c2981611915565b8114611c3457600080fd5b50565b611c408161191f565b8114611c4b57600080fd5b50565b611c578161196b565b8114611c6257600080fd5b5056fea26469706673582212204ea157ba1a95f951203941baed244f43cf2dac65695f21faead4a1329181c32864736f6c63430008040033",
  "linkReferences": {},
  "deployedLinkReferences": {}
}