{
  "_format": "hh-sol-artifact-1",
  "contractName": "CreathTreasury",
  "sourceName": "contracts/CreathTreasury.sol",
  "abi": [
    {
      "inputs": [
        {
          "internalType": "address",
          "name": "_admin",
          "type": "address"
        }
      ],
      "stateMutability": "nonpayable",
      "type": "constructor"
    },
    {
      "anonymous": false,
      "inputs": [
        {
          "indexed": false,
          "internalType": "address",
          "name": "_address",
          "type": "address"
        }
      ],
      "name": "MarketplaceSet",
      "type": "event"
    },
    {
      "anonymous": false,
      "inputs": [
        {
          "indexed": true,
          "internalType": "bytes32",
          "name": "role",
          "type": "bytes32"
        },
        {
          "indexed": true,
          "internalType": "bytes32",
          "name": "previousAdminRole",
          "type": "bytes32"
        },
        {
          "indexed": true,
          "internalType": "bytes32",
          "name": "newAdminRole",
          "type": "bytes32"
        }
      ],
      "name": "RoleAdminChanged",
      "type": "event"
    },
    {
      "anonymous": false,
      "inputs": [
        {
          "indexed": true,
          "internalType": "bytes32",
          "name": "role",
          "type": "bytes32"
        },
        {
          "indexed": true,
          "internalType": "address",
          "name": "account",
          "type": "address"
        },
        {
          "indexed": true,
          "internalType": "address",
          "name": "sender",
          "type": "address"
        }
      ],
      "name": "RoleGranted",
      "type": "event"
    },
    {
      "anonymous": false,
      "inputs": [
        {
          "indexed": true,
          "internalType": "bytes32",
          "name": "role",
          "type": "bytes32"
        },
        {
          "indexed": true,
          "internalType": "address",
          "name": "account",
          "type": "address"
        },
        {
          "indexed": true,
          "internalType": "address",
          "name": "sender",
          "type": "address"
        }
      ],
      "name": "RoleRevoked",
      "type": "event"
    },
    {
      "anonymous": false,
      "inputs": [
        {
          "indexed": true,
          "internalType": "address",
          "name": "user",
          "type": "address"
        },
        {
          "indexed": false,
          "internalType": "uint256",
          "name": "amount",
          "type": "uint256"
        }
      ],
      "name": "Withdraw",
      "type": "event"
    },
    {
      "inputs": [],
      "name": "DEFAULT_ADMIN_ROLE",
      "outputs": [
        {
          "internalType": "bytes32",
          "name": "",
          "type": "bytes32"
        }
      ],
      "stateMutability": "view",
      "type": "function"
    },
    {
      "inputs": [
        {
          "internalType": "bytes32",
          "name": "role",
          "type": "bytes32"
        }
      ],
      "name": "getRoleAdmin",
      "outputs": [
        {
          "internalType": "bytes32",
          "name": "",
          "type": "bytes32"
        }
      ],
      "stateMutability": "view",
      "type": "function"
    },
    {
      "inputs": [
        {
          "internalType": "bytes32",
          "name": "role",
          "type": "bytes32"
        },
        {
          "internalType": "address",
          "name": "account",
          "type": "address"
        }
      ],
      "name": "grantRole",
      "outputs": [],
      "stateMutability": "nonpayable",
      "type": "function"
    },
    {
      "inputs": [
        {
          "internalType": "bytes32",
          "name": "role",
          "type": "bytes32"
        },
        {
          "internalType": "address",
          "name": "account",
          "type": "address"
        }
      ],
      "name": "hasRole",
      "outputs": [
        {
          "internalType": "bool",
          "name": "",
          "type": "bool"
        }
      ],
      "stateMutability": "view",
      "type": "function"
    },
    {
      "inputs": [
        {
          "internalType": "address",
          "name": "account",
          "type": "address"
        }
      ],
      "name": "isAuthorized",
      "outputs": [
        {
          "internalType": "bool",
          "name": "",
          "type": "bool"
        }
      ],
      "stateMutability": "view",
      "type": "function"
    },
    {
      "inputs": [],
      "name": "marketplace",
      "outputs": [
        {
          "internalType": "address",
          "name": "",
          "type": "address"
        }
      ],
      "stateMutability": "view",
      "type": "function"
    },
    {
      "inputs": [
        {
          "internalType": "bytes32",
          "name": "role",
          "type": "bytes32"
        },
        {
          "internalType": "address",
          "name": "account",
          "type": "address"
        }
      ],
      "name": "renounceRole",
      "outputs": [],
      "stateMutability": "nonpayable",
      "type": "function"
    },
    {
      "inputs": [
        {
          "internalType": "bytes32",
          "name": "role",
          "type": "bytes32"
        },
        {
          "internalType": "address",
          "name": "account",
          "type": "address"
        }
      ],
      "name": "revokeRole",
      "outputs": [],
      "stateMutability": "nonpayable",
      "type": "function"
    },
    {
      "inputs": [
        {
          "internalType": "bytes4",
          "name": "interfaceId",
          "type": "bytes4"
        }
      ],
      "name": "supportsInterface",
      "outputs": [
        {
          "internalType": "bool",
          "name": "",
          "type": "bool"
        }
      ],
      "stateMutability": "view",
      "type": "function"
    },
    {
      "inputs": [
        {
          "internalType": "address",
          "name": "admin",
          "type": "address"
        }
      ],
      "name": "updateAdmin",
      "outputs": [],
      "stateMutability": "nonpayable",
      "type": "function"
    },
    {
      "inputs": [
        {
          "internalType": "address",
          "name": "_marketplace",
          "type": "address"
        }
      ],
      "name": "updateMarketplace",
      "outputs": [],
      "stateMutability": "nonpayable",
      "type": "function"
    },
    {
      "inputs": [
        {
          "internalType": "uint256",
          "name": "_amount",
          "type": "uint256"
        },
        {
          "internalType": "address",
          "name": "_to",
          "type": "address"
        }
      ],
      "name": "withdraw",
      "outputs": [],
      "stateMutability": "nonpayable",
      "type": "function"
    },
    {
      "inputs": [
        {
          "internalType": "address",
          "name": "_token",
          "type": "address"
        },
        {
          "internalType": "address",
          "name": "_to",
          "type": "address"
        },
        {
          "internalType": "uint256",
          "name": "_amount",
          "type": "uint256"
        }
      ],
      "name": "withdrawToken",
      "outputs": [],
      "stateMutability": "nonpayable",
      "type": "function"
    },
    {
      "stateMutability": "payable",
      "type": "receive"
    }
  ],
  "bytecode": "0x60806040523480156200001157600080fd5b5060405162001ed338038062001ed3833981810160405281019062000037919062000241565b620000697f61646d696e00000000000000000000000000000000000000000000000000000082620000b160201b60201c565b80600260006101000a81548173ffffffffffffffffffffffffffffffffffffffff021916908373ffffffffffffffffffffffffffffffffffffffff16021790555050620002bb565b620000c38282620000c760201b60201c565b5050565b620000d98282620001b860201b60201c565b620001b457600160008084815260200190815260200160002060000160008373ffffffffffffffffffffffffffffffffffffffff1673ffffffffffffffffffffffffffffffffffffffff16815260200190815260200160002060006101000a81548160ff021916908315150217905550620001596200022260201b60201c565b73ffffffffffffffffffffffffffffffffffffffff168173ffffffffffffffffffffffffffffffffffffffff16837f2f8788117e7eff1d82e926ec794901d17c78024a50270940304540a733656f0d60405160405180910390a45b5050565b600080600084815260200190815260200160002060000160008373ffffffffffffffffffffffffffffffffffffffff1673ffffffffffffffffffffffffffffffffffffffff16815260200190815260200160002060009054906101000a900460ff16905092915050565b600033905090565b6000815190506200023b81620002a1565b92915050565b6000602082840312156200025457600080fd5b600062000264848285016200022a565b91505092915050565b60006200027a8262000281565b9050919050565b600073ffffffffffffffffffffffffffffffffffffffff82169050919050565b620002ac816200026d565b8114620002b857600080fd5b50565b611c0880620002cb6000396000f3fe6080604052600436106100c55760003560e01c806391d148541161007f578063d547741f11610059578063d547741f14610282578063e2f273bd146102ab578063eb636317146102d4578063fe9fbb80146102fd576100cc565b806391d14854146101ef578063a217fddf1461022c578063abc8c7af14610257576100cc565b8062f714ce146100d157806301e33667146100fa57806301ffc9a714610123578063248a9ca3146101605780632f2ff15d1461019d57806336568abe146101c6576100cc565b366100cc57005b600080fd5b3480156100dd57600080fd5b506100f860048036038101906100f39190611384565b61033a565b005b34801561010657600080fd5b50610121600480360381019061011c919061127e565b61041b565b005b34801561012f57600080fd5b5061014a6004803603810190610145919061135b565b6104e1565b6040516101579190611644565b60405180910390f35b34801561016c57600080fd5b50610187600480360381019061018291906112f6565b61055b565b604051610194919061165f565b60405180910390f35b3480156101a957600080fd5b506101c460048036038101906101bf919061131f565b61057a565b005b3480156101d257600080fd5b506101ed60048036038101906101e8919061131f565b61059b565b005b3480156101fb57600080fd5b506102166004803603810190610211919061131f565b61061e565b6040516102239190611644565b60405180910390f35b34801561023857600080fd5b50610241610688565b60405161024e919061165f565b60405180910390f35b34801561026357600080fd5b5061026c61068f565b6040516102799190611600565b60405180910390f35b34801561028e57600080fd5b506102a960048036038101906102a4919061131f565b6106b5565b005b3480156102b757600080fd5b506102d260048036038101906102cd9190611255565b6106d6565b005b3480156102e057600080fd5b506102fb60048036038101906102f69190611255565b6107bb565b005b34801561030957600080fd5b50610324600480360381019061031f9190611255565b610854565b6040516103319190611644565b60405180910390f35b61034333610854565b610382576040517f08c379a0000000000000000000000000000000000000000000000000000000008152600401610379906116bc565b60405180910390fd5b8073ffffffffffffffffffffffffffffffffffffffff166108fc839081150290604051600060405180830381858888f193505050501580156103c8573d6000803e3d6000fd5b503373ffffffffffffffffffffffffffffffffffffffff167f884edad9ce6fa2440d8a54cc123490eb96d2768479d49ff9c7366125a94243648360405161040f919061175c565b60405180910390a25050565b61042433610854565b610463576040517f08c379a000000000000000000000000000000000000000000000000000000000815260040161045a906116bc565b60405180910390fd5b61048e82828573ffffffffffffffffffffffffffffffffffffffff166108d09092919063ffffffff16565b8173ffffffffffffffffffffffffffffffffffffffff167f884edad9ce6fa2440d8a54cc123490eb96d2768479d49ff9c7366125a9424364826040516104d4919061175c565b60405180910390a2505050565b60007f7965db0b000000000000000000000000000000000000000000000000000000007bffffffffffffffffffffffffffffffffffffffffffffffffffffffff1916827bffffffffffffffffffffffffffffffffffffffffffffffffffffffff19161480610554575061055382610956565b5b9050919050565b6000806000838152602001908152602001600020600101549050919050565b6105838261055b565b61058c816109c0565b61059683836109d4565b505050565b6105a3610ab4565b73ffffffffffffffffffffffffffffffffffffffff168173ffffffffffffffffffffffffffffffffffffffff1614610610576040517f08c379a00000000000000000000000000000000000000000000000000000000081526004016106079061173c565b60405180910390fd5b61061a8282610abc565b5050565b600080600084815260200190815260200160002060000160008373ffffffffffffffffffffffffffffffffffffffff1673ffffffffffffffffffffffffffffffffffffffff16815260200190815260200160002060009054906101000a900460ff16905092915050565b6000801b81565b600160009054906101000a900473ffffffffffffffffffffffffffffffffffffffff1681565b6106be8261055b565b6106c7816109c0565b6106d18383610abc565b505050565b7f61646d696e000000000000000000000000000000000000000000000000000000610700816109c0565b61072a7f61646d696e000000000000000000000000000000000000000000000000000000836109d4565b6107767f61646d696e000000000000000000000000000000000000000000000000000000600260009054906101000a900473ffffffffffffffffffffffffffffffffffffffff16610abc565b81600260006101000a81548173ffffffffffffffffffffffffffffffffffffffff021916908373ffffffffffffffffffffffffffffffffffffffff1602179055505050565b7f61646d696e0000000000000000000000000000000000000000000000000000006107e5816109c0565b61080f7f6d61726b6574706c61636500000000000000000000000000000000000000000083610b9d565b81600160006101000a81548173ffffffffffffffffffffffffffffffffffffffff021916908373ffffffffffffffffffffffffffffffffffffffff1602179055505050565b60006108807f61646d696e0000000000000000000000000000000000000000000000000000008361061e565b1561088e57600190506108cb565b6108b87f6d61726b6574706c6163650000000000000000000000000000000000000000008361061e565b156108c657600190506108cb565b600090505b919050565b6109518363a9059cbb60e01b84846040516024016108ef92919061161b565b604051602081830303815290604052907bffffffffffffffffffffffffffffffffffffffffffffffffffffffff19166020820180517bffffffffffffffffffffffffffffffffffffffffffffffffffffffff8381831617835250505050610bab565b505050565b60007f01ffc9a7000000000000000000000000000000000000000000000000000000007bffffffffffffffffffffffffffffffffffffffffffffffffffffffff1916827bffffffffffffffffffffffffffffffffffffffffffffffffffffffff1916149050919050565b6109d1816109cc610ab4565b610c72565b50565b6109de828261061e565b610ab057600160008084815260200190815260200160002060000160008373ffffffffffffffffffffffffffffffffffffffff1673ffffffffffffffffffffffffffffffffffffffff16815260200190815260200160002060006101000a81548160ff021916908315150217905550610a55610ab4565b73ffffffffffffffffffffffffffffffffffffffff168173ffffffffffffffffffffffffffffffffffffffff16837f2f8788117e7eff1d82e926ec794901d17c78024a50270940304540a733656f0d60405160405180910390a45b5050565b600033905090565b610ac6828261061e565b15610b9957600080600084815260200190815260200160002060000160008373ffffffffffffffffffffffffffffffffffffffff1673ffffffffffffffffffffffffffffffffffffffff16815260200190815260200160002060006101000a81548160ff021916908315150217905550610b3e610ab4565b73ffffffffffffffffffffffffffffffffffffffff168173ffffffffffffffffffffffffffffffffffffffff16837ff6391f5c32d9c69d2a47ea670b442974b53935d1edc7fd64eb21e047a839171b60405160405180910390a45b5050565b610ba782826109d4565b5050565b6000610c0d826040518060400160405280602081526020017f5361666545524332303a206c6f772d6c6576656c2063616c6c206661696c65648152508573ffffffffffffffffffffffffffffffffffffffff16610cf79092919063ffffffff16565b9050600081511115610c6d5780806020019051810190610c2d91906112cd565b610c6c576040517f08c379a0000000000000000000000000000000000000000000000000000000008152600401610c639061171c565b60405180910390fd5b5b505050565b610c7c828261061e565b610cf357610c8981610d0f565b610c978360001c6020610d3c565b604051602001610ca89291906115c6565b6040516020818303038152906040526040517f08c379a0000000000000000000000000000000000000000000000000000000008152600401610cea919061167a565b60405180910390fd5b5050565b6060610d068484600085611036565b90509392505050565b6060610d358273ffffffffffffffffffffffffffffffffffffffff16601460ff16610d3c565b9050919050565b606060006002836002610d4f919061180a565b610d5991906117b4565b67ffffffffffffffff811115610d98577f4e487b7100000000000000000000000000000000000000000000000000000000600052604160045260246000fd5b6040519080825280601f01601f191660200182016040528015610dca5781602001600182028036833780820191505090505b5090507f300000000000000000000000000000000000000000000000000000000000000081600081518110610e28577f4e487b7100000000000000000000000000000000000000000000000000000000600052603260045260246000fd5b60200101907effffffffffffffffffffffffffffffffffffffffffffffffffffffffffffff1916908160001a9053507f780000000000000000000000000000000000000000000000000000000000000081600181518110610eb2577f4e487b7100000000000000000000000000000000000000000000000000000000600052603260045260246000fd5b60200101907effffffffffffffffffffffffffffffffffffffffffffffffffffffffffffff1916908160001a90535060006001846002610ef2919061180a565b610efc91906117b4565b90505b6001811115610fe8577f3031323334353637383961626364656600000000000000000000000000000000600f861660108110610f64577f4e487b7100000000000000000000000000000000000000000000000000000000600052603260045260246000fd5b1a60f81b828281518110610fa1577f4e487b7100000000000000000000000000000000000000000000000000000000600052603260045260246000fd5b60200101907effffffffffffffffffffffffffffffffffffffffffffffffffffffffffffff1916908160001a905350600485901c945080610fe190611915565b9050610eff565b506000841461102c576040517f08c379a00000000000000000000000000000000000000000000000000000000081526004016110239061169c565b60405180910390fd5b8091505092915050565b60608247101561107b576040517f08c379a0000000000000000000000000000000000000000000000000000000008152600401611072906116dc565b60405180910390fd5b6000808673ffffffffffffffffffffffffffffffffffffffff1685876040516110a491906115af565b60006040518083038185875af1925050503d80600081146110e1576040519150601f19603f3d011682016040523d82523d6000602084013e6110e6565b606091505b50915091506110f787838387611103565b92505050949350505050565b606083156111665760008351141561115e5761111e85611179565b61115d576040517f08c379a0000000000000000000000000000000000000000000000000000000008152600401611154906116fc565b60405180910390fd5b5b829050611171565b611170838361119c565b5b949350505050565b6000808273ffffffffffffffffffffffffffffffffffffffff163b119050919050565b6000825111156111af5781518083602001fd5b806040517f08c379a00000000000000000000000000000000000000000000000000000000081526004016111e3919061167a565b60405180910390fd5b6000813590506111fb81611b5f565b92915050565b60008151905061121081611b76565b92915050565b60008135905061122581611b8d565b92915050565b60008135905061123a81611ba4565b92915050565b60008135905061124f81611bbb565b92915050565b60006020828403121561126757600080fd5b6000611275848285016111ec565b91505092915050565b60008060006060848603121561129357600080fd5b60006112a1868287016111ec565b93505060206112b2868287016111ec565b92505060406112c386828701611240565b9150509250925092565b6000602082840312156112df57600080fd5b60006112ed84828501611201565b91505092915050565b60006020828403121561130857600080fd5b600061131684828501611216565b91505092915050565b6000806040838503121561133257600080fd5b600061134085828601611216565b9250506020611351858286016111ec565b9150509250929050565b60006020828403121561136d57600080fd5b600061137b8482850161122b565b91505092915050565b6000806040838503121561139757600080fd5b60006113a585828601611240565b92505060206113b6858286016111ec565b9150509250929050565b6113c981611864565b82525050565b6113d881611876565b82525050565b6113e781611882565b82525050565b60006113f882611777565b611402818561178d565b93506114128185602086016118e2565b80840191505092915050565b600061142982611782565b6114338185611798565b93506114438185602086016118e2565b61144c8161196e565b840191505092915050565b600061146282611782565b61146c81856117a9565b935061147c8185602086016118e2565b80840191505092915050565b6000611495602083611798565b91506114a08261197f565b602082019050919050565b60006114b8603083611798565b91506114c3826119a8565b604082019050919050565b60006114db602683611798565b91506114e6826119f7565b604082019050919050565b60006114fe601d83611798565b915061150982611a46565b602082019050919050565b60006115216017836117a9565b915061152c82611a6f565b601782019050919050565b6000611544602a83611798565b915061154f82611a98565b604082019050919050565b60006115676011836117a9565b915061157282611ae7565b601182019050919050565b600061158a602f83611798565b915061159582611b10565b604082019050919050565b6115a9816118d8565b82525050565b60006115bb82846113ed565b915081905092915050565b60006115d182611514565b91506115dd8285611457565b91506115e88261155a565b91506115f48284611457565b91508190509392505050565b600060208201905061161560008301846113c0565b92915050565b600060408201905061163060008301856113c0565b61163d60208301846115a0565b9392505050565b600060208201905061165960008301846113cf565b92915050565b600060208201905061167460008301846113de565b92915050565b60006020820190508181036000830152611694818461141e565b905092915050565b600060208201905081810360008301526116b581611488565b9050919050565b600060208201905081810360008301526116d5816114ab565b9050919050565b600060208201905081810360008301526116f5816114ce565b9050919050565b60006020820190508181036000830152611715816114f1565b9050919050565b6000602082019050818103600083015261173581611537565b9050919050565b600060208201905081810360008301526117558161157d565b9050919050565b600060208201905061177160008301846115a0565b92915050565b600081519050919050565b600081519050919050565b600081905092915050565b600082825260208201905092915050565b600081905092915050565b60006117bf826118d8565b91506117ca836118d8565b9250827fffffffffffffffffffffffffffffffffffffffffffffffffffffffffffffffff038211156117ff576117fe61193f565b5b828201905092915050565b6000611815826118d8565b9150611820836118d8565b9250817fffffffffffffffffffffffffffffffffffffffffffffffffffffffffffffffff04831182151516156118595761185861193f565b5b828202905092915050565b600061186f826118b8565b9050919050565b60008115159050919050565b6000819050919050565b60007fffffffff0000000000000000000000000000000000000000000000000000000082169050919050565b600073ffffffffffffffffffffffffffffffffffffffff82169050919050565b6000819050919050565b60005b838110156119005780820151818401526020810190506118e5565b8381111561190f576000848401525b50505050565b6000611920826118d8565b915060008214156119345761193361193f565b5b600182039050919050565b7f4e487b7100000000000000000000000000000000000000000000000000000000600052601160045260246000fd5b6000601f19601f8301169050919050565b7f537472696e67733a20686578206c656e67746820696e73756666696369656e74600082015250565b7f54726561737572793a5265737472696374656420746f206f6e6c79206175746860008201527f6f72697a6564206163636f756e74732e00000000000000000000000000000000602082015250565b7f416464726573733a20696e73756666696369656e742062616c616e636520666f60008201527f722063616c6c0000000000000000000000000000000000000000000000000000602082015250565b7f416464726573733a2063616c6c20746f206e6f6e2d636f6e7472616374000000600082015250565b7f416363657373436f6e74726f6c3a206163636f756e7420000000000000000000600082015250565b7f5361666545524332303a204552433230206f7065726174696f6e20646964206e60008201527f6f74207375636365656400000000000000000000000000000000000000000000602082015250565b7f206973206d697373696e6720726f6c6520000000000000000000000000000000600082015250565b7f416363657373436f6e74726f6c3a2063616e206f6e6c792072656e6f756e636560008201527f20726f6c657320666f722073656c660000000000000000000000000000000000602082015250565b611b6881611864565b8114611b7357600080fd5b50565b611b7f81611876565b8114611b8a57600080fd5b50565b611b9681611882565b8114611ba157600080fd5b50565b611bad8161188c565b8114611bb857600080fd5b50565b611bc4816118d8565b8114611bcf57600080fd5b5056fea26469706673582212203066e6c31c722b62c319bdf1b310c2fbae0d5dab8f0f2a76a2db671041f2f9a664736f6c63430008040033",
  "linkReferences": {},
  "deployedLinkReferences": {}
}