{
  "_format": "hh-sol-artifact-1",
  "contractName": "CreathTreasury",
  "sourceName": "contracts/CreathTreasury.sol",
  "abi": [
    {
      "inputs": [
        {
          "internalType": "address",
          "name": "_admin",
          "type": "address"
        }
      ],
      "stateMutability": "nonpayable",
      "type": "constructor"
    },
    {
      "anonymous": false,
      "inputs": [
        {
          "indexed": false,
          "internalType": "address",
          "name": "_address",
          "type": "address"
        }
      ],
      "name": "MarketplaceSet",
      "type": "event"
    },
    {
      "anonymous": false,
      "inputs": [
        {
          "indexed": true,
          "internalType": "bytes32",
          "name": "role",
          "type": "bytes32"
        },
        {
          "indexed": true,
          "internalType": "bytes32",
          "name": "previousAdminRole",
          "type": "bytes32"
        },
        {
          "indexed": true,
          "internalType": "bytes32",
          "name": "newAdminRole",
          "type": "bytes32"
        }
      ],
      "name": "RoleAdminChanged",
      "type": "event"
    },
    {
      "anonymous": false,
      "inputs": [
        {
          "indexed": true,
          "internalType": "bytes32",
          "name": "role",
          "type": "bytes32"
        },
        {
          "indexed": true,
          "internalType": "address",
          "name": "account",
          "type": "address"
        },
        {
          "indexed": true,
          "internalType": "address",
          "name": "sender",
          "type": "address"
        }
      ],
      "name": "RoleGranted",
      "type": "event"
    },
    {
      "anonymous": false,
      "inputs": [
        {
          "indexed": true,
          "internalType": "bytes32",
          "name": "role",
          "type": "bytes32"
        },
        {
          "indexed": true,
          "internalType": "address",
          "name": "account",
          "type": "address"
        },
        {
          "indexed": true,
          "internalType": "address",
          "name": "sender",
          "type": "address"
        }
      ],
      "name": "RoleRevoked",
      "type": "event"
    },
    {
      "anonymous": false,
      "inputs": [
        {
          "indexed": true,
          "internalType": "address",
          "name": "user",
          "type": "address"
        },
        {
          "indexed": false,
          "internalType": "uint256",
          "name": "amount",
          "type": "uint256"
        }
      ],
      "name": "Withdraw",
      "type": "event"
    },
    {
      "inputs": [],
      "name": "DEFAULT_ADMIN_ROLE",
      "outputs": [
        {
          "internalType": "bytes32",
          "name": "",
          "type": "bytes32"
        }
      ],
      "stateMutability": "view",
      "type": "function"
    },
    {
      "inputs": [
        {
          "internalType": "address",
          "name": "admin",
          "type": "address"
        }
      ],
      "name": "addAdmin",
      "outputs": [],
      "stateMutability": "nonpayable",
      "type": "function"
    },
    {
      "inputs": [
        {
          "internalType": "bytes32",
          "name": "role",
          "type": "bytes32"
        }
      ],
      "name": "getRoleAdmin",
      "outputs": [
        {
          "internalType": "bytes32",
          "name": "",
          "type": "bytes32"
        }
      ],
      "stateMutability": "view",
      "type": "function"
    },
    {
      "inputs": [
        {
          "internalType": "bytes32",
          "name": "role",
          "type": "bytes32"
        },
        {
          "internalType": "address",
          "name": "account",
          "type": "address"
        }
      ],
      "name": "grantRole",
      "outputs": [],
      "stateMutability": "nonpayable",
      "type": "function"
    },
    {
      "inputs": [
        {
          "internalType": "bytes32",
          "name": "role",
          "type": "bytes32"
        },
        {
          "internalType": "address",
          "name": "account",
          "type": "address"
        }
      ],
      "name": "hasRole",
      "outputs": [
        {
          "internalType": "bool",
          "name": "",
          "type": "bool"
        }
      ],
      "stateMutability": "view",
      "type": "function"
    },
    {
      "inputs": [
        {
          "internalType": "address",
          "name": "account",
          "type": "address"
        }
      ],
      "name": "isAuthorized",
      "outputs": [
        {
          "internalType": "bool",
          "name": "",
          "type": "bool"
        }
      ],
      "stateMutability": "view",
      "type": "function"
    },
    {
      "inputs": [],
      "name": "marketplace",
      "outputs": [
        {
          "internalType": "address",
          "name": "",
          "type": "address"
        }
      ],
      "stateMutability": "view",
      "type": "function"
    },
    {
      "inputs": [
        {
          "internalType": "address",
          "name": "admin",
          "type": "address"
        }
      ],
      "name": "removeAdmin",
      "outputs": [],
      "stateMutability": "nonpayable",
      "type": "function"
    },
    {
      "inputs": [
        {
          "internalType": "bytes32",
          "name": "role",
          "type": "bytes32"
        },
        {
          "internalType": "address",
          "name": "account",
          "type": "address"
        }
      ],
      "name": "renounceRole",
      "outputs": [],
      "stateMutability": "nonpayable",
      "type": "function"
    },
    {
      "inputs": [
        {
          "internalType": "bytes32",
          "name": "role",
          "type": "bytes32"
        },
        {
          "internalType": "address",
          "name": "account",
          "type": "address"
        }
      ],
      "name": "revokeRole",
      "outputs": [],
      "stateMutability": "nonpayable",
      "type": "function"
    },
    {
      "inputs": [
        {
          "internalType": "bytes4",
          "name": "interfaceId",
          "type": "bytes4"
        }
      ],
      "name": "supportsInterface",
      "outputs": [
        {
          "internalType": "bool",
          "name": "",
          "type": "bool"
        }
      ],
      "stateMutability": "view",
      "type": "function"
    },
    {
      "inputs": [],
      "name": "token",
      "outputs": [
        {
          "internalType": "contract IERC20",
          "name": "",
          "type": "address"
        }
      ],
      "stateMutability": "view",
      "type": "function"
    },
    {
      "inputs": [
        {
          "internalType": "address",
          "name": "_token",
          "type": "address"
        }
      ],
      "name": "updateToken",
      "outputs": [],
      "stateMutability": "nonpayable",
      "type": "function"
    },
    {
      "inputs": [
        {
          "internalType": "address",
          "name": "_to",
          "type": "address"
        },
        {
          "internalType": "uint256",
          "name": "_amount",
          "type": "uint256"
        }
      ],
      "name": "withdraw",
      "outputs": [],
      "stateMutability": "nonpayable",
      "type": "function"
    },
    {
      "stateMutability": "payable",
      "type": "receive"
    }
  ],
  "bytecode": "0x60806040523480156200001157600080fd5b5060405162001ed938038062001ed9833981810160405281019062000037919062000258565b620000697f61646d696e00000000000000000000000000000000000000000000000000000082620000c860201b60201c565b6001600360008373ffffffffffffffffffffffffffffffffffffffff1673ffffffffffffffffffffffffffffffffffffffff16815260200190815260200160002060006101000a81548160ff02191690831515021790555050620002d2565b620000da8282620000de60201b60201c565b5050565b620000f08282620001cf60201b60201c565b620001cb57600160008084815260200190815260200160002060000160008373ffffffffffffffffffffffffffffffffffffffff1673ffffffffffffffffffffffffffffffffffffffff16815260200190815260200160002060006101000a81548160ff021916908315150217905550620001706200023960201b60201c565b73ffffffffffffffffffffffffffffffffffffffff168173ffffffffffffffffffffffffffffffffffffffff16837f2f8788117e7eff1d82e926ec794901d17c78024a50270940304540a733656f0d60405160405180910390a45b5050565b600080600084815260200190815260200160002060000160008373ffffffffffffffffffffffffffffffffffffffff1673ffffffffffffffffffffffffffffffffffffffff16815260200190815260200160002060009054906101000a900460ff16905092915050565b600033905090565b6000815190506200025281620002b8565b92915050565b6000602082840312156200026b57600080fd5b60006200027b8482850162000241565b91505092915050565b6000620002918262000298565b9050919050565b600073ffffffffffffffffffffffffffffffffffffffff82169050919050565b620002c38162000284565b8114620002cf57600080fd5b50565b611bf780620002e26000396000f3fe6080604052600436106100e15760003560e01c806391d148541161007f578063d547741f11610059578063d547741f146102c7578063f3fef3a3146102f0578063fc0c546a14610319578063fe9fbb8014610344576100e8565b806391d1485414610234578063a217fddf14610271578063abc8c7af1461029c576100e8565b80632f2ff15d116100bb5780632f2ff15d1461019057806336568abe146101b957806370480275146101e25780637ad3def21461020b576100e8565b806301ffc9a7146100ed5780631785f53c1461012a578063248a9ca314610153576100e8565b366100e857005b600080fd5b3480156100f957600080fd5b50610114600480360381019061010f9190611338565b610381565b60405161012191906115f4565b60405180910390f35b34801561013657600080fd5b50610151600480360381019061014c9190611245565b6103fb565b005b34801561015f57600080fd5b5061017a600480360381019061017591906112d3565b6104ab565b604051610187919061160f565b60405180910390f35b34801561019c57600080fd5b506101b760048036038101906101b291906112fc565b6104ca565b005b3480156101c557600080fd5b506101e060048036038101906101db91906112fc565b6104eb565b005b3480156101ee57600080fd5b5061020960048036038101906102049190611245565b61056e565b005b34801561021757600080fd5b50610232600480360381019061022d9190611245565b61061e565b005b34801561024057600080fd5b5061025b600480360381019061025691906112fc565b61068d565b60405161026891906115f4565b60405180910390f35b34801561027d57600080fd5b506102866106f7565b604051610293919061160f565b60405180910390f35b3480156102a857600080fd5b506102b16106fe565b6040516102be91906115b0565b60405180910390f35b3480156102d357600080fd5b506102ee60048036038101906102e991906112fc565b610724565b005b3480156102fc57600080fd5b506103176004803603810190610312919061126e565b610745565b005b34801561032557600080fd5b5061032e61082c565b60405161033b919061162a565b60405180910390f35b34801561035057600080fd5b5061036b60048036038101906103669190611245565b610852565b60405161037891906115f4565b60405180910390f35b60007f7965db0b000000000000000000000000000000000000000000000000000000007bffffffffffffffffffffffffffffffffffffffffffffffffffffffff1916827bffffffffffffffffffffffffffffffffffffffffffffffffffffffff191614806103f457506103f3826108ce565b5b9050919050565b7f61646d696e00000000000000000000000000000000000000000000000000000061042581610938565b6000600360008473ffffffffffffffffffffffffffffffffffffffff1673ffffffffffffffffffffffffffffffffffffffff16815260200190815260200160002060006101000a81548160ff0219169083151502179055506104a77f61646d696e0000000000000000000000000000000000000000000000000000008361094c565b5050565b6000806000838152602001908152602001600020600101549050919050565b6104d3826104ab565b6104dc81610938565b6104e68383610a2d565b505050565b6104f3610b0d565b73ffffffffffffffffffffffffffffffffffffffff168173ffffffffffffffffffffffffffffffffffffffff1614610560576040517f08c379a000000000000000000000000000000000000000000000000000000000815260040161055790611707565b60405180910390fd5b61056a828261094c565b5050565b7f61646d696e00000000000000000000000000000000000000000000000000000061059881610938565b6001600360008473ffffffffffffffffffffffffffffffffffffffff1673ffffffffffffffffffffffffffffffffffffffff16815260200190815260200160002060006101000a81548160ff02191690831515021790555061061a7f61646d696e00000000000000000000000000000000000000000000000000000083610a2d565b5050565b7f61646d696e00000000000000000000000000000000000000000000000000000061064881610938565b81600260006101000a81548173ffffffffffffffffffffffffffffffffffffffff021916908373ffffffffffffffffffffffffffffffffffffffff1602179055505050565b600080600084815260200190815260200160002060000160008373ffffffffffffffffffffffffffffffffffffffff1673ffffffffffffffffffffffffffffffffffffffff16815260200190815260200160002060009054906101000a900460ff16905092915050565b6000801b81565b600160009054906101000a900473ffffffffffffffffffffffffffffffffffffffff1681565b61072d826104ab565b61073681610938565b610740838361094c565b505050565b61074e33610852565b61078d576040517f08c379a000000000000000000000000000000000000000000000000000000000815260040161078490611687565b60405180910390fd5b6107da8282600260009054906101000a900473ffffffffffffffffffffffffffffffffffffffff1673ffffffffffffffffffffffffffffffffffffffff16610b159092919063ffffffff16565b3373ffffffffffffffffffffffffffffffffffffffff167f884edad9ce6fa2440d8a54cc123490eb96d2768479d49ff9c7366125a9424364826040516108209190611727565b60405180910390a25050565b600260009054906101000a900473ffffffffffffffffffffffffffffffffffffffff1681565b600061087e7f61646d696e0000000000000000000000000000000000000000000000000000008361068d565b1561088c57600190506108c9565b6108b67f6d61726b6574706c6163650000000000000000000000000000000000000000008361068d565b156108c457600190506108c9565b600090505b919050565b60007f01ffc9a7000000000000000000000000000000000000000000000000000000007bffffffffffffffffffffffffffffffffffffffffffffffffffffffff1916827bffffffffffffffffffffffffffffffffffffffffffffffffffffffff1916149050919050565b61094981610944610b0d565b610b9b565b50565b610956828261068d565b15610a2957600080600084815260200190815260200160002060000160008373ffffffffffffffffffffffffffffffffffffffff1673ffffffffffffffffffffffffffffffffffffffff16815260200190815260200160002060006101000a81548160ff0219169083151502179055506109ce610b0d565b73ffffffffffffffffffffffffffffffffffffffff168173ffffffffffffffffffffffffffffffffffffffff16837ff6391f5c32d9c69d2a47ea670b442974b53935d1edc7fd64eb21e047a839171b60405160405180910390a45b5050565b610a37828261068d565b610b0957600160008084815260200190815260200160002060000160008373ffffffffffffffffffffffffffffffffffffffff1673ffffffffffffffffffffffffffffffffffffffff16815260200190815260200160002060006101000a81548160ff021916908315150217905550610aae610b0d565b73ffffffffffffffffffffffffffffffffffffffff168173ffffffffffffffffffffffffffffffffffffffff16837f2f8788117e7eff1d82e926ec794901d17c78024a50270940304540a733656f0d60405160405180910390a45b5050565b600033905090565b610b968363a9059cbb60e01b8484604051602401610b349291906115cb565b604051602081830303815290604052907bffffffffffffffffffffffffffffffffffffffffffffffffffffffff19166020820180517bffffffffffffffffffffffffffffffffffffffffffffffffffffffff8381831617835250505050610c20565b505050565b610ba5828261068d565b610c1c57610bb281610ce7565b610bc08360001c6020610d14565b604051602001610bd1929190611576565b6040516020818303038152906040526040517f08c379a0000000000000000000000000000000000000000000000000000000008152600401610c139190611645565b60405180910390fd5b5050565b6000610c82826040518060400160405280602081526020017f5361666545524332303a206c6f772d6c6576656c2063616c6c206661696c65648152508573ffffffffffffffffffffffffffffffffffffffff1661100e9092919063ffffffff16565b9050600081511115610ce25780806020019051810190610ca291906112aa565b610ce1576040517f08c379a0000000000000000000000000000000000000000000000000000000008152600401610cd8906116e7565b60405180910390fd5b5b505050565b6060610d0d8273ffffffffffffffffffffffffffffffffffffffff16601460ff16610d14565b9050919050565b606060006002836002610d2791906117d5565b610d31919061177f565b67ffffffffffffffff811115610d70577f4e487b7100000000000000000000000000000000000000000000000000000000600052604160045260246000fd5b6040519080825280601f01601f191660200182016040528015610da25781602001600182028036833780820191505090505b5090507f300000000000000000000000000000000000000000000000000000000000000081600081518110610e00577f4e487b7100000000000000000000000000000000000000000000000000000000600052603260045260246000fd5b60200101907effffffffffffffffffffffffffffffffffffffffffffffffffffffffffffff1916908160001a9053507f780000000000000000000000000000000000000000000000000000000000000081600181518110610e8a577f4e487b7100000000000000000000000000000000000000000000000000000000600052603260045260246000fd5b60200101907effffffffffffffffffffffffffffffffffffffffffffffffffffffffffffff1916908160001a90535060006001846002610eca91906117d5565b610ed4919061177f565b90505b6001811115610fc0577f3031323334353637383961626364656600000000000000000000000000000000600f861660108110610f3c577f4e487b7100000000000000000000000000000000000000000000000000000000600052603260045260246000fd5b1a60f81b828281518110610f79577f4e487b7100000000000000000000000000000000000000000000000000000000600052603260045260246000fd5b60200101907effffffffffffffffffffffffffffffffffffffffffffffffffffffffffffff1916908160001a905350600485901c945080610fb990611904565b9050610ed7565b5060008414611004576040517f08c379a0000000000000000000000000000000000000000000000000000000008152600401610ffb90611667565b60405180910390fd5b8091505092915050565b606061101d8484600085611026565b90509392505050565b60608247101561106b576040517f08c379a0000000000000000000000000000000000000000000000000000000008152600401611062906116a7565b60405180910390fd5b6000808673ffffffffffffffffffffffffffffffffffffffff168587604051611094919061155f565b60006040518083038185875af1925050503d80600081146110d1576040519150601f19603f3d011682016040523d82523d6000602084013e6110d6565b606091505b50915091506110e7878383876110f3565b92505050949350505050565b606083156111565760008351141561114e5761110e85611169565b61114d576040517f08c379a0000000000000000000000000000000000000000000000000000000008152600401611144906116c7565b60405180910390fd5b5b829050611161565b611160838361118c565b5b949350505050565b6000808273ffffffffffffffffffffffffffffffffffffffff163b119050919050565b60008251111561119f5781518083602001fd5b806040517f08c379a00000000000000000000000000000000000000000000000000000000081526004016111d39190611645565b60405180910390fd5b6000813590506111eb81611b4e565b92915050565b60008151905061120081611b65565b92915050565b60008135905061121581611b7c565b92915050565b60008135905061122a81611b93565b92915050565b60008135905061123f81611baa565b92915050565b60006020828403121561125757600080fd5b6000611265848285016111dc565b91505092915050565b6000806040838503121561128157600080fd5b600061128f858286016111dc565b92505060206112a085828601611230565b9150509250929050565b6000602082840312156112bc57600080fd5b60006112ca848285016111f1565b91505092915050565b6000602082840312156112e557600080fd5b60006112f384828501611206565b91505092915050565b6000806040838503121561130f57600080fd5b600061131d85828601611206565b925050602061132e858286016111dc565b9150509250929050565b60006020828403121561134a57600080fd5b60006113588482850161121b565b91505092915050565b61136a8161182f565b82525050565b61137981611841565b82525050565b6113888161184d565b82525050565b600061139982611742565b6113a38185611758565b93506113b38185602086016118d1565b80840191505092915050565b6113c8816118ad565b82525050565b60006113d98261174d565b6113e38185611763565b93506113f38185602086016118d1565b6113fc8161195d565b840191505092915050565b60006114128261174d565b61141c8185611774565b935061142c8185602086016118d1565b80840191505092915050565b6000611445602083611763565b91506114508261196e565b602082019050919050565b6000611468603083611763565b915061147382611997565b604082019050919050565b600061148b602683611763565b9150611496826119e6565b604082019050919050565b60006114ae601d83611763565b91506114b982611a35565b602082019050919050565b60006114d1601783611774565b91506114dc82611a5e565b601782019050919050565b60006114f4602a83611763565b91506114ff82611a87565b604082019050919050565b6000611517601183611774565b915061152282611ad6565b601182019050919050565b600061153a602f83611763565b915061154582611aff565b604082019050919050565b611559816118a3565b82525050565b600061156b828461138e565b915081905092915050565b6000611581826114c4565b915061158d8285611407565b91506115988261150a565b91506115a48284611407565b91508190509392505050565b60006020820190506115c56000830184611361565b92915050565b60006040820190506115e06000830185611361565b6115ed6020830184611550565b9392505050565b60006020820190506116096000830184611370565b92915050565b6000602082019050611624600083018461137f565b92915050565b600060208201905061163f60008301846113bf565b92915050565b6000602082019050818103600083015261165f81846113ce565b905092915050565b6000602082019050818103600083015261168081611438565b9050919050565b600060208201905081810360008301526116a08161145b565b9050919050565b600060208201905081810360008301526116c08161147e565b9050919050565b600060208201905081810360008301526116e0816114a1565b9050919050565b60006020820190508181036000830152611700816114e7565b9050919050565b600060208201905081810360008301526117208161152d565b9050919050565b600060208201905061173c6000830184611550565b92915050565b600081519050919050565b600081519050919050565b600081905092915050565b600082825260208201905092915050565b600081905092915050565b600061178a826118a3565b9150611795836118a3565b9250827fffffffffffffffffffffffffffffffffffffffffffffffffffffffffffffffff038211156117ca576117c961192e565b5b828201905092915050565b60006117e0826118a3565b91506117eb836118a3565b9250817fffffffffffffffffffffffffffffffffffffffffffffffffffffffffffffffff04831182151516156118245761182361192e565b5b828202905092915050565b600061183a82611883565b9050919050565b60008115159050919050565b6000819050919050565b60007fffffffff0000000000000000000000000000000000000000000000000000000082169050919050565b600073ffffffffffffffffffffffffffffffffffffffff82169050919050565b6000819050919050565b60006118b8826118bf565b9050919050565b60006118ca82611883565b9050919050565b60005b838110156118ef5780820151818401526020810190506118d4565b838111156118fe576000848401525b50505050565b600061190f826118a3565b915060008214156119235761192261192e565b5b600182039050919050565b7f4e487b7100000000000000000000000000000000000000000000000000000000600052601160045260246000fd5b6000601f19601f8301169050919050565b7f537472696e67733a20686578206c656e67746820696e73756666696369656e74600082015250565b7f54726561737572793a5265737472696374656420746f206f6e6c79206175746860008201527f6f72697a6564206163636f756e74732e00000000000000000000000000000000602082015250565b7f416464726573733a20696e73756666696369656e742062616c616e636520666f60008201527f722063616c6c0000000000000000000000000000000000000000000000000000602082015250565b7f416464726573733a2063616c6c20746f206e6f6e2d636f6e7472616374000000600082015250565b7f416363657373436f6e74726f6c3a206163636f756e7420000000000000000000600082015250565b7f5361666545524332303a204552433230206f7065726174696f6e20646964206e60008201527f6f74207375636365656400000000000000000000000000000000000000000000602082015250565b7f206973206d697373696e6720726f6c6520000000000000000000000000000000600082015250565b7f416363657373436f6e74726f6c3a2063616e206f6e6c792072656e6f756e636560008201527f20726f6c657320666f722073656c660000000000000000000000000000000000602082015250565b611b578161182f565b8114611b6257600080fd5b50565b611b6e81611841565b8114611b7957600080fd5b50565b611b858161184d565b8114611b9057600080fd5b50565b611b9c81611857565b8114611ba757600080fd5b50565b611bb3816118a3565b8114611bbe57600080fd5b5056fea2646970667358221220dec5953899a4d5400f833a99438127777bff3ed2cd46384835d7fb0d901ebe7364736f6c63430008040033",
  "linkReferences": {},
  "deployedLinkReferences": {}
}