{
  "_format": "hh-sol-artifact-1",
  "contractName": "CreathTreasury",
  "sourceName": "contracts/CreathTreasury.sol",
  "abi": [
    {
      "inputs": [
        {
          "internalType": "address",
          "name": "_admin",
          "type": "address"
        }
      ],
      "stateMutability": "nonpayable",
      "type": "constructor"
    },
    {
      "anonymous": false,
      "inputs": [
        {
          "indexed": false,
          "internalType": "address",
          "name": "_address",
          "type": "address"
        }
      ],
      "name": "MarketplaceSet",
      "type": "event"
    },
    {
      "anonymous": false,
      "inputs": [
        {
          "indexed": true,
          "internalType": "bytes32",
          "name": "role",
          "type": "bytes32"
        },
        {
          "indexed": true,
          "internalType": "bytes32",
          "name": "previousAdminRole",
          "type": "bytes32"
        },
        {
          "indexed": true,
          "internalType": "bytes32",
          "name": "newAdminRole",
          "type": "bytes32"
        }
      ],
      "name": "RoleAdminChanged",
      "type": "event"
    },
    {
      "anonymous": false,
      "inputs": [
        {
          "indexed": true,
          "internalType": "bytes32",
          "name": "role",
          "type": "bytes32"
        },
        {
          "indexed": true,
          "internalType": "address",
          "name": "account",
          "type": "address"
        },
        {
          "indexed": true,
          "internalType": "address",
          "name": "sender",
          "type": "address"
        }
      ],
      "name": "RoleGranted",
      "type": "event"
    },
    {
      "anonymous": false,
      "inputs": [
        {
          "indexed": true,
          "internalType": "bytes32",
          "name": "role",
          "type": "bytes32"
        },
        {
          "indexed": true,
          "internalType": "address",
          "name": "account",
          "type": "address"
        },
        {
          "indexed": true,
          "internalType": "address",
          "name": "sender",
          "type": "address"
        }
      ],
      "name": "RoleRevoked",
      "type": "event"
    },
    {
      "anonymous": false,
      "inputs": [
        {
          "indexed": true,
          "internalType": "address",
          "name": "user",
          "type": "address"
        },
        {
          "indexed": false,
          "internalType": "uint256",
          "name": "amount",
          "type": "uint256"
        }
      ],
      "name": "Withdraw",
      "type": "event"
    },
    {
      "inputs": [],
      "name": "DEFAULT_ADMIN_ROLE",
      "outputs": [
        {
          "internalType": "bytes32",
          "name": "",
          "type": "bytes32"
        }
      ],
      "stateMutability": "view",
      "type": "function"
    },
    {
      "inputs": [
        {
          "internalType": "bytes32",
          "name": "role",
          "type": "bytes32"
        }
      ],
      "name": "getRoleAdmin",
      "outputs": [
        {
          "internalType": "bytes32",
          "name": "",
          "type": "bytes32"
        }
      ],
      "stateMutability": "view",
      "type": "function"
    },
    {
      "inputs": [
        {
          "internalType": "bytes32",
          "name": "role",
          "type": "bytes32"
        },
        {
          "internalType": "address",
          "name": "account",
          "type": "address"
        }
      ],
      "name": "grantRole",
      "outputs": [],
      "stateMutability": "nonpayable",
      "type": "function"
    },
    {
      "inputs": [
        {
          "internalType": "bytes32",
          "name": "role",
          "type": "bytes32"
        },
        {
          "internalType": "address",
          "name": "account",
          "type": "address"
        }
      ],
      "name": "hasRole",
      "outputs": [
        {
          "internalType": "bool",
          "name": "",
          "type": "bool"
        }
      ],
      "stateMutability": "view",
      "type": "function"
    },
    {
      "inputs": [
        {
          "internalType": "address",
          "name": "account",
          "type": "address"
        }
      ],
      "name": "isAuthorized",
      "outputs": [
        {
          "internalType": "bool",
          "name": "",
          "type": "bool"
        }
      ],
      "stateMutability": "view",
      "type": "function"
    },
    {
      "inputs": [],
      "name": "marketplace",
      "outputs": [
        {
          "internalType": "address",
          "name": "",
          "type": "address"
        }
      ],
      "stateMutability": "view",
      "type": "function"
    },
    {
      "inputs": [
        {
          "internalType": "bytes32",
          "name": "role",
          "type": "bytes32"
        },
        {
          "internalType": "address",
          "name": "account",
          "type": "address"
        }
      ],
      "name": "renounceRole",
      "outputs": [],
      "stateMutability": "nonpayable",
      "type": "function"
    },
    {
      "inputs": [
        {
          "internalType": "bytes32",
          "name": "role",
          "type": "bytes32"
        },
        {
          "internalType": "address",
          "name": "account",
          "type": "address"
        }
      ],
      "name": "revokeRole",
      "outputs": [],
      "stateMutability": "nonpayable",
      "type": "function"
    },
    {
      "inputs": [
        {
          "internalType": "bytes4",
          "name": "interfaceId",
          "type": "bytes4"
        }
      ],
      "name": "supportsInterface",
      "outputs": [
        {
          "internalType": "bool",
          "name": "",
          "type": "bool"
        }
      ],
      "stateMutability": "view",
      "type": "function"
    },
    {
      "inputs": [
        {
          "internalType": "address",
          "name": "admin",
          "type": "address"
        }
      ],
      "name": "updateAdmin",
      "outputs": [],
      "stateMutability": "nonpayable",
      "type": "function"
    },
    {
      "inputs": [
        {
          "internalType": "uint256",
          "name": "_amount",
          "type": "uint256"
        },
        {
          "internalType": "address",
          "name": "_to",
          "type": "address"
        }
      ],
      "name": "withdraw",
      "outputs": [],
      "stateMutability": "nonpayable",
      "type": "function"
    },
    {
      "inputs": [
        {
          "internalType": "address",
          "name": "_token",
          "type": "address"
        },
        {
          "internalType": "address",
          "name": "_to",
          "type": "address"
        },
        {
          "internalType": "uint256",
          "name": "_amount",
          "type": "uint256"
        }
      ],
      "name": "withdrawToken",
      "outputs": [],
      "stateMutability": "nonpayable",
      "type": "function"
    },
    {
      "stateMutability": "payable",
      "type": "receive"
    }
  ],
  "bytecode": "0x60806040523480156200001157600080fd5b5060405162001de838038062001de8833981810160405281019062000037919062000241565b620000697f61646d696e00000000000000000000000000000000000000000000000000000082620000b160201b60201c565b80600260006101000a81548173ffffffffffffffffffffffffffffffffffffffff021916908373ffffffffffffffffffffffffffffffffffffffff16021790555050620002bb565b620000c38282620000c760201b60201c565b5050565b620000d98282620001b860201b60201c565b620001b457600160008084815260200190815260200160002060000160008373ffffffffffffffffffffffffffffffffffffffff1673ffffffffffffffffffffffffffffffffffffffff16815260200190815260200160002060006101000a81548160ff021916908315150217905550620001596200022260201b60201c565b73ffffffffffffffffffffffffffffffffffffffff168173ffffffffffffffffffffffffffffffffffffffff16837f2f8788117e7eff1d82e926ec794901d17c78024a50270940304540a733656f0d60405160405180910390a45b5050565b600080600084815260200190815260200160002060000160008373ffffffffffffffffffffffffffffffffffffffff1673ffffffffffffffffffffffffffffffffffffffff16815260200190815260200160002060009054906101000a900460ff16905092915050565b600033905090565b6000815190506200023b81620002a1565b92915050565b6000602082840312156200025457600080fd5b600062000264848285016200022a565b91505092915050565b60006200027a8262000281565b9050919050565b600073ffffffffffffffffffffffffffffffffffffffff82169050919050565b620002ac816200026d565b8114620002b857600080fd5b50565b611b1d80620002cb6000396000f3fe6080604052600436106100aa5760003560e01c806391d148541161006457806391d14854146101d4578063a217fddf14610211578063abc8c7af1461023c578063d547741f14610267578063e2f273bd14610290578063fe9fbb80146102b9576100b1565b8062f714ce146100b657806301e33667146100df57806301ffc9a714610108578063248a9ca3146101455780632f2ff15d1461018257806336568abe146101ab576100b1565b366100b157005b600080fd5b3480156100c257600080fd5b506100dd60048036038101906100d89190611299565b6102f6565b005b3480156100eb57600080fd5b5061010660048036038101906101019190611193565b6103d7565b005b34801561011457600080fd5b5061012f600480360381019061012a9190611270565b61049d565b60405161013c9190611559565b60405180910390f35b34801561015157600080fd5b5061016c6004803603810190610167919061120b565b610517565b6040516101799190611574565b60405180910390f35b34801561018e57600080fd5b506101a960048036038101906101a49190611234565b610536565b005b3480156101b757600080fd5b506101d260048036038101906101cd9190611234565b610557565b005b3480156101e057600080fd5b506101fb60048036038101906101f69190611234565b6105da565b6040516102089190611559565b60405180910390f35b34801561021d57600080fd5b50610226610644565b6040516102339190611574565b60405180910390f35b34801561024857600080fd5b5061025161064b565b60405161025e9190611515565b60405180910390f35b34801561027357600080fd5b5061028e60048036038101906102899190611234565b610671565b005b34801561029c57600080fd5b506102b760048036038101906102b2919061116a565b610692565b005b3480156102c557600080fd5b506102e060048036038101906102db919061116a565b610777565b6040516102ed9190611559565b60405180910390f35b6102ff33610777565b61033e576040517f08c379a0000000000000000000000000000000000000000000000000000000008152600401610335906115d1565b60405180910390fd5b8073ffffffffffffffffffffffffffffffffffffffff166108fc839081150290604051600060405180830381858888f19350505050158015610384573d6000803e3d6000fd5b503373ffffffffffffffffffffffffffffffffffffffff167f884edad9ce6fa2440d8a54cc123490eb96d2768479d49ff9c7366125a9424364836040516103cb9190611671565b60405180910390a25050565b6103e033610777565b61041f576040517f08c379a0000000000000000000000000000000000000000000000000000000008152600401610416906115d1565b60405180910390fd5b61044a82828573ffffffffffffffffffffffffffffffffffffffff166107f39092919063ffffffff16565b8173ffffffffffffffffffffffffffffffffffffffff167f884edad9ce6fa2440d8a54cc123490eb96d2768479d49ff9c7366125a9424364826040516104909190611671565b60405180910390a2505050565b60007f7965db0b000000000000000000000000000000000000000000000000000000007bffffffffffffffffffffffffffffffffffffffffffffffffffffffff1916827bffffffffffffffffffffffffffffffffffffffffffffffffffffffff19161480610510575061050f82610879565b5b9050919050565b6000806000838152602001908152602001600020600101549050919050565b61053f82610517565b610548816108e3565b61055283836108f7565b505050565b61055f6109d7565b73ffffffffffffffffffffffffffffffffffffffff168173ffffffffffffffffffffffffffffffffffffffff16146105cc576040517f08c379a00000000000000000000000000000000000000000000000000000000081526004016105c390611651565b60405180910390fd5b6105d682826109df565b5050565b600080600084815260200190815260200160002060000160008373ffffffffffffffffffffffffffffffffffffffff1673ffffffffffffffffffffffffffffffffffffffff16815260200190815260200160002060009054906101000a900460ff16905092915050565b6000801b81565b600160009054906101000a900473ffffffffffffffffffffffffffffffffffffffff1681565b61067a82610517565b610683816108e3565b61068d83836109df565b505050565b7f61646d696e0000000000000000000000000000000000000000000000000000006106bc816108e3565b6106e67f61646d696e000000000000000000000000000000000000000000000000000000836108f7565b6107327f61646d696e000000000000000000000000000000000000000000000000000000600260009054906101000a900473ffffffffffffffffffffffffffffffffffffffff166109df565b81600260006101000a81548173ffffffffffffffffffffffffffffffffffffffff021916908373ffffffffffffffffffffffffffffffffffffffff1602179055505050565b60006107a37f61646d696e000000000000000000000000000000000000000000000000000000836105da565b156107b157600190506107ee565b6107db7f6d61726b6574706c616365000000000000000000000000000000000000000000836105da565b156107e957600190506107ee565b600090505b919050565b6108748363a9059cbb60e01b8484604051602401610812929190611530565b604051602081830303815290604052907bffffffffffffffffffffffffffffffffffffffffffffffffffffffff19166020820180517bffffffffffffffffffffffffffffffffffffffffffffffffffffffff8381831617835250505050610ac0565b505050565b60007f01ffc9a7000000000000000000000000000000000000000000000000000000007bffffffffffffffffffffffffffffffffffffffffffffffffffffffff1916827bffffffffffffffffffffffffffffffffffffffffffffffffffffffff1916149050919050565b6108f4816108ef6109d7565b610b87565b50565b61090182826105da565b6109d357600160008084815260200190815260200160002060000160008373ffffffffffffffffffffffffffffffffffffffff1673ffffffffffffffffffffffffffffffffffffffff16815260200190815260200160002060006101000a81548160ff0219169083151502179055506109786109d7565b73ffffffffffffffffffffffffffffffffffffffff168173ffffffffffffffffffffffffffffffffffffffff16837f2f8788117e7eff1d82e926ec794901d17c78024a50270940304540a733656f0d60405160405180910390a45b5050565b600033905090565b6109e982826105da565b15610abc57600080600084815260200190815260200160002060000160008373ffffffffffffffffffffffffffffffffffffffff1673ffffffffffffffffffffffffffffffffffffffff16815260200190815260200160002060006101000a81548160ff021916908315150217905550610a616109d7565b73ffffffffffffffffffffffffffffffffffffffff168173ffffffffffffffffffffffffffffffffffffffff16837ff6391f5c32d9c69d2a47ea670b442974b53935d1edc7fd64eb21e047a839171b60405160405180910390a45b5050565b6000610b22826040518060400160405280602081526020017f5361666545524332303a206c6f772d6c6576656c2063616c6c206661696c65648152508573ffffffffffffffffffffffffffffffffffffffff16610c0c9092919063ffffffff16565b9050600081511115610b825780806020019051810190610b4291906111e2565b610b81576040517f08c379a0000000000000000000000000000000000000000000000000000000008152600401610b7890611631565b60405180910390fd5b5b505050565b610b9182826105da565b610c0857610b9e81610c24565b610bac8360001c6020610c51565b604051602001610bbd9291906114db565b6040516020818303038152906040526040517f08c379a0000000000000000000000000000000000000000000000000000000008152600401610bff919061158f565b60405180910390fd5b5050565b6060610c1b8484600085610f4b565b90509392505050565b6060610c4a8273ffffffffffffffffffffffffffffffffffffffff16601460ff16610c51565b9050919050565b606060006002836002610c64919061171f565b610c6e91906116c9565b67ffffffffffffffff811115610cad577f4e487b7100000000000000000000000000000000000000000000000000000000600052604160045260246000fd5b6040519080825280601f01601f191660200182016040528015610cdf5781602001600182028036833780820191505090505b5090507f300000000000000000000000000000000000000000000000000000000000000081600081518110610d3d577f4e487b7100000000000000000000000000000000000000000000000000000000600052603260045260246000fd5b60200101907effffffffffffffffffffffffffffffffffffffffffffffffffffffffffffff1916908160001a9053507f780000000000000000000000000000000000000000000000000000000000000081600181518110610dc7577f4e487b7100000000000000000000000000000000000000000000000000000000600052603260045260246000fd5b60200101907effffffffffffffffffffffffffffffffffffffffffffffffffffffffffffff1916908160001a90535060006001846002610e07919061171f565b610e1191906116c9565b90505b6001811115610efd577f3031323334353637383961626364656600000000000000000000000000000000600f861660108110610e79577f4e487b7100000000000000000000000000000000000000000000000000000000600052603260045260246000fd5b1a60f81b828281518110610eb6577f4e487b7100000000000000000000000000000000000000000000000000000000600052603260045260246000fd5b60200101907effffffffffffffffffffffffffffffffffffffffffffffffffffffffffffff1916908160001a905350600485901c945080610ef69061182a565b9050610e14565b5060008414610f41576040517f08c379a0000000000000000000000000000000000000000000000000000000008152600401610f38906115b1565b60405180910390fd5b8091505092915050565b606082471015610f90576040517f08c379a0000000000000000000000000000000000000000000000000000000008152600401610f87906115f1565b60405180910390fd5b6000808673ffffffffffffffffffffffffffffffffffffffff168587604051610fb991906114c4565b60006040518083038185875af1925050503d8060008114610ff6576040519150601f19603f3d011682016040523d82523d6000602084013e610ffb565b606091505b509150915061100c87838387611018565b92505050949350505050565b6060831561107b57600083511415611073576110338561108e565b611072576040517f08c379a000000000000000000000000000000000000000000000000000000000815260040161106990611611565b60405180910390fd5b5b829050611086565b61108583836110b1565b5b949350505050565b6000808273ffffffffffffffffffffffffffffffffffffffff163b119050919050565b6000825111156110c45781518083602001fd5b806040517f08c379a00000000000000000000000000000000000000000000000000000000081526004016110f8919061158f565b60405180910390fd5b60008135905061111081611a74565b92915050565b60008151905061112581611a8b565b92915050565b60008135905061113a81611aa2565b92915050565b60008135905061114f81611ab9565b92915050565b60008135905061116481611ad0565b92915050565b60006020828403121561117c57600080fd5b600061118a84828501611101565b91505092915050565b6000806000606084860312156111a857600080fd5b60006111b686828701611101565b93505060206111c786828701611101565b92505060406111d886828701611155565b9150509250925092565b6000602082840312156111f457600080fd5b600061120284828501611116565b91505092915050565b60006020828403121561121d57600080fd5b600061122b8482850161112b565b91505092915050565b6000806040838503121561124757600080fd5b60006112558582860161112b565b925050602061126685828601611101565b9150509250929050565b60006020828403121561128257600080fd5b600061129084828501611140565b91505092915050565b600080604083850312156112ac57600080fd5b60006112ba85828601611155565b92505060206112cb85828601611101565b9150509250929050565b6112de81611779565b82525050565b6112ed8161178b565b82525050565b6112fc81611797565b82525050565b600061130d8261168c565b61131781856116a2565b93506113278185602086016117f7565b80840191505092915050565b600061133e82611697565b61134881856116ad565b93506113588185602086016117f7565b61136181611883565b840191505092915050565b600061137782611697565b61138181856116be565b93506113918185602086016117f7565b80840191505092915050565b60006113aa6020836116ad565b91506113b582611894565b602082019050919050565b60006113cd6030836116ad565b91506113d8826118bd565b604082019050919050565b60006113f06026836116ad565b91506113fb8261190c565b604082019050919050565b6000611413601d836116ad565b915061141e8261195b565b602082019050919050565b60006114366017836116be565b915061144182611984565b601782019050919050565b6000611459602a836116ad565b9150611464826119ad565b604082019050919050565b600061147c6011836116be565b9150611487826119fc565b601182019050919050565b600061149f602f836116ad565b91506114aa82611a25565b604082019050919050565b6114be816117ed565b82525050565b60006114d08284611302565b915081905092915050565b60006114e682611429565b91506114f2828561136c565b91506114fd8261146f565b9150611509828461136c565b91508190509392505050565b600060208201905061152a60008301846112d5565b92915050565b600060408201905061154560008301856112d5565b61155260208301846114b5565b9392505050565b600060208201905061156e60008301846112e4565b92915050565b600060208201905061158960008301846112f3565b92915050565b600060208201905081810360008301526115a98184611333565b905092915050565b600060208201905081810360008301526115ca8161139d565b9050919050565b600060208201905081810360008301526115ea816113c0565b9050919050565b6000602082019050818103600083015261160a816113e3565b9050919050565b6000602082019050818103600083015261162a81611406565b9050919050565b6000602082019050818103600083015261164a8161144c565b9050919050565b6000602082019050818103600083015261166a81611492565b9050919050565b600060208201905061168660008301846114b5565b92915050565b600081519050919050565b600081519050919050565b600081905092915050565b600082825260208201905092915050565b600081905092915050565b60006116d4826117ed565b91506116df836117ed565b9250827fffffffffffffffffffffffffffffffffffffffffffffffffffffffffffffffff0382111561171457611713611854565b5b828201905092915050565b600061172a826117ed565b9150611735836117ed565b9250817fffffffffffffffffffffffffffffffffffffffffffffffffffffffffffffffff048311821515161561176e5761176d611854565b5b828202905092915050565b6000611784826117cd565b9050919050565b60008115159050919050565b6000819050919050565b60007fffffffff0000000000000000000000000000000000000000000000000000000082169050919050565b600073ffffffffffffffffffffffffffffffffffffffff82169050919050565b6000819050919050565b60005b838110156118155780820151818401526020810190506117fa565b83811115611824576000848401525b50505050565b6000611835826117ed565b9150600082141561184957611848611854565b5b600182039050919050565b7f4e487b7100000000000000000000000000000000000000000000000000000000600052601160045260246000fd5b6000601f19601f8301169050919050565b7f537472696e67733a20686578206c656e67746820696e73756666696369656e74600082015250565b7f54726561737572793a5265737472696374656420746f206f6e6c79206175746860008201527f6f72697a6564206163636f756e74732e00000000000000000000000000000000602082015250565b7f416464726573733a20696e73756666696369656e742062616c616e636520666f60008201527f722063616c6c0000000000000000000000000000000000000000000000000000602082015250565b7f416464726573733a2063616c6c20746f206e6f6e2d636f6e7472616374000000600082015250565b7f416363657373436f6e74726f6c3a206163636f756e7420000000000000000000600082015250565b7f5361666545524332303a204552433230206f7065726174696f6e20646964206e60008201527f6f74207375636365656400000000000000000000000000000000000000000000602082015250565b7f206973206d697373696e6720726f6c6520000000000000000000000000000000600082015250565b7f416363657373436f6e74726f6c3a2063616e206f6e6c792072656e6f756e636560008201527f20726f6c657320666f722073656c660000000000000000000000000000000000602082015250565b611a7d81611779565b8114611a8857600080fd5b50565b611a948161178b565b8114611a9f57600080fd5b50565b611aab81611797565b8114611ab657600080fd5b50565b611ac2816117a1565b8114611acd57600080fd5b50565b611ad9816117ed565b8114611ae457600080fd5b5056fea26469706673582212208b9c92045a5402438293f4cfec0857ff17ae8468613094df71105d2fee83a4f064736f6c63430008040033",
  "linkReferences": {},
  "deployedLinkReferences": {}
}