{
  "_format": "hh-sol-artifact-1",
  "contractName": "CreathArtTradable",
  "sourceName": "contracts/CreathArtTradable.sol",
  "abi": [
    {
      "inputs": [
        {
          "internalType": "string",
          "name": "_name",
          "type": "string"
        },
        {
          "internalType": "string",
          "name": "_symbol",
          "type": "string"
        },
        {
          "internalType": "address",
          "name": "_marketplace",
          "type": "address"
        }
      ],
      "stateMutability": "nonpayable",
      "type": "constructor"
    },
    {
      "anonymous": false,
      "inputs": [
        {
          "indexed": true,
          "internalType": "address",
          "name": "owner",
          "type": "address"
        },
        {
          "indexed": true,
          "internalType": "address",
          "name": "approved",
          "type": "address"
        },
        {
          "indexed": true,
          "internalType": "uint256",
          "name": "tokenId",
          "type": "uint256"
        }
      ],
      "name": "Approval",
      "type": "event"
    },
    {
      "anonymous": false,
      "inputs": [
        {
          "indexed": true,
          "internalType": "address",
          "name": "owner",
          "type": "address"
        },
        {
          "indexed": true,
          "internalType": "address",
          "name": "operator",
          "type": "address"
        },
        {
          "indexed": false,
          "internalType": "bool",
          "name": "approved",
          "type": "bool"
        }
      ],
      "name": "ApprovalForAll",
      "type": "event"
    },
    {
      "anonymous": false,
      "inputs": [
        {
          "indexed": false,
          "internalType": "uint256",
          "name": "tokenId",
          "type": "uint256"
        },
        {
          "indexed": false,
          "internalType": "address",
          "name": "beneficiary",
          "type": "address"
        },
        {
          "indexed": false,
          "internalType": "string",
          "name": "tokenUri",
          "type": "string"
        },
        {
          "indexed": false,
          "internalType": "address",
          "name": "minter",
          "type": "address"
        }
      ],
      "name": "Minted",
      "type": "event"
    },
    {
      "anonymous": false,
      "inputs": [
        {
          "indexed": true,
          "internalType": "address",
          "name": "previousOwner",
          "type": "address"
        },
        {
          "indexed": true,
          "internalType": "address",
          "name": "newOwner",
          "type": "address"
        }
      ],
      "name": "OwnershipTransferred",
      "type": "event"
    },
    {
      "anonymous": false,
      "inputs": [
        {
          "indexed": true,
          "internalType": "address",
          "name": "from",
          "type": "address"
        },
        {
          "indexed": true,
          "internalType": "address",
          "name": "to",
          "type": "address"
        },
        {
          "indexed": true,
          "internalType": "uint256",
          "name": "tokenId",
          "type": "uint256"
        }
      ],
      "name": "Transfer",
      "type": "event"
    },
    {
      "inputs": [
        {
          "internalType": "address",
          "name": "to",
          "type": "address"
        },
        {
          "internalType": "uint256",
          "name": "tokenId",
          "type": "uint256"
        }
      ],
      "name": "approve",
      "outputs": [],
      "stateMutability": "nonpayable",
      "type": "function"
    },
    {
      "inputs": [
        {
          "internalType": "address",
          "name": "owner",
          "type": "address"
        }
      ],
      "name": "balanceOf",
      "outputs": [
        {
          "internalType": "uint256",
          "name": "",
          "type": "uint256"
        }
      ],
      "stateMutability": "view",
      "type": "function"
    },
    {
      "inputs": [
        {
          "internalType": "uint256",
          "name": "_tokenId",
          "type": "uint256"
        }
      ],
      "name": "burn",
      "outputs": [],
      "stateMutability": "nonpayable",
      "type": "function"
    },
    {
      "inputs": [
        {
          "internalType": "uint256",
          "name": "tokenId",
          "type": "uint256"
        }
      ],
      "name": "getApproved",
      "outputs": [
        {
          "internalType": "address",
          "name": "",
          "type": "address"
        }
      ],
      "stateMutability": "view",
      "type": "function"
    },
    {
      "inputs": [
        {
          "internalType": "uint256",
          "name": "_tokenId",
          "type": "uint256"
        },
        {
          "internalType": "address",
          "name": "_operator",
          "type": "address"
        }
      ],
      "name": "isApproved",
      "outputs": [
        {
          "internalType": "bool",
          "name": "",
          "type": "bool"
        }
      ],
      "stateMutability": "view",
      "type": "function"
    },
    {
      "inputs": [
        {
          "internalType": "address",
          "name": "_owner",
          "type": "address"
        },
        {
          "internalType": "address",
          "name": "operator",
          "type": "address"
        }
      ],
      "name": "isApprovedForAll",
      "outputs": [
        {
          "internalType": "bool",
          "name": "",
          "type": "bool"
        }
      ],
      "stateMutability": "view",
      "type": "function"
    },
    {
      "inputs": [
        {
          "internalType": "address",
          "name": "_to",
          "type": "address"
        },
        {
          "internalType": "string",
          "name": "_tokenUri",
          "type": "string"
        }
      ],
      "name": "mint",
      "outputs": [],
      "stateMutability": "nonpayable",
      "type": "function"
    },
    {
      "inputs": [],
      "name": "name",
      "outputs": [
        {
          "internalType": "string",
          "name": "",
          "type": "string"
        }
      ],
      "stateMutability": "view",
      "type": "function"
    },
    {
      "inputs": [],
      "name": "owner",
      "outputs": [
        {
          "internalType": "address",
          "name": "",
          "type": "address"
        }
      ],
      "stateMutability": "view",
      "type": "function"
    },
    {
      "inputs": [
        {
          "internalType": "uint256",
          "name": "tokenId",
          "type": "uint256"
        }
      ],
      "name": "ownerOf",
      "outputs": [
        {
          "internalType": "address",
          "name": "",
          "type": "address"
        }
      ],
      "stateMutability": "view",
      "type": "function"
    },
    {
      "inputs": [],
      "name": "renounceOwnership",
      "outputs": [],
      "stateMutability": "nonpayable",
      "type": "function"
    },
    {
      "inputs": [
        {
          "internalType": "address",
          "name": "from",
          "type": "address"
        },
        {
          "internalType": "address",
          "name": "to",
          "type": "address"
        },
        {
          "internalType": "uint256",
          "name": "tokenId",
          "type": "uint256"
        }
      ],
      "name": "safeTransferFrom",
      "outputs": [],
      "stateMutability": "nonpayable",
      "type": "function"
    },
    {
      "inputs": [
        {
          "internalType": "address",
          "name": "from",
          "type": "address"
        },
        {
          "internalType": "address",
          "name": "to",
          "type": "address"
        },
        {
          "internalType": "uint256",
          "name": "tokenId",
          "type": "uint256"
        },
        {
          "internalType": "bytes",
          "name": "data",
          "type": "bytes"
        }
      ],
      "name": "safeTransferFrom",
      "outputs": [],
      "stateMutability": "nonpayable",
      "type": "function"
    },
    {
      "inputs": [
        {
          "internalType": "address",
          "name": "operator",
          "type": "address"
        },
        {
          "internalType": "bool",
          "name": "approved",
          "type": "bool"
        }
      ],
      "name": "setApprovalForAll",
      "outputs": [],
      "stateMutability": "nonpayable",
      "type": "function"
    },
    {
      "inputs": [
        {
          "internalType": "bytes4",
          "name": "interfaceId",
          "type": "bytes4"
        }
      ],
      "name": "supportsInterface",
      "outputs": [
        {
          "internalType": "bool",
          "name": "",
          "type": "bool"
        }
      ],
      "stateMutability": "view",
      "type": "function"
    },
    {
      "inputs": [],
      "name": "symbol",
      "outputs": [
        {
          "internalType": "string",
          "name": "",
          "type": "string"
        }
      ],
      "stateMutability": "view",
      "type": "function"
    },
    {
      "inputs": [
        {
          "internalType": "uint256",
          "name": "tokenId",
          "type": "uint256"
        }
      ],
      "name": "tokenURI",
      "outputs": [
        {
          "internalType": "string",
          "name": "",
          "type": "string"
        }
      ],
      "stateMutability": "view",
      "type": "function"
    },
    {
      "inputs": [
        {
          "internalType": "address",
          "name": "from",
          "type": "address"
        },
        {
          "internalType": "address",
          "name": "to",
          "type": "address"
        },
        {
          "internalType": "uint256",
          "name": "tokenId",
          "type": "uint256"
        }
      ],
      "name": "transferFrom",
      "outputs": [],
      "stateMutability": "nonpayable",
      "type": "function"
    },
    {
      "inputs": [
        {
          "internalType": "address",
          "name": "newOwner",
          "type": "address"
        }
      ],
      "name": "transferOwnership",
      "outputs": [],
      "stateMutability": "nonpayable",
      "type": "function"
    }
  ],
  "bytecode": "0x60806040523480156200001157600080fd5b50604051620037ae380380620037ae83398181016040528101906200003791906200030b565b8282816000908051906020019062000051929190620001d2565b5080600190805190602001906200006a929190620001d2565b5050506200008d62000081620000ee60201b60201c565b620000f660201b60201c565b80600960006101000a81548173ffffffffffffffffffffffffffffffffffffffff021916908373ffffffffffffffffffffffffffffffffffffffff160217905550620000e56008620001bc60201b62000cd01760201c565b50505062000551565b600033905090565b6000600760009054906101000a900473ffffffffffffffffffffffffffffffffffffffff16905081600760006101000a81548173ffffffffffffffffffffffffffffffffffffffff021916908373ffffffffffffffffffffffffffffffffffffffff1602179055508173ffffffffffffffffffffffffffffffffffffffff168173ffffffffffffffffffffffffffffffffffffffff167f8be0079c531659141344cd1fd0a4f28419497f9722a3daafe3b4186f6b6457e060405160405180910390a35050565b6001816000016000828254019250508190555050565b828054620001e0906200045c565b90600052602060002090601f01602090048101928262000204576000855562000250565b82601f106200021f57805160ff191683800117855562000250565b8280016001018555821562000250579182015b828111156200024f57825182559160200191906001019062000232565b5b5090506200025f919062000263565b5090565b5b808211156200027e57600081600090555060010162000264565b5090565b6000620002996200029384620003bc565b62000393565b905082815260208101848484011115620002b257600080fd5b620002bf84828562000426565b509392505050565b600081519050620002d88162000537565b92915050565b600082601f830112620002f057600080fd5b81516200030284826020860162000282565b91505092915050565b6000806000606084860312156200032157600080fd5b600084015167ffffffffffffffff8111156200033c57600080fd5b6200034a86828701620002de565b935050602084015167ffffffffffffffff8111156200036857600080fd5b6200037686828701620002de565b92505060406200038986828701620002c7565b9150509250925092565b60006200039f620003b2565b9050620003ad828262000492565b919050565b6000604051905090565b600067ffffffffffffffff821115620003da57620003d9620004f7565b5b620003e58262000526565b9050602081019050919050565b6000620003ff8262000406565b9050919050565b600073ffffffffffffffffffffffffffffffffffffffff82169050919050565b60005b838110156200044657808201518184015260208101905062000429565b8381111562000456576000848401525b50505050565b600060028204905060018216806200047557607f821691505b602082108114156200048c576200048b620004c8565b5b50919050565b6200049d8262000526565b810181811067ffffffffffffffff82111715620004bf57620004be620004f7565b5b80604052505050565b7f4e487b7100000000000000000000000000000000000000000000000000000000600052602260045260246000fd5b7f4e487b7100000000000000000000000000000000000000000000000000000000600052604160045260246000fd5b6000601f19601f8301169050919050565b6200054281620003f2565b81146200054e57600080fd5b50565b61324d80620005616000396000f3fe608060405234801561001057600080fd5b50600436106101215760003560e01c806370a08231116100ad578063b88d4fde11610071578063b88d4fde14610306578063c87b56dd14610322578063d0def52114610352578063e985e9c51461036e578063f2fde38b1461039e57610121565b806370a0823114610274578063715018a6146102a45780638da5cb5b146102ae57806395d89b41146102cc578063a22cb465146102ea57610121565b806323b872dd116100f457806323b872dd146101c057806342842e0e146101dc57806342966c68146101f857806356c31637146102145780636352211e1461024457610121565b806301ffc9a71461012657806306fdde0314610156578063081812fc14610174578063095ea7b3146101a4575b600080fd5b610140600480360381019061013b91906124e5565b6103ba565b60405161014d9190612931565b60405180910390f35b61015e61049c565b60405161016b919061294c565b60405180910390f35b61018e60048036038101906101899190612537565b61052e565b60405161019b91906128ca565b60405180910390f35b6101be60048036038101906101b991906124a9565b610574565b005b6101da60048036038101906101d5919061234b565b61068c565b005b6101f660048036038101906101f1919061234b565b6106ec565b005b610212600480360381019061020d9190612537565b61070c565b005b61022e60048036038101906102299190612560565b610720565b60405161023b9190612931565b60405180910390f35b61025e60048036038101906102599190612537565b61077a565b60405161026b91906128ca565b60405180910390f35b61028e600480360381019061028991906122e6565b610801565b60405161029b9190612b4e565b60405180910390f35b6102ac6108b9565b005b6102b66108cd565b6040516102c391906128ca565b60405180910390f35b6102d46108f7565b6040516102e1919061294c565b60405180910390f35b61030460048036038101906102ff9190612415565b610989565b005b610320600480360381019061031b919061239a565b61099f565b005b61033c60048036038101906103379190612537565b610a01565b604051610349919061294c565b60405180910390f35b61036c60048036038101906103679190612451565b610b14565b005b6103886004803603810190610383919061230f565b610bd8565b6040516103959190612931565b60405180910390f35b6103b860048036038101906103b391906122e6565b610c4c565b005b60007f80ac58cd000000000000000000000000000000000000000000000000000000007bffffffffffffffffffffffffffffffffffffffffffffffffffffffff1916827bffffffffffffffffffffffffffffffffffffffffffffffffffffffff1916148061048557507f5b5e139f000000000000000000000000000000000000000000000000000000007bffffffffffffffffffffffffffffffffffffffffffffffffffffffff1916827bffffffffffffffffffffffffffffffffffffffffffffffffffffffff1916145b80610495575061049482610ce6565b5b9050919050565b6060600080546104ab90612d06565b80601f01602080910402602001604051908101604052809291908181526020018280546104d790612d06565b80156105245780601f106104f957610100808354040283529160200191610524565b820191906000526020600020905b81548152906001019060200180831161050757829003601f168201915b5050505050905090565b600061053982610d50565b6004600083815260200190815260200160002060009054906101000a900473ffffffffffffffffffffffffffffffffffffffff169050919050565b600061057f8261077a565b90508073ffffffffffffffffffffffffffffffffffffffff168373ffffffffffffffffffffffffffffffffffffffff1614156105f0576040517f08c379a00000000000000000000000000000000000000000000000000000000081526004016105e790612b0e565b60405180910390fd5b8073ffffffffffffffffffffffffffffffffffffffff1661060f610d9b565b73ffffffffffffffffffffffffffffffffffffffff16148061063e575061063d81610638610d9b565b610bd8565b5b61067d576040517f08c379a000000000000000000000000000000000000000000000000000000000815260040161067490612b2e565b60405180910390fd5b6106878383610da3565b505050565b61069d610697610d9b565b82610e5c565b6106dc576040517f08c379a00000000000000000000000000000000000000000000000000000000081526004016106d39061296e565b60405180910390fd5b6106e7838383610ee0565b505050565b6107078383836040518060200160405280600081525061099f565b505050565b6107146111da565b61071d81611258565b50565b600061073461072e8461077a565b83610bd8565b8061077257508173ffffffffffffffffffffffffffffffffffffffff1661075a8461052e565b73ffffffffffffffffffffffffffffffffffffffff16145b905092915050565b600080610786836112ab565b9050600073ffffffffffffffffffffffffffffffffffffffff168173ffffffffffffffffffffffffffffffffffffffff1614156107f8576040517f08c379a00000000000000000000000000000000000000000000000000000000081526004016107ef90612aee565b60405180910390fd5b80915050919050565b60008073ffffffffffffffffffffffffffffffffffffffff168273ffffffffffffffffffffffffffffffffffffffff161415610872576040517f08c379a000000000000000000000000000000000000000000000000000000000815260040161086990612a6e565b60405180910390fd5b600360008373ffffffffffffffffffffffffffffffffffffffff1673ffffffffffffffffffffffffffffffffffffffff168152602001908152602001600020549050919050565b6108c16111da565b6108cb60006112e8565b565b6000600760009054906101000a900473ffffffffffffffffffffffffffffffffffffffff16905090565b60606001805461090690612d06565b80601f016020809104026020016040519081016040528092919081815260200182805461093290612d06565b801561097f5780601f106109545761010080835404028352916020019161097f565b820191906000526020600020905b81548152906001019060200180831161096257829003601f168201915b5050505050905090565b61099b610994610d9b565b83836113ae565b5050565b6109b06109aa610d9b565b83610e5c565b6109ef576040517f08c379a00000000000000000000000000000000000000000000000000000000081526004016109e69061296e565b60405180910390fd5b6109fb8484848461151b565b50505050565b6060610a0c82610d50565b6000600660008481526020019081526020016000208054610a2c90612d06565b80601f0160208091040260200160405190810160405280929190818152602001828054610a5890612d06565b8015610aa55780601f10610a7a57610100808354040283529160200191610aa5565b820191906000526020600020905b815481529060010190602001808311610a8857829003601f168201915b505050505090506000610ab6611577565b9050600081511415610acc578192505050610b0f565b600082511115610b01578082604051602001610ae99291906128a6565b60405160208183030381529060405292505050610b0f565b610b0a8461158e565b925050505b919050565b610b1c6111da565b6000610b2860086115f6565b9050610b348482611604565b610b828184848080601f016020809104026020016040519081016040528093929190818152602001838380828437600081840152601f19601f82011690508083019250505050505050611622565b610b8c6008610cd0565b7f997115af5924f5e38964c6d65c804d4cb85129b65e62eb20a8ca6329dbe57e1881858585610bb9610d9b565b604051610bca959493929190612b69565b60405180910390a150505050565b60008173ffffffffffffffffffffffffffffffffffffffff16600960009054906101000a900473ffffffffffffffffffffffffffffffffffffffff1673ffffffffffffffffffffffffffffffffffffffff161415610c395760019050610c46565b610c438383611696565b90505b92915050565b610c546111da565b600073ffffffffffffffffffffffffffffffffffffffff168173ffffffffffffffffffffffffffffffffffffffff161415610cc4576040517f08c379a0000000000000000000000000000000000000000000000000000000008152600401610cbb906129ae565b60405180910390fd5b610ccd816112e8565b50565b6001816000016000828254019250508190555050565b60007f01ffc9a7000000000000000000000000000000000000000000000000000000007bffffffffffffffffffffffffffffffffffffffffffffffffffffffff1916827bffffffffffffffffffffffffffffffffffffffffffffffffffffffff1916149050919050565b610d598161172a565b610d98576040517f08c379a0000000000000000000000000000000000000000000000000000000008152600401610d8f90612aee565b60405180910390fd5b50565b600033905090565b816004600083815260200190815260200160002060006101000a81548173ffffffffffffffffffffffffffffffffffffffff021916908373ffffffffffffffffffffffffffffffffffffffff160217905550808273ffffffffffffffffffffffffffffffffffffffff16610e168361077a565b73ffffffffffffffffffffffffffffffffffffffff167f8c5be1e5ebec7d5bd14f71427d1e84f3dd0314c0f7b2291e5b200ac8c7c3b92560405160405180910390a45050565b6000610e678261172a565b610ea6576040517f08c379a0000000000000000000000000000000000000000000000000000000008152600401610e9d90612a4e565b60405180910390fd5b6000610eb18361077a565b9050610ebd8185610bd8565b15610ecc576001915050610eda565b610ed6848461176b565b9150505b92915050565b8273ffffffffffffffffffffffffffffffffffffffff16610f008261077a565b73ffffffffffffffffffffffffffffffffffffffff1614610f56576040517f08c379a0000000000000000000000000000000000000000000000000000000008152600401610f4d906129ce565b60405180910390fd5b600073ffffffffffffffffffffffffffffffffffffffff168273ffffffffffffffffffffffffffffffffffffffff161415610fc6576040517f08c379a0000000000000000000000000000000000000000000000000000000008152600401610fbd90612a0e565b60405180910390fd5b610fd38383836001611800565b8273ffffffffffffffffffffffffffffffffffffffff16610ff38261077a565b73ffffffffffffffffffffffffffffffffffffffff1614611049576040517f08c379a0000000000000000000000000000000000000000000000000000000008152600401611040906129ce565b60405180910390fd5b6004600082815260200190815260200160002060006101000a81549073ffffffffffffffffffffffffffffffffffffffff02191690556001600360008573ffffffffffffffffffffffffffffffffffffffff1673ffffffffffffffffffffffffffffffffffffffff168152602001908152602001600020600082825403925050819055506001600360008473ffffffffffffffffffffffffffffffffffffffff1673ffffffffffffffffffffffffffffffffffffffff16815260200190815260200160002060008282540192505081905550816002600083815260200190815260200160002060006101000a81548173ffffffffffffffffffffffffffffffffffffffff021916908373ffffffffffffffffffffffffffffffffffffffff160217905550808273ffffffffffffffffffffffffffffffffffffffff168473ffffffffffffffffffffffffffffffffffffffff167fddf252ad1be2c89b69c2b068fc378daa952ba7f163c4a11628f55a4df523b3ef60405160405180910390a46111d58383836001611806565b505050565b6111e2610d9b565b73ffffffffffffffffffffffffffffffffffffffff166112006108cd565b73ffffffffffffffffffffffffffffffffffffffff1614611256576040517f08c379a000000000000000000000000000000000000000000000000000000000815260040161124d90612ace565b60405180910390fd5b565b6112618161180c565b600060066000838152602001908152602001600020805461128190612d06565b9050146112a8576006600082815260200190815260200160002060006112a791906120e8565b5b50565b60006002600083815260200190815260200160002060009054906101000a900473ffffffffffffffffffffffffffffffffffffffff169050919050565b6000600760009054906101000a900473ffffffffffffffffffffffffffffffffffffffff16905081600760006101000a81548173ffffffffffffffffffffffffffffffffffffffff021916908373ffffffffffffffffffffffffffffffffffffffff1602179055508173ffffffffffffffffffffffffffffffffffffffff168173ffffffffffffffffffffffffffffffffffffffff167f8be0079c531659141344cd1fd0a4f28419497f9722a3daafe3b4186f6b6457e060405160405180910390a35050565b8173ffffffffffffffffffffffffffffffffffffffff168373ffffffffffffffffffffffffffffffffffffffff16141561141d576040517f08c379a000000000000000000000000000000000000000000000000000000000815260040161141490612a2e565b60405180910390fd5b80600560008573ffffffffffffffffffffffffffffffffffffffff1673ffffffffffffffffffffffffffffffffffffffff16815260200190815260200160002060008473ffffffffffffffffffffffffffffffffffffffff1673ffffffffffffffffffffffffffffffffffffffff16815260200190815260200160002060006101000a81548160ff0219169083151502179055508173ffffffffffffffffffffffffffffffffffffffff168373ffffffffffffffffffffffffffffffffffffffff167f17307eab39ab6107e8899845ad3d59bd9653f200f220920489ca2b5937696c318360405161150e9190612931565b60405180910390a3505050565b611526848484610ee0565b6115328484848461195a565b611571576040517f08c379a00000000000000000000000000000000000000000000000000000000081526004016115689061298e565b60405180910390fd5b50505050565b606060405180602001604052806000815250905090565b606061159982610d50565b60006115a3611577565b905060008151116115c357604051806020016040528060008152506115ee565b806115cd84611af1565b6040516020016115de9291906128a6565b6040516020818303038152906040525b915050919050565b600081600001549050919050565b61161e828260405180602001604052806000815250611c15565b5050565b61162b8261172a565b61166a576040517f08c379a000000000000000000000000000000000000000000000000000000000815260040161166190612a8e565b60405180910390fd5b80600660008481526020019081526020016000209080519060200190611691929190612128565b505050565b6000600560008473ffffffffffffffffffffffffffffffffffffffff1673ffffffffffffffffffffffffffffffffffffffff16815260200190815260200160002060008373ffffffffffffffffffffffffffffffffffffffff1673ffffffffffffffffffffffffffffffffffffffff16815260200190815260200160002060009054906101000a900460ff16905092915050565b60008073ffffffffffffffffffffffffffffffffffffffff1661174c836112ab565b73ffffffffffffffffffffffffffffffffffffffff1614159050919050565b6000806117778361077a565b90508073ffffffffffffffffffffffffffffffffffffffff168473ffffffffffffffffffffffffffffffffffffffff1614806117b957506117b88185610bd8565b5b806117f757508373ffffffffffffffffffffffffffffffffffffffff166117df8461052e565b73ffffffffffffffffffffffffffffffffffffffff16145b91505092915050565b50505050565b50505050565b60006118178261077a565b9050611827816000846001611800565b6118308261077a565b90506004600083815260200190815260200160002060006101000a81549073ffffffffffffffffffffffffffffffffffffffff02191690556001600360008373ffffffffffffffffffffffffffffffffffffffff1673ffffffffffffffffffffffffffffffffffffffff168152602001908152602001600020600082825403925050819055506002600083815260200190815260200160002060006101000a81549073ffffffffffffffffffffffffffffffffffffffff021916905581600073ffffffffffffffffffffffffffffffffffffffff168273ffffffffffffffffffffffffffffffffffffffff167fddf252ad1be2c89b69c2b068fc378daa952ba7f163c4a11628f55a4df523b3ef60405160405180910390a4611956816000846001611806565b5050565b600061197b8473ffffffffffffffffffffffffffffffffffffffff16611c70565b15611ae4578373ffffffffffffffffffffffffffffffffffffffff1663150b7a026119a4610d9b565b8786866040518563ffffffff1660e01b81526004016119c694939291906128e5565b602060405180830381600087803b1580156119e057600080fd5b505af1925050508015611a1157506040513d601f19601f82011682018060405250810190611a0e919061250e565b60015b611a94573d8060008114611a41576040519150601f19603f3d011682016040523d82523d6000602084013e611a46565b606091505b50600081511415611a8c576040517f08c379a0000000000000000000000000000000000000000000000000000000008152600401611a839061298e565b60405180910390fd5b805181602001fd5b63150b7a0260e01b7bffffffffffffffffffffffffffffffffffffffffffffffffffffffff1916817bffffffffffffffffffffffffffffffffffffffffffffffffffffffff191614915050611ae9565b600190505b949350505050565b606060006001611b0084611c93565b01905060008167ffffffffffffffff811115611b45577f4e487b7100000000000000000000000000000000000000000000000000000000600052604160045260246000fd5b6040519080825280601f01601f191660200182016040528015611b775781602001600182028036833780820191505090505b509050600082602001820190505b600115611c0a578080600190039150507f3031323334353637383961626364656600000000000000000000000000000000600a86061a8153600a8581611bf4577f4e487b7100000000000000000000000000000000000000000000000000000000600052601260045260246000fd5b0494506000851415611c0557611c0a565b611b85565b819350505050919050565b611c1f8383611eca565b611c2c600084848461195a565b611c6b576040517f08c379a0000000000000000000000000000000000000000000000000000000008152600401611c629061298e565b60405180910390fd5b505050565b6000808273ffffffffffffffffffffffffffffffffffffffff163b119050919050565b600080600090507a184f03e93ff9f4daa797ed6e38ed64bf6a1f0100000000000000008310611d17577a184f03e93ff9f4daa797ed6e38ed64bf6a1f0100000000000000008381611d0d577f4e487b7100000000000000000000000000000000000000000000000000000000600052601260045260246000fd5b0492506040810190505b6d04ee2d6d415b85acef81000000008310611d7a576d04ee2d6d415b85acef81000000008381611d70577f4e487b7100000000000000000000000000000000000000000000000000000000600052601260045260246000fd5b0492506020810190505b662386f26fc100008310611dcf57662386f26fc100008381611dc5577f4e487b7100000000000000000000000000000000000000000000000000000000600052601260045260246000fd5b0492506010810190505b6305f5e1008310611e1e576305f5e1008381611e14577f4e487b7100000000000000000000000000000000000000000000000000000000600052601260045260246000fd5b0492506008810190505b6127108310611e69576127108381611e5f577f4e487b7100000000000000000000000000000000000000000000000000000000600052601260045260246000fd5b0492506004810190505b60648310611eb25760648381611ea8577f4e487b7100000000000000000000000000000000000000000000000000000000600052601260045260246000fd5b0492506002810190505b600a8310611ec1576001810190505b80915050919050565b600073ffffffffffffffffffffffffffffffffffffffff168273ffffffffffffffffffffffffffffffffffffffff161415611f3a576040517f08c379a0000000000000000000000000000000000000000000000000000000008152600401611f3190612aae565b60405180910390fd5b611f438161172a565b15611f83576040517f08c379a0000000000000000000000000000000000000000000000000000000008152600401611f7a906129ee565b60405180910390fd5b611f91600083836001611800565b611f9a8161172a565b15611fda576040517f08c379a0000000000000000000000000000000000000000000000000000000008152600401611fd1906129ee565b60405180910390fd5b6001600360008473ffffffffffffffffffffffffffffffffffffffff1673ffffffffffffffffffffffffffffffffffffffff16815260200190815260200160002060008282540192505081905550816002600083815260200190815260200160002060006101000a81548173ffffffffffffffffffffffffffffffffffffffff021916908373ffffffffffffffffffffffffffffffffffffffff160217905550808273ffffffffffffffffffffffffffffffffffffffff16600073ffffffffffffffffffffffffffffffffffffffff167fddf252ad1be2c89b69c2b068fc378daa952ba7f163c4a11628f55a4df523b3ef60405160405180910390a46120e4600083836001611806565b5050565b5080546120f490612d06565b6000825580601f106121065750612125565b601f01602090049060005260206000209081019061212491906121ae565b5b50565b82805461213490612d06565b90600052602060002090601f016020900481019282612156576000855561219d565b82601f1061216f57805160ff191683800117855561219d565b8280016001018555821561219d579182015b8281111561219c578251825591602001919060010190612181565b5b5090506121aa91906121ae565b5090565b5b808211156121c75760008160009055506001016121af565b5090565b60006121de6121d984612bdc565b612bb7565b9050828152602081018484840111156121f657600080fd5b612201848285612cc4565b509392505050565b600081359050612218816131bb565b92915050565b60008135905061222d816131d2565b92915050565b600081359050612242816131e9565b92915050565b600081519050612257816131e9565b92915050565b600082601f83011261226e57600080fd5b813561227e8482602086016121cb565b91505092915050565b60008083601f84011261229957600080fd5b8235905067ffffffffffffffff8111156122b257600080fd5b6020830191508360018202830111156122ca57600080fd5b9250929050565b6000813590506122e081613200565b92915050565b6000602082840312156122f857600080fd5b600061230684828501612209565b91505092915050565b6000806040838503121561232257600080fd5b600061233085828601612209565b925050602061234185828601612209565b9150509250929050565b60008060006060848603121561236057600080fd5b600061236e86828701612209565b935050602061237f86828701612209565b9250506040612390868287016122d1565b9150509250925092565b600080600080608085870312156123b057600080fd5b60006123be87828801612209565b94505060206123cf87828801612209565b93505060406123e0878288016122d1565b925050606085013567ffffffffffffffff8111156123fd57600080fd5b6124098782880161225d565b91505092959194509250565b6000806040838503121561242857600080fd5b600061243685828601612209565b92505060206124478582860161221e565b9150509250929050565b60008060006040848603121561246657600080fd5b600061247486828701612209565b935050602084013567ffffffffffffffff81111561249157600080fd5b61249d86828701612287565b92509250509250925092565b600080604083850312156124bc57600080fd5b60006124ca85828601612209565b92505060206124db858286016122d1565b9150509250929050565b6000602082840312156124f757600080fd5b600061250584828501612233565b91505092915050565b60006020828403121561252057600080fd5b600061252e84828501612248565b91505092915050565b60006020828403121561254957600080fd5b6000612557848285016122d1565b91505092915050565b6000806040838503121561257357600080fd5b6000612581858286016122d1565b925050602061259285828601612209565b9150509250929050565b6125a581612c50565b82525050565b6125b481612c62565b82525050565b60006125c582612c0d565b6125cf8185612c23565b93506125df818560208601612cd3565b6125e881612dc7565b840191505092915050565b60006125ff8385612c34565b935061260c838584612cc4565b61261583612dc7565b840190509392505050565b600061262b82612c18565b6126358185612c34565b9350612645818560208601612cd3565b61264e81612dc7565b840191505092915050565b600061266482612c18565b61266e8185612c45565b935061267e818560208601612cd3565b80840191505092915050565b6000612697602d83612c34565b91506126a282612dd8565b604082019050919050565b60006126ba603283612c34565b91506126c582612e27565b604082019050919050565b60006126dd602683612c34565b91506126e882612e76565b604082019050919050565b6000612700602583612c34565b915061270b82612ec5565b604082019050919050565b6000612723601c83612c34565b915061272e82612f14565b602082019050919050565b6000612746602483612c34565b915061275182612f3d565b604082019050919050565b6000612769601983612c34565b915061277482612f8c565b602082019050919050565b600061278c602c83612c34565b915061279782612fb5565b604082019050919050565b60006127af602983612c34565b91506127ba82613004565b604082019050919050565b60006127d2602e83612c34565b91506127dd82613053565b604082019050919050565b60006127f5602083612c34565b9150612800826130a2565b602082019050919050565b6000612818602083612c34565b9150612823826130cb565b602082019050919050565b600061283b601883612c34565b9150612846826130f4565b602082019050919050565b600061285e602183612c34565b91506128698261311d565b604082019050919050565b6000612881603d83612c34565b915061288c8261316c565b604082019050919050565b6128a081612cba565b82525050565b60006128b28285612659565b91506128be8284612659565b91508190509392505050565b60006020820190506128df600083018461259c565b92915050565b60006080820190506128fa600083018761259c565b612907602083018661259c565b6129146040830185612897565b818103606083015261292681846125ba565b905095945050505050565b600060208201905061294660008301846125ab565b92915050565b600060208201905081810360008301526129668184612620565b905092915050565b600060208201905081810360008301526129878161268a565b9050919050565b600060208201905081810360008301526129a7816126ad565b9050919050565b600060208201905081810360008301526129c7816126d0565b9050919050565b600060208201905081810360008301526129e7816126f3565b9050919050565b60006020820190508181036000830152612a0781612716565b9050919050565b60006020820190508181036000830152612a2781612739565b9050919050565b60006020820190508181036000830152612a478161275c565b9050919050565b60006020820190508181036000830152612a678161277f565b9050919050565b60006020820190508181036000830152612a87816127a2565b9050919050565b60006020820190508181036000830152612aa7816127c5565b9050919050565b60006020820190508181036000830152612ac7816127e8565b9050919050565b60006020820190508181036000830152612ae78161280b565b9050919050565b60006020820190508181036000830152612b078161282e565b9050919050565b60006020820190508181036000830152612b2781612851565b9050919050565b60006020820190508181036000830152612b4781612874565b9050919050565b6000602082019050612b636000830184612897565b92915050565b6000608082019050612b7e6000830188612897565b612b8b602083018761259c565b8181036040830152612b9e8185876125f3565b9050612bad606083018461259c565b9695505050505050565b6000612bc1612bd2565b9050612bcd8282612d38565b919050565b6000604051905090565b600067ffffffffffffffff821115612bf757612bf6612d98565b5b612c0082612dc7565b9050602081019050919050565b600081519050919050565b600081519050919050565b600082825260208201905092915050565b600082825260208201905092915050565b600081905092915050565b6000612c5b82612c9a565b9050919050565b60008115159050919050565b60007fffffffff0000000000000000000000000000000000000000000000000000000082169050919050565b600073ffffffffffffffffffffffffffffffffffffffff82169050919050565b6000819050919050565b82818337600083830152505050565b60005b83811015612cf1578082015181840152602081019050612cd6565b83811115612d00576000848401525b50505050565b60006002820490506001821680612d1e57607f821691505b60208210811415612d3257612d31612d69565b5b50919050565b612d4182612dc7565b810181811067ffffffffffffffff82111715612d6057612d5f612d98565b5b80604052505050565b7f4e487b7100000000000000000000000000000000000000000000000000000000600052602260045260246000fd5b7f4e487b7100000000000000000000000000000000000000000000000000000000600052604160045260246000fd5b6000601f19601f8301169050919050565b7f4552433732313a2063616c6c6572206973206e6f7420746f6b656e206f776e6560008201527f72206f7220617070726f76656400000000000000000000000000000000000000602082015250565b7f4552433732313a207472616e7366657220746f206e6f6e20455243373231526560008201527f63656976657220696d706c656d656e7465720000000000000000000000000000602082015250565b7f4f776e61626c653a206e6577206f776e657220697320746865207a65726f206160008201527f6464726573730000000000000000000000000000000000000000000000000000602082015250565b7f4552433732313a207472616e736665722066726f6d20696e636f72726563742060008201527f6f776e6572000000000000000000000000000000000000000000000000000000602082015250565b7f4552433732313a20746f6b656e20616c7265616479206d696e74656400000000600082015250565b7f4552433732313a207472616e7366657220746f20746865207a65726f2061646460008201527f7265737300000000000000000000000000000000000000000000000000000000602082015250565b7f4552433732313a20617070726f766520746f2063616c6c657200000000000000600082015250565b7f4552433732313a206f70657261746f7220717565727920666f72206e6f6e657860008201527f697374656e7420746f6b656e0000000000000000000000000000000000000000602082015250565b7f4552433732313a2061646472657373207a65726f206973206e6f74206120766160008201527f6c6964206f776e65720000000000000000000000000000000000000000000000602082015250565b7f45524337323155524953746f726167653a2055524920736574206f66206e6f6e60008201527f6578697374656e7420746f6b656e000000000000000000000000000000000000602082015250565b7f4552433732313a206d696e7420746f20746865207a65726f2061646472657373600082015250565b7f4f776e61626c653a2063616c6c6572206973206e6f7420746865206f776e6572600082015250565b7f4552433732313a20696e76616c696420746f6b656e2049440000000000000000600082015250565b7f4552433732313a20617070726f76616c20746f2063757272656e74206f776e6560008201527f7200000000000000000000000000000000000000000000000000000000000000602082015250565b7f4552433732313a20617070726f76652063616c6c6572206973206e6f7420746f60008201527f6b656e206f776e6572206f7220617070726f76656420666f7220616c6c000000602082015250565b6131c481612c50565b81146131cf57600080fd5b50565b6131db81612c62565b81146131e657600080fd5b50565b6131f281612c6e565b81146131fd57600080fd5b50565b61320981612cba565b811461321457600080fd5b5056fea26469706673582212203d507814670631ac0fbf55b0a2ac77925df81934500a6ec24594542ae4835a9364736f6c63430008040033",
  "linkReferences": {},
  "deployedLinkReferences": {}
}