{
  "_format": "hh-sol-artifact-1",
  "contractName": "CreathMarketplace",
  "sourceName": "contracts/CreathMarketplace.sol",
  "abi": [
    {
      "anonymous": false,
      "inputs": [
        {
          "indexed": false,
          "internalType": "address",
          "name": "previousAdmin",
          "type": "address"
        },
        {
          "indexed": false,
          "internalType": "address",
          "name": "newAdmin",
          "type": "address"
        }
      ],
      "name": "AdminChanged",
      "type": "event"
    },
    {
      "anonymous": false,
      "inputs": [
        {
          "indexed": true,
          "internalType": "address",
          "name": "beacon",
          "type": "address"
        }
      ],
      "name": "BeaconUpgraded",
      "type": "event"
    },
    {
      "anonymous": false,
      "inputs": [
        {
          "indexed": false,
          "internalType": "uint8",
          "name": "version",
          "type": "uint8"
        }
      ],
      "name": "Initialized",
      "type": "event"
    },
    {
      "anonymous": false,
      "inputs": [
        {
          "indexed": true,
          "internalType": "address",
          "name": "owner",
          "type": "address"
        },
        {
          "indexed": true,
          "internalType": "address",
          "name": "nft",
          "type": "address"
        },
        {
          "indexed": false,
          "internalType": "uint256",
          "name": "tokenId",
          "type": "uint256"
        }
      ],
      "name": "ItemCanceled",
      "type": "event"
    },
    {
      "anonymous": false,
      "inputs": [
        {
          "indexed": true,
          "internalType": "address",
          "name": "owner",
          "type": "address"
        },
        {
          "indexed": true,
          "internalType": "address",
          "name": "nft",
          "type": "address"
        },
        {
          "indexed": false,
          "internalType": "uint256",
          "name": "tokenId",
          "type": "uint256"
        },
        {
          "indexed": false,
          "internalType": "uint256",
          "name": "price",
          "type": "uint256"
        }
      ],
      "name": "ItemListed",
      "type": "event"
    },
    {
      "anonymous": false,
      "inputs": [
        {
          "indexed": true,
          "internalType": "address",
          "name": "seller",
          "type": "address"
        },
        {
          "indexed": true,
          "internalType": "address",
          "name": "buyer",
          "type": "address"
        },
        {
          "indexed": true,
          "internalType": "address",
          "name": "nft",
          "type": "address"
        },
        {
          "indexed": false,
          "internalType": "uint256",
          "name": "tokenId",
          "type": "uint256"
        },
        {
          "indexed": false,
          "internalType": "uint256",
          "name": "price",
          "type": "uint256"
        }
      ],
      "name": "ItemSold",
      "type": "event"
    },
    {
      "anonymous": false,
      "inputs": [
        {
          "indexed": true,
          "internalType": "address",
          "name": "owner",
          "type": "address"
        },
        {
          "indexed": true,
          "internalType": "address",
          "name": "nft",
          "type": "address"
        },
        {
          "indexed": false,
          "internalType": "uint256",
          "name": "tokenId",
          "type": "uint256"
        },
        {
          "indexed": false,
          "internalType": "uint256",
          "name": "newPrice",
          "type": "uint256"
        }
      ],
      "name": "ItemUpdated",
      "type": "event"
    },
    {
      "anonymous": false,
      "inputs": [
        {
          "indexed": true,
          "internalType": "address",
          "name": "previousOwner",
          "type": "address"
        },
        {
          "indexed": true,
          "internalType": "address",
          "name": "newOwner",
          "type": "address"
        }
      ],
      "name": "OwnershipTransferred",
      "type": "event"
    },
    {
      "anonymous": false,
      "inputs": [
        {
          "indexed": false,
          "internalType": "uint16",
          "name": "platformFee",
          "type": "uint16"
        }
      ],
      "name": "UpdatePlatformFee",
      "type": "event"
    },
    {
      "anonymous": false,
      "inputs": [
        {
          "indexed": false,
          "internalType": "address payable",
          "name": "platformFeeRecipient",
          "type": "address"
        }
      ],
      "name": "UpdatePlatformFeeRecipient",
      "type": "event"
    },
    {
      "anonymous": false,
      "inputs": [
        {
          "indexed": true,
          "internalType": "address",
          "name": "implementation",
          "type": "address"
        }
      ],
      "name": "Upgraded",
      "type": "event"
    },
    {
      "inputs": [
        {
          "internalType": "address",
          "name": "",
          "type": "address"
        },
        {
          "internalType": "uint256",
          "name": "",
          "type": "uint256"
        }
      ],
      "name": "artists",
      "outputs": [
        {
          "internalType": "address",
          "name": "",
          "type": "address"
        }
      ],
      "stateMutability": "view",
      "type": "function"
    },
    {
      "inputs": [
        {
          "internalType": "address",
          "name": "_nftAddress",
          "type": "address"
        },
        {
          "internalType": "uint256",
          "name": "_tokenId",
          "type": "uint256"
        }
      ],
      "name": "buyItem",
      "outputs": [],
      "stateMutability": "nonpayable",
      "type": "function"
    },
    {
      "inputs": [
        {
          "internalType": "address",
          "name": "_nftAddress",
          "type": "address"
        },
        {
          "internalType": "address",
          "name": "_artist",
          "type": "address"
        },
        {
          "internalType": "uint256",
          "name": "_tokenId",
          "type": "uint256"
        }
      ],
      "name": "cancelListing",
      "outputs": [],
      "stateMutability": "nonpayable",
      "type": "function"
    },
    {
      "inputs": [],
      "name": "feeReceipient",
      "outputs": [
        {
          "internalType": "address payable",
          "name": "",
          "type": "address"
        }
      ],
      "stateMutability": "view",
      "type": "function"
    },
    {
      "inputs": [
        {
          "internalType": "address payable",
          "name": "_feeRecipient",
          "type": "address"
        },
        {
          "internalType": "address",
          "name": "_token",
          "type": "address"
        },
        {
          "internalType": "uint16",
          "name": "_platformFee",
          "type": "uint16"
        }
      ],
      "name": "initialize",
      "outputs": [],
      "stateMutability": "nonpayable",
      "type": "function"
    },
    {
      "inputs": [
        {
          "internalType": "address",
          "name": "_nftAddress",
          "type": "address"
        },
        {
          "internalType": "address",
          "name": "_artist",
          "type": "address"
        },
        {
          "internalType": "uint256",
          "name": "_tokenId",
          "type": "uint256"
        },
        {
          "internalType": "uint256",
          "name": "_price",
          "type": "uint256"
        }
      ],
      "name": "listItem",
      "outputs": [],
      "stateMutability": "nonpayable",
      "type": "function"
    },
    {
      "inputs": [
        {
          "internalType": "address",
          "name": "",
          "type": "address"
        },
        {
          "internalType": "uint256",
          "name": "",
          "type": "uint256"
        }
      ],
      "name": "listings",
      "outputs": [
        {
          "internalType": "uint256",
          "name": "",
          "type": "uint256"
        }
      ],
      "stateMutability": "view",
      "type": "function"
    },
    {
      "inputs": [],
      "name": "owner",
      "outputs": [
        {
          "internalType": "address",
          "name": "",
          "type": "address"
        }
      ],
      "stateMutability": "view",
      "type": "function"
    },
    {
      "inputs": [],
      "name": "platformFee",
      "outputs": [
        {
          "internalType": "uint16",
          "name": "",
          "type": "uint16"
        }
      ],
      "stateMutability": "view",
      "type": "function"
    },
    {
      "inputs": [],
      "name": "proxiableUUID",
      "outputs": [
        {
          "internalType": "bytes32",
          "name": "",
          "type": "bytes32"
        }
      ],
      "stateMutability": "view",
      "type": "function"
    },
    {
      "inputs": [],
      "name": "renounceOwnership",
      "outputs": [],
      "stateMutability": "nonpayable",
      "type": "function"
    },
    {
      "inputs": [
        {
          "internalType": "address",
          "name": "newOwner",
          "type": "address"
        }
      ],
      "name": "transferOwnership",
      "outputs": [],
      "stateMutability": "nonpayable",
      "type": "function"
    },
    {
      "inputs": [
        {
          "internalType": "address",
          "name": "_nftAddress",
          "type": "address"
        },
        {
          "internalType": "address",
          "name": "_artist",
          "type": "address"
        },
        {
          "internalType": "uint256",
          "name": "_tokenId",
          "type": "uint256"
        },
        {
          "internalType": "uint256",
          "name": "_newPrice",
          "type": "uint256"
        }
      ],
      "name": "updateListing",
      "outputs": [],
      "stateMutability": "nonpayable",
      "type": "function"
    },
    {
      "inputs": [
        {
          "internalType": "address",
          "name": "newPaymentToken",
          "type": "address"
        }
      ],
      "name": "updatePaymentToken",
      "outputs": [],
      "stateMutability": "nonpayable",
      "type": "function"
    },
    {
      "inputs": [
        {
          "internalType": "uint16",
          "name": "_platformFee",
          "type": "uint16"
        }
      ],
      "name": "updatePlatformFee",
      "outputs": [],
      "stateMutability": "nonpayable",
      "type": "function"
    },
    {
      "inputs": [
        {
          "internalType": "address payable",
          "name": "_platformFeeRecipient",
          "type": "address"
        }
      ],
      "name": "updatePlatformFeeRecipient",
      "outputs": [],
      "stateMutability": "nonpayable",
      "type": "function"
    },
    {
      "inputs": [
        {
          "internalType": "address",
          "name": "newImplementation",
          "type": "address"
        }
      ],
      "name": "upgradeTo",
      "outputs": [],
      "stateMutability": "nonpayable",
      "type": "function"
    },
    {
      "inputs": [
        {
          "internalType": "address",
          "name": "newImplementation",
          "type": "address"
        },
        {
          "internalType": "bytes",
          "name": "data",
          "type": "bytes"
        }
      ],
      "name": "upgradeToAndCall",
      "outputs": [],
      "stateMutability": "payable",
      "type": "function"
    }
  ],
  "bytecode": "0x60a06040523073ffffffffffffffffffffffffffffffffffffffff1660809073ffffffffffffffffffffffffffffffffffffffff1660601b81525034801561004657600080fd5b5060805160601c6136256100816000396000818161043b015281816104ca015281816107d701528181610866015261091601526136256000f3fe6080604052600436106101085760003560e01c8063715018a611610095578063af89e58511610064578063af89e5851461031f578063afb0695214610348578063b95d3ee614610371578063f2fde38b146103ae578063f5fe7f71146103d757610108565b8063715018a61461028b5780637ebef529146102a25780638da5cb5b146102cb5780639f37092a146102f657610108565b80633abf3632116100dc5780633abf3632146101c95780634ccf1b34146101f25780634f1ef2861461021b57806352d1902d1461023757806356f57f981461026257610108565b806207df301461010d57806326232a2e1461014a5780633659cfe6146101755780633740ebb31461019e575b600080fd5b34801561011957600080fd5b50610134600480360381019061012f91906124e2565b610400565b6040516101419190612ca0565b60405180910390f35b34801561015657600080fd5b5061015f610425565b60405161016c9190612c85565b60405180910390f35b34801561018157600080fd5b5061019c6004803603810190610197919061233b565b610439565b005b3480156101aa57600080fd5b506101b36105e8565b6040516101c09190612937565b60405180910390f35b3480156101d557600080fd5b506101f060048036038101906101eb919061242b565b61060e565b005b3480156101fe57600080fd5b506102196004803603810190610214919061233b565b610789565b005b6102356004803603810190610230919061248e565b6107d5565b005b34801561024357600080fd5b5061024c610912565b60405161025991906129b2565b60405180910390f35b34801561026e57600080fd5b506102896004803603810190610284919061242b565b6109cb565b005b34801561029757600080fd5b506102a0610d6e565b005b3480156102ae57600080fd5b506102c960048036038101906102c4919061238d565b610d82565b005b3480156102d757600080fd5b506102e0610f62565b6040516102ed919061291c565b60405180910390f35b34801561030257600080fd5b5061031d600480360381019061031891906124e2565b610f8c565b005b34801561032b57600080fd5b50610346600480360381019061034191906123dc565b61109e565b005b34801561035457600080fd5b5061036f600480360381019061036a9190612570565b611163565b005b34801561037d57600080fd5b50610398600480360381019061039391906124e2565b6111c2565b6040516103a5919061291c565b60405180910390f35b3480156103ba57600080fd5b506103d560048036038101906103d0919061233b565b611204565b005b3480156103e357600080fd5b506103fe60048036038101906103f99190612364565b611288565b005b60fd602052816000526040600020602052806000526040600020600091509150505481565b60fe60009054906101000a900461ffff1681565b7f000000000000000000000000000000000000000000000000000000000000000073ffffffffffffffffffffffffffffffffffffffff163073ffffffffffffffffffffffffffffffffffffffff1614156104c8576040517f08c379a00000000000000000000000000000000000000000000000000000000081526004016104bf90612a65565b60405180910390fd5b7f000000000000000000000000000000000000000000000000000000000000000073ffffffffffffffffffffffffffffffffffffffff1661050761130b565b73ffffffffffffffffffffffffffffffffffffffff161461055d576040517f08c379a000000000000000000000000000000000000000000000000000000000815260040161055490612a85565b60405180910390fd5b61056681611362565b6105e581600067ffffffffffffffff8111156105ab577f4e487b7100000000000000000000000000000000000000000000000000000000600052604160045260246000fd5b6040519080825280601f01601f1916602001820160405280156105dd5781602001600182028036833780820191505090505b50600061136d565b50565b60fe60029054906101000a900473ffffffffffffffffffffffffffffffffffffffff1681565b6106166114ea565b61061e611568565b8382600060fd60008473ffffffffffffffffffffffffffffffffffffffff1673ffffffffffffffffffffffffffffffffffffffff1681526020019081526020016000206000838152602001908152602001600020549050600081116106b8576040517f08c379a00000000000000000000000000000000000000000000000000000000081526004016106af90612a25565b60405180910390fd5b600060fd60008973ffffffffffffffffffffffffffffffffffffffff1673ffffffffffffffffffffffffffffffffffffffff16815260200190815260200160002060008781526020019081526020016000205490508490508773ffffffffffffffffffffffffffffffffffffffff168773ffffffffffffffffffffffffffffffffffffffff167f3c33e65e8698294810b631d476d60b44425303828da0b1f8b635231bfda12be2888860405161076f929190612cbb565b60405180910390a3505050506107836115b8565b50505050565b6107916114ea565b8060fb60006101000a81548173ffffffffffffffffffffffffffffffffffffffff021916908373ffffffffffffffffffffffffffffffffffffffff16021790555050565b7f000000000000000000000000000000000000000000000000000000000000000073ffffffffffffffffffffffffffffffffffffffff163073ffffffffffffffffffffffffffffffffffffffff161415610864576040517f08c379a000000000000000000000000000000000000000000000000000000000815260040161085b90612a65565b60405180910390fd5b7f000000000000000000000000000000000000000000000000000000000000000073ffffffffffffffffffffffffffffffffffffffff166108a361130b565b73ffffffffffffffffffffffffffffffffffffffff16146108f9576040517f08c379a00000000000000000000000000000000000000000000000000000000081526004016108f090612a85565b60405180910390fd5b61090282611362565b61090e8282600161136d565b5050565b60007f000000000000000000000000000000000000000000000000000000000000000073ffffffffffffffffffffffffffffffffffffffff163073ffffffffffffffffffffffffffffffffffffffff16146109a2576040517f08c379a000000000000000000000000000000000000000000000000000000000815260040161099990612ac5565b60405180910390fd5b7f360894a13ba1a3210667c828492db98dca3e2076cc3735a920a3ca505d382bbc60001b905090565b6109d36114ea565b8382600060fd60008473ffffffffffffffffffffffffffffffffffffffff1673ffffffffffffffffffffffffffffffffffffffff16815260200190815260200160002060008381526020019081526020016000205490506000811115610a6e576040517f08c379a0000000000000000000000000000000000000000000000000000000008152600401610a6590612ba5565b60405180910390fd5b8673ffffffffffffffffffffffffffffffffffffffff166301ffc9a76380ac58cd60e01b6040518263ffffffff1660e01b8152600401610aae91906129cd565b60206040518083038186803b158015610ac657600080fd5b505afa158015610ada573d6000803e3d6000fd5b505050506040513d601f19601f82011682018060405250810190610afe919061251e565b15610bdf5760008790508073ffffffffffffffffffffffffffffffffffffffff1663e985e9c5610b2c610f62565b306040518363ffffffff1660e01b8152600401610b4a929190612952565b60206040518083038186803b158015610b6257600080fd5b505afa158015610b76573d6000803e3d6000fd5b505050506040513d601f19601f82011682018060405250810190610b9a919061251e565b610bd9576040517f08c379a0000000000000000000000000000000000000000000000000000000008152600401610bd090612bc5565b60405180910390fd5b50610c1a565b6040517f08c379a0000000000000000000000000000000000000000000000000000000008152600401610c1190612ae5565b60405180910390fd5b8360fd60008973ffffffffffffffffffffffffffffffffffffffff1673ffffffffffffffffffffffffffffffffffffffff1681526020019081526020016000206000878152602001908152602001600020819055508560fc60008973ffffffffffffffffffffffffffffffffffffffff1673ffffffffffffffffffffffffffffffffffffffff168152602001908152602001600020600087815260200190815260200160002060006101000a81548173ffffffffffffffffffffffffffffffffffffffff021916908373ffffffffffffffffffffffffffffffffffffffff1602179055508673ffffffffffffffffffffffffffffffffffffffff168673ffffffffffffffffffffffffffffffffffffffff167fd547e933094f12a9159076970143ebe73234e64480317844b0dcb36117116de48787604051610d5d929190612cbb565b60405180910390a350505050505050565b610d766114ea565b610d8060006115c2565b565b60008060019054906101000a900460ff16159050808015610db35750600160008054906101000a900460ff1660ff16105b80610de05750610dc230611688565b158015610ddf5750600160008054906101000a900460ff1660ff16145b5b610e1f576040517f08c379a0000000000000000000000000000000000000000000000000000000008152600401610e1690612b25565b60405180910390fd5b60016000806101000a81548160ff021916908360ff1602179055508015610e5c576001600060016101000a81548160ff0219169083151502179055505b610e646116ab565b8160fe60006101000a81548161ffff021916908361ffff1602179055508360fe60026101000a81548173ffffffffffffffffffffffffffffffffffffffff021916908373ffffffffffffffffffffffffffffffffffffffff1602179055508260fb60006101000a81548173ffffffffffffffffffffffffffffffffffffffff021916908373ffffffffffffffffffffffffffffffffffffffff1602179055508015610f5c5760008060016101000a81548160ff0219169083151502179055507f7f26b83ff96e1f2b6a682f133852f6798a09c465da95921460cefb38474024986001604051610f5391906129e8565b60405180910390a15b50505050565b6000609760009054906101000a900473ffffffffffffffffffffffffffffffffffffffff16905090565b610f94611568565b8181600060fd60008473ffffffffffffffffffffffffffffffffffffffff1673ffffffffffffffffffffffffffffffffffffffff16815260200190815260200160002060008381526020019081526020016000205490506000811161102e576040517f08c379a000000000000000000000000000000000000000000000000000000000815260040161102590612a25565b60405180910390fd5b600060fd60008773ffffffffffffffffffffffffffffffffffffffff1673ffffffffffffffffffffffffffffffffffffffff168152602001908152602001600020600086815260200190815260200160002054905061108e868633611704565b5050505061109a6115b8565b5050565b6110a66114ea565b6110ae611568565b8281600060fd60008473ffffffffffffffffffffffffffffffffffffffff1673ffffffffffffffffffffffffffffffffffffffff168152602001908152602001600020600083815260200190815260200160002054905060008111611148576040517f08c379a000000000000000000000000000000000000000000000000000000000815260040161113f90612a25565b60405180910390fd5b611153868686611b30565b50505061115e6115b8565b505050565b61116b6114ea565b8060fe60006101000a81548161ffff021916908361ffff1602179055507fcabead39256298cdf7d1228eee68b47bc54a2192283d8d93574da08d2d7ac303816040516111b79190612c85565b60405180910390a150565b60fc6020528160005260406000206020528060005260406000206000915091509054906101000a900473ffffffffffffffffffffffffffffffffffffffff1681565b61120c6114ea565b600073ffffffffffffffffffffffffffffffffffffffff168173ffffffffffffffffffffffffffffffffffffffff16141561127c576040517f08c379a000000000000000000000000000000000000000000000000000000000815260040161127390612a45565b60405180910390fd5b611285816115c2565b50565b6112906114ea565b8060fe60026101000a81548173ffffffffffffffffffffffffffffffffffffffff021916908373ffffffffffffffffffffffffffffffffffffffff1602179055507fe57e7c1f36cc83fade34e32351e6eee7eb9da532662b1b5da10c631e8222aca7816040516113009190612937565b60405180910390a150565b60006113397f360894a13ba1a3210667c828492db98dca3e2076cc3735a920a3ca505d382bbc60001b611c61565b60000160009054906101000a900473ffffffffffffffffffffffffffffffffffffffff16905090565b61136a6114ea565b50565b6113997f4910fdfa16fed3260ed0e7147f7cc6da11a60208b5b9406d12a635614ffd914360001b611c6b565b60000160009054906101000a900460ff16156113bd576113b883611c75565b6114e5565b8273ffffffffffffffffffffffffffffffffffffffff166352d1902d6040518163ffffffff1660e01b815260040160206040518083038186803b15801561140357600080fd5b505afa92505050801561143457506040513d601f19601f820116820180604052508101906114319190612547565b60015b611473576040517f08c379a000000000000000000000000000000000000000000000000000000000815260040161146a90612b45565b60405180910390fd5b7f360894a13ba1a3210667c828492db98dca3e2076cc3735a920a3ca505d382bbc60001b81146114d8576040517f08c379a00000000000000000000000000000000000000000000000000000000081526004016114cf90612b05565b60405180910390fd5b506114e4838383611d2e565b5b505050565b6114f2611d5a565b73ffffffffffffffffffffffffffffffffffffffff16611510610f62565b73ffffffffffffffffffffffffffffffffffffffff1614611566576040517f08c379a000000000000000000000000000000000000000000000000000000000815260040161155d90612b85565b60405180910390fd5b565b600260c95414156115ae576040517f08c379a00000000000000000000000000000000000000000000000000000000081526004016115a590612c65565b60405180910390fd5b600260c981905550565b600160c981905550565b6000609760009054906101000a900473ffffffffffffffffffffffffffffffffffffffff16905081609760006101000a81548173ffffffffffffffffffffffffffffffffffffffff021916908373ffffffffffffffffffffffffffffffffffffffff1602179055508173ffffffffffffffffffffffffffffffffffffffff168173ffffffffffffffffffffffffffffffffffffffff167f8be0079c531659141344cd1fd0a4f28419497f9722a3daafe3b4186f6b6457e060405160405180910390a35050565b6000808273ffffffffffffffffffffffffffffffffffffffff163b119050919050565b600060019054906101000a900460ff166116fa576040517f08c379a00000000000000000000000000000000000000000000000000000000081526004016116f190612c25565b60405180910390fd5b611702611d62565b565b600060fd60008573ffffffffffffffffffffffffffffffffffffffff1673ffffffffffffffffffffffffffffffffffffffff168152602001908152602001600020600084815260200190815260200160002054905060006117966103e861178860fe60009054906101000a900461ffff1661ffff1685611dc390919063ffffffff16565b611dd990919063ffffffff16565b90506118106117a3611d5a565b60fe60029054906101000a900473ffffffffffffffffffffffffffffffffffffffff168460fb60009054906101000a900473ffffffffffffffffffffffffffffffffffffffff1673ffffffffffffffffffffffffffffffffffffffff16611def909392919063ffffffff16565b600060fc60008773ffffffffffffffffffffffffffffffffffffffff1673ffffffffffffffffffffffffffffffffffffffff168152602001908152602001600020600086815260200190815260200160002060009054906101000a900473ffffffffffffffffffffffffffffffffffffffff16905060fe60029054906101000a900473ffffffffffffffffffffffffffffffffffffffff1673ffffffffffffffffffffffffffffffffffffffff166301e3366760fb60009054906101000a900473ffffffffffffffffffffffffffffffffffffffff16836118fa8688611e7890919063ffffffff16565b6040518463ffffffff1660e01b81526004016119189392919061297b565b600060405180830381600087803b15801561193257600080fd5b505af1158015611946573d6000803e3d6000fd5b505050508573ffffffffffffffffffffffffffffffffffffffff166301ffc9a76380ac58cd60e01b6040518263ffffffff1660e01b815260040161198a91906129cd565b60206040518083038186803b1580156119a257600080fd5b505afa1580156119b6573d6000803e3d6000fd5b505050506040513d601f19601f820116820180604052508101906119da919061251e565b15611a56578573ffffffffffffffffffffffffffffffffffffffff166323b872dd611a03610f62565b86886040518463ffffffff1660e01b8152600401611a239392919061297b565b600060405180830381600087803b158015611a3d57600080fd5b505af1158015611a51573d6000803e3d6000fd5b505050505b8573ffffffffffffffffffffffffffffffffffffffff168473ffffffffffffffffffffffffffffffffffffffff168273ffffffffffffffffffffffffffffffffffffffff167fee0ddd6454e05c1b33a8dfcb6cc52418d28020e96e21228bb601f5dbb6790cd08887604051611acc929190612cbb565b60405180910390a460fd60008773ffffffffffffffffffffffffffffffffffffffff1673ffffffffffffffffffffffffffffffffffffffff168152602001908152602001600020600086815260200190815260200160002060009055505050505050565b60fd60008473ffffffffffffffffffffffffffffffffffffffff1673ffffffffffffffffffffffffffffffffffffffff16815260200190815260200160002060008281526020019081526020016000206000905560fc60008473ffffffffffffffffffffffffffffffffffffffff1673ffffffffffffffffffffffffffffffffffffffff168152602001908152602001600020600082815260200190815260200160002060006101000a81549073ffffffffffffffffffffffffffffffffffffffff02191690558273ffffffffffffffffffffffffffffffffffffffff168273ffffffffffffffffffffffffffffffffffffffff167f9ba1a3cb55ce8d63d072a886f94d2a744f50cddf82128e897d0661f5ec62315883604051611c549190612ca0565b60405180910390a3505050565b6000819050919050565b6000819050919050565b611c7e81611688565b611cbd576040517f08c379a0000000000000000000000000000000000000000000000000000000008152600401611cb490612b65565b60405180910390fd5b80611cea7f360894a13ba1a3210667c828492db98dca3e2076cc3735a920a3ca505d382bbc60001b611c61565b60000160006101000a81548173ffffffffffffffffffffffffffffffffffffffff021916908373ffffffffffffffffffffffffffffffffffffffff16021790555050565b611d3783611e8e565b600082511180611d445750805b15611d5557611d538383611edd565b505b505050565b600033905090565b600060019054906101000a900460ff16611db1576040517f08c379a0000000000000000000000000000000000000000000000000000000008152600401611da890612c25565b60405180910390fd5b611dc1611dbc611d5a565b6115c2565b565b60008183611dd19190612d9d565b905092915050565b60008183611de79190612d6c565b905092915050565b611e72846323b872dd60e01b858585604051602401611e109392919061297b565b604051602081830303815290604052907bffffffffffffffffffffffffffffffffffffffffffffffffffffffff19166020820180517bffffffffffffffffffffffffffffffffffffffffffffffffffffffff8381831617835250505050611fc1565b50505050565b60008183611e869190612df7565b905092915050565b611e9781611c75565b8073ffffffffffffffffffffffffffffffffffffffff167fbc7cd75a20ee27fd9adebab32041f755214dbc6bffa90cc0225b39da2e5c2d3b60405160405180910390a250565b6060611ee883611688565b611f27576040517f08c379a0000000000000000000000000000000000000000000000000000000008152600401611f1e90612be5565b60405180910390fd5b6000808473ffffffffffffffffffffffffffffffffffffffff1684604051611f4f9190612905565b600060405180830381855af49150503d8060008114611f8a576040519150601f19603f3d011682016040523d82523d6000602084013e611f8f565b606091505b5091509150611fb782826040518060600160405280602781526020016135c960279139612088565b9250505092915050565b6000612023826040518060400160405280602081526020017f5361666545524332303a206c6f772d6c6576656c2063616c6c206661696c65648152508573ffffffffffffffffffffffffffffffffffffffff166120aa9092919063ffffffff16565b90506000815111156120835780806020019051810190612043919061251e565b612082576040517f08c379a000000000000000000000000000000000000000000000000000000000815260040161207990612c45565b60405180910390fd5b5b505050565b60608315612098578290506120a3565b6120a283836120c2565b5b9392505050565b60606120b98484600085612112565b90509392505050565b6000825111156120d55781518083602001fd5b806040517f08c379a00000000000000000000000000000000000000000000000000000000081526004016121099190612a03565b60405180910390fd5b606082471015612157576040517f08c379a000000000000000000000000000000000000000000000000000000000815260040161214e90612aa5565b60405180910390fd5b6000808673ffffffffffffffffffffffffffffffffffffffff1685876040516121809190612905565b60006040518083038185875af1925050503d80600081146121bd576040519150601f19603f3d011682016040523d82523d6000602084013e6121c2565b606091505b50915091506121d3878383876121df565b92505050949350505050565b606083156122425760008351141561223a576121fa85611688565b612239576040517f08c379a000000000000000000000000000000000000000000000000000000000815260040161223090612c05565b60405180910390fd5b5b82905061224d565b61224c83836120c2565b5b949350505050565b600061226861226384612d09565b612ce4565b90508281526020810184848401111561228057600080fd5b61228b848285612ee8565b509392505050565b6000813590506122a28161353e565b92915050565b6000813590506122b781613555565b92915050565b6000815190506122cc8161356c565b92915050565b6000815190506122e181613583565b92915050565b600082601f8301126122f857600080fd5b8135612308848260208601612255565b91505092915050565b6000813590506123208161359a565b92915050565b600081359050612335816135b1565b92915050565b60006020828403121561234d57600080fd5b600061235b84828501612293565b91505092915050565b60006020828403121561237657600080fd5b6000612384848285016122a8565b91505092915050565b6000806000606084860312156123a257600080fd5b60006123b0868287016122a8565b93505060206123c186828701612293565b92505060406123d286828701612311565b9150509250925092565b6000806000606084860312156123f157600080fd5b60006123ff86828701612293565b935050602061241086828701612293565b925050604061242186828701612326565b9150509250925092565b6000806000806080858703121561244157600080fd5b600061244f87828801612293565b945050602061246087828801612293565b935050604061247187828801612326565b925050606061248287828801612326565b91505092959194509250565b600080604083850312156124a157600080fd5b60006124af85828601612293565b925050602083013567ffffffffffffffff8111156124cc57600080fd5b6124d8858286016122e7565b9150509250929050565b600080604083850312156124f557600080fd5b600061250385828601612293565b925050602061251485828601612326565b9150509250929050565b60006020828403121561253057600080fd5b600061253e848285016122bd565b91505092915050565b60006020828403121561255957600080fd5b6000612567848285016122d2565b91505092915050565b60006020828403121561258257600080fd5b600061259084828501612311565b91505092915050565b6125a281612e3d565b82525050565b6125b181612e2b565b82525050565b6125c081612e5b565b82525050565b6125cf81612e65565b82525050565b60006125e082612d3a565b6125ea8185612d50565b93506125fa818560208601612ef7565b80840191505092915050565b61260f81612ed6565b82525050565b600061262082612d45565b61262a8185612d5b565b935061263a818560208601612ef7565b61264381612fe8565b840191505092915050565b600061265b602283612d5b565b915061266682612ff9565b604082019050919050565b600061267e602683612d5b565b915061268982613048565b604082019050919050565b60006126a1602c83612d5b565b91506126ac82613097565b604082019050919050565b60006126c4602c83612d5b565b91506126cf826130e6565b604082019050919050565b60006126e7602683612d5b565b91506126f282613135565b604082019050919050565b600061270a603883612d5b565b915061271582613184565b604082019050919050565b600061272d602683612d5b565b9150612738826131d3565b604082019050919050565b6000612750602983612d5b565b915061275b82613222565b604082019050919050565b6000612773602e83612d5b565b915061277e82613271565b604082019050919050565b6000612796602e83612d5b565b91506127a1826132c0565b604082019050919050565b60006127b9602d83612d5b565b91506127c48261330f565b604082019050919050565b60006127dc602083612d5b565b91506127e78261335e565b602082019050919050565b60006127ff602183612d5b565b915061280a82613387565b604082019050919050565b6000612822601183612d5b565b915061282d826133d6565b602082019050919050565b6000612845602683612d5b565b9150612850826133ff565b604082019050919050565b6000612868601d83612d5b565b91506128738261344e565b602082019050919050565b600061288b602b83612d5b565b915061289682613477565b604082019050919050565b60006128ae602a83612d5b565b91506128b9826134c6565b604082019050919050565b60006128d1601f83612d5b565b91506128dc82613515565b602082019050919050565b6128f081612e91565b82525050565b6128ff81612ebf565b82525050565b600061291182846125d5565b915081905092915050565b600060208201905061293160008301846125a8565b92915050565b600060208201905061294c6000830184612599565b92915050565b600060408201905061296760008301856125a8565b61297460208301846125a8565b9392505050565b600060608201905061299060008301866125a8565b61299d60208301856125a8565b6129aa60408301846128f6565b949350505050565b60006020820190506129c760008301846125b7565b92915050565b60006020820190506129e260008301846125c6565b92915050565b60006020820190506129fd6000830184612606565b92915050565b60006020820190508181036000830152612a1d8184612615565b905092915050565b60006020820190508181036000830152612a3e8161264e565b9050919050565b60006020820190508181036000830152612a5e81612671565b9050919050565b60006020820190508181036000830152612a7e81612694565b9050919050565b60006020820190508181036000830152612a9e816126b7565b9050919050565b60006020820190508181036000830152612abe816126da565b9050919050565b60006020820190508181036000830152612ade816126fd565b9050919050565b60006020820190508181036000830152612afe81612720565b9050919050565b60006020820190508181036000830152612b1e81612743565b9050919050565b60006020820190508181036000830152612b3e81612766565b9050919050565b60006020820190508181036000830152612b5e81612789565b9050919050565b60006020820190508181036000830152612b7e816127ac565b9050919050565b60006020820190508181036000830152612b9e816127cf565b9050919050565b60006020820190508181036000830152612bbe816127f2565b9050919050565b60006020820190508181036000830152612bde81612815565b9050919050565b60006020820190508181036000830152612bfe81612838565b9050919050565b60006020820190508181036000830152612c1e8161285b565b9050919050565b60006020820190508181036000830152612c3e8161287e565b9050919050565b60006020820190508181036000830152612c5e816128a1565b9050919050565b60006020820190508181036000830152612c7e816128c4565b9050919050565b6000602082019050612c9a60008301846128e7565b92915050565b6000602082019050612cb560008301846128f6565b92915050565b6000604082019050612cd060008301856128f6565b612cdd60208301846128f6565b9392505050565b6000612cee612cff565b9050612cfa8282612f2a565b919050565b6000604051905090565b600067ffffffffffffffff821115612d2457612d23612fb9565b5b612d2d82612fe8565b9050602081019050919050565b600081519050919050565b600081519050919050565b600081905092915050565b600082825260208201905092915050565b6000612d7782612ebf565b9150612d8283612ebf565b925082612d9257612d91612f8a565b5b828204905092915050565b6000612da882612ebf565b9150612db383612ebf565b9250817fffffffffffffffffffffffffffffffffffffffffffffffffffffffffffffffff0483118215151615612dec57612deb612f5b565b5b828202905092915050565b6000612e0282612ebf565b9150612e0d83612ebf565b925082821015612e2057612e1f612f5b565b5b828203905092915050565b6000612e3682612e9f565b9050919050565b6000612e4882612e9f565b9050919050565b60008115159050919050565b6000819050919050565b60007fffffffff0000000000000000000000000000000000000000000000000000000082169050919050565b600061ffff82169050919050565b600073ffffffffffffffffffffffffffffffffffffffff82169050919050565b6000819050919050565b600060ff82169050919050565b6000612ee182612ec9565b9050919050565b82818337600083830152505050565b60005b83811015612f15578082015181840152602081019050612efa565b83811115612f24576000848401525b50505050565b612f3382612fe8565b810181811067ffffffffffffffff82111715612f5257612f51612fb9565b5b80604052505050565b7f4e487b7100000000000000000000000000000000000000000000000000000000600052601160045260246000fd5b7f4e487b7100000000000000000000000000000000000000000000000000000000600052601260045260246000fd5b7f4e487b7100000000000000000000000000000000000000000000000000000000600052604160045260246000fd5b6000601f19601f8301169050919050565b7f437265617468204d61726b6574706c6163653a6e6f74206c697374656420697460008201527f656d000000000000000000000000000000000000000000000000000000000000602082015250565b7f4f776e61626c653a206e6577206f776e657220697320746865207a65726f206160008201527f6464726573730000000000000000000000000000000000000000000000000000602082015250565b7f46756e6374696f6e206d7573742062652063616c6c6564207468726f7567682060008201527f64656c656761746563616c6c0000000000000000000000000000000000000000602082015250565b7f46756e6374696f6e206d7573742062652063616c6c6564207468726f7567682060008201527f6163746976652070726f78790000000000000000000000000000000000000000602082015250565b7f416464726573733a20696e73756666696369656e742062616c616e636520666f60008201527f722063616c6c0000000000000000000000000000000000000000000000000000602082015250565b7f555550535570677261646561626c653a206d757374206e6f742062652063616c60008201527f6c6564207468726f7567682064656c656761746563616c6c0000000000000000602082015250565b7f437265617468204d61726b6574706c6163653a696e76616c6964206e6674206160008201527f6464726573730000000000000000000000000000000000000000000000000000602082015250565b7f45524331393637557067726164653a20756e737570706f727465642070726f7860008201527f6961626c65555549440000000000000000000000000000000000000000000000602082015250565b7f496e697469616c697a61626c653a20636f6e747261637420697320616c72656160008201527f647920696e697469616c697a6564000000000000000000000000000000000000602082015250565b7f45524331393637557067726164653a206e657720696d706c656d656e7461746960008201527f6f6e206973206e6f742055555053000000000000000000000000000000000000602082015250565b7f455243313936373a206e657720696d706c656d656e746174696f6e206973206e60008201527f6f74206120636f6e747261637400000000000000000000000000000000000000602082015250565b7f4f776e61626c653a2063616c6c6572206973206e6f7420746865206f776e6572600082015250565b7f437265617468204d61726b6574706c6163653a616c7265616479206c6973746560008201527f6400000000000000000000000000000000000000000000000000000000000000602082015250565b7f6974656d206e6f7420617070726f766564000000000000000000000000000000600082015250565b7f416464726573733a2064656c65676174652063616c6c20746f206e6f6e2d636f60008201527f6e74726163740000000000000000000000000000000000000000000000000000602082015250565b7f416464726573733a2063616c6c20746f206e6f6e2d636f6e7472616374000000600082015250565b7f496e697469616c697a61626c653a20636f6e7472616374206973206e6f74206960008201527f6e697469616c697a696e67000000000000000000000000000000000000000000602082015250565b7f5361666545524332303a204552433230206f7065726174696f6e20646964206e60008201527f6f74207375636365656400000000000000000000000000000000000000000000602082015250565b7f5265656e7472616e637947756172643a207265656e7472616e742063616c6c00600082015250565b61354781612e2b565b811461355257600080fd5b50565b61355e81612e3d565b811461356957600080fd5b50565b61357581612e4f565b811461358057600080fd5b50565b61358c81612e5b565b811461359757600080fd5b50565b6135a381612e91565b81146135ae57600080fd5b50565b6135ba81612ebf565b81146135c557600080fd5b5056fe416464726573733a206c6f772d6c6576656c2064656c65676174652063616c6c206661696c6564a2646970667358221220d484f3102cb63174f437810d55bab6f41e8fadfd26c97ca10f8045bf90a6ce7764736f6c63430008040033",
  "linkReferences": {},
  "deployedLinkReferences": {}
}