{
  "_format": "hh-sol-artifact-1",
  "contractName": "CreathMarketplace",
  "sourceName": "contracts/CreathMarketplace.sol",
  "abi": [
    {
      "anonymous": false,
      "inputs": [
        {
          "indexed": false,
          "internalType": "address",
          "name": "previousAdmin",
          "type": "address"
        },
        {
          "indexed": false,
          "internalType": "address",
          "name": "newAdmin",
          "type": "address"
        }
      ],
      "name": "AdminChanged",
      "type": "event"
    },
    {
      "anonymous": false,
      "inputs": [
        {
          "indexed": true,
          "internalType": "address",
          "name": "beacon",
          "type": "address"
        }
      ],
      "name": "BeaconUpgraded",
      "type": "event"
    },
    {
      "anonymous": false,
      "inputs": [
        {
          "indexed": false,
          "internalType": "uint8",
          "name": "version",
          "type": "uint8"
        }
      ],
      "name": "Initialized",
      "type": "event"
    },
    {
      "anonymous": false,
      "inputs": [
        {
          "indexed": true,
          "internalType": "address",
          "name": "owner",
          "type": "address"
        },
        {
          "indexed": true,
          "internalType": "address",
          "name": "nft",
          "type": "address"
        },
        {
          "indexed": false,
          "internalType": "uint256",
          "name": "tokenId",
          "type": "uint256"
        }
      ],
      "name": "ItemCanceled",
      "type": "event"
    },
    {
      "anonymous": false,
      "inputs": [
        {
          "indexed": true,
          "internalType": "address",
          "name": "owner",
          "type": "address"
        },
        {
          "indexed": true,
          "internalType": "address",
          "name": "nft",
          "type": "address"
        },
        {
          "indexed": false,
          "internalType": "uint256",
          "name": "tokenId",
          "type": "uint256"
        },
        {
          "indexed": false,
          "internalType": "uint256",
          "name": "price",
          "type": "uint256"
        }
      ],
      "name": "ItemListed",
      "type": "event"
    },
    {
      "anonymous": false,
      "inputs": [
        {
          "indexed": true,
          "internalType": "address",
          "name": "seller",
          "type": "address"
        },
        {
          "indexed": true,
          "internalType": "address",
          "name": "buyer",
          "type": "address"
        },
        {
          "indexed": true,
          "internalType": "address",
          "name": "nft",
          "type": "address"
        },
        {
          "indexed": false,
          "internalType": "uint256",
          "name": "tokenId",
          "type": "uint256"
        },
        {
          "indexed": false,
          "internalType": "uint256",
          "name": "price",
          "type": "uint256"
        }
      ],
      "name": "ItemSold",
      "type": "event"
    },
    {
      "anonymous": false,
      "inputs": [
        {
          "indexed": true,
          "internalType": "address",
          "name": "owner",
          "type": "address"
        },
        {
          "indexed": true,
          "internalType": "address",
          "name": "nft",
          "type": "address"
        },
        {
          "indexed": false,
          "internalType": "uint256",
          "name": "tokenId",
          "type": "uint256"
        },
        {
          "indexed": false,
          "internalType": "uint256",
          "name": "newPrice",
          "type": "uint256"
        }
      ],
      "name": "ItemUpdated",
      "type": "event"
    },
    {
      "anonymous": false,
      "inputs": [
        {
          "indexed": true,
          "internalType": "address",
          "name": "previousOwner",
          "type": "address"
        },
        {
          "indexed": true,
          "internalType": "address",
          "name": "newOwner",
          "type": "address"
        }
      ],
      "name": "OwnershipTransferred",
      "type": "event"
    },
    {
      "anonymous": false,
      "inputs": [
        {
          "indexed": false,
          "internalType": "uint16",
          "name": "platformFee",
          "type": "uint16"
        }
      ],
      "name": "UpdatePlatformFee",
      "type": "event"
    },
    {
      "anonymous": false,
      "inputs": [
        {
          "indexed": false,
          "internalType": "address payable",
          "name": "platformFeeRecipient",
          "type": "address"
        }
      ],
      "name": "UpdatePlatformFeeRecipient",
      "type": "event"
    },
    {
      "anonymous": false,
      "inputs": [
        {
          "indexed": true,
          "internalType": "address",
          "name": "implementation",
          "type": "address"
        }
      ],
      "name": "Upgraded",
      "type": "event"
    },
    {
      "inputs": [
        {
          "internalType": "address",
          "name": "",
          "type": "address"
        },
        {
          "internalType": "uint256",
          "name": "",
          "type": "uint256"
        }
      ],
      "name": "artists",
      "outputs": [
        {
          "internalType": "address",
          "name": "",
          "type": "address"
        }
      ],
      "stateMutability": "view",
      "type": "function"
    },
    {
      "inputs": [
        {
          "internalType": "address",
          "name": "_nftAddress",
          "type": "address"
        },
        {
          "internalType": "uint256",
          "name": "_tokenId",
          "type": "uint256"
        }
      ],
      "name": "buyItem",
      "outputs": [],
      "stateMutability": "nonpayable",
      "type": "function"
    },
    {
      "inputs": [
        {
          "internalType": "address",
          "name": "_nftAddress",
          "type": "address"
        },
        {
          "internalType": "address",
          "name": "_artist",
          "type": "address"
        },
        {
          "internalType": "uint256",
          "name": "_tokenId",
          "type": "uint256"
        }
      ],
      "name": "cancelListing",
      "outputs": [],
      "stateMutability": "nonpayable",
      "type": "function"
    },
    {
      "inputs": [],
      "name": "feeReceipient",
      "outputs": [
        {
          "internalType": "address payable",
          "name": "",
          "type": "address"
        }
      ],
      "stateMutability": "view",
      "type": "function"
    },
    {
      "inputs": [
        {
          "internalType": "address",
          "name": "_user",
          "type": "address"
        }
      ],
      "name": "getCollectorData",
      "outputs": [
        {
          "internalType": "uint256[]",
          "name": "",
          "type": "uint256[]"
        }
      ],
      "stateMutability": "view",
      "type": "function"
    },
    {
      "inputs": [
        {
          "internalType": "address payable",
          "name": "_feeRecipient",
          "type": "address"
        },
        {
          "internalType": "address",
          "name": "_token",
          "type": "address"
        },
        {
          "internalType": "uint16",
          "name": "_platformFee",
          "type": "uint16"
        }
      ],
      "name": "initialize",
      "outputs": [],
      "stateMutability": "nonpayable",
      "type": "function"
    },
    {
      "inputs": [
        {
          "internalType": "address",
          "name": "_nftAddress",
          "type": "address"
        },
        {
          "internalType": "address",
          "name": "_artist",
          "type": "address"
        },
        {
          "internalType": "uint256",
          "name": "_tokenId",
          "type": "uint256"
        },
        {
          "internalType": "uint256",
          "name": "_price",
          "type": "uint256"
        }
      ],
      "name": "listItem",
      "outputs": [],
      "stateMutability": "nonpayable",
      "type": "function"
    },
    {
      "inputs": [
        {
          "internalType": "address",
          "name": "",
          "type": "address"
        },
        {
          "internalType": "uint256",
          "name": "",
          "type": "uint256"
        }
      ],
      "name": "listings",
      "outputs": [
        {
          "internalType": "uint256",
          "name": "",
          "type": "uint256"
        }
      ],
      "stateMutability": "view",
      "type": "function"
    },
    {
      "inputs": [],
      "name": "owner",
      "outputs": [
        {
          "internalType": "address",
          "name": "",
          "type": "address"
        }
      ],
      "stateMutability": "view",
      "type": "function"
    },
    {
      "inputs": [],
      "name": "platformFee",
      "outputs": [
        {
          "internalType": "uint16",
          "name": "",
          "type": "uint16"
        }
      ],
      "stateMutability": "view",
      "type": "function"
    },
    {
      "inputs": [],
      "name": "proxiableUUID",
      "outputs": [
        {
          "internalType": "bytes32",
          "name": "",
          "type": "bytes32"
        }
      ],
      "stateMutability": "view",
      "type": "function"
    },
    {
      "inputs": [],
      "name": "renounceOwnership",
      "outputs": [],
      "stateMutability": "nonpayable",
      "type": "function"
    },
    {
      "inputs": [
        {
          "internalType": "address",
          "name": "newOwner",
          "type": "address"
        }
      ],
      "name": "transferOwnership",
      "outputs": [],
      "stateMutability": "nonpayable",
      "type": "function"
    },
    {
      "inputs": [
        {
          "internalType": "address",
          "name": "_nftAddress",
          "type": "address"
        },
        {
          "internalType": "address",
          "name": "_artist",
          "type": "address"
        },
        {
          "internalType": "uint256",
          "name": "_tokenId",
          "type": "uint256"
        },
        {
          "internalType": "uint256",
          "name": "_newPrice",
          "type": "uint256"
        }
      ],
      "name": "updateListing",
      "outputs": [],
      "stateMutability": "nonpayable",
      "type": "function"
    },
    {
      "inputs": [
        {
          "internalType": "address",
          "name": "newPaymentToken",
          "type": "address"
        }
      ],
      "name": "updatePaymentToken",
      "outputs": [],
      "stateMutability": "nonpayable",
      "type": "function"
    },
    {
      "inputs": [
        {
          "internalType": "uint16",
          "name": "_platformFee",
          "type": "uint16"
        }
      ],
      "name": "updatePlatformFee",
      "outputs": [],
      "stateMutability": "nonpayable",
      "type": "function"
    },
    {
      "inputs": [
        {
          "internalType": "address payable",
          "name": "_platformFeeRecipient",
          "type": "address"
        }
      ],
      "name": "updatePlatformFeeRecipient",
      "outputs": [],
      "stateMutability": "nonpayable",
      "type": "function"
    },
    {
      "inputs": [
        {
          "internalType": "address",
          "name": "newImplementation",
          "type": "address"
        }
      ],
      "name": "upgradeTo",
      "outputs": [],
      "stateMutability": "nonpayable",
      "type": "function"
    },
    {
      "inputs": [
        {
          "internalType": "address",
          "name": "newImplementation",
          "type": "address"
        },
        {
          "internalType": "bytes",
          "name": "data",
          "type": "bytes"
        }
      ],
      "name": "upgradeToAndCall",
      "outputs": [],
      "stateMutability": "payable",
      "type": "function"
    }
  ],
  "bytecode": "0x60a06040523073ffffffffffffffffffffffffffffffffffffffff1660809073ffffffffffffffffffffffffffffffffffffffff1660601b81525034801561004657600080fd5b5060805160601c6137f46100816000396000818161051a015281816105a9015281816108b60152818161094501526109f501526137f46000f3fe6080604052600436106101135760003560e01c806356f57f98116100a0578063af89e58511610064578063af89e58514610367578063afb0695214610390578063b95d3ee6146103b9578063f2fde38b146103f6578063f5fe7f711461041f57610113565b806356f57f98146102aa578063715018a6146102d35780637ebef529146102ea5780638da5cb5b146103135780639f37092a1461033e57610113565b80633740ebb3116100e75780633740ebb3146101e65780633abf3632146102115780634ccf1b341461023a5780634f1ef2861461026357806352d1902d1461027f57610113565b806207df301461011857806326232a2e14610155578063310a35b7146101805780633659cfe6146101bd575b600080fd5b34801561012457600080fd5b5061013f600480360381019061013a91906125d1565b610448565b60405161014c9190612e36565b60405180910390f35b34801561016157600080fd5b5061016a61046d565b6040516101779190612e1b565b60405180910390f35b34801561018c57600080fd5b506101a760048036038101906101a2919061242a565b610481565b6040516101b49190612b26565b60405180910390f35b3480156101c957600080fd5b506101e460048036038101906101df919061242a565b610518565b005b3480156101f257600080fd5b506101fb6106c7565b6040516102089190612aab565b60405180910390f35b34801561021d57600080fd5b506102386004803603810190610233919061251a565b6106ed565b005b34801561024657600080fd5b50610261600480360381019061025c919061242a565b610868565b005b61027d6004803603810190610278919061257d565b6108b4565b005b34801561028b57600080fd5b506102946109f1565b6040516102a19190612b48565b60405180910390f35b3480156102b657600080fd5b506102d160048036038101906102cc919061251a565b610aaa565b005b3480156102df57600080fd5b506102e8610e4d565b005b3480156102f657600080fd5b50610311600480360381019061030c919061247c565b610e61565b005b34801561031f57600080fd5b50610328611041565b6040516103359190612a90565b60405180910390f35b34801561034a57600080fd5b50610365600480360381019061036091906125d1565b61106b565b005b34801561037357600080fd5b5061038e600480360381019061038991906124cb565b611127565b005b34801561039c57600080fd5b506103b760048036038101906103b2919061265f565b6111ec565b005b3480156103c557600080fd5b506103e060048036038101906103db91906125d1565b61124b565b6040516103ed9190612a90565b60405180910390f35b34801561040257600080fd5b5061041d6004803603810190610418919061242a565b61128d565b005b34801561042b57600080fd5b5061044660048036038101906104419190612453565b611311565b005b60fd602052816000526040600020602052806000526040600020600091509150505481565b60fe60009054906101000a900461ffff1681565b606060ff60008373ffffffffffffffffffffffffffffffffffffffff1673ffffffffffffffffffffffffffffffffffffffff16815260200190815260200160002080548060200260200160405190810160405280929190818152602001828054801561050c57602002820191906000526020600020905b8154815260200190600101908083116104f8575b50505050509050919050565b7f000000000000000000000000000000000000000000000000000000000000000073ffffffffffffffffffffffffffffffffffffffff163073ffffffffffffffffffffffffffffffffffffffff1614156105a7576040517f08c379a000000000000000000000000000000000000000000000000000000000815260040161059e90612bfb565b60405180910390fd5b7f000000000000000000000000000000000000000000000000000000000000000073ffffffffffffffffffffffffffffffffffffffff166105e6611394565b73ffffffffffffffffffffffffffffffffffffffff161461063c576040517f08c379a000000000000000000000000000000000000000000000000000000000815260040161063390612c1b565b60405180910390fd5b610645816113eb565b6106c481600067ffffffffffffffff81111561068a577f4e487b7100000000000000000000000000000000000000000000000000000000600052604160045260246000fd5b6040519080825280601f01601f1916602001820160405280156106bc5781602001600182028036833780820191505090505b5060006113f6565b50565b60fe60029054906101000a900473ffffffffffffffffffffffffffffffffffffffff1681565b6106f5611573565b6106fd6115f1565b8382600060fd60008473ffffffffffffffffffffffffffffffffffffffff1673ffffffffffffffffffffffffffffffffffffffff168152602001908152602001600020600083815260200190815260200160002054905060008111610797576040517f08c379a000000000000000000000000000000000000000000000000000000000815260040161078e90612bbb565b60405180910390fd5b600060fd60008973ffffffffffffffffffffffffffffffffffffffff1673ffffffffffffffffffffffffffffffffffffffff16815260200190815260200160002060008781526020019081526020016000205490508490508773ffffffffffffffffffffffffffffffffffffffff168773ffffffffffffffffffffffffffffffffffffffff167f3c33e65e8698294810b631d476d60b44425303828da0b1f8b635231bfda12be2888860405161084e929190612e51565b60405180910390a350505050610862611641565b50505050565b610870611573565b8060fb60006101000a81548173ffffffffffffffffffffffffffffffffffffffff021916908373ffffffffffffffffffffffffffffffffffffffff16021790555050565b7f000000000000000000000000000000000000000000000000000000000000000073ffffffffffffffffffffffffffffffffffffffff163073ffffffffffffffffffffffffffffffffffffffff161415610943576040517f08c379a000000000000000000000000000000000000000000000000000000000815260040161093a90612bfb565b60405180910390fd5b7f000000000000000000000000000000000000000000000000000000000000000073ffffffffffffffffffffffffffffffffffffffff16610982611394565b73ffffffffffffffffffffffffffffffffffffffff16146109d8576040517f08c379a00000000000000000000000000000000000000000000000000000000081526004016109cf90612c1b565b60405180910390fd5b6109e1826113eb565b6109ed828260016113f6565b5050565b60007f000000000000000000000000000000000000000000000000000000000000000073ffffffffffffffffffffffffffffffffffffffff163073ffffffffffffffffffffffffffffffffffffffff1614610a81576040517f08c379a0000000000000000000000000000000000000000000000000000000008152600401610a7890612c5b565b60405180910390fd5b7f360894a13ba1a3210667c828492db98dca3e2076cc3735a920a3ca505d382bbc60001b905090565b610ab2611573565b8382600060fd60008473ffffffffffffffffffffffffffffffffffffffff1673ffffffffffffffffffffffffffffffffffffffff16815260200190815260200160002060008381526020019081526020016000205490506000811115610b4d576040517f08c379a0000000000000000000000000000000000000000000000000000000008152600401610b4490612d3b565b60405180910390fd5b8673ffffffffffffffffffffffffffffffffffffffff166301ffc9a76380ac58cd60e01b6040518263ffffffff1660e01b8152600401610b8d9190612b63565b60206040518083038186803b158015610ba557600080fd5b505afa158015610bb9573d6000803e3d6000fd5b505050506040513d601f19601f82011682018060405250810190610bdd919061260d565b15610cbe5760008790508073ffffffffffffffffffffffffffffffffffffffff1663e985e9c5610c0b611041565b306040518363ffffffff1660e01b8152600401610c29929190612ac6565b60206040518083038186803b158015610c4157600080fd5b505afa158015610c55573d6000803e3d6000fd5b505050506040513d601f19601f82011682018060405250810190610c79919061260d565b610cb8576040517f08c379a0000000000000000000000000000000000000000000000000000000008152600401610caf90612d5b565b60405180910390fd5b50610cf9565b6040517f08c379a0000000000000000000000000000000000000000000000000000000008152600401610cf090612c7b565b60405180910390fd5b8360fd60008973ffffffffffffffffffffffffffffffffffffffff1673ffffffffffffffffffffffffffffffffffffffff1681526020019081526020016000206000878152602001908152602001600020819055508560fc60008973ffffffffffffffffffffffffffffffffffffffff1673ffffffffffffffffffffffffffffffffffffffff168152602001908152602001600020600087815260200190815260200160002060006101000a81548173ffffffffffffffffffffffffffffffffffffffff021916908373ffffffffffffffffffffffffffffffffffffffff1602179055508673ffffffffffffffffffffffffffffffffffffffff168673ffffffffffffffffffffffffffffffffffffffff167fd547e933094f12a9159076970143ebe73234e64480317844b0dcb36117116de48787604051610e3c929190612e51565b60405180910390a350505050505050565b610e55611573565b610e5f600061164b565b565b60008060019054906101000a900460ff16159050808015610e925750600160008054906101000a900460ff1660ff16105b80610ebf5750610ea130611711565b158015610ebe5750600160008054906101000a900460ff1660ff16145b5b610efe576040517f08c379a0000000000000000000000000000000000000000000000000000000008152600401610ef590612cbb565b60405180910390fd5b60016000806101000a81548160ff021916908360ff1602179055508015610f3b576001600060016101000a81548160ff0219169083151502179055505b610f43611734565b8160fe60006101000a81548161ffff021916908361ffff1602179055508360fe60026101000a81548173ffffffffffffffffffffffffffffffffffffffff021916908373ffffffffffffffffffffffffffffffffffffffff1602179055508260fb60006101000a81548173ffffffffffffffffffffffffffffffffffffffff021916908373ffffffffffffffffffffffffffffffffffffffff160217905550801561103b5760008060016101000a81548160ff0219169083151502179055507f7f26b83ff96e1f2b6a682f133852f6798a09c465da95921460cefb384740249860016040516110329190612b7e565b60405180910390a15b50505050565b6000609760009054906101000a900473ffffffffffffffffffffffffffffffffffffffff16905090565b6110736115f1565b8181600060fd60008473ffffffffffffffffffffffffffffffffffffffff1673ffffffffffffffffffffffffffffffffffffffff16815260200190815260200160002060008381526020019081526020016000205490506000811161110d576040517f08c379a000000000000000000000000000000000000000000000000000000000815260040161110490612bbb565b60405180910390fd5b61111885853361178d565b505050611123611641565b5050565b61112f611573565b6111376115f1565b8281600060fd60008473ffffffffffffffffffffffffffffffffffffffff1673ffffffffffffffffffffffffffffffffffffffff1681526020019081526020016000206000838152602001908152602001600020549050600081116111d1576040517f08c379a00000000000000000000000000000000000000000000000000000000081526004016111c890612bbb565b60405180910390fd5b6111dc868686611c1f565b5050506111e7611641565b505050565b6111f4611573565b8060fe60006101000a81548161ffff021916908361ffff1602179055507fcabead39256298cdf7d1228eee68b47bc54a2192283d8d93574da08d2d7ac303816040516112409190612e1b565b60405180910390a150565b60fc6020528160005260406000206020528060005260406000206000915091509054906101000a900473ffffffffffffffffffffffffffffffffffffffff1681565b611295611573565b600073ffffffffffffffffffffffffffffffffffffffff168173ffffffffffffffffffffffffffffffffffffffff161415611305576040517f08c379a00000000000000000000000000000000000000000000000000000000081526004016112fc90612bdb565b60405180910390fd5b61130e8161164b565b50565b611319611573565b8060fe60026101000a81548173ffffffffffffffffffffffffffffffffffffffff021916908373ffffffffffffffffffffffffffffffffffffffff1602179055507fe57e7c1f36cc83fade34e32351e6eee7eb9da532662b1b5da10c631e8222aca7816040516113899190612aab565b60405180910390a150565b60006113c27f360894a13ba1a3210667c828492db98dca3e2076cc3735a920a3ca505d382bbc60001b611d50565b60000160009054906101000a900473ffffffffffffffffffffffffffffffffffffffff16905090565b6113f3611573565b50565b6114227f4910fdfa16fed3260ed0e7147f7cc6da11a60208b5b9406d12a635614ffd914360001b611d5a565b60000160009054906101000a900460ff16156114465761144183611d64565b61156e565b8273ffffffffffffffffffffffffffffffffffffffff166352d1902d6040518163ffffffff1660e01b815260040160206040518083038186803b15801561148c57600080fd5b505afa9250505080156114bd57506040513d601f19601f820116820180604052508101906114ba9190612636565b60015b6114fc576040517f08c379a00000000000000000000000000000000000000000000000000000000081526004016114f390612cdb565b60405180910390fd5b7f360894a13ba1a3210667c828492db98dca3e2076cc3735a920a3ca505d382bbc60001b8114611561576040517f08c379a000000000000000000000000000000000000000000000000000000000815260040161155890612c9b565b60405180910390fd5b5061156d838383611e1d565b5b505050565b61157b611e49565b73ffffffffffffffffffffffffffffffffffffffff16611599611041565b73ffffffffffffffffffffffffffffffffffffffff16146115ef576040517f08c379a00000000000000000000000000000000000000000000000000000000081526004016115e690612d1b565b60405180910390fd5b565b600260c9541415611637576040517f08c379a000000000000000000000000000000000000000000000000000000000815260040161162e90612dfb565b60405180910390fd5b600260c981905550565b600160c981905550565b6000609760009054906101000a900473ffffffffffffffffffffffffffffffffffffffff16905081609760006101000a81548173ffffffffffffffffffffffffffffffffffffffff021916908373ffffffffffffffffffffffffffffffffffffffff1602179055508173ffffffffffffffffffffffffffffffffffffffff168173ffffffffffffffffffffffffffffffffffffffff167f8be0079c531659141344cd1fd0a4f28419497f9722a3daafe3b4186f6b6457e060405160405180910390a35050565b6000808273ffffffffffffffffffffffffffffffffffffffff163b119050919050565b600060019054906101000a900460ff16611783576040517f08c379a000000000000000000000000000000000000000000000000000000000815260040161177a90612dbb565b60405180910390fd5b61178b611e51565b565b600060fd60008573ffffffffffffffffffffffffffffffffffffffff1673ffffffffffffffffffffffffffffffffffffffff1681526020019081526020016000206000848152602001908152602001600020549050600061181f6103e861181160fe60009054906101000a900461ffff1661ffff1685611eb290919063ffffffff16565b611ec890919063ffffffff16565b905061189961182c611e49565b60fe60029054906101000a900473ffffffffffffffffffffffffffffffffffffffff168460fb60009054906101000a900473ffffffffffffffffffffffffffffffffffffffff1673ffffffffffffffffffffffffffffffffffffffff16611ede909392919063ffffffff16565b600060fc60008773ffffffffffffffffffffffffffffffffffffffff1673ffffffffffffffffffffffffffffffffffffffff168152602001908152602001600020600086815260200190815260200160002060009054906101000a900473ffffffffffffffffffffffffffffffffffffffff16905060ff60008573ffffffffffffffffffffffffffffffffffffffff1673ffffffffffffffffffffffffffffffffffffffff16815260200190815260200160002085908060018154018082558091505060019003906000526020600020016000909190919091505560fe60029054906101000a900473ffffffffffffffffffffffffffffffffffffffff1673ffffffffffffffffffffffffffffffffffffffff166301e3366760fb60009054906101000a900473ffffffffffffffffffffffffffffffffffffffff16836119e98688611f6790919063ffffffff16565b6040518463ffffffff1660e01b8152600401611a0793929190612aef565b600060405180830381600087803b158015611a2157600080fd5b505af1158015611a35573d6000803e3d6000fd5b505050508573ffffffffffffffffffffffffffffffffffffffff166301ffc9a76380ac58cd60e01b6040518263ffffffff1660e01b8152600401611a799190612b63565b60206040518083038186803b158015611a9157600080fd5b505afa158015611aa5573d6000803e3d6000fd5b505050506040513d601f19601f82011682018060405250810190611ac9919061260d565b15611b45578573ffffffffffffffffffffffffffffffffffffffff166323b872dd611af2611041565b86886040518463ffffffff1660e01b8152600401611b1293929190612aef565b600060405180830381600087803b158015611b2c57600080fd5b505af1158015611b40573d6000803e3d6000fd5b505050505b8573ffffffffffffffffffffffffffffffffffffffff168473ffffffffffffffffffffffffffffffffffffffff168273ffffffffffffffffffffffffffffffffffffffff167fee0ddd6454e05c1b33a8dfcb6cc52418d28020e96e21228bb601f5dbb6790cd08887604051611bbb929190612e51565b60405180910390a460fd60008773ffffffffffffffffffffffffffffffffffffffff1673ffffffffffffffffffffffffffffffffffffffff168152602001908152602001600020600086815260200190815260200160002060009055505050505050565b60fd60008473ffffffffffffffffffffffffffffffffffffffff1673ffffffffffffffffffffffffffffffffffffffff16815260200190815260200160002060008281526020019081526020016000206000905560fc60008473ffffffffffffffffffffffffffffffffffffffff1673ffffffffffffffffffffffffffffffffffffffff168152602001908152602001600020600082815260200190815260200160002060006101000a81549073ffffffffffffffffffffffffffffffffffffffff02191690558273ffffffffffffffffffffffffffffffffffffffff168273ffffffffffffffffffffffffffffffffffffffff167f9ba1a3cb55ce8d63d072a886f94d2a744f50cddf82128e897d0661f5ec62315883604051611d439190612e36565b60405180910390a3505050565b6000819050919050565b6000819050919050565b611d6d81611711565b611dac576040517f08c379a0000000000000000000000000000000000000000000000000000000008152600401611da390612cfb565b60405180910390fd5b80611dd97f360894a13ba1a3210667c828492db98dca3e2076cc3735a920a3ca505d382bbc60001b611d50565b60000160006101000a81548173ffffffffffffffffffffffffffffffffffffffff021916908373ffffffffffffffffffffffffffffffffffffffff16021790555050565b611e2683611f7d565b600082511180611e335750805b15611e4457611e428383611fcc565b505b505050565b600033905090565b600060019054906101000a900460ff16611ea0576040517f08c379a0000000000000000000000000000000000000000000000000000000008152600401611e9790612dbb565b60405180910390fd5b611eb0611eab611e49565b61164b565b565b60008183611ec09190612f6c565b905092915050565b60008183611ed69190612f3b565b905092915050565b611f61846323b872dd60e01b858585604051602401611eff93929190612aef565b604051602081830303815290604052907bffffffffffffffffffffffffffffffffffffffffffffffffffffffff19166020820180517bffffffffffffffffffffffffffffffffffffffffffffffffffffffff83818316178352505050506120b0565b50505050565b60008183611f759190612fc6565b905092915050565b611f8681611d64565b8073ffffffffffffffffffffffffffffffffffffffff167fbc7cd75a20ee27fd9adebab32041f755214dbc6bffa90cc0225b39da2e5c2d3b60405160405180910390a250565b6060611fd783611711565b612016576040517f08c379a000000000000000000000000000000000000000000000000000000000815260040161200d90612d7b565b60405180910390fd5b6000808473ffffffffffffffffffffffffffffffffffffffff168460405161203e9190612a79565b600060405180830381855af49150503d8060008114612079576040519150601f19603f3d011682016040523d82523d6000602084013e61207e565b606091505b50915091506120a6828260405180606001604052806027815260200161379860279139612177565b9250505092915050565b6000612112826040518060400160405280602081526020017f5361666545524332303a206c6f772d6c6576656c2063616c6c206661696c65648152508573ffffffffffffffffffffffffffffffffffffffff166121999092919063ffffffff16565b90506000815111156121725780806020019051810190612132919061260d565b612171576040517f08c379a000000000000000000000000000000000000000000000000000000000815260040161216890612ddb565b60405180910390fd5b5b505050565b6060831561218757829050612192565b61219183836121b1565b5b9392505050565b60606121a88484600085612201565b90509392505050565b6000825111156121c45781518083602001fd5b806040517f08c379a00000000000000000000000000000000000000000000000000000000081526004016121f89190612b99565b60405180910390fd5b606082471015612246576040517f08c379a000000000000000000000000000000000000000000000000000000000815260040161223d90612c3b565b60405180910390fd5b6000808673ffffffffffffffffffffffffffffffffffffffff16858760405161226f9190612a79565b60006040518083038185875af1925050503d80600081146122ac576040519150601f19603f3d011682016040523d82523d6000602084013e6122b1565b606091505b50915091506122c2878383876122ce565b92505050949350505050565b6060831561233157600083511415612329576122e985611711565b612328576040517f08c379a000000000000000000000000000000000000000000000000000000000815260040161231f90612d9b565b60405180910390fd5b5b82905061233c565b61233b83836121b1565b5b949350505050565b600061235761235284612e9f565b612e7a565b90508281526020810184848401111561236f57600080fd5b61237a8482856130b7565b509392505050565b6000813590506123918161370d565b92915050565b6000813590506123a681613724565b92915050565b6000815190506123bb8161373b565b92915050565b6000815190506123d081613752565b92915050565b600082601f8301126123e757600080fd5b81356123f7848260208601612344565b91505092915050565b60008135905061240f81613769565b92915050565b60008135905061242481613780565b92915050565b60006020828403121561243c57600080fd5b600061244a84828501612382565b91505092915050565b60006020828403121561246557600080fd5b600061247384828501612397565b91505092915050565b60008060006060848603121561249157600080fd5b600061249f86828701612397565b93505060206124b086828701612382565b92505060406124c186828701612400565b9150509250925092565b6000806000606084860312156124e057600080fd5b60006124ee86828701612382565b93505060206124ff86828701612382565b925050604061251086828701612415565b9150509250925092565b6000806000806080858703121561253057600080fd5b600061253e87828801612382565b945050602061254f87828801612382565b935050604061256087828801612415565b925050606061257187828801612415565b91505092959194509250565b6000806040838503121561259057600080fd5b600061259e85828601612382565b925050602083013567ffffffffffffffff8111156125bb57600080fd5b6125c7858286016123d6565b9150509250929050565b600080604083850312156125e457600080fd5b60006125f285828601612382565b925050602061260385828601612415565b9150509250929050565b60006020828403121561261f57600080fd5b600061262d848285016123ac565b91505092915050565b60006020828403121561264857600080fd5b6000612656848285016123c1565b91505092915050565b60006020828403121561267157600080fd5b600061267f84828501612400565b91505092915050565b60006126948383612a5b565b60208301905092915050565b6126a98161300c565b82525050565b6126b881612ffa565b82525050565b60006126c982612ee0565b6126d38185612f0e565b93506126de83612ed0565b8060005b8381101561270f5781516126f68882612688565b975061270183612f01565b9250506001810190506126e2565b5085935050505092915050565b6127258161302a565b82525050565b61273481613034565b82525050565b600061274582612eeb565b61274f8185612f1f565b935061275f8185602086016130c6565b80840191505092915050565b612774816130a5565b82525050565b600061278582612ef6565b61278f8185612f2a565b935061279f8185602086016130c6565b6127a8816131b7565b840191505092915050565b60006127c0602283612f2a565b91506127cb826131c8565b604082019050919050565b60006127e3602683612f2a565b91506127ee82613217565b604082019050919050565b6000612806602c83612f2a565b915061281182613266565b604082019050919050565b6000612829602c83612f2a565b9150612834826132b5565b604082019050919050565b600061284c602683612f2a565b915061285782613304565b604082019050919050565b600061286f603883612f2a565b915061287a82613353565b604082019050919050565b6000612892602683612f2a565b915061289d826133a2565b604082019050919050565b60006128b5602983612f2a565b91506128c0826133f1565b604082019050919050565b60006128d8602e83612f2a565b91506128e382613440565b604082019050919050565b60006128fb602e83612f2a565b91506129068261348f565b604082019050919050565b600061291e602d83612f2a565b9150612929826134de565b604082019050919050565b6000612941602083612f2a565b915061294c8261352d565b602082019050919050565b6000612964602183612f2a565b915061296f82613556565b604082019050919050565b6000612987601183612f2a565b9150612992826135a5565b602082019050919050565b60006129aa602683612f2a565b91506129b5826135ce565b604082019050919050565b60006129cd601d83612f2a565b91506129d88261361d565b602082019050919050565b60006129f0602b83612f2a565b91506129fb82613646565b604082019050919050565b6000612a13602a83612f2a565b9150612a1e82613695565b604082019050919050565b6000612a36601f83612f2a565b9150612a41826136e4565b602082019050919050565b612a5581613060565b82525050565b612a648161308e565b82525050565b612a738161308e565b82525050565b6000612a85828461273a565b915081905092915050565b6000602082019050612aa560008301846126af565b92915050565b6000602082019050612ac060008301846126a0565b92915050565b6000604082019050612adb60008301856126af565b612ae860208301846126af565b9392505050565b6000606082019050612b0460008301866126af565b612b1160208301856126af565b612b1e6040830184612a6a565b949350505050565b60006020820190508181036000830152612b4081846126be565b905092915050565b6000602082019050612b5d600083018461271c565b92915050565b6000602082019050612b78600083018461272b565b92915050565b6000602082019050612b93600083018461276b565b92915050565b60006020820190508181036000830152612bb3818461277a565b905092915050565b60006020820190508181036000830152612bd4816127b3565b9050919050565b60006020820190508181036000830152612bf4816127d6565b9050919050565b60006020820190508181036000830152612c14816127f9565b9050919050565b60006020820190508181036000830152612c348161281c565b9050919050565b60006020820190508181036000830152612c548161283f565b9050919050565b60006020820190508181036000830152612c7481612862565b9050919050565b60006020820190508181036000830152612c9481612885565b9050919050565b60006020820190508181036000830152612cb4816128a8565b9050919050565b60006020820190508181036000830152612cd4816128cb565b9050919050565b60006020820190508181036000830152612cf4816128ee565b9050919050565b60006020820190508181036000830152612d1481612911565b9050919050565b60006020820190508181036000830152612d3481612934565b9050919050565b60006020820190508181036000830152612d5481612957565b9050919050565b60006020820190508181036000830152612d748161297a565b9050919050565b60006020820190508181036000830152612d948161299d565b9050919050565b60006020820190508181036000830152612db4816129c0565b9050919050565b60006020820190508181036000830152612dd4816129e3565b9050919050565b60006020820190508181036000830152612df481612a06565b9050919050565b60006020820190508181036000830152612e1481612a29565b9050919050565b6000602082019050612e306000830184612a4c565b92915050565b6000602082019050612e4b6000830184612a6a565b92915050565b6000604082019050612e666000830185612a6a565b612e736020830184612a6a565b9392505050565b6000612e84612e95565b9050612e9082826130f9565b919050565b6000604051905090565b600067ffffffffffffffff821115612eba57612eb9613188565b5b612ec3826131b7565b9050602081019050919050565b6000819050602082019050919050565b600081519050919050565b600081519050919050565b600081519050919050565b6000602082019050919050565b600082825260208201905092915050565b600081905092915050565b600082825260208201905092915050565b6000612f468261308e565b9150612f518361308e565b925082612f6157612f60613159565b5b828204905092915050565b6000612f778261308e565b9150612f828361308e565b9250817fffffffffffffffffffffffffffffffffffffffffffffffffffffffffffffffff0483118215151615612fbb57612fba61312a565b5b828202905092915050565b6000612fd18261308e565b9150612fdc8361308e565b925082821015612fef57612fee61312a565b5b828203905092915050565b60006130058261306e565b9050919050565b60006130178261306e565b9050919050565b60008115159050919050565b6000819050919050565b60007fffffffff0000000000000000000000000000000000000000000000000000000082169050919050565b600061ffff82169050919050565b600073ffffffffffffffffffffffffffffffffffffffff82169050919050565b6000819050919050565b600060ff82169050919050565b60006130b082613098565b9050919050565b82818337600083830152505050565b60005b838110156130e45780820151818401526020810190506130c9565b838111156130f3576000848401525b50505050565b613102826131b7565b810181811067ffffffffffffffff8211171561312157613120613188565b5b80604052505050565b7f4e487b7100000000000000000000000000000000000000000000000000000000600052601160045260246000fd5b7f4e487b7100000000000000000000000000000000000000000000000000000000600052601260045260246000fd5b7f4e487b7100000000000000000000000000000000000000000000000000000000600052604160045260246000fd5b6000601f19601f8301169050919050565b7f437265617468204d61726b6574706c6163653a6e6f74206c697374656420697460008201527f656d000000000000000000000000000000000000000000000000000000000000602082015250565b7f4f776e61626c653a206e6577206f776e657220697320746865207a65726f206160008201527f6464726573730000000000000000000000000000000000000000000000000000602082015250565b7f46756e6374696f6e206d7573742062652063616c6c6564207468726f7567682060008201527f64656c656761746563616c6c0000000000000000000000000000000000000000602082015250565b7f46756e6374696f6e206d7573742062652063616c6c6564207468726f7567682060008201527f6163746976652070726f78790000000000000000000000000000000000000000602082015250565b7f416464726573733a20696e73756666696369656e742062616c616e636520666f60008201527f722063616c6c0000000000000000000000000000000000000000000000000000602082015250565b7f555550535570677261646561626c653a206d757374206e6f742062652063616c60008201527f6c6564207468726f7567682064656c656761746563616c6c0000000000000000602082015250565b7f437265617468204d61726b6574706c6163653a696e76616c6964206e6674206160008201527f6464726573730000000000000000000000000000000000000000000000000000602082015250565b7f45524331393637557067726164653a20756e737570706f727465642070726f7860008201527f6961626c65555549440000000000000000000000000000000000000000000000602082015250565b7f496e697469616c697a61626c653a20636f6e747261637420697320616c72656160008201527f647920696e697469616c697a6564000000000000000000000000000000000000602082015250565b7f45524331393637557067726164653a206e657720696d706c656d656e7461746960008201527f6f6e206973206e6f742055555053000000000000000000000000000000000000602082015250565b7f455243313936373a206e657720696d706c656d656e746174696f6e206973206e60008201527f6f74206120636f6e747261637400000000000000000000000000000000000000602082015250565b7f4f776e61626c653a2063616c6c6572206973206e6f7420746865206f776e6572600082015250565b7f437265617468204d61726b6574706c6163653a616c7265616479206c6973746560008201527f6400000000000000000000000000000000000000000000000000000000000000602082015250565b7f6974656d206e6f7420617070726f766564000000000000000000000000000000600082015250565b7f416464726573733a2064656c65676174652063616c6c20746f206e6f6e2d636f60008201527f6e74726163740000000000000000000000000000000000000000000000000000602082015250565b7f416464726573733a2063616c6c20746f206e6f6e2d636f6e7472616374000000600082015250565b7f496e697469616c697a61626c653a20636f6e7472616374206973206e6f74206960008201527f6e697469616c697a696e67000000000000000000000000000000000000000000602082015250565b7f5361666545524332303a204552433230206f7065726174696f6e20646964206e60008201527f6f74207375636365656400000000000000000000000000000000000000000000602082015250565b7f5265656e7472616e637947756172643a207265656e7472616e742063616c6c00600082015250565b61371681612ffa565b811461372157600080fd5b50565b61372d8161300c565b811461373857600080fd5b50565b6137448161301e565b811461374f57600080fd5b50565b61375b8161302a565b811461376657600080fd5b50565b61377281613060565b811461377d57600080fd5b50565b6137898161308e565b811461379457600080fd5b5056fe416464726573733a206c6f772d6c6576656c2064656c65676174652063616c6c206661696c6564a26469706673582212209d0990b0e5caecd7b0a78bb56182540eec00863412aa016b3dae70825066a39164736f6c63430008040033",
  "linkReferences": {},
  "deployedLinkReferences": {}
}