{
  "_format": "hh-sol-artifact-1",
  "contractName": "CreathMarketplace",
  "sourceName": "contracts/CreathMarketplace.sol",
  "abi": [
    {
      "anonymous": false,
      "inputs": [
        {
          "indexed": false,
          "internalType": "address",
          "name": "previousAdmin",
          "type": "address"
        },
        {
          "indexed": false,
          "internalType": "address",
          "name": "newAdmin",
          "type": "address"
        }
      ],
      "name": "AdminChanged",
      "type": "event"
    },
    {
      "anonymous": false,
      "inputs": [
        {
          "indexed": true,
          "internalType": "address",
          "name": "beacon",
          "type": "address"
        }
      ],
      "name": "BeaconUpgraded",
      "type": "event"
    },
    {
      "anonymous": false,
      "inputs": [
        {
          "indexed": false,
          "internalType": "uint8",
          "name": "version",
          "type": "uint8"
        }
      ],
      "name": "Initialized",
      "type": "event"
    },
    {
      "anonymous": false,
      "inputs": [
        {
          "indexed": true,
          "internalType": "address",
          "name": "owner",
          "type": "address"
        },
        {
          "indexed": true,
          "internalType": "address",
          "name": "nft",
          "type": "address"
        },
        {
          "indexed": false,
          "internalType": "uint256",
          "name": "tokenId",
          "type": "uint256"
        }
      ],
      "name": "ItemCanceled",
      "type": "event"
    },
    {
      "anonymous": false,
      "inputs": [
        {
          "indexed": true,
          "internalType": "address",
          "name": "owner",
          "type": "address"
        },
        {
          "indexed": true,
          "internalType": "address",
          "name": "nft",
          "type": "address"
        },
        {
          "indexed": false,
          "internalType": "uint256",
          "name": "tokenId",
          "type": "uint256"
        },
        {
          "indexed": false,
          "internalType": "address",
          "name": "payToken",
          "type": "address"
        },
        {
          "indexed": false,
          "internalType": "uint256",
          "name": "price",
          "type": "uint256"
        },
        {
          "indexed": false,
          "internalType": "uint256",
          "name": "startingTime",
          "type": "uint256"
        }
      ],
      "name": "ItemListed",
      "type": "event"
    },
    {
      "anonymous": false,
      "inputs": [
        {
          "indexed": true,
          "internalType": "address",
          "name": "seller",
          "type": "address"
        },
        {
          "indexed": true,
          "internalType": "address",
          "name": "buyer",
          "type": "address"
        },
        {
          "indexed": true,
          "internalType": "address",
          "name": "nft",
          "type": "address"
        },
        {
          "indexed": false,
          "internalType": "uint256",
          "name": "tokenId",
          "type": "uint256"
        },
        {
          "indexed": false,
          "internalType": "address",
          "name": "payToken",
          "type": "address"
        },
        {
          "indexed": false,
          "internalType": "uint256",
          "name": "price",
          "type": "uint256"
        }
      ],
      "name": "ItemSold",
      "type": "event"
    },
    {
      "anonymous": false,
      "inputs": [
        {
          "indexed": true,
          "internalType": "address",
          "name": "owner",
          "type": "address"
        },
        {
          "indexed": true,
          "internalType": "address",
          "name": "nft",
          "type": "address"
        },
        {
          "indexed": false,
          "internalType": "uint256",
          "name": "tokenId",
          "type": "uint256"
        },
        {
          "indexed": false,
          "internalType": "address",
          "name": "payToken",
          "type": "address"
        },
        {
          "indexed": false,
          "internalType": "uint256",
          "name": "newPrice",
          "type": "uint256"
        }
      ],
      "name": "ItemUpdated",
      "type": "event"
    },
    {
      "anonymous": false,
      "inputs": [
        {
          "indexed": true,
          "internalType": "address",
          "name": "previousOwner",
          "type": "address"
        },
        {
          "indexed": true,
          "internalType": "address",
          "name": "newOwner",
          "type": "address"
        }
      ],
      "name": "OwnershipTransferred",
      "type": "event"
    },
    {
      "anonymous": false,
      "inputs": [
        {
          "indexed": false,
          "internalType": "uint16",
          "name": "platformFee",
          "type": "uint16"
        }
      ],
      "name": "UpdatePlatformFee",
      "type": "event"
    },
    {
      "anonymous": false,
      "inputs": [
        {
          "indexed": false,
          "internalType": "address payable",
          "name": "platformFeeRecipient",
          "type": "address"
        }
      ],
      "name": "UpdatePlatformFeeRecipient",
      "type": "event"
    },
    {
      "anonymous": false,
      "inputs": [
        {
          "indexed": true,
          "internalType": "address",
          "name": "implementation",
          "type": "address"
        }
      ],
      "name": "Upgraded",
      "type": "event"
    },
    {
      "inputs": [],
      "name": "addressRegistry",
      "outputs": [
        {
          "internalType": "contract ICreathAddressRegistry",
          "name": "",
          "type": "address"
        }
      ],
      "stateMutability": "view",
      "type": "function"
    },
    {
      "inputs": [
        {
          "internalType": "address",
          "name": "",
          "type": "address"
        },
        {
          "internalType": "uint256",
          "name": "",
          "type": "uint256"
        }
      ],
      "name": "artists",
      "outputs": [
        {
          "internalType": "address",
          "name": "",
          "type": "address"
        }
      ],
      "stateMutability": "view",
      "type": "function"
    },
    {
      "inputs": [
        {
          "internalType": "address",
          "name": "_nftAddress",
          "type": "address"
        },
        {
          "internalType": "uint256",
          "name": "_tokenId",
          "type": "uint256"
        },
        {
          "internalType": "address",
          "name": "_payToken",
          "type": "address"
        },
        {
          "internalType": "address",
          "name": "_owner",
          "type": "address"
        }
      ],
      "name": "buyItem",
      "outputs": [],
      "stateMutability": "nonpayable",
      "type": "function"
    },
    {
      "inputs": [
        {
          "internalType": "address",
          "name": "_nftAddress",
          "type": "address"
        },
        {
          "internalType": "uint256",
          "name": "_tokenId",
          "type": "uint256"
        }
      ],
      "name": "cancelListing",
      "outputs": [],
      "stateMutability": "nonpayable",
      "type": "function"
    },
    {
      "inputs": [
        {
          "internalType": "address",
          "name": "",
          "type": "address"
        }
      ],
      "name": "collectionRoyalties",
      "outputs": [
        {
          "internalType": "uint16",
          "name": "royalty",
          "type": "uint16"
        },
        {
          "internalType": "address",
          "name": "creator",
          "type": "address"
        },
        {
          "internalType": "address",
          "name": "feeRecipient",
          "type": "address"
        }
      ],
      "stateMutability": "view",
      "type": "function"
    },
    {
      "inputs": [],
      "name": "feeReceipient",
      "outputs": [
        {
          "internalType": "address payable",
          "name": "",
          "type": "address"
        }
      ],
      "stateMutability": "view",
      "type": "function"
    },
    {
      "inputs": [
        {
          "internalType": "address payable",
          "name": "_feeRecipient",
          "type": "address"
        },
        {
          "internalType": "uint16",
          "name": "_platformFee",
          "type": "uint16"
        }
      ],
      "name": "initialize",
      "outputs": [],
      "stateMutability": "nonpayable",
      "type": "function"
    },
    {
      "inputs": [
        {
          "internalType": "address",
          "name": "_nftAddress",
          "type": "address"
        },
        {
          "internalType": "uint256",
          "name": "_tokenId",
          "type": "uint256"
        },
        {
          "internalType": "address",
          "name": "_payToken",
          "type": "address"
        },
        {
          "internalType": "uint256",
          "name": "_price",
          "type": "uint256"
        },
        {
          "internalType": "uint256",
          "name": "_startingTime",
          "type": "uint256"
        }
      ],
      "name": "listItem",
      "outputs": [],
      "stateMutability": "nonpayable",
      "type": "function"
    },
    {
      "inputs": [
        {
          "internalType": "address",
          "name": "",
          "type": "address"
        },
        {
          "internalType": "uint256",
          "name": "",
          "type": "uint256"
        },
        {
          "internalType": "address",
          "name": "",
          "type": "address"
        }
      ],
      "name": "listings",
      "outputs": [
        {
          "internalType": "address",
          "name": "payToken",
          "type": "address"
        },
        {
          "internalType": "uint256",
          "name": "price",
          "type": "uint256"
        },
        {
          "internalType": "uint256",
          "name": "startingTime",
          "type": "uint256"
        }
      ],
      "stateMutability": "view",
      "type": "function"
    },
    {
      "inputs": [],
      "name": "owner",
      "outputs": [
        {
          "internalType": "address",
          "name": "",
          "type": "address"
        }
      ],
      "stateMutability": "view",
      "type": "function"
    },
    {
      "inputs": [],
      "name": "platformFee",
      "outputs": [
        {
          "internalType": "uint16",
          "name": "",
          "type": "uint16"
        }
      ],
      "stateMutability": "view",
      "type": "function"
    },
    {
      "inputs": [],
      "name": "proxiableUUID",
      "outputs": [
        {
          "internalType": "bytes32",
          "name": "",
          "type": "bytes32"
        }
      ],
      "stateMutability": "view",
      "type": "function"
    },
    {
      "inputs": [
        {
          "internalType": "address",
          "name": "_nftAddress",
          "type": "address"
        },
        {
          "internalType": "address",
          "name": "_creator",
          "type": "address"
        },
        {
          "internalType": "uint16",
          "name": "_royalty",
          "type": "uint16"
        },
        {
          "internalType": "address",
          "name": "_feeRecipient",
          "type": "address"
        }
      ],
      "name": "registerCollectionRoyalty",
      "outputs": [],
      "stateMutability": "nonpayable",
      "type": "function"
    },
    {
      "inputs": [],
      "name": "renounceOwnership",
      "outputs": [],
      "stateMutability": "nonpayable",
      "type": "function"
    },
    {
      "inputs": [
        {
          "internalType": "address",
          "name": "",
          "type": "address"
        },
        {
          "internalType": "uint256",
          "name": "",
          "type": "uint256"
        }
      ],
      "name": "royalties",
      "outputs": [
        {
          "internalType": "uint16",
          "name": "",
          "type": "uint16"
        }
      ],
      "stateMutability": "view",
      "type": "function"
    },
    {
      "inputs": [
        {
          "internalType": "address",
          "name": "newOwner",
          "type": "address"
        }
      ],
      "name": "transferOwnership",
      "outputs": [],
      "stateMutability": "nonpayable",
      "type": "function"
    },
    {
      "inputs": [
        {
          "internalType": "address",
          "name": "_registry",
          "type": "address"
        }
      ],
      "name": "updateAddressRegistry",
      "outputs": [],
      "stateMutability": "nonpayable",
      "type": "function"
    },
    {
      "inputs": [
        {
          "internalType": "address",
          "name": "_nftAddress",
          "type": "address"
        },
        {
          "internalType": "uint256",
          "name": "_tokenId",
          "type": "uint256"
        },
        {
          "internalType": "address",
          "name": "_payToken",
          "type": "address"
        },
        {
          "internalType": "uint256",
          "name": "_newPrice",
          "type": "uint256"
        }
      ],
      "name": "updateListing",
      "outputs": [],
      "stateMutability": "nonpayable",
      "type": "function"
    },
    {
      "inputs": [
        {
          "internalType": "uint16",
          "name": "_platformFee",
          "type": "uint16"
        }
      ],
      "name": "updatePlatformFee",
      "outputs": [],
      "stateMutability": "nonpayable",
      "type": "function"
    },
    {
      "inputs": [
        {
          "internalType": "address payable",
          "name": "_platformFeeRecipient",
          "type": "address"
        }
      ],
      "name": "updatePlatformFeeRecipient",
      "outputs": [],
      "stateMutability": "nonpayable",
      "type": "function"
    },
    {
      "inputs": [
        {
          "internalType": "address",
          "name": "newImplementation",
          "type": "address"
        }
      ],
      "name": "upgradeTo",
      "outputs": [],
      "stateMutability": "nonpayable",
      "type": "function"
    },
    {
      "inputs": [
        {
          "internalType": "address",
          "name": "newImplementation",
          "type": "address"
        },
        {
          "internalType": "bytes",
          "name": "data",
          "type": "bytes"
        }
      ],
      "name": "upgradeToAndCall",
      "outputs": [],
      "stateMutability": "payable",
      "type": "function"
    }
  ],
  "bytecode": "0x60a06040523073ffffffffffffffffffffffffffffffffffffffff1660809073ffffffffffffffffffffffffffffffffffffffff1660601b81525034801561004657600080fd5b5060805160601c6153ef61008160003960008181610515015281816105a4015281816106ea01528181610779015261082901526153ef6000f3fe6080604052600436106101355760003560e01c80638da5cb5b116100ab578063e1e549c41161006f578063e1e549c4146103f3578063e984f2eb14610430578063f2fde38b14610459578063f39e69a414610482578063f3ad65f4146104ab578063f5fe7f71146104d657610135565b80638da5cb5b14610310578063afb069521461033b578063b2ddee0614610364578063b95d3ee61461038d578063c1661a9a146103ca57610135565b806357b275b4116100fd57806357b275b41461020057806368e79e891461023f5780636bd3a64b146102685780636cf50d26146102a7578063715018a6146102d057806385f9d345146102e757610135565b806326232a2e1461013a5780633659cfe6146101655780633740ebb31461018e5780634f1ef286146101b957806352d1902d146101d5575b600080fd5b34801561014657600080fd5b5061014f6104ff565b60405161015c919061474b565b60405180910390f35b34801561017157600080fd5b5061018c60048036038101906101879190613abb565b610513565b005b34801561019a57600080fd5b506101a36106c2565b6040516101b091906142eb565b60405180910390f35b6101d360048036038101906101ce9190613bd5565b6106e8565b005b3480156101e157600080fd5b506101ea610825565b6040516101f7919061439d565b60405180910390f35b34801561020c57600080fd5b5061022760048036038101906102229190613abb565b6108de565b60405161023693929190614766565b60405180910390f35b34801561024b57600080fd5b5061026660048036038101906102619190613abb565b610956565b005b34801561027457600080fd5b5061028f600480360381019061028a9190613c65565b6109a3565b60405161029e93929190614366565b60405180910390f35b3480156102b357600080fd5b506102ce60048036038101906102c99190613d7a565b610a07565b005b3480156102dc57600080fd5b506102e5610fb1565b005b3480156102f357600080fd5b5061030e60048036038101906103099190613cb4565b610fc5565b005b34801561031c57600080fd5b5061032561141a565b60405161033291906142d0565b60405180910390f35b34801561034757600080fd5b50610362600480360381019061035d9190613e43565b611444565b005b34801561037057600080fd5b5061038b60048036038101906103869190613c29565b6114a3565b005b34801561039957600080fd5b506103b460048036038101906103af9190613c29565b611624565b6040516103c191906142d0565b60405180910390f35b3480156103d657600080fd5b506103f160048036038101906103ec9190613b72565b611666565b005b3480156103ff57600080fd5b5061041a60048036038101906104159190613c29565b611ab9565b604051610427919061474b565b60405180910390f35b34801561043c57600080fd5b5061045760048036038101906104529190613d17565b611ae9565b005b34801561046557600080fd5b50610480600480360381019061047b9190613abb565b611dca565b005b34801561048e57600080fd5b506104a960048036038101906104a49190613b36565b611e4e565b005b3480156104b757600080fd5b506104c0611fec565b6040516104cd91906143d3565b60405180910390f35b3480156104e257600080fd5b506104fd60048036038101906104f89190613b0d565b612013565b005b60fe60009054906101000a900461ffff1681565b7f000000000000000000000000000000000000000000000000000000000000000073ffffffffffffffffffffffffffffffffffffffff163073ffffffffffffffffffffffffffffffffffffffff1614156105a2576040517f08c379a0000000000000000000000000000000000000000000000000000000008152600401610599906144cb565b60405180910390fd5b7f000000000000000000000000000000000000000000000000000000000000000073ffffffffffffffffffffffffffffffffffffffff166105e1612096565b73ffffffffffffffffffffffffffffffffffffffff1614610637576040517f08c379a000000000000000000000000000000000000000000000000000000000815260040161062e906144eb565b60405180910390fd5b610640816120ed565b6106bf81600067ffffffffffffffff811115610685577f4e487b7100000000000000000000000000000000000000000000000000000000600052604160045260246000fd5b6040519080825280601f01601f1916602001820160405280156106b75781602001600182028036833780820191505090505b5060006120f8565b50565b60fe60029054906101000a900473ffffffffffffffffffffffffffffffffffffffff1681565b7f000000000000000000000000000000000000000000000000000000000000000073ffffffffffffffffffffffffffffffffffffffff163073ffffffffffffffffffffffffffffffffffffffff161415610777576040517f08c379a000000000000000000000000000000000000000000000000000000000815260040161076e906144cb565b60405180910390fd5b7f000000000000000000000000000000000000000000000000000000000000000073ffffffffffffffffffffffffffffffffffffffff166107b6612096565b73ffffffffffffffffffffffffffffffffffffffff161461080c576040517f08c379a0000000000000000000000000000000000000000000000000000000008152600401610803906144eb565b60405180910390fd5b610815826120ed565b610821828260016120f8565b5050565b60007f000000000000000000000000000000000000000000000000000000000000000073ffffffffffffffffffffffffffffffffffffffff163073ffffffffffffffffffffffffffffffffffffffff16146108b5576040517f08c379a00000000000000000000000000000000000000000000000000000000081526004016108ac9061452b565b60405180910390fd5b7f360894a13ba1a3210667c828492db98dca3e2076cc3735a920a3ca505d382bbc60001b905090565b60ff6020528060005260406000206000915090508060000160009054906101000a900461ffff16908060000160029054906101000a900473ffffffffffffffffffffffffffffffffffffffff16908060010160009054906101000a900473ffffffffffffffffffffffffffffffffffffffff16905083565b61095e612275565b8061010060006101000a81548173ffffffffffffffffffffffffffffffffffffffff021916908373ffffffffffffffffffffffffffffffffffffffff16021790555050565b60fd60205282600052604060002060205281600052604060002060205280600052604060002060009250925050508060000160009054906101000a900473ffffffffffffffffffffffffffffffffffffffff16908060010154908060020154905083565b8484610a116122f3565b600060fd60008573ffffffffffffffffffffffffffffffffffffffff1673ffffffffffffffffffffffffffffffffffffffff168152602001908152602001600020600084815260200190815260200160002060008373ffffffffffffffffffffffffffffffffffffffff1673ffffffffffffffffffffffffffffffffffffffff1681526020019081526020016000206040518060600160405290816000820160009054906101000a900473ffffffffffffffffffffffffffffffffffffffff1673ffffffffffffffffffffffffffffffffffffffff1673ffffffffffffffffffffffffffffffffffffffff168152602001600182015481526020016002820154815250509050600081602001511115610b5f576040517f08c379a0000000000000000000000000000000000000000000000000000000008152600401610b569061462b565b60405180910390fd5b8873ffffffffffffffffffffffffffffffffffffffff166301ffc9a76380ac58cd60e01b6040518263ffffffff1660e01b8152600401610b9f91906143b8565b60206040518083038186803b158015610bb757600080fd5b505afa158015610bcb573d6000803e3d6000fd5b505050506040513d601f19601f82011682018060405250810190610bef9190613df1565b15610dcd576000899050610c016122f3565b73ffffffffffffffffffffffffffffffffffffffff168173ffffffffffffffffffffffffffffffffffffffff16636352211e8b6040518263ffffffff1660e01b8152600401610c50919061479d565b60206040518083038186803b158015610c6857600080fd5b505afa158015610c7c573d6000803e3d6000fd5b505050506040513d601f19601f82011682018060405250810190610ca09190613ae4565b73ffffffffffffffffffffffffffffffffffffffff1614610cf6576040517f08c379a0000000000000000000000000000000000000000000000000000000008152600401610ced9061454b565b60405180910390fd5b8073ffffffffffffffffffffffffffffffffffffffff1663e985e9c5610d1a6122f3565b306040518363ffffffff1660e01b8152600401610d38929190614306565b60206040518083038186803b158015610d5057600080fd5b505afa158015610d64573d6000803e3d6000fd5b505050506040513d601f19601f82011682018060405250810190610d889190613df1565b610dc7576040517f08c379a0000000000000000000000000000000000000000000000000000000008152600401610dbe9061466b565b60405180910390fd5b50610e08565b6040517f08c379a0000000000000000000000000000000000000000000000000000000008152600401610dff9061456b565b60405180910390fd5b610e11876122fb565b60405180606001604052808873ffffffffffffffffffffffffffffffffffffffff1681526020018781526020018681525060fd60008b73ffffffffffffffffffffffffffffffffffffffff1673ffffffffffffffffffffffffffffffffffffffff16815260200190815260200160002060008a81526020019081526020016000206000610e9c6122f3565b73ffffffffffffffffffffffffffffffffffffffff1673ffffffffffffffffffffffffffffffffffffffff16815260200190815260200160002060008201518160000160006101000a81548173ffffffffffffffffffffffffffffffffffffffff021916908373ffffffffffffffffffffffffffffffffffffffff16021790555060208201518160010155604082015181600201559050508873ffffffffffffffffffffffffffffffffffffffff16610f536122f3565b73ffffffffffffffffffffffffffffffffffffffff167f58012d8c2a075d47027a45c8f3f3f4a82c0d1d008fe3a6473a1f80497061a7278a8a8a8a604051610f9e94939291906147ef565b60405180910390a3505050505050505050565b610fb9612275565b610fc36000612576565b565b610fcd61263c565b838382600060fd60008573ffffffffffffffffffffffffffffffffffffffff1673ffffffffffffffffffffffffffffffffffffffff168152602001908152602001600020600084815260200190815260200160002060008373ffffffffffffffffffffffffffffffffffffffff1673ffffffffffffffffffffffffffffffffffffffff1681526020019081526020016000206040518060600160405290816000820160009054906101000a900473ffffffffffffffffffffffffffffffffffffffff1673ffffffffffffffffffffffffffffffffffffffff1673ffffffffffffffffffffffffffffffffffffffff168152602001600182015481526020016002820154815250509050600081602001511161111d576040517f08c379a00000000000000000000000000000000000000000000000000000000081526004016111149061444b565b60405180910390fd5b878786600060fd60008573ffffffffffffffffffffffffffffffffffffffff1673ffffffffffffffffffffffffffffffffffffffff168152602001908152602001600020600084815260200190815260200160002060008373ffffffffffffffffffffffffffffffffffffffff1673ffffffffffffffffffffffffffffffffffffffff1681526020019081526020016000206040518060600160405290816000820160009054906101000a900473ffffffffffffffffffffffffffffffffffffffff1673ffffffffffffffffffffffffffffffffffffffff1673ffffffffffffffffffffffffffffffffffffffff16815260200160018201548152602001600282015481525050905061123184848461268c565b806040015161123e612862565b101561127f576040517f08c379a00000000000000000000000000000000000000000000000000000000081526004016112769061468b565b60405180910390fd5b600060fd60008e73ffffffffffffffffffffffffffffffffffffffff1673ffffffffffffffffffffffffffffffffffffffff16815260200190815260200160002060008d815260200190815260200160002060008b73ffffffffffffffffffffffffffffffffffffffff1673ffffffffffffffffffffffffffffffffffffffff1681526020019081526020016000206040518060600160405290816000820160009054906101000a900473ffffffffffffffffffffffffffffffffffffffff1673ffffffffffffffffffffffffffffffffffffffff1673ffffffffffffffffffffffffffffffffffffffff1681526020016001820154815260200160028201548152505090508a73ffffffffffffffffffffffffffffffffffffffff16816000015173ffffffffffffffffffffffffffffffffffffffff16146113f7576040517f08c379a00000000000000000000000000000000000000000000000000000000081526004016113ee9061442b565b60405180910390fd5b6114038d8d8d8d61286a565b505050505050505050611414612ff4565b50505050565b6000609760009054906101000a900473ffffffffffffffffffffffffffffffffffffffff16905090565b61144c612275565b8060fe60006101000a81548161ffff021916908361ffff1602179055507fcabead39256298cdf7d1228eee68b47bc54a2192283d8d93574da08d2d7ac30381604051611498919061474b565b60405180910390a150565b6114ab61263c565b81816114b56122f3565b600060fd60008573ffffffffffffffffffffffffffffffffffffffff1673ffffffffffffffffffffffffffffffffffffffff168152602001908152602001600020600084815260200190815260200160002060008373ffffffffffffffffffffffffffffffffffffffff1673ffffffffffffffffffffffffffffffffffffffff1681526020019081526020016000206040518060600160405290816000820160009054906101000a900473ffffffffffffffffffffffffffffffffffffffff1673ffffffffffffffffffffffffffffffffffffffff1673ffffffffffffffffffffffffffffffffffffffff1681526020016001820154815260200160028201548152505090506000816020015111611602576040517f08c379a00000000000000000000000000000000000000000000000000000000081526004016115f99061444b565b60405180910390fd5b611614868661160f6122f3565b612ffe565b50505050611620612ff4565b5050565b60fb6020528160005260406000206020528060005260406000206000915091509054906101000a900473ffffffffffffffffffffffffffffffffffffffff1681565b61166e612275565b600073ffffffffffffffffffffffffffffffffffffffff168373ffffffffffffffffffffffffffffffffffffffff1614156116de576040517f08c379a00000000000000000000000000000000000000000000000000000000081526004016116d59061472b565b60405180910390fd5b6127108261ffff161115611727576040517f08c379a000000000000000000000000000000000000000000000000000000000815260040161171e906144ab565b60405180910390fd5b60008261ffff1614806117675750600073ffffffffffffffffffffffffffffffffffffffff168173ffffffffffffffffffffffffffffffffffffffff1614155b6117a6576040517f08c379a000000000000000000000000000000000000000000000000000000000815260040161179d9061448b565b60405180910390fd5b6117af8461313a565b156117ef576040517f08c379a00000000000000000000000000000000000000000000000000000000081526004016117e69061456b565b60405180910390fd5b600073ffffffffffffffffffffffffffffffffffffffff1660ff60008673ffffffffffffffffffffffffffffffffffffffff1673ffffffffffffffffffffffffffffffffffffffff16815260200190815260200160002060000160029054906101000a900473ffffffffffffffffffffffffffffffffffffffff1673ffffffffffffffffffffffffffffffffffffffff1614156119c95760405180606001604052808361ffff1681526020018473ffffffffffffffffffffffffffffffffffffffff1681526020018273ffffffffffffffffffffffffffffffffffffffff1681525060ff60008673ffffffffffffffffffffffffffffffffffffffff1673ffffffffffffffffffffffffffffffffffffffff16815260200190815260200160002060008201518160000160006101000a81548161ffff021916908361ffff16021790555060208201518160000160026101000a81548173ffffffffffffffffffffffffffffffffffffffff021916908373ffffffffffffffffffffffffffffffffffffffff16021790555060408201518160010160006101000a81548173ffffffffffffffffffffffffffffffffffffffff021916908373ffffffffffffffffffffffffffffffffffffffff160217905550905050611ab3565b600060ff60008673ffffffffffffffffffffffffffffffffffffffff1673ffffffffffffffffffffffffffffffffffffffff1681526020019081526020016000209050828160000160006101000a81548161ffff021916908361ffff160217905550818160010160006101000a81548173ffffffffffffffffffffffffffffffffffffffff021916908373ffffffffffffffffffffffffffffffffffffffff160217905550838160000160026101000a81548173ffffffffffffffffffffffffffffffffffffffff021916908373ffffffffffffffffffffffffffffffffffffffff160217905550505b50505050565b60fc6020528160005260406000206020528060005260406000206000915091509054906101000a900461ffff1681565b611af161263c565b8383611afb6122f3565b600060fd60008573ffffffffffffffffffffffffffffffffffffffff1673ffffffffffffffffffffffffffffffffffffffff168152602001908152602001600020600084815260200190815260200160002060008373ffffffffffffffffffffffffffffffffffffffff1673ffffffffffffffffffffffffffffffffffffffff1681526020019081526020016000206040518060600160405290816000820160009054906101000a900473ffffffffffffffffffffffffffffffffffffffff1673ffffffffffffffffffffffffffffffffffffffff1673ffffffffffffffffffffffffffffffffffffffff1681526020016001820154815260200160028201548152505090506000816020015111611c48576040517f08c379a0000000000000000000000000000000000000000000000000000000008152600401611c3f9061444b565b60405180910390fd5b600060fd60008a73ffffffffffffffffffffffffffffffffffffffff1673ffffffffffffffffffffffffffffffffffffffff16815260200190815260200160002060008981526020019081526020016000206000611ca46122f3565b73ffffffffffffffffffffffffffffffffffffffff1673ffffffffffffffffffffffffffffffffffffffff1681526020019081526020016000209050611cf28989611ced6122f3565b61268c565b611cfb876122fb565b868160000160006101000a81548173ffffffffffffffffffffffffffffffffffffffff021916908373ffffffffffffffffffffffffffffffffffffffff1602179055508581600101819055508873ffffffffffffffffffffffffffffffffffffffff16611d666122f3565b73ffffffffffffffffffffffffffffffffffffffff167f60a11f1619b1716bc2857bf610d4bc631336e14d197025fd5875c1aca1ac7cbd8a8a8a604051611daf939291906147b8565b60405180910390a35050505050611dc4612ff4565b50505050565b611dd2612275565b600073ffffffffffffffffffffffffffffffffffffffff168173ffffffffffffffffffffffffffffffffffffffff161415611e42576040517f08c379a0000000000000000000000000000000000000000000000000000000008152600401611e399061446b565b60405180910390fd5b611e4b81612576565b50565b60008060019054906101000a900460ff16159050808015611e7f5750600160008054906101000a900460ff1660ff16105b80611eac5750611e8e30613342565b158015611eab5750600160008054906101000a900460ff1660ff16145b5b611eeb576040517f08c379a0000000000000000000000000000000000000000000000000000000008152600401611ee2906145ab565b60405180910390fd5b60016000806101000a81548160ff021916908360ff1602179055508015611f28576001600060016101000a81548160ff0219169083151502179055505b611f30613365565b8160fe60006101000a81548161ffff021916908361ffff1602179055508260fe60026101000a81548173ffffffffffffffffffffffffffffffffffffffff021916908373ffffffffffffffffffffffffffffffffffffffff1602179055508015611fe75760008060016101000a81548160ff0219169083151502179055507f7f26b83ff96e1f2b6a682f133852f6798a09c465da95921460cefb38474024986001604051611fde91906143ee565b60405180910390a15b505050565b61010060009054906101000a900473ffffffffffffffffffffffffffffffffffffffff1681565b61201b612275565b8060fe60026101000a81548173ffffffffffffffffffffffffffffffffffffffff021916908373ffffffffffffffffffffffffffffffffffffffff1602179055507fe57e7c1f36cc83fade34e32351e6eee7eb9da532662b1b5da10c631e8222aca78160405161208b91906142eb565b60405180910390a150565b60006120c47f360894a13ba1a3210667c828492db98dca3e2076cc3735a920a3ca505d382bbc60001b6133be565b60000160009054906101000a900473ffffffffffffffffffffffffffffffffffffffff16905090565b6120f5612275565b50565b6121247f4910fdfa16fed3260ed0e7147f7cc6da11a60208b5b9406d12a635614ffd914360001b6133c8565b60000160009054906101000a900460ff161561214857612143836133d2565b612270565b8273ffffffffffffffffffffffffffffffffffffffff166352d1902d6040518163ffffffff1660e01b815260040160206040518083038186803b15801561218e57600080fd5b505afa9250505080156121bf57506040513d601f19601f820116820180604052508101906121bc9190613e1a565b60015b6121fe576040517f08c379a00000000000000000000000000000000000000000000000000000000081526004016121f5906145cb565b60405180910390fd5b7f360894a13ba1a3210667c828492db98dca3e2076cc3735a920a3ca505d382bbc60001b8114612263576040517f08c379a000000000000000000000000000000000000000000000000000000000815260040161225a9061458b565b60405180910390fd5b5061226f83838361348b565b5b505050565b61227d6122f3565b73ffffffffffffffffffffffffffffffffffffffff1661229b61141a565b73ffffffffffffffffffffffffffffffffffffffff16146122f1576040517f08c379a00000000000000000000000000000000000000000000000000000000081526004016122e89061460b565b60405180910390fd5b565b600033905090565b600073ffffffffffffffffffffffffffffffffffffffff168173ffffffffffffffffffffffffffffffffffffffff1614806125345750600073ffffffffffffffffffffffffffffffffffffffff1661010060009054906101000a900473ffffffffffffffffffffffffffffffffffffffff1673ffffffffffffffffffffffffffffffffffffffff16639d23c4c76040518163ffffffff1660e01b815260040160206040518083038186803b1580156123b257600080fd5b505afa1580156123c6573d6000803e3d6000fd5b505050506040513d601f19601f820116820180604052508101906123ea9190613ae4565b73ffffffffffffffffffffffffffffffffffffffff1614158015612533575061010060009054906101000a900473ffffffffffffffffffffffffffffffffffffffff1673ffffffffffffffffffffffffffffffffffffffff16639d23c4c76040518163ffffffff1660e01b815260040160206040518083038186803b15801561247257600080fd5b505afa158015612486573d6000803e3d6000fd5b505050506040513d601f19601f820116820180604052508101906124aa9190613ae4565b73ffffffffffffffffffffffffffffffffffffffff166398afdfe3826040518263ffffffff1660e01b81526004016124e291906142d0565b60206040518083038186803b1580156124fa57600080fd5b505afa15801561250e573d6000803e3d6000fd5b505050506040513d601f19601f820116820180604052508101906125329190613df1565b5b5b612573576040517f08c379a000000000000000000000000000000000000000000000000000000000815260040161256a9061442b565b60405180910390fd5b50565b6000609760009054906101000a900473ffffffffffffffffffffffffffffffffffffffff16905081609760006101000a81548173ffffffffffffffffffffffffffffffffffffffff021916908373ffffffffffffffffffffffffffffffffffffffff1602179055508173ffffffffffffffffffffffffffffffffffffffff168173ffffffffffffffffffffffffffffffffffffffff167f8be0079c531659141344cd1fd0a4f28419497f9722a3daafe3b4186f6b6457e060405160405180910390a35050565b600260c9541415612682576040517f08c379a00000000000000000000000000000000000000000000000000000000081526004016126799061470b565b60405180910390fd5b600260c981905550565b8273ffffffffffffffffffffffffffffffffffffffff166301ffc9a76380ac58cd60e01b6040518263ffffffff1660e01b81526004016126cc91906143b8565b60206040518083038186803b1580156126e457600080fd5b505afa1580156126f8573d6000803e3d6000fd5b505050506040513d601f19601f8201168201806040525081019061271c9190613df1565b156128225760008390508173ffffffffffffffffffffffffffffffffffffffff168173ffffffffffffffffffffffffffffffffffffffff16636352211e856040518263ffffffff1660e01b8152600401612776919061479d565b60206040518083038186803b15801561278e57600080fd5b505afa1580156127a2573d6000803e3d6000fd5b505050506040513d601f19601f820116820180604052508101906127c69190613ae4565b73ffffffffffffffffffffffffffffffffffffffff161461281c576040517f08c379a00000000000000000000000000000000000000000000000000000000081526004016128139061454b565b60405180910390fd5b5061285d565b6040517f08c379a00000000000000000000000000000000000000000000000000000000081526004016128549061456b565b60405180910390fd5b505050565b600042905090565b600060fd60008673ffffffffffffffffffffffffffffffffffffffff1673ffffffffffffffffffffffffffffffffffffffff168152602001908152602001600020600085815260200190815260200160002060008373ffffffffffffffffffffffffffffffffffffffff1673ffffffffffffffffffffffffffffffffffffffff1681526020019081526020016000206040518060600160405290816000820160009054906101000a900473ffffffffffffffffffffffffffffffffffffffff1673ffffffffffffffffffffffffffffffffffffffff1673ffffffffffffffffffffffffffffffffffffffff16815260200160018201548152602001600282015481525050905060008160200151905060006129b66103e86129a860fe60009054906101000a900461ffff1661ffff16856134b790919063ffffffff16565b6134cd90919063ffffffff16565b9050612a0e6129c36122f3565b60fe60029054906101000a900473ffffffffffffffffffffffffffffffffffffffff16838873ffffffffffffffffffffffffffffffffffffffff166134e3909392919063ffffffff16565b600060fb60008973ffffffffffffffffffffffffffffffffffffffff1673ffffffffffffffffffffffffffffffffffffffff168152602001908152602001600020600088815260200190815260200160002060009054906101000a900473ffffffffffffffffffffffffffffffffffffffff169050600060fc60008a73ffffffffffffffffffffffffffffffffffffffff1673ffffffffffffffffffffffffffffffffffffffff168152602001908152602001600020600089815260200190815260200160002060009054906101000a900461ffff169050600073ffffffffffffffffffffffffffffffffffffffff168273ffffffffffffffffffffffffffffffffffffffff1614158015612b28575060008161ffff1614155b15612bbd576000612b6c612710612b5e8461ffff16612b50888a61356c90919063ffffffff16565b6134b790919063ffffffff16565b6134cd90919063ffffffff16565b9050612ba2612b796122f3565b84838b73ffffffffffffffffffffffffffffffffffffffff166134e3909392919063ffffffff16565b612bb5818561358290919063ffffffff16565b935050612d49565b60ff60008a73ffffffffffffffffffffffffffffffffffffffff1673ffffffffffffffffffffffffffffffffffffffff16815260200190815260200160002060010160009054906101000a900473ffffffffffffffffffffffffffffffffffffffff16915060ff60008a73ffffffffffffffffffffffffffffffffffffffff1673ffffffffffffffffffffffffffffffffffffffff16815260200190815260200160002060000160009054906101000a900461ffff169050600073ffffffffffffffffffffffffffffffffffffffff168273ffffffffffffffffffffffffffffffffffffffff1614158015612cb7575060008161ffff1614155b15612d48576000612cfb612710612ced8461ffff16612cdf888a61356c90919063ffffffff16565b6134b790919063ffffffff16565b6134cd90919063ffffffff16565b9050612d31612d086122f3565b84838b73ffffffffffffffffffffffffffffffffffffffff166134e3909392919063ffffffff16565b612d44818561358290919063ffffffff16565b9350505b5b612d8f612d546122f3565b87612d68868861356c90919063ffffffff16565b8a73ffffffffffffffffffffffffffffffffffffffff166134e3909392919063ffffffff16565b8873ffffffffffffffffffffffffffffffffffffffff166301ffc9a76380ac58cd60e01b6040518263ffffffff1660e01b8152600401612dcf91906143b8565b60206040518083038186803b158015612de757600080fd5b505afa158015612dfb573d6000803e3d6000fd5b505050506040513d601f19601f82011682018060405250810190612e1f9190613df1565b15612e9b578873ffffffffffffffffffffffffffffffffffffffff166342842e0e87612e496122f3565b8b6040518463ffffffff1660e01b8152600401612e689392919061432f565b600060405180830381600087803b158015612e8257600080fd5b505af1158015612e96573d6000803e3d6000fd5b505050505b8873ffffffffffffffffffffffffffffffffffffffff16612eba6122f3565b73ffffffffffffffffffffffffffffffffffffffff168773ffffffffffffffffffffffffffffffffffffffff167f8a9cf94d7829eaf9f6d711349a2506ecac232dbb4f84889351ea3f1da0113b8f8b8b89604051612f1a939291906147b8565b60405180910390a460fd60008a73ffffffffffffffffffffffffffffffffffffffff1673ffffffffffffffffffffffffffffffffffffffff168152602001908152602001600020600089815260200190815260200160002060008773ffffffffffffffffffffffffffffffffffffffff1673ffffffffffffffffffffffffffffffffffffffff168152602001908152602001600020600080820160006101000a81549073ffffffffffffffffffffffffffffffffffffffff0219169055600182016000905560028201600090555050505050505050505050565b600160c981905550565b61300983838361268c565b60fd60008473ffffffffffffffffffffffffffffffffffffffff1673ffffffffffffffffffffffffffffffffffffffff168152602001908152602001600020600083815260200190815260200160002060008273ffffffffffffffffffffffffffffffffffffffff1673ffffffffffffffffffffffffffffffffffffffff168152602001908152602001600020600080820160006101000a81549073ffffffffffffffffffffffffffffffffffffffff02191690556001820160009055600282016000905550508273ffffffffffffffffffffffffffffffffffffffff168173ffffffffffffffffffffffffffffffffffffffff167f9ba1a3cb55ce8d63d072a886f94d2a744f50cddf82128e897d0661f5ec6231588460405161312d919061479d565b60405180910390a3505050565b60008173ffffffffffffffffffffffffffffffffffffffff1661010060009054906101000a900473ffffffffffffffffffffffffffffffffffffffff1673ffffffffffffffffffffffffffffffffffffffff1663ac8cfae26040518163ffffffff1660e01b815260040160206040518083038186803b1580156131bc57600080fd5b505afa1580156131d0573d6000803e3d6000fd5b505050506040513d601f19601f820116820180604052508101906131f49190613ae4565b73ffffffffffffffffffffffffffffffffffffffff16148061333b575061010060009054906101000a900473ffffffffffffffffffffffffffffffffffffffff1673ffffffffffffffffffffffffffffffffffffffff1663c45a01556040518163ffffffff1660e01b815260040160206040518083038186803b15801561327a57600080fd5b505afa15801561328e573d6000803e3d6000fd5b505050506040513d601f19601f820116820180604052508101906132b29190613ae4565b73ffffffffffffffffffffffffffffffffffffffff1663f6a3d24e836040518263ffffffff1660e01b81526004016132ea91906142d0565b60206040518083038186803b15801561330257600080fd5b505afa158015613316573d6000803e3d6000fd5b505050506040513d601f19601f8201168201806040525081019061333a9190613df1565b5b9050919050565b6000808273ffffffffffffffffffffffffffffffffffffffff163b119050919050565b600060019054906101000a900460ff166133b4576040517f08c379a00000000000000000000000000000000000000000000000000000000081526004016133ab906146cb565b60405180910390fd5b6133bc613598565b565b6000819050919050565b6000819050919050565b6133db81613342565b61341a576040517f08c379a0000000000000000000000000000000000000000000000000000000008152600401613411906145eb565b60405180910390fd5b806134477f360894a13ba1a3210667c828492db98dca3e2076cc3735a920a3ca505d382bbc60001b6133be565b60000160006101000a81548173ffffffffffffffffffffffffffffffffffffffff021916908373ffffffffffffffffffffffffffffffffffffffff16021790555050565b613494836135f9565b6000825111806134a15750805b156134b2576134b08383613648565b505b505050565b600081836134c59190614943565b905092915050565b600081836134db9190614912565b905092915050565b613566846323b872dd60e01b8585856040516024016135049392919061432f565b604051602081830303815290604052907bffffffffffffffffffffffffffffffffffffffffffffffffffffffff19166020820180517bffffffffffffffffffffffffffffffffffffffffffffffffffffffff838183161783525050505061372c565b50505050565b6000818361357a919061499d565b905092915050565b6000818361359091906148bc565b905092915050565b600060019054906101000a900460ff166135e7576040517f08c379a00000000000000000000000000000000000000000000000000000000081526004016135de906146cb565b60405180910390fd5b6135f76135f26122f3565b612576565b565b613602816133d2565b8073ffffffffffffffffffffffffffffffffffffffff167fbc7cd75a20ee27fd9adebab32041f755214dbc6bffa90cc0225b39da2e5c2d3b60405160405180910390a250565b606061365383613342565b613692576040517f08c379a00000000000000000000000000000000000000000000000000000000081526004016136899061464b565b60405180910390fd5b6000808473ffffffffffffffffffffffffffffffffffffffff16846040516136ba91906142b9565b600060405180830381855af49150503d80600081146136f5576040519150601f19603f3d011682016040523d82523d6000602084013e6136fa565b606091505b50915091506137228282604051806060016040528060278152602001615393602791396137f3565b9250505092915050565b600061378e826040518060400160405280602081526020017f5361666545524332303a206c6f772d6c6576656c2063616c6c206661696c65648152508573ffffffffffffffffffffffffffffffffffffffff166138159092919063ffffffff16565b90506000815111156137ee57808060200190518101906137ae9190613df1565b6137ed576040517f08c379a00000000000000000000000000000000000000000000000000000000081526004016137e4906146eb565b60405180910390fd5b5b505050565b606083156138035782905061380e565b61380d838361382d565b5b9392505050565b6060613824848460008561387d565b90509392505050565b6000825111156138405781518083602001fd5b806040517f08c379a00000000000000000000000000000000000000000000000000000000081526004016138749190614409565b60405180910390fd5b6060824710156138c2576040517f08c379a00000000000000000000000000000000000000000000000000000000081526004016138b99061450b565b60405180910390fd5b6000808673ffffffffffffffffffffffffffffffffffffffff1685876040516138eb91906142b9565b60006040518083038185875af1925050503d8060008114613928576040519150601f19603f3d011682016040523d82523d6000602084013e61392d565b606091505b509150915061393e8783838761394a565b92505050949350505050565b606083156139ad576000835114156139a55761396585613342565b6139a4576040517f08c379a000000000000000000000000000000000000000000000000000000000815260040161399b906146ab565b60405180910390fd5b5b8290506139b8565b6139b7838361382d565b5b949350505050565b60006139d36139ce84614859565b614834565b9050828152602081018484840111156139eb57600080fd5b6139f6848285614ab2565b509392505050565b600081359050613a0d81615308565b92915050565b600081519050613a2281615308565b92915050565b600081359050613a378161531f565b92915050565b600081519050613a4c81615336565b92915050565b600081519050613a618161534d565b92915050565b600082601f830112613a7857600080fd5b8135613a888482602086016139c0565b91505092915050565b600081359050613aa081615364565b92915050565b600081359050613ab58161537b565b92915050565b600060208284031215613acd57600080fd5b6000613adb848285016139fe565b91505092915050565b600060208284031215613af657600080fd5b6000613b0484828501613a13565b91505092915050565b600060208284031215613b1f57600080fd5b6000613b2d84828501613a28565b91505092915050565b60008060408385031215613b4957600080fd5b6000613b5785828601613a28565b9250506020613b6885828601613a91565b9150509250929050565b60008060008060808587031215613b8857600080fd5b6000613b96878288016139fe565b9450506020613ba7878288016139fe565b9350506040613bb887828801613a91565b9250506060613bc9878288016139fe565b91505092959194509250565b60008060408385031215613be857600080fd5b6000613bf6858286016139fe565b925050602083013567ffffffffffffffff811115613c1357600080fd5b613c1f85828601613a67565b9150509250929050565b60008060408385031215613c3c57600080fd5b6000613c4a858286016139fe565b9250506020613c5b85828601613aa6565b9150509250929050565b600080600060608486031215613c7a57600080fd5b6000613c88868287016139fe565b9350506020613c9986828701613aa6565b9250506040613caa868287016139fe565b9150509250925092565b60008060008060808587031215613cca57600080fd5b6000613cd8878288016139fe565b9450506020613ce987828801613aa6565b9350506040613cfa878288016139fe565b9250506060613d0b878288016139fe565b91505092959194509250565b60008060008060808587031215613d2d57600080fd5b6000613d3b878288016139fe565b9450506020613d4c87828801613aa6565b9350506040613d5d878288016139fe565b9250506060613d6e87828801613aa6565b91505092959194509250565b600080600080600060a08688031215613d9257600080fd5b6000613da0888289016139fe565b9550506020613db188828901613aa6565b9450506040613dc2888289016139fe565b9350506060613dd388828901613aa6565b9250506080613de488828901613aa6565b9150509295509295909350565b600060208284031215613e0357600080fd5b6000613e1184828501613a3d565b91505092915050565b600060208284031215613e2c57600080fd5b6000613e3a84828501613a52565b91505092915050565b600060208284031215613e5557600080fd5b6000613e6384828501613a91565b91505092915050565b613e75816149e3565b82525050565b613e84816149d1565b82525050565b613e9381614a01565b82525050565b613ea281614a0b565b82525050565b6000613eb38261488a565b613ebd81856148a0565b9350613ecd818560208601614ac1565b80840191505092915050565b613ee281614a7c565b82525050565b613ef181614aa0565b82525050565b6000613f0282614895565b613f0c81856148ab565b9350613f1c818560208601614ac1565b613f2581614bb2565b840191505092915050565b6000613f3d6024836148ab565b9150613f4882614bc3565b604082019050919050565b6000613f606022836148ab565b9150613f6b82614c12565b604082019050919050565b6000613f836026836148ab565b9150613f8e82614c61565b604082019050919050565b6000613fa66030836148ab565b9150613fb182614cb0565b604082019050919050565b6000613fc96022836148ab565b9150613fd482614cff565b604082019050919050565b6000613fec602c836148ab565b9150613ff782614d4e565b604082019050919050565b600061400f602c836148ab565b915061401a82614d9d565b604082019050919050565b60006140326026836148ab565b915061403d82614dec565b604082019050919050565b60006140556038836148ab565b915061406082614e3b565b604082019050919050565b60006140786022836148ab565b915061408382614e8a565b604082019050919050565b600061409b6026836148ab565b91506140a682614ed9565b604082019050919050565b60006140be6029836148ab565b91506140c982614f28565b604082019050919050565b60006140e1602e836148ab565b91506140ec82614f77565b604082019050919050565b6000614104602e836148ab565b915061410f82614fc6565b604082019050919050565b6000614127602d836148ab565b915061413282615015565b604082019050919050565b600061414a6020836148ab565b915061415582615064565b602082019050919050565b600061416d6021836148ab565b91506141788261508d565b604082019050919050565b60006141906026836148ab565b915061419b826150dc565b604082019050919050565b60006141b36024836148ab565b91506141be8261512b565b604082019050919050565b60006141d66023836148ab565b91506141e18261517a565b604082019050919050565b60006141f9601d836148ab565b9150614204826151c9565b602082019050919050565b600061421c602b836148ab565b9150614227826151f2565b604082019050919050565b600061423f602a836148ab565b915061424a82615241565b604082019050919050565b6000614262601f836148ab565b915061426d82615290565b602082019050919050565b6000614285602a836148ab565b9150614290826152b9565b604082019050919050565b6142a481614a37565b82525050565b6142b381614a65565b82525050565b60006142c58284613ea8565b915081905092915050565b60006020820190506142e56000830184613e7b565b92915050565b60006020820190506143006000830184613e6c565b92915050565b600060408201905061431b6000830185613e7b565b6143286020830184613e7b565b9392505050565b60006060820190506143446000830186613e7b565b6143516020830185613e7b565b61435e60408301846142aa565b949350505050565b600060608201905061437b6000830186613e7b565b61438860208301856142aa565b61439560408301846142aa565b949350505050565b60006020820190506143b26000830184613e8a565b92915050565b60006020820190506143cd6000830184613e99565b92915050565b60006020820190506143e86000830184613ed9565b92915050565b60006020820190506144036000830184613ee8565b92915050565b600060208201905081810360008301526144238184613ef7565b905092915050565b6000602082019050818103600083015261444481613f30565b9050919050565b6000602082019050818103600083015261446481613f53565b9050919050565b6000602082019050818103600083015261448481613f76565b9050919050565b600060208201905081810360008301526144a481613f99565b9050919050565b600060208201905081810360008301526144c481613fbc565b9050919050565b600060208201905081810360008301526144e481613fdf565b9050919050565b6000602082019050818103600083015261450481614002565b9050919050565b6000602082019050818103600083015261452481614025565b9050919050565b6000602082019050818103600083015261454481614048565b9050919050565b600060208201905081810360008301526145648161406b565b9050919050565b600060208201905081810360008301526145848161408e565b9050919050565b600060208201905081810360008301526145a4816140b1565b9050919050565b600060208201905081810360008301526145c4816140d4565b9050919050565b600060208201905081810360008301526145e4816140f7565b9050919050565b600060208201905081810360008301526146048161411a565b9050919050565b600060208201905081810360008301526146248161413d565b9050919050565b6000602082019050818103600083015261464481614160565b9050919050565b6000602082019050818103600083015261466481614183565b9050919050565b60006020820190508181036000830152614684816141a6565b9050919050565b600060208201905081810360008301526146a4816141c9565b9050919050565b600060208201905081810360008301526146c4816141ec565b9050919050565b600060208201905081810360008301526146e48161420f565b9050919050565b6000602082019050818103600083015261470481614232565b9050919050565b6000602082019050818103600083015261472481614255565b9050919050565b6000602082019050818103600083015261474481614278565b9050919050565b6000602082019050614760600083018461429b565b92915050565b600060608201905061477b600083018661429b565b6147886020830185613e7b565b6147956040830184613e7b565b949350505050565b60006020820190506147b260008301846142aa565b92915050565b60006060820190506147cd60008301866142aa565b6147da6020830185613e7b565b6147e760408301846142aa565b949350505050565b600060808201905061480460008301876142aa565b6148116020830186613e7b565b61481e60408301856142aa565b61482b60608301846142aa565b95945050505050565b600061483e61484f565b905061484a8282614af4565b919050565b6000604051905090565b600067ffffffffffffffff82111561487457614873614b83565b5b61487d82614bb2565b9050602081019050919050565b600081519050919050565b600081519050919050565b600081905092915050565b600082825260208201905092915050565b60006148c782614a65565b91506148d283614a65565b9250827fffffffffffffffffffffffffffffffffffffffffffffffffffffffffffffffff0382111561490757614906614b25565b5b828201905092915050565b600061491d82614a65565b915061492883614a65565b92508261493857614937614b54565b5b828204905092915050565b600061494e82614a65565b915061495983614a65565b9250817fffffffffffffffffffffffffffffffffffffffffffffffffffffffffffffffff048311821515161561499257614991614b25565b5b828202905092915050565b60006149a882614a65565b91506149b383614a65565b9250828210156149c6576149c5614b25565b5b828203905092915050565b60006149dc82614a45565b9050919050565b60006149ee82614a45565b9050919050565b60008115159050919050565b6000819050919050565b60007fffffffff0000000000000000000000000000000000000000000000000000000082169050919050565b600061ffff82169050919050565b600073ffffffffffffffffffffffffffffffffffffffff82169050919050565b6000819050919050565b600060ff82169050919050565b6000614a8782614a8e565b9050919050565b6000614a9982614a45565b9050919050565b6000614aab82614a6f565b9050919050565b82818337600083830152505050565b60005b83811015614adf578082015181840152602081019050614ac4565b83811115614aee576000848401525b50505050565b614afd82614bb2565b810181811067ffffffffffffffff82111715614b1c57614b1b614b83565b5b80604052505050565b7f4e487b7100000000000000000000000000000000000000000000000000000000600052601160045260246000fd5b7f4e487b7100000000000000000000000000000000000000000000000000000000600052601260045260246000fd5b7f4e487b7100000000000000000000000000000000000000000000000000000000600052604160045260246000fd5b6000601f19601f8301169050919050565b7f437265617468204d61726b6574706c6163653a696e76616c696420706179207460008201527f6f6b656e00000000000000000000000000000000000000000000000000000000602082015250565b7f437265617468204d61726b6574706c6163653a6e6f74206c697374656420697460008201527f656d000000000000000000000000000000000000000000000000000000000000602082015250565b7f4f776e61626c653a206e6577206f776e657220697320746865207a65726f206160008201527f6464726573730000000000000000000000000000000000000000000000000000602082015250565b7f437265617468204d61726b6574706c6163653a696e76616c696420666565207260008201527f6563697069656e74206164647265737300000000000000000000000000000000602082015250565b7f437265617468204d61726b6574706c6163653a696e76616c696420726f79616c60008201527f7479000000000000000000000000000000000000000000000000000000000000602082015250565b7f46756e6374696f6e206d7573742062652063616c6c6564207468726f7567682060008201527f64656c656761746563616c6c0000000000000000000000000000000000000000602082015250565b7f46756e6374696f6e206d7573742062652063616c6c6564207468726f7567682060008201527f6163746976652070726f78790000000000000000000000000000000000000000602082015250565b7f416464726573733a20696e73756666696369656e742062616c616e636520666f60008201527f722063616c6c0000000000000000000000000000000000000000000000000000602082015250565b7f555550535570677261646561626c653a206d757374206e6f742062652063616c60008201527f6c6564207468726f7567682064656c656761746563616c6c0000000000000000602082015250565b7f437265617468204d61726b6574706c6163653a6e6f74206f776e696e6720697460008201527f656d000000000000000000000000000000000000000000000000000000000000602082015250565b7f437265617468204d61726b6574706c6163653a696e76616c6964206e6674206160008201527f6464726573730000000000000000000000000000000000000000000000000000602082015250565b7f45524331393637557067726164653a20756e737570706f727465642070726f7860008201527f6961626c65555549440000000000000000000000000000000000000000000000602082015250565b7f496e697469616c697a61626c653a20636f6e747261637420697320616c72656160008201527f647920696e697469616c697a6564000000000000000000000000000000000000602082015250565b7f45524331393637557067726164653a206e657720696d706c656d656e7461746960008201527f6f6e206973206e6f742055555053000000000000000000000000000000000000602082015250565b7f455243313936373a206e657720696d706c656d656e746174696f6e206973206e60008201527f6f74206120636f6e747261637400000000000000000000000000000000000000602082015250565b7f4f776e61626c653a2063616c6c6572206973206e6f7420746865206f776e6572600082015250565b7f437265617468204d61726b6574706c6163653a616c7265616479206c6973746560008201527f6400000000000000000000000000000000000000000000000000000000000000602082015250565b7f416464726573733a2064656c65676174652063616c6c20746f206e6f6e2d636f60008201527f6e74726163740000000000000000000000000000000000000000000000000000602082015250565b7f437265617468204d61726b6574706c6163653a6974656d206e6f74206170707260008201527f6f76656400000000000000000000000000000000000000000000000000000000602082015250565b7f437265617468204d61726b6574706c6163653a6974656d206e6f74206275796160008201527f626c650000000000000000000000000000000000000000000000000000000000602082015250565b7f416464726573733a2063616c6c20746f206e6f6e2d636f6e7472616374000000600082015250565b7f496e697469616c697a61626c653a20636f6e7472616374206973206e6f74206960008201527f6e697469616c697a696e67000000000000000000000000000000000000000000602082015250565b7f5361666545524332303a204552433230206f7065726174696f6e20646964206e60008201527f6f74207375636365656400000000000000000000000000000000000000000000602082015250565b7f5265656e7472616e637947756172643a207265656e7472616e742063616c6c00600082015250565b7f437265617468204d61726b6574706c6163653a696e76616c696420637265617460008201527f6f72206164647265737300000000000000000000000000000000000000000000602082015250565b615311816149d1565b811461531c57600080fd5b50565b615328816149e3565b811461533357600080fd5b50565b61533f816149f5565b811461534a57600080fd5b50565b61535681614a01565b811461536157600080fd5b50565b61536d81614a37565b811461537857600080fd5b50565b61538481614a65565b811461538f57600080fd5b5056fe416464726573733a206c6f772d6c6576656c2064656c65676174652063616c6c206661696c6564a2646970667358221220fe79bc4d7758c8c9b98a49255878719e221a00441a4be348d273d30fb862b21a64736f6c63430008040033",
  "linkReferences": {},
  "deployedLinkReferences": {}
}