{
  "_format": "hh-sol-artifact-1",
  "contractName": "CreathMarketplace",
  "sourceName": "contracts/CreathMarketplace.sol",
  "abi": [
    {
      "anonymous": false,
      "inputs": [
        {
          "indexed": false,
          "internalType": "address",
          "name": "previousAdmin",
          "type": "address"
        },
        {
          "indexed": false,
          "internalType": "address",
          "name": "newAdmin",
          "type": "address"
        }
      ],
      "name": "AdminChanged",
      "type": "event"
    },
    {
      "anonymous": false,
      "inputs": [
        {
          "indexed": true,
          "internalType": "address",
          "name": "beacon",
          "type": "address"
        }
      ],
      "name": "BeaconUpgraded",
      "type": "event"
    },
    {
      "anonymous": false,
      "inputs": [
        {
          "indexed": false,
          "internalType": "uint8",
          "name": "version",
          "type": "uint8"
        }
      ],
      "name": "Initialized",
      "type": "event"
    },
    {
      "anonymous": false,
      "inputs": [
        {
          "indexed": true,
          "internalType": "address",
          "name": "owner",
          "type": "address"
        },
        {
          "indexed": true,
          "internalType": "address",
          "name": "nft",
          "type": "address"
        },
        {
          "indexed": false,
          "internalType": "uint256",
          "name": "tokenId",
          "type": "uint256"
        }
      ],
      "name": "ItemCanceled",
      "type": "event"
    },
    {
      "anonymous": false,
      "inputs": [
        {
          "indexed": true,
          "internalType": "address",
          "name": "owner",
          "type": "address"
        },
        {
          "indexed": true,
          "internalType": "address",
          "name": "nft",
          "type": "address"
        },
        {
          "indexed": false,
          "internalType": "uint256",
          "name": "tokenId",
          "type": "uint256"
        },
        {
          "indexed": false,
          "internalType": "uint256",
          "name": "price",
          "type": "uint256"
        }
      ],
      "name": "ItemListed",
      "type": "event"
    },
    {
      "anonymous": false,
      "inputs": [
        {
          "indexed": true,
          "internalType": "address",
          "name": "seller",
          "type": "address"
        },
        {
          "indexed": true,
          "internalType": "address",
          "name": "buyer",
          "type": "address"
        },
        {
          "indexed": true,
          "internalType": "address",
          "name": "nft",
          "type": "address"
        },
        {
          "indexed": false,
          "internalType": "uint256",
          "name": "tokenId",
          "type": "uint256"
        },
        {
          "indexed": false,
          "internalType": "uint256",
          "name": "price",
          "type": "uint256"
        }
      ],
      "name": "ItemSold",
      "type": "event"
    },
    {
      "anonymous": false,
      "inputs": [
        {
          "indexed": true,
          "internalType": "address",
          "name": "owner",
          "type": "address"
        },
        {
          "indexed": true,
          "internalType": "address",
          "name": "nft",
          "type": "address"
        },
        {
          "indexed": false,
          "internalType": "uint256",
          "name": "tokenId",
          "type": "uint256"
        },
        {
          "indexed": false,
          "internalType": "uint256",
          "name": "newPrice",
          "type": "uint256"
        }
      ],
      "name": "ItemUpdated",
      "type": "event"
    },
    {
      "anonymous": false,
      "inputs": [
        {
          "indexed": true,
          "internalType": "address",
          "name": "previousOwner",
          "type": "address"
        },
        {
          "indexed": true,
          "internalType": "address",
          "name": "newOwner",
          "type": "address"
        }
      ],
      "name": "OwnershipTransferred",
      "type": "event"
    },
    {
      "anonymous": false,
      "inputs": [
        {
          "indexed": false,
          "internalType": "uint16",
          "name": "platformFee",
          "type": "uint16"
        }
      ],
      "name": "UpdatePlatformFee",
      "type": "event"
    },
    {
      "anonymous": false,
      "inputs": [
        {
          "indexed": false,
          "internalType": "address payable",
          "name": "platformFeeRecipient",
          "type": "address"
        }
      ],
      "name": "UpdatePlatformFeeRecipient",
      "type": "event"
    },
    {
      "anonymous": false,
      "inputs": [
        {
          "indexed": true,
          "internalType": "address",
          "name": "implementation",
          "type": "address"
        }
      ],
      "name": "Upgraded",
      "type": "event"
    },
    {
      "inputs": [
        {
          "internalType": "address",
          "name": "",
          "type": "address"
        },
        {
          "internalType": "uint256",
          "name": "",
          "type": "uint256"
        }
      ],
      "name": "artists",
      "outputs": [
        {
          "internalType": "address",
          "name": "",
          "type": "address"
        }
      ],
      "stateMutability": "view",
      "type": "function"
    },
    {
      "inputs": [
        {
          "internalType": "address",
          "name": "_nftAddress",
          "type": "address"
        },
        {
          "internalType": "uint256",
          "name": "_tokenId",
          "type": "uint256"
        }
      ],
      "name": "buyItem",
      "outputs": [],
      "stateMutability": "nonpayable",
      "type": "function"
    },
    {
      "inputs": [
        {
          "internalType": "address",
          "name": "_nftAddress",
          "type": "address"
        },
        {
          "internalType": "address",
          "name": "_artist",
          "type": "address"
        },
        {
          "internalType": "uint256",
          "name": "_tokenId",
          "type": "uint256"
        }
      ],
      "name": "cancelListing",
      "outputs": [],
      "stateMutability": "nonpayable",
      "type": "function"
    },
    {
      "inputs": [],
      "name": "feeReceipient",
      "outputs": [
        {
          "internalType": "address payable",
          "name": "",
          "type": "address"
        }
      ],
      "stateMutability": "view",
      "type": "function"
    },
    {
      "inputs": [
        {
          "internalType": "address",
          "name": "_user",
          "type": "address"
        }
      ],
      "name": "getCollectorData",
      "outputs": [
        {
          "components": [
            {
              "internalType": "uint256",
              "name": "tokenId",
              "type": "uint256"
            },
            {
              "internalType": "address",
              "name": "nft_address",
              "type": "address"
            }
          ],
          "internalType": "struct CreathMarketplace.Item[]",
          "name": "",
          "type": "tuple[]"
        }
      ],
      "stateMutability": "view",
      "type": "function"
    },
    {
      "inputs": [
        {
          "internalType": "address payable",
          "name": "_feeRecipient",
          "type": "address"
        },
        {
          "internalType": "address",
          "name": "_token",
          "type": "address"
        },
        {
          "internalType": "uint16",
          "name": "_platformFee",
          "type": "uint16"
        }
      ],
      "name": "initialize",
      "outputs": [],
      "stateMutability": "nonpayable",
      "type": "function"
    },
    {
      "inputs": [
        {
          "internalType": "address",
          "name": "_nftAddress",
          "type": "address"
        },
        {
          "internalType": "address",
          "name": "_artist",
          "type": "address"
        },
        {
          "internalType": "uint256",
          "name": "_tokenId",
          "type": "uint256"
        },
        {
          "internalType": "uint256",
          "name": "_price",
          "type": "uint256"
        }
      ],
      "name": "listItem",
      "outputs": [],
      "stateMutability": "nonpayable",
      "type": "function"
    },
    {
      "inputs": [
        {
          "internalType": "address",
          "name": "",
          "type": "address"
        },
        {
          "internalType": "uint256",
          "name": "",
          "type": "uint256"
        }
      ],
      "name": "listings",
      "outputs": [
        {
          "internalType": "uint256",
          "name": "",
          "type": "uint256"
        }
      ],
      "stateMutability": "view",
      "type": "function"
    },
    {
      "inputs": [],
      "name": "owner",
      "outputs": [
        {
          "internalType": "address",
          "name": "",
          "type": "address"
        }
      ],
      "stateMutability": "view",
      "type": "function"
    },
    {
      "inputs": [],
      "name": "platformFee",
      "outputs": [
        {
          "internalType": "uint16",
          "name": "",
          "type": "uint16"
        }
      ],
      "stateMutability": "view",
      "type": "function"
    },
    {
      "inputs": [],
      "name": "proxiableUUID",
      "outputs": [
        {
          "internalType": "bytes32",
          "name": "",
          "type": "bytes32"
        }
      ],
      "stateMutability": "view",
      "type": "function"
    },
    {
      "inputs": [],
      "name": "renounceOwnership",
      "outputs": [],
      "stateMutability": "nonpayable",
      "type": "function"
    },
    {
      "inputs": [
        {
          "internalType": "address",
          "name": "newOwner",
          "type": "address"
        }
      ],
      "name": "transferOwnership",
      "outputs": [],
      "stateMutability": "nonpayable",
      "type": "function"
    },
    {
      "inputs": [
        {
          "internalType": "address",
          "name": "_nftAddress",
          "type": "address"
        },
        {
          "internalType": "address",
          "name": "_artist",
          "type": "address"
        },
        {
          "internalType": "uint256",
          "name": "_tokenId",
          "type": "uint256"
        },
        {
          "internalType": "uint256",
          "name": "_newPrice",
          "type": "uint256"
        }
      ],
      "name": "updateListing",
      "outputs": [],
      "stateMutability": "nonpayable",
      "type": "function"
    },
    {
      "inputs": [
        {
          "internalType": "address",
          "name": "newPaymentToken",
          "type": "address"
        }
      ],
      "name": "updatePaymentToken",
      "outputs": [],
      "stateMutability": "nonpayable",
      "type": "function"
    },
    {
      "inputs": [
        {
          "internalType": "uint16",
          "name": "_platformFee",
          "type": "uint16"
        }
      ],
      "name": "updatePlatformFee",
      "outputs": [],
      "stateMutability": "nonpayable",
      "type": "function"
    },
    {
      "inputs": [
        {
          "internalType": "address payable",
          "name": "_platformFeeRecipient",
          "type": "address"
        }
      ],
      "name": "updatePlatformFeeRecipient",
      "outputs": [],
      "stateMutability": "nonpayable",
      "type": "function"
    },
    {
      "inputs": [
        {
          "internalType": "address",
          "name": "newImplementation",
          "type": "address"
        }
      ],
      "name": "upgradeTo",
      "outputs": [],
      "stateMutability": "nonpayable",
      "type": "function"
    },
    {
      "inputs": [
        {
          "internalType": "address",
          "name": "newImplementation",
          "type": "address"
        },
        {
          "internalType": "bytes",
          "name": "data",
          "type": "bytes"
        }
      ],
      "name": "upgradeToAndCall",
      "outputs": [],
      "stateMutability": "payable",
      "type": "function"
    }
  ],
  "bytecode": "0x60a06040523073ffffffffffffffffffffffffffffffffffffffff1660809073ffffffffffffffffffffffffffffffffffffffff1660601b81525034801561004657600080fd5b5060805160601c61391861008160003960008181610581015281816106100152818161091d015281816109ac0152610a5c01526139186000f3fe6080604052600436106101135760003560e01c806356f57f98116100a0578063af89e58511610064578063af89e58514610367578063afb0695214610390578063b95d3ee6146103b9578063f2fde38b146103f6578063f5fe7f711461041f57610113565b806356f57f98146102aa578063715018a6146102d35780637ebef529146102ea5780638da5cb5b146103135780639f37092a1461033e57610113565b80633740ebb3116100e75780633740ebb3146101e65780633abf3632146102115780634ccf1b341461023a5780634f1ef2861461026357806352d1902d1461027f57610113565b806207df301461011857806326232a2e14610155578063310a35b7146101805780633659cfe6146101bd575b600080fd5b34801561012457600080fd5b5061013f600480360381019061013a91906126b7565b610448565b60405161014c9190612f5a565b60405180910390f35b34801561016157600080fd5b5061016a61046d565b6040516101779190612f3f565b60405180910390f35b34801561018c57600080fd5b506101a760048036038101906101a29190612510565b610481565b6040516101b49190612c4a565b60405180910390f35b3480156101c957600080fd5b506101e460048036038101906101df9190612510565b61057f565b005b3480156101f257600080fd5b506101fb61072e565b6040516102089190612bcf565b60405180910390f35b34801561021d57600080fd5b5061023860048036038101906102339190612600565b610754565b005b34801561024657600080fd5b50610261600480360381019061025c9190612510565b6108cf565b005b61027d60048036038101906102789190612663565b61091b565b005b34801561028b57600080fd5b50610294610a58565b6040516102a19190612c6c565b60405180910390f35b3480156102b657600080fd5b506102d160048036038101906102cc9190612600565b610b11565b005b3480156102df57600080fd5b506102e8610eb4565b005b3480156102f657600080fd5b50610311600480360381019061030c9190612562565b610ec8565b005b34801561031f57600080fd5b506103286110a8565b6040516103359190612bb4565b60405180910390f35b34801561034a57600080fd5b50610365600480360381019061036091906126b7565b6110d2565b005b34801561037357600080fd5b5061038e600480360381019061038991906125b1565b61118e565b005b34801561039c57600080fd5b506103b760048036038101906103b29190612745565b611253565b005b3480156103c557600080fd5b506103e060048036038101906103db91906126b7565b6112b2565b6040516103ed9190612bb4565b60405180910390f35b34801561040257600080fd5b5061041d60048036038101906104189190612510565b6112f4565b005b34801561042b57600080fd5b5061044660048036038101906104419190612539565b611378565b005b60fd602052816000526040600020602052806000526040600020600091509150505481565b60fe60009054906101000a900461ffff1681565b606060ff60008373ffffffffffffffffffffffffffffffffffffffff1673ffffffffffffffffffffffffffffffffffffffff168152602001908152602001600020805480602002602001604051908101604052809291908181526020016000905b828210156105745783829060005260206000209060020201604051806040016040529081600082015481526020016001820160009054906101000a900473ffffffffffffffffffffffffffffffffffffffff1673ffffffffffffffffffffffffffffffffffffffff1673ffffffffffffffffffffffffffffffffffffffff1681525050815260200190600101906104e2565b505050509050919050565b7f000000000000000000000000000000000000000000000000000000000000000073ffffffffffffffffffffffffffffffffffffffff163073ffffffffffffffffffffffffffffffffffffffff16141561060e576040517f08c379a000000000000000000000000000000000000000000000000000000000815260040161060590612d1f565b60405180910390fd5b7f000000000000000000000000000000000000000000000000000000000000000073ffffffffffffffffffffffffffffffffffffffff1661064d6113fb565b73ffffffffffffffffffffffffffffffffffffffff16146106a3576040517f08c379a000000000000000000000000000000000000000000000000000000000815260040161069a90612d3f565b60405180910390fd5b6106ac81611452565b61072b81600067ffffffffffffffff8111156106f1577f4e487b7100000000000000000000000000000000000000000000000000000000600052604160045260246000fd5b6040519080825280601f01601f1916602001820160405280156107235781602001600182028036833780820191505090505b50600061145d565b50565b60fe60029054906101000a900473ffffffffffffffffffffffffffffffffffffffff1681565b61075c6115da565b610764611658565b8382600060fd60008473ffffffffffffffffffffffffffffffffffffffff1673ffffffffffffffffffffffffffffffffffffffff1681526020019081526020016000206000838152602001908152602001600020549050600081116107fe576040517f08c379a00000000000000000000000000000000000000000000000000000000081526004016107f590612cdf565b60405180910390fd5b600060fd60008973ffffffffffffffffffffffffffffffffffffffff1673ffffffffffffffffffffffffffffffffffffffff16815260200190815260200160002060008781526020019081526020016000205490508490508773ffffffffffffffffffffffffffffffffffffffff168773ffffffffffffffffffffffffffffffffffffffff167f3c33e65e8698294810b631d476d60b44425303828da0b1f8b635231bfda12be288886040516108b5929190612f75565b60405180910390a3505050506108c96116a8565b50505050565b6108d76115da565b8060fb60006101000a81548173ffffffffffffffffffffffffffffffffffffffff021916908373ffffffffffffffffffffffffffffffffffffffff16021790555050565b7f000000000000000000000000000000000000000000000000000000000000000073ffffffffffffffffffffffffffffffffffffffff163073ffffffffffffffffffffffffffffffffffffffff1614156109aa576040517f08c379a00000000000000000000000000000000000000000000000000000000081526004016109a190612d1f565b60405180910390fd5b7f000000000000000000000000000000000000000000000000000000000000000073ffffffffffffffffffffffffffffffffffffffff166109e96113fb565b73ffffffffffffffffffffffffffffffffffffffff1614610a3f576040517f08c379a0000000000000000000000000000000000000000000000000000000008152600401610a3690612d3f565b60405180910390fd5b610a4882611452565b610a548282600161145d565b5050565b60007f000000000000000000000000000000000000000000000000000000000000000073ffffffffffffffffffffffffffffffffffffffff163073ffffffffffffffffffffffffffffffffffffffff1614610ae8576040517f08c379a0000000000000000000000000000000000000000000000000000000008152600401610adf90612d7f565b60405180910390fd5b7f360894a13ba1a3210667c828492db98dca3e2076cc3735a920a3ca505d382bbc60001b905090565b610b196115da565b8382600060fd60008473ffffffffffffffffffffffffffffffffffffffff1673ffffffffffffffffffffffffffffffffffffffff16815260200190815260200160002060008381526020019081526020016000205490506000811115610bb4576040517f08c379a0000000000000000000000000000000000000000000000000000000008152600401610bab90612e5f565b60405180910390fd5b8673ffffffffffffffffffffffffffffffffffffffff166301ffc9a76380ac58cd60e01b6040518263ffffffff1660e01b8152600401610bf49190612c87565b60206040518083038186803b158015610c0c57600080fd5b505afa158015610c20573d6000803e3d6000fd5b505050506040513d601f19601f82011682018060405250810190610c4491906126f3565b15610d255760008790508073ffffffffffffffffffffffffffffffffffffffff1663e985e9c5610c726110a8565b306040518363ffffffff1660e01b8152600401610c90929190612bea565b60206040518083038186803b158015610ca857600080fd5b505afa158015610cbc573d6000803e3d6000fd5b505050506040513d601f19601f82011682018060405250810190610ce091906126f3565b610d1f576040517f08c379a0000000000000000000000000000000000000000000000000000000008152600401610d1690612e7f565b60405180910390fd5b50610d60565b6040517f08c379a0000000000000000000000000000000000000000000000000000000008152600401610d5790612d9f565b60405180910390fd5b8360fd60008973ffffffffffffffffffffffffffffffffffffffff1673ffffffffffffffffffffffffffffffffffffffff1681526020019081526020016000206000878152602001908152602001600020819055508560fc60008973ffffffffffffffffffffffffffffffffffffffff1673ffffffffffffffffffffffffffffffffffffffff168152602001908152602001600020600087815260200190815260200160002060006101000a81548173ffffffffffffffffffffffffffffffffffffffff021916908373ffffffffffffffffffffffffffffffffffffffff1602179055508673ffffffffffffffffffffffffffffffffffffffff168673ffffffffffffffffffffffffffffffffffffffff167fd547e933094f12a9159076970143ebe73234e64480317844b0dcb36117116de48787604051610ea3929190612f75565b60405180910390a350505050505050565b610ebc6115da565b610ec660006116b2565b565b60008060019054906101000a900460ff16159050808015610ef95750600160008054906101000a900460ff1660ff16105b80610f265750610f0830611778565b158015610f255750600160008054906101000a900460ff1660ff16145b5b610f65576040517f08c379a0000000000000000000000000000000000000000000000000000000008152600401610f5c90612ddf565b60405180910390fd5b60016000806101000a81548160ff021916908360ff1602179055508015610fa2576001600060016101000a81548160ff0219169083151502179055505b610faa61179b565b8160fe60006101000a81548161ffff021916908361ffff1602179055508360fe60026101000a81548173ffffffffffffffffffffffffffffffffffffffff021916908373ffffffffffffffffffffffffffffffffffffffff1602179055508260fb60006101000a81548173ffffffffffffffffffffffffffffffffffffffff021916908373ffffffffffffffffffffffffffffffffffffffff16021790555080156110a25760008060016101000a81548160ff0219169083151502179055507f7f26b83ff96e1f2b6a682f133852f6798a09c465da95921460cefb384740249860016040516110999190612ca2565b60405180910390a15b50505050565b6000609760009054906101000a900473ffffffffffffffffffffffffffffffffffffffff16905090565b6110da611658565b8181600060fd60008473ffffffffffffffffffffffffffffffffffffffff1673ffffffffffffffffffffffffffffffffffffffff168152602001908152602001600020600083815260200190815260200160002054905060008111611174576040517f08c379a000000000000000000000000000000000000000000000000000000000815260040161116b90612cdf565b60405180910390fd5b61117f8585336117f4565b50505061118a6116a8565b5050565b6111966115da565b61119e611658565b8281600060fd60008473ffffffffffffffffffffffffffffffffffffffff1673ffffffffffffffffffffffffffffffffffffffff168152602001908152602001600020600083815260200190815260200160002054905060008111611238576040517f08c379a000000000000000000000000000000000000000000000000000000000815260040161122f90612cdf565b60405180910390fd5b611243868686611d05565b50505061124e6116a8565b505050565b61125b6115da565b8060fe60006101000a81548161ffff021916908361ffff1602179055507fcabead39256298cdf7d1228eee68b47bc54a2192283d8d93574da08d2d7ac303816040516112a79190612f3f565b60405180910390a150565b60fc6020528160005260406000206020528060005260406000206000915091509054906101000a900473ffffffffffffffffffffffffffffffffffffffff1681565b6112fc6115da565b600073ffffffffffffffffffffffffffffffffffffffff168173ffffffffffffffffffffffffffffffffffffffff16141561136c576040517f08c379a000000000000000000000000000000000000000000000000000000000815260040161136390612cff565b60405180910390fd5b611375816116b2565b50565b6113806115da565b8060fe60026101000a81548173ffffffffffffffffffffffffffffffffffffffff021916908373ffffffffffffffffffffffffffffffffffffffff1602179055507fe57e7c1f36cc83fade34e32351e6eee7eb9da532662b1b5da10c631e8222aca7816040516113f09190612bcf565b60405180910390a150565b60006114297f360894a13ba1a3210667c828492db98dca3e2076cc3735a920a3ca505d382bbc60001b611e36565b60000160009054906101000a900473ffffffffffffffffffffffffffffffffffffffff16905090565b61145a6115da565b50565b6114897f4910fdfa16fed3260ed0e7147f7cc6da11a60208b5b9406d12a635614ffd914360001b611e40565b60000160009054906101000a900460ff16156114ad576114a883611e4a565b6115d5565b8273ffffffffffffffffffffffffffffffffffffffff166352d1902d6040518163ffffffff1660e01b815260040160206040518083038186803b1580156114f357600080fd5b505afa92505050801561152457506040513d601f19601f82011682018060405250810190611521919061271c565b60015b611563576040517f08c379a000000000000000000000000000000000000000000000000000000000815260040161155a90612dff565b60405180910390fd5b7f360894a13ba1a3210667c828492db98dca3e2076cc3735a920a3ca505d382bbc60001b81146115c8576040517f08c379a00000000000000000000000000000000000000000000000000000000081526004016115bf90612dbf565b60405180910390fd5b506115d4838383611f03565b5b505050565b6115e2611f2f565b73ffffffffffffffffffffffffffffffffffffffff166116006110a8565b73ffffffffffffffffffffffffffffffffffffffff1614611656576040517f08c379a000000000000000000000000000000000000000000000000000000000815260040161164d90612e3f565b60405180910390fd5b565b600260c954141561169e576040517f08c379a000000000000000000000000000000000000000000000000000000000815260040161169590612f1f565b60405180910390fd5b600260c981905550565b600160c981905550565b6000609760009054906101000a900473ffffffffffffffffffffffffffffffffffffffff16905081609760006101000a81548173ffffffffffffffffffffffffffffffffffffffff021916908373ffffffffffffffffffffffffffffffffffffffff1602179055508173ffffffffffffffffffffffffffffffffffffffff168173ffffffffffffffffffffffffffffffffffffffff167f8be0079c531659141344cd1fd0a4f28419497f9722a3daafe3b4186f6b6457e060405160405180910390a35050565b6000808273ffffffffffffffffffffffffffffffffffffffff163b119050919050565b600060019054906101000a900460ff166117ea576040517f08c379a00000000000000000000000000000000000000000000000000000000081526004016117e190612edf565b60405180910390fd5b6117f2611f37565b565b600060fd60008573ffffffffffffffffffffffffffffffffffffffff1673ffffffffffffffffffffffffffffffffffffffff16815260200190815260200160002060008481526020019081526020016000205490506000611885606461187760fe60009054906101000a900461ffff1661ffff1685611f9890919063ffffffff16565b611fae90919063ffffffff16565b90506118ff611892611f2f565b60fe60029054906101000a900473ffffffffffffffffffffffffffffffffffffffff168460fb60009054906101000a900473ffffffffffffffffffffffffffffffffffffffff1673ffffffffffffffffffffffffffffffffffffffff16611fc4909392919063ffffffff16565b600060fc60008773ffffffffffffffffffffffffffffffffffffffff1673ffffffffffffffffffffffffffffffffffffffff168152602001908152602001600020600086815260200190815260200160002060009054906101000a900473ffffffffffffffffffffffffffffffffffffffff16905060ff60008573ffffffffffffffffffffffffffffffffffffffff1673ffffffffffffffffffffffffffffffffffffffff16815260200190815260200160002060405180604001604052808781526020018873ffffffffffffffffffffffffffffffffffffffff1681525090806001815401808255809150506001900390600052602060002090600202016000909190919091506000820151816000015560208201518160010160006101000a81548173ffffffffffffffffffffffffffffffffffffffff021916908373ffffffffffffffffffffffffffffffffffffffff160217905550505060fe60029054906101000a900473ffffffffffffffffffffffffffffffffffffffff1673ffffffffffffffffffffffffffffffffffffffff166301e3366760fb60009054906101000a900473ffffffffffffffffffffffffffffffffffffffff1683611acf868861204d90919063ffffffff16565b6040518463ffffffff1660e01b8152600401611aed93929190612c13565b600060405180830381600087803b158015611b0757600080fd5b505af1158015611b1b573d6000803e3d6000fd5b505050508573ffffffffffffffffffffffffffffffffffffffff166301ffc9a76380ac58cd60e01b6040518263ffffffff1660e01b8152600401611b5f9190612c87565b60206040518083038186803b158015611b7757600080fd5b505afa158015611b8b573d6000803e3d6000fd5b505050506040513d601f19601f82011682018060405250810190611baf91906126f3565b15611c2b578573ffffffffffffffffffffffffffffffffffffffff166323b872dd611bd86110a8565b86886040518463ffffffff1660e01b8152600401611bf893929190612c13565b600060405180830381600087803b158015611c1257600080fd5b505af1158015611c26573d6000803e3d6000fd5b505050505b8573ffffffffffffffffffffffffffffffffffffffff168473ffffffffffffffffffffffffffffffffffffffff168273ffffffffffffffffffffffffffffffffffffffff167fee0ddd6454e05c1b33a8dfcb6cc52418d28020e96e21228bb601f5dbb6790cd08887604051611ca1929190612f75565b60405180910390a460fd60008773ffffffffffffffffffffffffffffffffffffffff1673ffffffffffffffffffffffffffffffffffffffff168152602001908152602001600020600086815260200190815260200160002060009055505050505050565b60fd60008473ffffffffffffffffffffffffffffffffffffffff1673ffffffffffffffffffffffffffffffffffffffff16815260200190815260200160002060008281526020019081526020016000206000905560fc60008473ffffffffffffffffffffffffffffffffffffffff1673ffffffffffffffffffffffffffffffffffffffff168152602001908152602001600020600082815260200190815260200160002060006101000a81549073ffffffffffffffffffffffffffffffffffffffff02191690558273ffffffffffffffffffffffffffffffffffffffff168273ffffffffffffffffffffffffffffffffffffffff167f9ba1a3cb55ce8d63d072a886f94d2a744f50cddf82128e897d0661f5ec62315883604051611e299190612f5a565b60405180910390a3505050565b6000819050919050565b6000819050919050565b611e5381611778565b611e92576040517f08c379a0000000000000000000000000000000000000000000000000000000008152600401611e8990612e1f565b60405180910390fd5b80611ebf7f360894a13ba1a3210667c828492db98dca3e2076cc3735a920a3ca505d382bbc60001b611e36565b60000160006101000a81548173ffffffffffffffffffffffffffffffffffffffff021916908373ffffffffffffffffffffffffffffffffffffffff16021790555050565b611f0c83612063565b600082511180611f195750805b15611f2a57611f2883836120b2565b505b505050565b600033905090565b600060019054906101000a900460ff16611f86576040517f08c379a0000000000000000000000000000000000000000000000000000000008152600401611f7d90612edf565b60405180910390fd5b611f96611f91611f2f565b6116b2565b565b60008183611fa69190613090565b905092915050565b60008183611fbc919061305f565b905092915050565b612047846323b872dd60e01b858585604051602401611fe593929190612c13565b604051602081830303815290604052907bffffffffffffffffffffffffffffffffffffffffffffffffffffffff19166020820180517bffffffffffffffffffffffffffffffffffffffffffffffffffffffff8381831617835250505050612196565b50505050565b6000818361205b91906130ea565b905092915050565b61206c81611e4a565b8073ffffffffffffffffffffffffffffffffffffffff167fbc7cd75a20ee27fd9adebab32041f755214dbc6bffa90cc0225b39da2e5c2d3b60405160405180910390a250565b60606120bd83611778565b6120fc576040517f08c379a00000000000000000000000000000000000000000000000000000000081526004016120f390612e9f565b60405180910390fd5b6000808473ffffffffffffffffffffffffffffffffffffffff16846040516121249190612b9d565b600060405180830381855af49150503d806000811461215f576040519150601f19603f3d011682016040523d82523d6000602084013e612164565b606091505b509150915061218c82826040518060600160405280602781526020016138bc6027913961225d565b9250505092915050565b60006121f8826040518060400160405280602081526020017f5361666545524332303a206c6f772d6c6576656c2063616c6c206661696c65648152508573ffffffffffffffffffffffffffffffffffffffff1661227f9092919063ffffffff16565b9050600081511115612258578080602001905181019061221891906126f3565b612257576040517f08c379a000000000000000000000000000000000000000000000000000000000815260040161224e90612eff565b60405180910390fd5b5b505050565b6060831561226d57829050612278565b6122778383612297565b5b9392505050565b606061228e84846000856122e7565b90509392505050565b6000825111156122aa5781518083602001fd5b806040517f08c379a00000000000000000000000000000000000000000000000000000000081526004016122de9190612cbd565b60405180910390fd5b60608247101561232c576040517f08c379a000000000000000000000000000000000000000000000000000000000815260040161232390612d5f565b60405180910390fd5b6000808673ffffffffffffffffffffffffffffffffffffffff1685876040516123559190612b9d565b60006040518083038185875af1925050503d8060008114612392576040519150601f19603f3d011682016040523d82523d6000602084013e612397565b606091505b50915091506123a8878383876123b4565b92505050949350505050565b606083156124175760008351141561240f576123cf85611778565b61240e576040517f08c379a000000000000000000000000000000000000000000000000000000000815260040161240590612ebf565b60405180910390fd5b5b829050612422565b6124218383612297565b5b949350505050565b600061243d61243884612fc3565b612f9e565b90508281526020810184848401111561245557600080fd5b6124608482856131db565b509392505050565b60008135905061247781613831565b92915050565b60008135905061248c81613848565b92915050565b6000815190506124a18161385f565b92915050565b6000815190506124b681613876565b92915050565b600082601f8301126124cd57600080fd5b81356124dd84826020860161242a565b91505092915050565b6000813590506124f58161388d565b92915050565b60008135905061250a816138a4565b92915050565b60006020828403121561252257600080fd5b600061253084828501612468565b91505092915050565b60006020828403121561254b57600080fd5b60006125598482850161247d565b91505092915050565b60008060006060848603121561257757600080fd5b60006125858682870161247d565b935050602061259686828701612468565b92505060406125a7868287016124e6565b9150509250925092565b6000806000606084860312156125c657600080fd5b60006125d486828701612468565b93505060206125e586828701612468565b92505060406125f6868287016124fb565b9150509250925092565b6000806000806080858703121561261657600080fd5b600061262487828801612468565b945050602061263587828801612468565b9350506040612646878288016124fb565b9250506060612657878288016124fb565b91505092959194509250565b6000806040838503121561267657600080fd5b600061268485828601612468565b925050602083013567ffffffffffffffff8111156126a157600080fd5b6126ad858286016124bc565b9150509250929050565b600080604083850312156126ca57600080fd5b60006126d885828601612468565b92505060206126e9858286016124fb565b9150509250929050565b60006020828403121561270557600080fd5b600061271384828501612492565b91505092915050565b60006020828403121561272e57600080fd5b600061273c848285016124a7565b91505092915050565b60006020828403121561275757600080fd5b6000612765848285016124e6565b91505092915050565b600061277a8383612b41565b60408301905092915050565b61278f81613130565b82525050565b61279e8161311e565b82525050565b6127ad8161311e565b82525050565b60006127be82613004565b6127c88185613032565b93506127d383612ff4565b8060005b838110156128045781516127eb888261276e565b97506127f683613025565b9250506001810190506127d7565b5085935050505092915050565b61281a8161314e565b82525050565b61282981613158565b82525050565b600061283a8261300f565b6128448185613043565b93506128548185602086016131ea565b80840191505092915050565b612869816131c9565b82525050565b600061287a8261301a565b612884818561304e565b93506128948185602086016131ea565b61289d816132db565b840191505092915050565b60006128b560228361304e565b91506128c0826132ec565b604082019050919050565b60006128d860268361304e565b91506128e38261333b565b604082019050919050565b60006128fb602c8361304e565b91506129068261338a565b604082019050919050565b600061291e602c8361304e565b9150612929826133d9565b604082019050919050565b600061294160268361304e565b915061294c82613428565b604082019050919050565b600061296460388361304e565b915061296f82613477565b604082019050919050565b600061298760268361304e565b9150612992826134c6565b604082019050919050565b60006129aa60298361304e565b91506129b582613515565b604082019050919050565b60006129cd602e8361304e565b91506129d882613564565b604082019050919050565b60006129f0602e8361304e565b91506129fb826135b3565b604082019050919050565b6000612a13602d8361304e565b9150612a1e82613602565b604082019050919050565b6000612a3660208361304e565b9150612a4182613651565b602082019050919050565b6000612a5960218361304e565b9150612a648261367a565b604082019050919050565b6000612a7c60118361304e565b9150612a87826136c9565b602082019050919050565b6000612a9f60268361304e565b9150612aaa826136f2565b604082019050919050565b6000612ac2601d8361304e565b9150612acd82613741565b602082019050919050565b6000612ae5602b8361304e565b9150612af08261376a565b604082019050919050565b6000612b08602a8361304e565b9150612b13826137b9565b604082019050919050565b6000612b2b601f8361304e565b9150612b3682613808565b602082019050919050565b604082016000820151612b576000850182612b7f565b506020820151612b6a6020850182612795565b50505050565b612b7981613184565b82525050565b612b88816131b2565b82525050565b612b97816131b2565b82525050565b6000612ba9828461282f565b915081905092915050565b6000602082019050612bc960008301846127a4565b92915050565b6000602082019050612be46000830184612786565b92915050565b6000604082019050612bff60008301856127a4565b612c0c60208301846127a4565b9392505050565b6000606082019050612c2860008301866127a4565b612c3560208301856127a4565b612c426040830184612b8e565b949350505050565b60006020820190508181036000830152612c6481846127b3565b905092915050565b6000602082019050612c816000830184612811565b92915050565b6000602082019050612c9c6000830184612820565b92915050565b6000602082019050612cb76000830184612860565b92915050565b60006020820190508181036000830152612cd7818461286f565b905092915050565b60006020820190508181036000830152612cf8816128a8565b9050919050565b60006020820190508181036000830152612d18816128cb565b9050919050565b60006020820190508181036000830152612d38816128ee565b9050919050565b60006020820190508181036000830152612d5881612911565b9050919050565b60006020820190508181036000830152612d7881612934565b9050919050565b60006020820190508181036000830152612d9881612957565b9050919050565b60006020820190508181036000830152612db88161297a565b9050919050565b60006020820190508181036000830152612dd88161299d565b9050919050565b60006020820190508181036000830152612df8816129c0565b9050919050565b60006020820190508181036000830152612e18816129e3565b9050919050565b60006020820190508181036000830152612e3881612a06565b9050919050565b60006020820190508181036000830152612e5881612a29565b9050919050565b60006020820190508181036000830152612e7881612a4c565b9050919050565b60006020820190508181036000830152612e9881612a6f565b9050919050565b60006020820190508181036000830152612eb881612a92565b9050919050565b60006020820190508181036000830152612ed881612ab5565b9050919050565b60006020820190508181036000830152612ef881612ad8565b9050919050565b60006020820190508181036000830152612f1881612afb565b9050919050565b60006020820190508181036000830152612f3881612b1e565b9050919050565b6000602082019050612f546000830184612b70565b92915050565b6000602082019050612f6f6000830184612b8e565b92915050565b6000604082019050612f8a6000830185612b8e565b612f976020830184612b8e565b9392505050565b6000612fa8612fb9565b9050612fb4828261321d565b919050565b6000604051905090565b600067ffffffffffffffff821115612fde57612fdd6132ac565b5b612fe7826132db565b9050602081019050919050565b6000819050602082019050919050565b600081519050919050565b600081519050919050565b600081519050919050565b6000602082019050919050565b600082825260208201905092915050565b600081905092915050565b600082825260208201905092915050565b600061306a826131b2565b9150613075836131b2565b9250826130855761308461327d565b5b828204905092915050565b600061309b826131b2565b91506130a6836131b2565b9250817fffffffffffffffffffffffffffffffffffffffffffffffffffffffffffffffff04831182151516156130df576130de61324e565b5b828202905092915050565b60006130f5826131b2565b9150613100836131b2565b9250828210156131135761311261324e565b5b828203905092915050565b600061312982613192565b9050919050565b600061313b82613192565b9050919050565b60008115159050919050565b6000819050919050565b60007fffffffff0000000000000000000000000000000000000000000000000000000082169050919050565b600061ffff82169050919050565b600073ffffffffffffffffffffffffffffffffffffffff82169050919050565b6000819050919050565b600060ff82169050919050565b60006131d4826131bc565b9050919050565b82818337600083830152505050565b60005b838110156132085780820151818401526020810190506131ed565b83811115613217576000848401525b50505050565b613226826132db565b810181811067ffffffffffffffff82111715613245576132446132ac565b5b80604052505050565b7f4e487b7100000000000000000000000000000000000000000000000000000000600052601160045260246000fd5b7f4e487b7100000000000000000000000000000000000000000000000000000000600052601260045260246000fd5b7f4e487b7100000000000000000000000000000000000000000000000000000000600052604160045260246000fd5b6000601f19601f8301169050919050565b7f437265617468204d61726b6574706c6163653a6e6f74206c697374656420697460008201527f656d000000000000000000000000000000000000000000000000000000000000602082015250565b7f4f776e61626c653a206e6577206f776e657220697320746865207a65726f206160008201527f6464726573730000000000000000000000000000000000000000000000000000602082015250565b7f46756e6374696f6e206d7573742062652063616c6c6564207468726f7567682060008201527f64656c656761746563616c6c0000000000000000000000000000000000000000602082015250565b7f46756e6374696f6e206d7573742062652063616c6c6564207468726f7567682060008201527f6163746976652070726f78790000000000000000000000000000000000000000602082015250565b7f416464726573733a20696e73756666696369656e742062616c616e636520666f60008201527f722063616c6c0000000000000000000000000000000000000000000000000000602082015250565b7f555550535570677261646561626c653a206d757374206e6f742062652063616c60008201527f6c6564207468726f7567682064656c656761746563616c6c0000000000000000602082015250565b7f437265617468204d61726b6574706c6163653a696e76616c6964206e6674206160008201527f6464726573730000000000000000000000000000000000000000000000000000602082015250565b7f45524331393637557067726164653a20756e737570706f727465642070726f7860008201527f6961626c65555549440000000000000000000000000000000000000000000000602082015250565b7f496e697469616c697a61626c653a20636f6e747261637420697320616c72656160008201527f647920696e697469616c697a6564000000000000000000000000000000000000602082015250565b7f45524331393637557067726164653a206e657720696d706c656d656e7461746960008201527f6f6e206973206e6f742055555053000000000000000000000000000000000000602082015250565b7f455243313936373a206e657720696d706c656d656e746174696f6e206973206e60008201527f6f74206120636f6e747261637400000000000000000000000000000000000000602082015250565b7f4f776e61626c653a2063616c6c6572206973206e6f7420746865206f776e6572600082015250565b7f437265617468204d61726b6574706c6163653a616c7265616479206c6973746560008201527f6400000000000000000000000000000000000000000000000000000000000000602082015250565b7f6974656d206e6f7420617070726f766564000000000000000000000000000000600082015250565b7f416464726573733a2064656c65676174652063616c6c20746f206e6f6e2d636f60008201527f6e74726163740000000000000000000000000000000000000000000000000000602082015250565b7f416464726573733a2063616c6c20746f206e6f6e2d636f6e7472616374000000600082015250565b7f496e697469616c697a61626c653a20636f6e7472616374206973206e6f74206960008201527f6e697469616c697a696e67000000000000000000000000000000000000000000602082015250565b7f5361666545524332303a204552433230206f7065726174696f6e20646964206e60008201527f6f74207375636365656400000000000000000000000000000000000000000000602082015250565b7f5265656e7472616e637947756172643a207265656e7472616e742063616c6c00600082015250565b61383a8161311e565b811461384557600080fd5b50565b61385181613130565b811461385c57600080fd5b50565b61386881613142565b811461387357600080fd5b50565b61387f8161314e565b811461388a57600080fd5b50565b61389681613184565b81146138a157600080fd5b50565b6138ad816131b2565b81146138b857600080fd5b5056fe416464726573733a206c6f772d6c6576656c2064656c65676174652063616c6c206661696c6564a2646970667358221220477680b97101a56def299b068398e445e4906186101a3aad87472662b671a55e64736f6c63430008040033",
  "linkReferences": {},
  "deployedLinkReferences": {}
}