{
  "_format": "hh-sol-artifact-1",
  "contractName": "CreathMarketplace",
  "sourceName": "contracts/CreathMarketplace.sol",
  "abi": [
    {
      "anonymous": false,
      "inputs": [
        {
          "indexed": false,
          "internalType": "address",
          "name": "previousAdmin",
          "type": "address"
        },
        {
          "indexed": false,
          "internalType": "address",
          "name": "newAdmin",
          "type": "address"
        }
      ],
      "name": "AdminChanged",
      "type": "event"
    },
    {
      "anonymous": false,
      "inputs": [
        {
          "indexed": true,
          "internalType": "address",
          "name": "beacon",
          "type": "address"
        }
      ],
      "name": "BeaconUpgraded",
      "type": "event"
    },
    {
      "anonymous": false,
      "inputs": [
        {
          "indexed": false,
          "internalType": "uint8",
          "name": "version",
          "type": "uint8"
        }
      ],
      "name": "Initialized",
      "type": "event"
    },
    {
      "anonymous": false,
      "inputs": [
        {
          "indexed": true,
          "internalType": "address",
          "name": "owner",
          "type": "address"
        },
        {
          "indexed": true,
          "internalType": "address",
          "name": "nft",
          "type": "address"
        },
        {
          "indexed": false,
          "internalType": "uint256",
          "name": "tokenId",
          "type": "uint256"
        }
      ],
      "name": "ItemCanceled",
      "type": "event"
    },
    {
      "anonymous": false,
      "inputs": [
        {
          "indexed": true,
          "internalType": "address",
          "name": "owner",
          "type": "address"
        },
        {
          "indexed": true,
          "internalType": "address",
          "name": "nft",
          "type": "address"
        },
        {
          "indexed": false,
          "internalType": "uint256",
          "name": "tokenId",
          "type": "uint256"
        },
        {
          "indexed": false,
          "internalType": "uint256",
          "name": "price",
          "type": "uint256"
        }
      ],
      "name": "ItemListed",
      "type": "event"
    },
    {
      "anonymous": false,
      "inputs": [
        {
          "indexed": true,
          "internalType": "address",
          "name": "seller",
          "type": "address"
        },
        {
          "indexed": true,
          "internalType": "address",
          "name": "buyer",
          "type": "address"
        },
        {
          "indexed": true,
          "internalType": "address",
          "name": "nft",
          "type": "address"
        },
        {
          "indexed": false,
          "internalType": "uint256",
          "name": "tokenId",
          "type": "uint256"
        },
        {
          "indexed": false,
          "internalType": "uint256",
          "name": "price",
          "type": "uint256"
        }
      ],
      "name": "ItemSold",
      "type": "event"
    },
    {
      "anonymous": false,
      "inputs": [
        {
          "indexed": true,
          "internalType": "address",
          "name": "owner",
          "type": "address"
        },
        {
          "indexed": true,
          "internalType": "address",
          "name": "nft",
          "type": "address"
        },
        {
          "indexed": false,
          "internalType": "uint256",
          "name": "tokenId",
          "type": "uint256"
        },
        {
          "indexed": false,
          "internalType": "uint256",
          "name": "newPrice",
          "type": "uint256"
        }
      ],
      "name": "ItemUpdated",
      "type": "event"
    },
    {
      "anonymous": false,
      "inputs": [
        {
          "indexed": true,
          "internalType": "address",
          "name": "previousOwner",
          "type": "address"
        },
        {
          "indexed": true,
          "internalType": "address",
          "name": "newOwner",
          "type": "address"
        }
      ],
      "name": "OwnershipTransferred",
      "type": "event"
    },
    {
      "anonymous": false,
      "inputs": [
        {
          "indexed": false,
          "internalType": "uint16",
          "name": "platformFee",
          "type": "uint16"
        }
      ],
      "name": "UpdatePlatformFee",
      "type": "event"
    },
    {
      "anonymous": false,
      "inputs": [
        {
          "indexed": false,
          "internalType": "address payable",
          "name": "platformFeeRecipient",
          "type": "address"
        }
      ],
      "name": "UpdatePlatformFeeRecipient",
      "type": "event"
    },
    {
      "anonymous": false,
      "inputs": [
        {
          "indexed": true,
          "internalType": "address",
          "name": "implementation",
          "type": "address"
        }
      ],
      "name": "Upgraded",
      "type": "event"
    },
    {
      "inputs": [
        {
          "internalType": "address",
          "name": "",
          "type": "address"
        },
        {
          "internalType": "uint256",
          "name": "",
          "type": "uint256"
        }
      ],
      "name": "artists",
      "outputs": [
        {
          "internalType": "address",
          "name": "",
          "type": "address"
        }
      ],
      "stateMutability": "view",
      "type": "function"
    },
    {
      "inputs": [
        {
          "internalType": "address",
          "name": "_nftAddress",
          "type": "address"
        },
        {
          "internalType": "uint256",
          "name": "_tokenId",
          "type": "uint256"
        }
      ],
      "name": "buyItem",
      "outputs": [],
      "stateMutability": "nonpayable",
      "type": "function"
    },
    {
      "inputs": [
        {
          "internalType": "address",
          "name": "_nftAddress",
          "type": "address"
        },
        {
          "internalType": "address",
          "name": "_artist",
          "type": "address"
        },
        {
          "internalType": "uint256",
          "name": "_tokenId",
          "type": "uint256"
        }
      ],
      "name": "cancelListing",
      "outputs": [],
      "stateMutability": "nonpayable",
      "type": "function"
    },
    {
      "inputs": [],
      "name": "feeReceipient",
      "outputs": [
        {
          "internalType": "address payable",
          "name": "",
          "type": "address"
        }
      ],
      "stateMutability": "view",
      "type": "function"
    },
    {
      "inputs": [
        {
          "internalType": "address payable",
          "name": "_feeRecipient",
          "type": "address"
        },
        {
          "internalType": "address",
          "name": "_token",
          "type": "address"
        },
        {
          "internalType": "uint16",
          "name": "_platformFee",
          "type": "uint16"
        }
      ],
      "name": "initialize",
      "outputs": [],
      "stateMutability": "nonpayable",
      "type": "function"
    },
    {
      "inputs": [
        {
          "internalType": "address",
          "name": "_nftAddress",
          "type": "address"
        },
        {
          "internalType": "address",
          "name": "_artist",
          "type": "address"
        },
        {
          "internalType": "uint256",
          "name": "_tokenId",
          "type": "uint256"
        },
        {
          "internalType": "uint256",
          "name": "_price",
          "type": "uint256"
        }
      ],
      "name": "listItem",
      "outputs": [],
      "stateMutability": "nonpayable",
      "type": "function"
    },
    {
      "inputs": [
        {
          "internalType": "address",
          "name": "",
          "type": "address"
        },
        {
          "internalType": "uint256",
          "name": "",
          "type": "uint256"
        }
      ],
      "name": "listings",
      "outputs": [
        {
          "internalType": "uint256",
          "name": "",
          "type": "uint256"
        }
      ],
      "stateMutability": "view",
      "type": "function"
    },
    {
      "inputs": [],
      "name": "owner",
      "outputs": [
        {
          "internalType": "address",
          "name": "",
          "type": "address"
        }
      ],
      "stateMutability": "view",
      "type": "function"
    },
    {
      "inputs": [],
      "name": "platformFee",
      "outputs": [
        {
          "internalType": "uint16",
          "name": "",
          "type": "uint16"
        }
      ],
      "stateMutability": "view",
      "type": "function"
    },
    {
      "inputs": [],
      "name": "proxiableUUID",
      "outputs": [
        {
          "internalType": "bytes32",
          "name": "",
          "type": "bytes32"
        }
      ],
      "stateMutability": "view",
      "type": "function"
    },
    {
      "inputs": [],
      "name": "renounceOwnership",
      "outputs": [],
      "stateMutability": "nonpayable",
      "type": "function"
    },
    {
      "inputs": [
        {
          "internalType": "address",
          "name": "newOwner",
          "type": "address"
        }
      ],
      "name": "transferOwnership",
      "outputs": [],
      "stateMutability": "nonpayable",
      "type": "function"
    },
    {
      "inputs": [
        {
          "internalType": "address",
          "name": "_nftAddress",
          "type": "address"
        },
        {
          "internalType": "address",
          "name": "_artist",
          "type": "address"
        },
        {
          "internalType": "uint256",
          "name": "_tokenId",
          "type": "uint256"
        },
        {
          "internalType": "uint256",
          "name": "_newPrice",
          "type": "uint256"
        }
      ],
      "name": "updateListing",
      "outputs": [],
      "stateMutability": "nonpayable",
      "type": "function"
    },
    {
      "inputs": [
        {
          "internalType": "address",
          "name": "newPaymentToken",
          "type": "address"
        }
      ],
      "name": "updatePaymentToken",
      "outputs": [],
      "stateMutability": "nonpayable",
      "type": "function"
    },
    {
      "inputs": [
        {
          "internalType": "uint16",
          "name": "_platformFee",
          "type": "uint16"
        }
      ],
      "name": "updatePlatformFee",
      "outputs": [],
      "stateMutability": "nonpayable",
      "type": "function"
    },
    {
      "inputs": [
        {
          "internalType": "address payable",
          "name": "_platformFeeRecipient",
          "type": "address"
        }
      ],
      "name": "updatePlatformFeeRecipient",
      "outputs": [],
      "stateMutability": "nonpayable",
      "type": "function"
    },
    {
      "inputs": [
        {
          "internalType": "address",
          "name": "newImplementation",
          "type": "address"
        }
      ],
      "name": "upgradeTo",
      "outputs": [],
      "stateMutability": "nonpayable",
      "type": "function"
    },
    {
      "inputs": [
        {
          "internalType": "address",
          "name": "newImplementation",
          "type": "address"
        },
        {
          "internalType": "bytes",
          "name": "data",
          "type": "bytes"
        }
      ],
      "name": "upgradeToAndCall",
      "outputs": [],
      "stateMutability": "payable",
      "type": "function"
    }
  ],
  "bytecode": "0x60a06040523073ffffffffffffffffffffffffffffffffffffffff1660809073ffffffffffffffffffffffffffffffffffffffff1660601b81525034801561004657600080fd5b5060805160601c6137eb6100816000396000818161043b015281816104ca015281816107d701528181610866015261091601526137eb6000f3fe6080604052600436106101085760003560e01c8063715018a611610095578063af89e58511610064578063af89e5851461031f578063afb0695214610348578063b95d3ee614610371578063f2fde38b146103ae578063f5fe7f71146103d757610108565b8063715018a61461028b5780637ebef529146102a25780638da5cb5b146102cb5780639f37092a146102f657610108565b80633abf3632116100dc5780633abf3632146101c95780634ccf1b34146101f25780634f1ef2861461021b57806352d1902d1461023757806356f57f981461026257610108565b806207df301461010d57806326232a2e1461014a5780633659cfe6146101755780633740ebb31461019e575b600080fd5b34801561011957600080fd5b50610134600480360381019061012f9190612616565b610400565b6040516101419190612e17565b60405180910390f35b34801561015657600080fd5b5061015f610425565b60405161016c9190612dfc565b60405180910390f35b34801561018157600080fd5b5061019c60048036038101906101979190612446565b610439565b005b3480156101aa57600080fd5b506101b36105e8565b6040516101c09190612a8e565b60405180910390f35b3480156101d557600080fd5b506101f060048036038101906101eb919061255f565b61060e565b005b3480156101fe57600080fd5b5061021960048036038101906102149190612446565b610789565b005b610235600480360381019061023091906125c2565b6107d5565b005b34801561024357600080fd5b5061024c610912565b6040516102599190612b09565b60405180910390f35b34801561026e57600080fd5b506102896004803603810190610284919061255f565b6109cb565b005b34801561029757600080fd5b506102a0610e64565b005b3480156102ae57600080fd5b506102c960048036038101906102c491906124c1565b610e78565b005b3480156102d757600080fd5b506102e0611058565b6040516102ed9190612a73565b60405180910390f35b34801561030257600080fd5b5061031d60048036038101906103189190612616565b611082565b005b34801561032b57600080fd5b5061034660048036038101906103419190612510565b611194565b005b34801561035457600080fd5b5061036f600480360381019061036a91906126a4565b611259565b005b34801561037d57600080fd5b5061039860048036038101906103939190612616565b6112b8565b6040516103a59190612a73565b60405180910390f35b3480156103ba57600080fd5b506103d560048036038101906103d09190612446565b6112fa565b005b3480156103e357600080fd5b506103fe60048036038101906103f99190612498565b61137e565b005b60fd602052816000526040600020602052806000526040600020600091509150505481565b60fe60009054906101000a900461ffff1681565b7f000000000000000000000000000000000000000000000000000000000000000073ffffffffffffffffffffffffffffffffffffffff163073ffffffffffffffffffffffffffffffffffffffff1614156104c8576040517f08c379a00000000000000000000000000000000000000000000000000000000081526004016104bf90612bbc565b60405180910390fd5b7f000000000000000000000000000000000000000000000000000000000000000073ffffffffffffffffffffffffffffffffffffffff16610507611401565b73ffffffffffffffffffffffffffffffffffffffff161461055d576040517f08c379a000000000000000000000000000000000000000000000000000000000815260040161055490612bdc565b60405180910390fd5b61056681611458565b6105e581600067ffffffffffffffff8111156105ab577f4e487b7100000000000000000000000000000000000000000000000000000000600052604160045260246000fd5b6040519080825280601f01601f1916602001820160405280156105dd5781602001600182028036833780820191505090505b506000611463565b50565b60fe60029054906101000a900473ffffffffffffffffffffffffffffffffffffffff1681565b6106166115e0565b61061e61165e565b8382600060fd60008473ffffffffffffffffffffffffffffffffffffffff1673ffffffffffffffffffffffffffffffffffffffff1681526020019081526020016000206000838152602001908152602001600020549050600081116106b8576040517f08c379a00000000000000000000000000000000000000000000000000000000081526004016106af90612b7c565b60405180910390fd5b600060fd60008973ffffffffffffffffffffffffffffffffffffffff1673ffffffffffffffffffffffffffffffffffffffff16815260200190815260200160002060008781526020019081526020016000205490508490508773ffffffffffffffffffffffffffffffffffffffff168773ffffffffffffffffffffffffffffffffffffffff167f3c33e65e8698294810b631d476d60b44425303828da0b1f8b635231bfda12be2888860405161076f929190612e32565b60405180910390a3505050506107836116ae565b50505050565b6107916115e0565b8060fb60006101000a81548173ffffffffffffffffffffffffffffffffffffffff021916908373ffffffffffffffffffffffffffffffffffffffff16021790555050565b7f000000000000000000000000000000000000000000000000000000000000000073ffffffffffffffffffffffffffffffffffffffff163073ffffffffffffffffffffffffffffffffffffffff161415610864576040517f08c379a000000000000000000000000000000000000000000000000000000000815260040161085b90612bbc565b60405180910390fd5b7f000000000000000000000000000000000000000000000000000000000000000073ffffffffffffffffffffffffffffffffffffffff166108a3611401565b73ffffffffffffffffffffffffffffffffffffffff16146108f9576040517f08c379a00000000000000000000000000000000000000000000000000000000081526004016108f090612bdc565b60405180910390fd5b61090282611458565b61090e82826001611463565b5050565b60007f000000000000000000000000000000000000000000000000000000000000000073ffffffffffffffffffffffffffffffffffffffff163073ffffffffffffffffffffffffffffffffffffffff16146109a2576040517f08c379a000000000000000000000000000000000000000000000000000000000815260040161099990612c1c565b60405180910390fd5b7f360894a13ba1a3210667c828492db98dca3e2076cc3735a920a3ca505d382bbc60001b905090565b6109d36115e0565b8382600060fd60008473ffffffffffffffffffffffffffffffffffffffff1673ffffffffffffffffffffffffffffffffffffffff16815260200190815260200160002060008381526020019081526020016000205490506000811115610a6e576040517f08c379a0000000000000000000000000000000000000000000000000000000008152600401610a6590612d1c565b60405180910390fd5b8673ffffffffffffffffffffffffffffffffffffffff166301ffc9a76380ac58cd60e01b6040518263ffffffff1660e01b8152600401610aae9190612b24565b60206040518083038186803b158015610ac657600080fd5b505afa158015610ada573d6000803e3d6000fd5b505050506040513d601f19601f82011682018060405250810190610afe9190612652565b15610cd55760008790503373ffffffffffffffffffffffffffffffffffffffff168173ffffffffffffffffffffffffffffffffffffffff16636352211e886040518263ffffffff1660e01b8152600401610b589190612e17565b60206040518083038186803b158015610b7057600080fd5b505afa158015610b84573d6000803e3d6000fd5b505050506040513d601f19601f82011682018060405250810190610ba8919061246f565b73ffffffffffffffffffffffffffffffffffffffff1614610bfe576040517f08c379a0000000000000000000000000000000000000000000000000000000008152600401610bf590612c3c565b60405180910390fd5b8073ffffffffffffffffffffffffffffffffffffffff1663e985e9c5610c22611058565b306040518363ffffffff1660e01b8152600401610c40929190612aa9565b60206040518083038186803b158015610c5857600080fd5b505afa158015610c6c573d6000803e3d6000fd5b505050506040513d601f19601f82011682018060405250810190610c909190612652565b610ccf576040517f08c379a0000000000000000000000000000000000000000000000000000000008152600401610cc690612d3c565b60405180910390fd5b50610d10565b6040517f08c379a0000000000000000000000000000000000000000000000000000000008152600401610d0790612c5c565b60405180910390fd5b8360fd60008973ffffffffffffffffffffffffffffffffffffffff1673ffffffffffffffffffffffffffffffffffffffff1681526020019081526020016000206000878152602001908152602001600020819055508560fc60008973ffffffffffffffffffffffffffffffffffffffff1673ffffffffffffffffffffffffffffffffffffffff168152602001908152602001600020600087815260200190815260200160002060006101000a81548173ffffffffffffffffffffffffffffffffffffffff021916908373ffffffffffffffffffffffffffffffffffffffff1602179055508673ffffffffffffffffffffffffffffffffffffffff168673ffffffffffffffffffffffffffffffffffffffff167fd547e933094f12a9159076970143ebe73234e64480317844b0dcb36117116de48787604051610e53929190612e32565b60405180910390a350505050505050565b610e6c6115e0565b610e7660006116b8565b565b60008060019054906101000a900460ff16159050808015610ea95750600160008054906101000a900460ff1660ff16105b80610ed65750610eb83061177e565b158015610ed55750600160008054906101000a900460ff1660ff16145b5b610f15576040517f08c379a0000000000000000000000000000000000000000000000000000000008152600401610f0c90612c9c565b60405180910390fd5b60016000806101000a81548160ff021916908360ff1602179055508015610f52576001600060016101000a81548160ff0219169083151502179055505b610f5a6117a1565b8160fe60006101000a81548161ffff021916908361ffff1602179055508360fe60026101000a81548173ffffffffffffffffffffffffffffffffffffffff021916908373ffffffffffffffffffffffffffffffffffffffff1602179055508260fb60006101000a81548173ffffffffffffffffffffffffffffffffffffffff021916908373ffffffffffffffffffffffffffffffffffffffff16021790555080156110525760008060016101000a81548160ff0219169083151502179055507f7f26b83ff96e1f2b6a682f133852f6798a09c465da95921460cefb384740249860016040516110499190612b3f565b60405180910390a15b50505050565b6000609760009054906101000a900473ffffffffffffffffffffffffffffffffffffffff16905090565b61108a61165e565b8181600060fd60008473ffffffffffffffffffffffffffffffffffffffff1673ffffffffffffffffffffffffffffffffffffffff168152602001908152602001600020600083815260200190815260200160002054905060008111611124576040517f08c379a000000000000000000000000000000000000000000000000000000000815260040161111b90612b7c565b60405180910390fd5b600060fd60008773ffffffffffffffffffffffffffffffffffffffff1673ffffffffffffffffffffffffffffffffffffffff16815260200190815260200160002060008681526020019081526020016000205490506111848686336117fa565b505050506111906116ae565b5050565b61119c6115e0565b6111a461165e565b8281600060fd60008473ffffffffffffffffffffffffffffffffffffffff1673ffffffffffffffffffffffffffffffffffffffff16815260200190815260200160002060008381526020019081526020016000205490506000811161123e576040517f08c379a000000000000000000000000000000000000000000000000000000000815260040161123590612b7c565b60405180910390fd5b611249868686611c26565b5050506112546116ae565b505050565b6112616115e0565b8060fe60006101000a81548161ffff021916908361ffff1602179055507fcabead39256298cdf7d1228eee68b47bc54a2192283d8d93574da08d2d7ac303816040516112ad9190612dfc565b60405180910390a150565b60fc6020528160005260406000206020528060005260406000206000915091509054906101000a900473ffffffffffffffffffffffffffffffffffffffff1681565b6113026115e0565b600073ffffffffffffffffffffffffffffffffffffffff168173ffffffffffffffffffffffffffffffffffffffff161415611372576040517f08c379a000000000000000000000000000000000000000000000000000000000815260040161136990612b9c565b60405180910390fd5b61137b816116b8565b50565b6113866115e0565b8060fe60026101000a81548173ffffffffffffffffffffffffffffffffffffffff021916908373ffffffffffffffffffffffffffffffffffffffff1602179055507fe57e7c1f36cc83fade34e32351e6eee7eb9da532662b1b5da10c631e8222aca7816040516113f69190612a8e565b60405180910390a150565b600061142f7f360894a13ba1a3210667c828492db98dca3e2076cc3735a920a3ca505d382bbc60001b611d57565b60000160009054906101000a900473ffffffffffffffffffffffffffffffffffffffff16905090565b6114606115e0565b50565b61148f7f4910fdfa16fed3260ed0e7147f7cc6da11a60208b5b9406d12a635614ffd914360001b611d61565b60000160009054906101000a900460ff16156114b3576114ae83611d6b565b6115db565b8273ffffffffffffffffffffffffffffffffffffffff166352d1902d6040518163ffffffff1660e01b815260040160206040518083038186803b1580156114f957600080fd5b505afa92505050801561152a57506040513d601f19601f82011682018060405250810190611527919061267b565b60015b611569576040517f08c379a000000000000000000000000000000000000000000000000000000000815260040161156090612cbc565b60405180910390fd5b7f360894a13ba1a3210667c828492db98dca3e2076cc3735a920a3ca505d382bbc60001b81146115ce576040517f08c379a00000000000000000000000000000000000000000000000000000000081526004016115c590612c7c565b60405180910390fd5b506115da838383611e24565b5b505050565b6115e8611e50565b73ffffffffffffffffffffffffffffffffffffffff16611606611058565b73ffffffffffffffffffffffffffffffffffffffff161461165c576040517f08c379a000000000000000000000000000000000000000000000000000000000815260040161165390612cfc565b60405180910390fd5b565b600260c95414156116a4576040517f08c379a000000000000000000000000000000000000000000000000000000000815260040161169b90612ddc565b60405180910390fd5b600260c981905550565b600160c981905550565b6000609760009054906101000a900473ffffffffffffffffffffffffffffffffffffffff16905081609760006101000a81548173ffffffffffffffffffffffffffffffffffffffff021916908373ffffffffffffffffffffffffffffffffffffffff1602179055508173ffffffffffffffffffffffffffffffffffffffff168173ffffffffffffffffffffffffffffffffffffffff167f8be0079c531659141344cd1fd0a4f28419497f9722a3daafe3b4186f6b6457e060405160405180910390a35050565b6000808273ffffffffffffffffffffffffffffffffffffffff163b119050919050565b600060019054906101000a900460ff166117f0576040517f08c379a00000000000000000000000000000000000000000000000000000000081526004016117e790612d9c565b60405180910390fd5b6117f8611e58565b565b600060fd60008573ffffffffffffffffffffffffffffffffffffffff1673ffffffffffffffffffffffffffffffffffffffff1681526020019081526020016000206000848152602001908152602001600020549050600061188c6103e861187e60fe60009054906101000a900461ffff1661ffff1685611eb990919063ffffffff16565b611ecf90919063ffffffff16565b9050611906611899611e50565b60fe60029054906101000a900473ffffffffffffffffffffffffffffffffffffffff168460fb60009054906101000a900473ffffffffffffffffffffffffffffffffffffffff1673ffffffffffffffffffffffffffffffffffffffff16611ee5909392919063ffffffff16565b600060fc60008773ffffffffffffffffffffffffffffffffffffffff1673ffffffffffffffffffffffffffffffffffffffff168152602001908152602001600020600086815260200190815260200160002060009054906101000a900473ffffffffffffffffffffffffffffffffffffffff16905060fe60029054906101000a900473ffffffffffffffffffffffffffffffffffffffff1673ffffffffffffffffffffffffffffffffffffffff166301e3366760fb60009054906101000a900473ffffffffffffffffffffffffffffffffffffffff16836119f08688611f6e90919063ffffffff16565b6040518463ffffffff1660e01b8152600401611a0e93929190612ad2565b600060405180830381600087803b158015611a2857600080fd5b505af1158015611a3c573d6000803e3d6000fd5b505050508573ffffffffffffffffffffffffffffffffffffffff166301ffc9a76380ac58cd60e01b6040518263ffffffff1660e01b8152600401611a809190612b24565b60206040518083038186803b158015611a9857600080fd5b505afa158015611aac573d6000803e3d6000fd5b505050506040513d601f19601f82011682018060405250810190611ad09190612652565b15611b4c578573ffffffffffffffffffffffffffffffffffffffff166323b872dd611af9611058565b86886040518463ffffffff1660e01b8152600401611b1993929190612ad2565b600060405180830381600087803b158015611b3357600080fd5b505af1158015611b47573d6000803e3d6000fd5b505050505b8573ffffffffffffffffffffffffffffffffffffffff168473ffffffffffffffffffffffffffffffffffffffff168273ffffffffffffffffffffffffffffffffffffffff167fee0ddd6454e05c1b33a8dfcb6cc52418d28020e96e21228bb601f5dbb6790cd08887604051611bc2929190612e32565b60405180910390a460fd60008773ffffffffffffffffffffffffffffffffffffffff1673ffffffffffffffffffffffffffffffffffffffff168152602001908152602001600020600086815260200190815260200160002060009055505050505050565b60fd60008473ffffffffffffffffffffffffffffffffffffffff1673ffffffffffffffffffffffffffffffffffffffff16815260200190815260200160002060008281526020019081526020016000206000905560fc60008473ffffffffffffffffffffffffffffffffffffffff1673ffffffffffffffffffffffffffffffffffffffff168152602001908152602001600020600082815260200190815260200160002060006101000a81549073ffffffffffffffffffffffffffffffffffffffff02191690558273ffffffffffffffffffffffffffffffffffffffff168273ffffffffffffffffffffffffffffffffffffffff167f9ba1a3cb55ce8d63d072a886f94d2a744f50cddf82128e897d0661f5ec62315883604051611d4a9190612e17565b60405180910390a3505050565b6000819050919050565b6000819050919050565b611d748161177e565b611db3576040517f08c379a0000000000000000000000000000000000000000000000000000000008152600401611daa90612cdc565b60405180910390fd5b80611de07f360894a13ba1a3210667c828492db98dca3e2076cc3735a920a3ca505d382bbc60001b611d57565b60000160006101000a81548173ffffffffffffffffffffffffffffffffffffffff021916908373ffffffffffffffffffffffffffffffffffffffff16021790555050565b611e2d83611f84565b600082511180611e3a5750805b15611e4b57611e498383611fd3565b505b505050565b600033905090565b600060019054906101000a900460ff16611ea7576040517f08c379a0000000000000000000000000000000000000000000000000000000008152600401611e9e90612d9c565b60405180910390fd5b611eb7611eb2611e50565b6116b8565b565b60008183611ec79190612f14565b905092915050565b60008183611edd9190612ee3565b905092915050565b611f68846323b872dd60e01b858585604051602401611f0693929190612ad2565b604051602081830303815290604052907bffffffffffffffffffffffffffffffffffffffffffffffffffffffff19166020820180517bffffffffffffffffffffffffffffffffffffffffffffffffffffffff83818316178352505050506120b7565b50505050565b60008183611f7c9190612f6e565b905092915050565b611f8d81611d6b565b8073ffffffffffffffffffffffffffffffffffffffff167fbc7cd75a20ee27fd9adebab32041f755214dbc6bffa90cc0225b39da2e5c2d3b60405160405180910390a250565b6060611fde8361177e565b61201d576040517f08c379a000000000000000000000000000000000000000000000000000000000815260040161201490612d5c565b60405180910390fd5b6000808473ffffffffffffffffffffffffffffffffffffffff16846040516120459190612a5c565b600060405180830381855af49150503d8060008114612080576040519150601f19603f3d011682016040523d82523d6000602084013e612085565b606091505b50915091506120ad828260405180606001604052806027815260200161378f6027913961217e565b9250505092915050565b6000612119826040518060400160405280602081526020017f5361666545524332303a206c6f772d6c6576656c2063616c6c206661696c65648152508573ffffffffffffffffffffffffffffffffffffffff166121a09092919063ffffffff16565b905060008151111561217957808060200190518101906121399190612652565b612178576040517f08c379a000000000000000000000000000000000000000000000000000000000815260040161216f90612dbc565b60405180910390fd5b5b505050565b6060831561218e57829050612199565b61219883836121b8565b5b9392505050565b60606121af8484600085612208565b90509392505050565b6000825111156121cb5781518083602001fd5b806040517f08c379a00000000000000000000000000000000000000000000000000000000081526004016121ff9190612b5a565b60405180910390fd5b60608247101561224d576040517f08c379a000000000000000000000000000000000000000000000000000000000815260040161224490612bfc565b60405180910390fd5b6000808673ffffffffffffffffffffffffffffffffffffffff1685876040516122769190612a5c565b60006040518083038185875af1925050503d80600081146122b3576040519150601f19603f3d011682016040523d82523d6000602084013e6122b8565b606091505b50915091506122c9878383876122d5565b92505050949350505050565b6060831561233857600083511415612330576122f08561177e565b61232f576040517f08c379a000000000000000000000000000000000000000000000000000000000815260040161232690612d7c565b60405180910390fd5b5b829050612343565b61234283836121b8565b5b949350505050565b600061235e61235984612e80565b612e5b565b90508281526020810184848401111561237657600080fd5b61238184828561305f565b509392505050565b60008135905061239881613704565b92915050565b6000815190506123ad81613704565b92915050565b6000813590506123c28161371b565b92915050565b6000815190506123d781613732565b92915050565b6000815190506123ec81613749565b92915050565b600082601f83011261240357600080fd5b813561241384826020860161234b565b91505092915050565b60008135905061242b81613760565b92915050565b60008135905061244081613777565b92915050565b60006020828403121561245857600080fd5b600061246684828501612389565b91505092915050565b60006020828403121561248157600080fd5b600061248f8482850161239e565b91505092915050565b6000602082840312156124aa57600080fd5b60006124b8848285016123b3565b91505092915050565b6000806000606084860312156124d657600080fd5b60006124e4868287016123b3565b93505060206124f586828701612389565b92505060406125068682870161241c565b9150509250925092565b60008060006060848603121561252557600080fd5b600061253386828701612389565b935050602061254486828701612389565b925050604061255586828701612431565b9150509250925092565b6000806000806080858703121561257557600080fd5b600061258387828801612389565b945050602061259487828801612389565b93505060406125a587828801612431565b92505060606125b687828801612431565b91505092959194509250565b600080604083850312156125d557600080fd5b60006125e385828601612389565b925050602083013567ffffffffffffffff81111561260057600080fd5b61260c858286016123f2565b9150509250929050565b6000806040838503121561262957600080fd5b600061263785828601612389565b925050602061264885828601612431565b9150509250929050565b60006020828403121561266457600080fd5b6000612672848285016123c8565b91505092915050565b60006020828403121561268d57600080fd5b600061269b848285016123dd565b91505092915050565b6000602082840312156126b657600080fd5b60006126c48482850161241c565b91505092915050565b6126d681612fb4565b82525050565b6126e581612fa2565b82525050565b6126f481612fd2565b82525050565b61270381612fdc565b82525050565b600061271482612eb1565b61271e8185612ec7565b935061272e81856020860161306e565b80840191505092915050565b6127438161304d565b82525050565b600061275482612ebc565b61275e8185612ed2565b935061276e81856020860161306e565b6127778161315f565b840191505092915050565b600061278f602283612ed2565b915061279a82613170565b604082019050919050565b60006127b2602683612ed2565b91506127bd826131bf565b604082019050919050565b60006127d5602c83612ed2565b91506127e08261320e565b604082019050919050565b60006127f8602c83612ed2565b91506128038261325d565b604082019050919050565b600061281b602683612ed2565b9150612826826132ac565b604082019050919050565b600061283e603883612ed2565b9150612849826132fb565b604082019050919050565b6000612861602283612ed2565b915061286c8261334a565b604082019050919050565b6000612884602683612ed2565b915061288f82613399565b604082019050919050565b60006128a7602983612ed2565b91506128b2826133e8565b604082019050919050565b60006128ca602e83612ed2565b91506128d582613437565b604082019050919050565b60006128ed602e83612ed2565b91506128f882613486565b604082019050919050565b6000612910602d83612ed2565b915061291b826134d5565b604082019050919050565b6000612933602083612ed2565b915061293e82613524565b602082019050919050565b6000612956602183612ed2565b91506129618261354d565b604082019050919050565b6000612979601183612ed2565b91506129848261359c565b602082019050919050565b600061299c602683612ed2565b91506129a7826135c5565b604082019050919050565b60006129bf601d83612ed2565b91506129ca82613614565b602082019050919050565b60006129e2602b83612ed2565b91506129ed8261363d565b604082019050919050565b6000612a05602a83612ed2565b9150612a108261368c565b604082019050919050565b6000612a28601f83612ed2565b9150612a33826136db565b602082019050919050565b612a4781613008565b82525050565b612a5681613036565b82525050565b6000612a688284612709565b915081905092915050565b6000602082019050612a8860008301846126dc565b92915050565b6000602082019050612aa360008301846126cd565b92915050565b6000604082019050612abe60008301856126dc565b612acb60208301846126dc565b9392505050565b6000606082019050612ae760008301866126dc565b612af460208301856126dc565b612b016040830184612a4d565b949350505050565b6000602082019050612b1e60008301846126eb565b92915050565b6000602082019050612b3960008301846126fa565b92915050565b6000602082019050612b54600083018461273a565b92915050565b60006020820190508181036000830152612b748184612749565b905092915050565b60006020820190508181036000830152612b9581612782565b9050919050565b60006020820190508181036000830152612bb5816127a5565b9050919050565b60006020820190508181036000830152612bd5816127c8565b9050919050565b60006020820190508181036000830152612bf5816127eb565b9050919050565b60006020820190508181036000830152612c158161280e565b9050919050565b60006020820190508181036000830152612c3581612831565b9050919050565b60006020820190508181036000830152612c5581612854565b9050919050565b60006020820190508181036000830152612c7581612877565b9050919050565b60006020820190508181036000830152612c958161289a565b9050919050565b60006020820190508181036000830152612cb5816128bd565b9050919050565b60006020820190508181036000830152612cd5816128e0565b9050919050565b60006020820190508181036000830152612cf581612903565b9050919050565b60006020820190508181036000830152612d1581612926565b9050919050565b60006020820190508181036000830152612d3581612949565b9050919050565b60006020820190508181036000830152612d558161296c565b9050919050565b60006020820190508181036000830152612d758161298f565b9050919050565b60006020820190508181036000830152612d95816129b2565b9050919050565b60006020820190508181036000830152612db5816129d5565b9050919050565b60006020820190508181036000830152612dd5816129f8565b9050919050565b60006020820190508181036000830152612df581612a1b565b9050919050565b6000602082019050612e116000830184612a3e565b92915050565b6000602082019050612e2c6000830184612a4d565b92915050565b6000604082019050612e476000830185612a4d565b612e546020830184612a4d565b9392505050565b6000612e65612e76565b9050612e7182826130a1565b919050565b6000604051905090565b600067ffffffffffffffff821115612e9b57612e9a613130565b5b612ea48261315f565b9050602081019050919050565b600081519050919050565b600081519050919050565b600081905092915050565b600082825260208201905092915050565b6000612eee82613036565b9150612ef983613036565b925082612f0957612f08613101565b5b828204905092915050565b6000612f1f82613036565b9150612f2a83613036565b9250817fffffffffffffffffffffffffffffffffffffffffffffffffffffffffffffffff0483118215151615612f6357612f626130d2565b5b828202905092915050565b6000612f7982613036565b9150612f8483613036565b925082821015612f9757612f966130d2565b5b828203905092915050565b6000612fad82613016565b9050919050565b6000612fbf82613016565b9050919050565b60008115159050919050565b6000819050919050565b60007fffffffff0000000000000000000000000000000000000000000000000000000082169050919050565b600061ffff82169050919050565b600073ffffffffffffffffffffffffffffffffffffffff82169050919050565b6000819050919050565b600060ff82169050919050565b600061305882613040565b9050919050565b82818337600083830152505050565b60005b8381101561308c578082015181840152602081019050613071565b8381111561309b576000848401525b50505050565b6130aa8261315f565b810181811067ffffffffffffffff821117156130c9576130c8613130565b5b80604052505050565b7f4e487b7100000000000000000000000000000000000000000000000000000000600052601160045260246000fd5b7f4e487b7100000000000000000000000000000000000000000000000000000000600052601260045260246000fd5b7f4e487b7100000000000000000000000000000000000000000000000000000000600052604160045260246000fd5b6000601f19601f8301169050919050565b7f437265617468204d61726b6574706c6163653a6e6f74206c697374656420697460008201527f656d000000000000000000000000000000000000000000000000000000000000602082015250565b7f4f776e61626c653a206e6577206f776e657220697320746865207a65726f206160008201527f6464726573730000000000000000000000000000000000000000000000000000602082015250565b7f46756e6374696f6e206d7573742062652063616c6c6564207468726f7567682060008201527f64656c656761746563616c6c0000000000000000000000000000000000000000602082015250565b7f46756e6374696f6e206d7573742062652063616c6c6564207468726f7567682060008201527f6163746976652070726f78790000000000000000000000000000000000000000602082015250565b7f416464726573733a20696e73756666696369656e742062616c616e636520666f60008201527f722063616c6c0000000000000000000000000000000000000000000000000000602082015250565b7f555550535570677261646561626c653a206d757374206e6f742062652063616c60008201527f6c6564207468726f7567682064656c656761746563616c6c0000000000000000602082015250565b7f437265617468204d61726b6574706c6163653a6e6f74206f776e696e6720697460008201527f656d000000000000000000000000000000000000000000000000000000000000602082015250565b7f437265617468204d61726b6574706c6163653a696e76616c6964206e6674206160008201527f6464726573730000000000000000000000000000000000000000000000000000602082015250565b7f45524331393637557067726164653a20756e737570706f727465642070726f7860008201527f6961626c65555549440000000000000000000000000000000000000000000000602082015250565b7f496e697469616c697a61626c653a20636f6e747261637420697320616c72656160008201527f647920696e697469616c697a6564000000000000000000000000000000000000602082015250565b7f45524331393637557067726164653a206e657720696d706c656d656e7461746960008201527f6f6e206973206e6f742055555053000000000000000000000000000000000000602082015250565b7f455243313936373a206e657720696d706c656d656e746174696f6e206973206e60008201527f6f74206120636f6e747261637400000000000000000000000000000000000000602082015250565b7f4f776e61626c653a2063616c6c6572206973206e6f7420746865206f776e6572600082015250565b7f437265617468204d61726b6574706c6163653a616c7265616479206c6973746560008201527f6400000000000000000000000000000000000000000000000000000000000000602082015250565b7f6974656d206e6f7420617070726f766564000000000000000000000000000000600082015250565b7f416464726573733a2064656c65676174652063616c6c20746f206e6f6e2d636f60008201527f6e74726163740000000000000000000000000000000000000000000000000000602082015250565b7f416464726573733a2063616c6c20746f206e6f6e2d636f6e7472616374000000600082015250565b7f496e697469616c697a61626c653a20636f6e7472616374206973206e6f74206960008201527f6e697469616c697a696e67000000000000000000000000000000000000000000602082015250565b7f5361666545524332303a204552433230206f7065726174696f6e20646964206e60008201527f6f74207375636365656400000000000000000000000000000000000000000000602082015250565b7f5265656e7472616e637947756172643a207265656e7472616e742063616c6c00600082015250565b61370d81612fa2565b811461371857600080fd5b50565b61372481612fb4565b811461372f57600080fd5b50565b61373b81612fc6565b811461374657600080fd5b50565b61375281612fd2565b811461375d57600080fd5b50565b61376981613008565b811461377457600080fd5b50565b61378081613036565b811461378b57600080fd5b5056fe416464726573733a206c6f772d6c6576656c2064656c65676174652063616c6c206661696c6564a2646970667358221220f097d219e4547705a6093e85f3fa45241fbf877f797fefd3038f1a997482b8c964736f6c63430008040033",
  "linkReferences": {},
  "deployedLinkReferences": {}
}