{
  "_format": "hh-sol-artifact-1",
  "contractName": "CreathMarketplace",
  "sourceName": "contracts/CreathMarketplace.sol",
  "abi": [
    {
      "anonymous": false,
      "inputs": [
        {
          "indexed": false,
          "internalType": "address",
          "name": "previousAdmin",
          "type": "address"
        },
        {
          "indexed": false,
          "internalType": "address",
          "name": "newAdmin",
          "type": "address"
        }
      ],
      "name": "AdminChanged",
      "type": "event"
    },
    {
      "anonymous": false,
      "inputs": [
        {
          "indexed": true,
          "internalType": "address",
          "name": "beacon",
          "type": "address"
        }
      ],
      "name": "BeaconUpgraded",
      "type": "event"
    },
    {
      "anonymous": false,
      "inputs": [
        {
          "indexed": false,
          "internalType": "uint8",
          "name": "version",
          "type": "uint8"
        }
      ],
      "name": "Initialized",
      "type": "event"
    },
    {
      "anonymous": false,
      "inputs": [
        {
          "indexed": true,
          "internalType": "address",
          "name": "owner",
          "type": "address"
        },
        {
          "indexed": true,
          "internalType": "address",
          "name": "nft",
          "type": "address"
        },
        {
          "indexed": false,
          "internalType": "uint256",
          "name": "tokenId",
          "type": "uint256"
        }
      ],
      "name": "ItemCanceled",
      "type": "event"
    },
    {
      "anonymous": false,
      "inputs": [
        {
          "indexed": true,
          "internalType": "address",
          "name": "owner",
          "type": "address"
        },
        {
          "indexed": true,
          "internalType": "address",
          "name": "nft",
          "type": "address"
        },
        {
          "indexed": false,
          "internalType": "uint256",
          "name": "tokenId",
          "type": "uint256"
        },
        {
          "indexed": false,
          "internalType": "uint256",
          "name": "price",
          "type": "uint256"
        }
      ],
      "name": "ItemListed",
      "type": "event"
    },
    {
      "anonymous": false,
      "inputs": [
        {
          "indexed": true,
          "internalType": "address",
          "name": "seller",
          "type": "address"
        },
        {
          "indexed": true,
          "internalType": "address",
          "name": "buyer",
          "type": "address"
        },
        {
          "indexed": true,
          "internalType": "address",
          "name": "nft",
          "type": "address"
        },
        {
          "indexed": false,
          "internalType": "uint256",
          "name": "tokenId",
          "type": "uint256"
        },
        {
          "indexed": false,
          "internalType": "uint256",
          "name": "price",
          "type": "uint256"
        }
      ],
      "name": "ItemSold",
      "type": "event"
    },
    {
      "anonymous": false,
      "inputs": [
        {
          "indexed": true,
          "internalType": "address",
          "name": "owner",
          "type": "address"
        },
        {
          "indexed": true,
          "internalType": "address",
          "name": "nft",
          "type": "address"
        },
        {
          "indexed": false,
          "internalType": "uint256",
          "name": "tokenId",
          "type": "uint256"
        },
        {
          "indexed": false,
          "internalType": "uint256",
          "name": "newPrice",
          "type": "uint256"
        }
      ],
      "name": "ItemUpdated",
      "type": "event"
    },
    {
      "anonymous": false,
      "inputs": [
        {
          "indexed": true,
          "internalType": "address",
          "name": "previousOwner",
          "type": "address"
        },
        {
          "indexed": true,
          "internalType": "address",
          "name": "newOwner",
          "type": "address"
        }
      ],
      "name": "OwnershipTransferred",
      "type": "event"
    },
    {
      "anonymous": false,
      "inputs": [
        {
          "indexed": false,
          "internalType": "address",
          "name": "paymentMethod",
          "type": "address"
        }
      ],
      "name": "PaymentMethodUpdated",
      "type": "event"
    },
    {
      "anonymous": false,
      "inputs": [
        {
          "indexed": false,
          "internalType": "uint8",
          "name": "platformFee",
          "type": "uint8"
        }
      ],
      "name": "UpdatePlatformFee",
      "type": "event"
    },
    {
      "anonymous": false,
      "inputs": [
        {
          "indexed": false,
          "internalType": "address payable",
          "name": "platformFeeRecipient",
          "type": "address"
        }
      ],
      "name": "UpdatePlatformFeeRecipient",
      "type": "event"
    },
    {
      "anonymous": false,
      "inputs": [
        {
          "indexed": true,
          "internalType": "address",
          "name": "implementation",
          "type": "address"
        }
      ],
      "name": "Upgraded",
      "type": "event"
    },
    {
      "inputs": [
        {
          "internalType": "address",
          "name": "",
          "type": "address"
        },
        {
          "internalType": "uint256",
          "name": "",
          "type": "uint256"
        }
      ],
      "name": "artists",
      "outputs": [
        {
          "internalType": "address",
          "name": "",
          "type": "address"
        }
      ],
      "stateMutability": "view",
      "type": "function"
    },
    {
      "inputs": [
        {
          "internalType": "address",
          "name": "_nftAddress",
          "type": "address"
        },
        {
          "internalType": "uint256",
          "name": "_tokenId",
          "type": "uint256"
        }
      ],
      "name": "buyItem",
      "outputs": [],
      "stateMutability": "nonpayable",
      "type": "function"
    },
    {
      "inputs": [
        {
          "internalType": "address",
          "name": "_nftAddress",
          "type": "address"
        },
        {
          "internalType": "address",
          "name": "_artist",
          "type": "address"
        },
        {
          "internalType": "uint256",
          "name": "_tokenId",
          "type": "uint256"
        }
      ],
      "name": "cancelListing",
      "outputs": [],
      "stateMutability": "nonpayable",
      "type": "function"
    },
    {
      "inputs": [],
      "name": "feeReceipient",
      "outputs": [
        {
          "internalType": "address payable",
          "name": "",
          "type": "address"
        }
      ],
      "stateMutability": "view",
      "type": "function"
    },
    {
      "inputs": [
        {
          "internalType": "address",
          "name": "_user",
          "type": "address"
        }
      ],
      "name": "getCollectorData",
      "outputs": [
        {
          "components": [
            {
              "internalType": "uint256",
              "name": "tokenId",
              "type": "uint256"
            },
            {
              "internalType": "address",
              "name": "nft_address",
              "type": "address"
            }
          ],
          "internalType": "struct CreathMarketplace.Item[]",
          "name": "",
          "type": "tuple[]"
        }
      ],
      "stateMutability": "view",
      "type": "function"
    },
    {
      "inputs": [
        {
          "internalType": "address payable",
          "name": "_feeRecipient",
          "type": "address"
        },
        {
          "internalType": "address",
          "name": "_token",
          "type": "address"
        },
        {
          "internalType": "uint8",
          "name": "_platformFee",
          "type": "uint8"
        }
      ],
      "name": "initialize",
      "outputs": [],
      "stateMutability": "nonpayable",
      "type": "function"
    },
    {
      "inputs": [
        {
          "internalType": "address",
          "name": "_nftAddress",
          "type": "address"
        },
        {
          "internalType": "address",
          "name": "_artist",
          "type": "address"
        },
        {
          "internalType": "uint256",
          "name": "_tokenId",
          "type": "uint256"
        },
        {
          "internalType": "uint256",
          "name": "_price",
          "type": "uint256"
        }
      ],
      "name": "listItem",
      "outputs": [],
      "stateMutability": "nonpayable",
      "type": "function"
    },
    {
      "inputs": [
        {
          "internalType": "address",
          "name": "",
          "type": "address"
        },
        {
          "internalType": "uint256",
          "name": "",
          "type": "uint256"
        }
      ],
      "name": "listings",
      "outputs": [
        {
          "internalType": "uint256",
          "name": "",
          "type": "uint256"
        }
      ],
      "stateMutability": "view",
      "type": "function"
    },
    {
      "inputs": [],
      "name": "owner",
      "outputs": [
        {
          "internalType": "address",
          "name": "",
          "type": "address"
        }
      ],
      "stateMutability": "view",
      "type": "function"
    },
    {
      "inputs": [],
      "name": "platformFee",
      "outputs": [
        {
          "internalType": "uint8",
          "name": "",
          "type": "uint8"
        }
      ],
      "stateMutability": "view",
      "type": "function"
    },
    {
      "inputs": [],
      "name": "proxiableUUID",
      "outputs": [
        {
          "internalType": "bytes32",
          "name": "",
          "type": "bytes32"
        }
      ],
      "stateMutability": "view",
      "type": "function"
    },
    {
      "inputs": [],
      "name": "renounceOwnership",
      "outputs": [],
      "stateMutability": "nonpayable",
      "type": "function"
    },
    {
      "inputs": [
        {
          "internalType": "address",
          "name": "newOwner",
          "type": "address"
        }
      ],
      "name": "transferOwnership",
      "outputs": [],
      "stateMutability": "nonpayable",
      "type": "function"
    },
    {
      "inputs": [
        {
          "internalType": "address",
          "name": "_nftAddress",
          "type": "address"
        },
        {
          "internalType": "address",
          "name": "_artist",
          "type": "address"
        },
        {
          "internalType": "uint256",
          "name": "_tokenId",
          "type": "uint256"
        },
        {
          "internalType": "uint256",
          "name": "_newPrice",
          "type": "uint256"
        }
      ],
      "name": "updateListing",
      "outputs": [],
      "stateMutability": "nonpayable",
      "type": "function"
    },
    {
      "inputs": [
        {
          "internalType": "address",
          "name": "newPaymentToken",
          "type": "address"
        }
      ],
      "name": "updatePaymentToken",
      "outputs": [],
      "stateMutability": "nonpayable",
      "type": "function"
    },
    {
      "inputs": [
        {
          "internalType": "uint8",
          "name": "_platformFee",
          "type": "uint8"
        }
      ],
      "name": "updatePlatformFee",
      "outputs": [],
      "stateMutability": "nonpayable",
      "type": "function"
    },
    {
      "inputs": [
        {
          "internalType": "address payable",
          "name": "_platformFeeRecipient",
          "type": "address"
        }
      ],
      "name": "updatePlatformFeeRecipient",
      "outputs": [],
      "stateMutability": "nonpayable",
      "type": "function"
    },
    {
      "inputs": [
        {
          "internalType": "address",
          "name": "newImplementation",
          "type": "address"
        }
      ],
      "name": "upgradeTo",
      "outputs": [],
      "stateMutability": "nonpayable",
      "type": "function"
    },
    {
      "inputs": [
        {
          "internalType": "address",
          "name": "newImplementation",
          "type": "address"
        },
        {
          "internalType": "bytes",
          "name": "data",
          "type": "bytes"
        }
      ],
      "name": "upgradeToAndCall",
      "outputs": [],
      "stateMutability": "payable",
      "type": "function"
    }
  ],
  "bytecode": "0x60a06040523073ffffffffffffffffffffffffffffffffffffffff1660809073ffffffffffffffffffffffffffffffffffffffff1660601b81525034801561004657600080fd5b5060805160601c61397e610081600039600081816105800152818161060f0152818161098201528181610a110152610b2e015261397e6000f3fe6080604052600436106101135760003560e01c806352d1902d116100a05780639f37092a116100645780639f37092a14610367578063af89e58514610390578063b95d3ee6146103b9578063f2fde38b146103f6578063f5fe7f711461041f57610113565b806352d1902d146102a857806356f57f98146102d3578063715018a6146102fc57806389232a00146103135780638da5cb5b1461033c57610113565b80633740ebb3116100e75780633740ebb3146101e65780633abf3632146102115780634ccf1b341461023a5780634f1ef2861461026357806351fb3cb51461027f57610113565b806207df301461011857806326232a2e14610155578063310a35b7146101805780633659cfe6146101bd575b600080fd5b34801561012457600080fd5b5061013f600480360381019061013a9190612699565b610448565b60405161014c9190612f64565b60405180910390f35b34801561016157600080fd5b5061016a61046d565b6040516101779190612fa8565b60405180910390f35b34801561018c57600080fd5b506101a760048036038101906101a291906124f2565b610480565b6040516101b49190612c4f565b60405180910390f35b3480156101c957600080fd5b506101e460048036038101906101df91906124f2565b61057e565b005b3480156101f257600080fd5b506101fb61072d565b6040516102089190612bd4565b60405180910390f35b34801561021d57600080fd5b50610238600480360381019061023391906125e2565b610753565b005b34801561024657600080fd5b50610261600480360381019061025c91906124f2565b6108fd565b005b61027d60048036038101906102789190612645565b610980565b005b34801561028b57600080fd5b506102a660048036038101906102a19190612727565b610abd565b005b3480156102b457600080fd5b506102bd610b2a565b6040516102ca9190612c71565b60405180910390f35b3480156102df57600080fd5b506102fa60048036038101906102f591906125e2565b610be3565b005b34801561030857600080fd5b50610311611038565b005b34801561031f57600080fd5b5061033a60048036038101906103359190612544565b61104c565b005b34801561034857600080fd5b5061035161123a565b60405161035e9190612bb9565b60405180910390f35b34801561037357600080fd5b5061038e60048036038101906103899190612699565b611264565b005b34801561039c57600080fd5b506103b760048036038101906103b29190612593565b611320565b005b3480156103c557600080fd5b506103e060048036038101906103db9190612699565b6113d5565b6040516103ed9190612bb9565b60405180910390f35b34801561040257600080fd5b5061041d600480360381019061041891906124f2565b611417565b005b34801561042b57600080fd5b506104466004803603810190610441919061251b565b61149b565b005b60fd602052816000526040600020602052806000526040600020600091509150505481565b60fe60009054906101000a900460ff1681565b606060ff60008373ffffffffffffffffffffffffffffffffffffffff1673ffffffffffffffffffffffffffffffffffffffff168152602001908152602001600020805480602002602001604051908101604052809291908181526020016000905b828210156105735783829060005260206000209060020201604051806040016040529081600082015481526020016001820160009054906101000a900473ffffffffffffffffffffffffffffffffffffffff1673ffffffffffffffffffffffffffffffffffffffff1673ffffffffffffffffffffffffffffffffffffffff1681525050815260200190600101906104e1565b505050509050919050565b7f000000000000000000000000000000000000000000000000000000000000000073ffffffffffffffffffffffffffffffffffffffff163073ffffffffffffffffffffffffffffffffffffffff16141561060d576040517f08c379a000000000000000000000000000000000000000000000000000000000815260040161060490612d24565b60405180910390fd5b7f000000000000000000000000000000000000000000000000000000000000000073ffffffffffffffffffffffffffffffffffffffff1661064c61151e565b73ffffffffffffffffffffffffffffffffffffffff16146106a2576040517f08c379a000000000000000000000000000000000000000000000000000000000815260040161069990612d64565b60405180910390fd5b6106ab81611575565b61072a81600067ffffffffffffffff8111156106f0577f4e487b7100000000000000000000000000000000000000000000000000000000600052604160045260246000fd5b6040519080825280601f01601f1916602001820160405280156107225781602001600182028036833780820191505090505b506000611580565b50565b60fe60019054906101000a900473ffffffffffffffffffffffffffffffffffffffff1681565b61075b6116fd565b8382600060fd60008473ffffffffffffffffffffffffffffffffffffffff1673ffffffffffffffffffffffffffffffffffffffff1681526020019081526020016000206000838152602001908152602001600020549050600081116107f5576040517f08c379a00000000000000000000000000000000000000000000000000000000081526004016107ec90612ce4565b60405180910390fd5b60008411610838576040517f08c379a000000000000000000000000000000000000000000000000000000000815260040161082f90612d44565b60405180910390fd5b8360fd60008973ffffffffffffffffffffffffffffffffffffffff1673ffffffffffffffffffffffffffffffffffffffff1681526020019081526020016000206000878152602001908152602001600020819055508673ffffffffffffffffffffffffffffffffffffffff168673ffffffffffffffffffffffffffffffffffffffff167f3c33e65e8698294810b631d476d60b44425303828da0b1f8b635231bfda12be287876040516108ec929190612f7f565b60405180910390a350505050505050565b6109056116fd565b8060fb60006101000a81548173ffffffffffffffffffffffffffffffffffffffff021916908373ffffffffffffffffffffffffffffffffffffffff1602179055507f0eba550d74e20fbda74201328f2e157eff7becc6414d12e9d7a3d31b7e46bc6a816040516109759190612bb9565b60405180910390a150565b7f000000000000000000000000000000000000000000000000000000000000000073ffffffffffffffffffffffffffffffffffffffff163073ffffffffffffffffffffffffffffffffffffffff161415610a0f576040517f08c379a0000000000000000000000000000000000000000000000000000000008152600401610a0690612d24565b60405180910390fd5b7f000000000000000000000000000000000000000000000000000000000000000073ffffffffffffffffffffffffffffffffffffffff16610a4e61151e565b73ffffffffffffffffffffffffffffffffffffffff1614610aa4576040517f08c379a0000000000000000000000000000000000000000000000000000000008152600401610a9b90612d64565b60405180910390fd5b610aad82611575565b610ab982826001611580565b5050565b610ac56116fd565b60648160ff1610610ad557600080fd5b8060fe60006101000a81548160ff021916908360ff1602179055507fed78b5b7e86f266e859e020d4ab586fd4c4d087f3d7ac1e4b52dc625c61bd6a181604051610b1f9190612fa8565b60405180910390a150565b60007f000000000000000000000000000000000000000000000000000000000000000073ffffffffffffffffffffffffffffffffffffffff163073ffffffffffffffffffffffffffffffffffffffff1614610bba576040517f08c379a0000000000000000000000000000000000000000000000000000000008152600401610bb190612dc4565b60405180910390fd5b7f360894a13ba1a3210667c828492db98dca3e2076cc3735a920a3ca505d382bbc60001b905090565b610beb6116fd565b8382600060fd60008473ffffffffffffffffffffffffffffffffffffffff1673ffffffffffffffffffffffffffffffffffffffff16815260200190815260200160002060008381526020019081526020016000205490506000811115610c86576040517f08c379a0000000000000000000000000000000000000000000000000000000008152600401610c7d90612ea4565b60405180910390fd5b8673ffffffffffffffffffffffffffffffffffffffff166301ffc9a76380ac58cd60e01b6040518263ffffffff1660e01b8152600401610cc69190612c8c565b60206040518083038186803b158015610cde57600080fd5b505afa158015610cf2573d6000803e3d6000fd5b505050506040513d601f19601f82011682018060405250810190610d1691906126d5565b15610df75760008790508073ffffffffffffffffffffffffffffffffffffffff1663e985e9c5610d4461123a565b306040518363ffffffff1660e01b8152600401610d62929190612bef565b60206040518083038186803b158015610d7a57600080fd5b505afa158015610d8e573d6000803e3d6000fd5b505050506040513d601f19601f82011682018060405250810190610db291906126d5565b610df1576040517f08c379a0000000000000000000000000000000000000000000000000000000008152600401610de890612ec4565b60405180910390fd5b50610e32565b6040517f08c379a0000000000000000000000000000000000000000000000000000000008152600401610e2990612de4565b60405180910390fd5b60008411610e75576040517f08c379a0000000000000000000000000000000000000000000000000000000008152600401610e6c90612d44565b60405180910390fd5b600073ffffffffffffffffffffffffffffffffffffffff168673ffffffffffffffffffffffffffffffffffffffff1611610ee4576040517f08c379a0000000000000000000000000000000000000000000000000000000008152600401610edb90612da4565b60405180910390fd5b8360fd60008973ffffffffffffffffffffffffffffffffffffffff1673ffffffffffffffffffffffffffffffffffffffff1681526020019081526020016000206000878152602001908152602001600020819055508560fc60008973ffffffffffffffffffffffffffffffffffffffff1673ffffffffffffffffffffffffffffffffffffffff168152602001908152602001600020600087815260200190815260200160002060006101000a81548173ffffffffffffffffffffffffffffffffffffffff021916908373ffffffffffffffffffffffffffffffffffffffff1602179055508673ffffffffffffffffffffffffffffffffffffffff168673ffffffffffffffffffffffffffffffffffffffff167fd547e933094f12a9159076970143ebe73234e64480317844b0dcb36117116de48787604051611027929190612f7f565b60405180910390a350505050505050565b6110406116fd565b61104a600061177b565b565b60008060019054906101000a900460ff1615905080801561107d5750600160008054906101000a900460ff1660ff16105b806110aa575061108c30611841565b1580156110a95750600160008054906101000a900460ff1660ff16145b5b6110e9576040517f08c379a00000000000000000000000000000000000000000000000000000000081526004016110e090612e24565b60405180910390fd5b60016000806101000a81548160ff021916908360ff1602179055508015611126576001600060016101000a81548160ff0219169083151502179055505b61112e611864565b60648260ff161061113e57600080fd5b8160fe60006101000a81548160ff021916908360ff1602179055508360fe60016101000a81548173ffffffffffffffffffffffffffffffffffffffff021916908373ffffffffffffffffffffffffffffffffffffffff1602179055508260fb60006101000a81548173ffffffffffffffffffffffffffffffffffffffff021916908373ffffffffffffffffffffffffffffffffffffffff16021790555080156112345760008060016101000a81548160ff0219169083151502179055507f7f26b83ff96e1f2b6a682f133852f6798a09c465da95921460cefb3847402498600160405161122b9190612ca7565b60405180910390a15b50505050565b6000609760009054906101000a900473ffffffffffffffffffffffffffffffffffffffff16905090565b61126c6118bd565b8181600060fd60008473ffffffffffffffffffffffffffffffffffffffff1673ffffffffffffffffffffffffffffffffffffffff168152602001908152602001600020600083815260200190815260200160002054905060008111611306576040517f08c379a00000000000000000000000000000000000000000000000000000000081526004016112fd90612ce4565b60405180910390fd5b61131185853361190d565b50505061131c611d71565b5050565b6113286116fd565b8281600060fd60008473ffffffffffffffffffffffffffffffffffffffff1673ffffffffffffffffffffffffffffffffffffffff1681526020019081526020016000206000838152602001908152602001600020549050600081116113c2576040517f08c379a00000000000000000000000000000000000000000000000000000000081526004016113b990612ce4565b60405180910390fd5b6113cd868686611d7b565b505050505050565b60fc6020528160005260406000206020528060005260406000206000915091509054906101000a900473ffffffffffffffffffffffffffffffffffffffff1681565b61141f6116fd565b600073ffffffffffffffffffffffffffffffffffffffff168173ffffffffffffffffffffffffffffffffffffffff16141561148f576040517f08c379a000000000000000000000000000000000000000000000000000000000815260040161148690612d04565b60405180910390fd5b6114988161177b565b50565b6114a36116fd565b8060fe60016101000a81548173ffffffffffffffffffffffffffffffffffffffff021916908373ffffffffffffffffffffffffffffffffffffffff1602179055507fe57e7c1f36cc83fade34e32351e6eee7eb9da532662b1b5da10c631e8222aca7816040516115139190612bd4565b60405180910390a150565b600061154c7f360894a13ba1a3210667c828492db98dca3e2076cc3735a920a3ca505d382bbc60001b611eac565b60000160009054906101000a900473ffffffffffffffffffffffffffffffffffffffff16905090565b61157d6116fd565b50565b6115ac7f4910fdfa16fed3260ed0e7147f7cc6da11a60208b5b9406d12a635614ffd914360001b611eb6565b60000160009054906101000a900460ff16156115d0576115cb83611ec0565b6116f8565b8273ffffffffffffffffffffffffffffffffffffffff166352d1902d6040518163ffffffff1660e01b815260040160206040518083038186803b15801561161657600080fd5b505afa92505050801561164757506040513d601f19601f8201168201806040525081019061164491906126fe565b60015b611686576040517f08c379a000000000000000000000000000000000000000000000000000000000815260040161167d90612e44565b60405180910390fd5b7f360894a13ba1a3210667c828492db98dca3e2076cc3735a920a3ca505d382bbc60001b81146116eb576040517f08c379a00000000000000000000000000000000000000000000000000000000081526004016116e290612e04565b60405180910390fd5b506116f7838383611f79565b5b505050565b611705611fa5565b73ffffffffffffffffffffffffffffffffffffffff1661172361123a565b73ffffffffffffffffffffffffffffffffffffffff1614611779576040517f08c379a000000000000000000000000000000000000000000000000000000000815260040161177090612e84565b60405180910390fd5b565b6000609760009054906101000a900473ffffffffffffffffffffffffffffffffffffffff16905081609760006101000a81548173ffffffffffffffffffffffffffffffffffffffff021916908373ffffffffffffffffffffffffffffffffffffffff1602179055508173ffffffffffffffffffffffffffffffffffffffff168173ffffffffffffffffffffffffffffffffffffffff167f8be0079c531659141344cd1fd0a4f28419497f9722a3daafe3b4186f6b6457e060405160405180910390a35050565b6000808273ffffffffffffffffffffffffffffffffffffffff163b119050919050565b600060019054906101000a900460ff166118b3576040517f08c379a00000000000000000000000000000000000000000000000000000000081526004016118aa90612f04565b60405180910390fd5b6118bb611fad565b565b600260c9541415611903576040517f08c379a00000000000000000000000000000000000000000000000000000000081526004016118fa90612f44565b60405180910390fd5b600260c981905550565b600060fd60008573ffffffffffffffffffffffffffffffffffffffff1673ffffffffffffffffffffffffffffffffffffffff16815260200190815260200160002060008481526020019081526020016000205490506000606460fe60009054906101000a900460ff1660ff168361198491906130b5565b61198e9190613084565b9050611a0861199b611fa5565b60fe60019054906101000a900473ffffffffffffffffffffffffffffffffffffffff168460fb60009054906101000a900473ffffffffffffffffffffffffffffffffffffffff1673ffffffffffffffffffffffffffffffffffffffff1661200e909392919063ffffffff16565b600060fc60008773ffffffffffffffffffffffffffffffffffffffff1673ffffffffffffffffffffffffffffffffffffffff168152602001908152602001600020600086815260200190815260200160002060009054906101000a900473ffffffffffffffffffffffffffffffffffffffff16905060ff60008573ffffffffffffffffffffffffffffffffffffffff1673ffffffffffffffffffffffffffffffffffffffff16815260200190815260200160002060405180604001604052808781526020018873ffffffffffffffffffffffffffffffffffffffff1681525090806001815401808255809150506001900390600052602060002090600202016000909190919091506000820151816000015560208201518160010160006101000a81548173ffffffffffffffffffffffffffffffffffffffff021916908373ffffffffffffffffffffffffffffffffffffffff160217905550505060fe60019054906101000a900473ffffffffffffffffffffffffffffffffffffffff1673ffffffffffffffffffffffffffffffffffffffff166301e3366760fb60009054906101000a900473ffffffffffffffffffffffffffffffffffffffff16838587611bd1919061310f565b6040518463ffffffff1660e01b8152600401611bef93929190612c18565b600060405180830381600087803b158015611c0957600080fd5b505af1158015611c1d573d6000803e3d6000fd5b505050508573ffffffffffffffffffffffffffffffffffffffff166323b872dd611c4561123a565b86886040518463ffffffff1660e01b8152600401611c6593929190612c18565b600060405180830381600087803b158015611c7f57600080fd5b505af1158015611c93573d6000803e3d6000fd5b505050508573ffffffffffffffffffffffffffffffffffffffff168473ffffffffffffffffffffffffffffffffffffffff168273ffffffffffffffffffffffffffffffffffffffff167fee0ddd6454e05c1b33a8dfcb6cc52418d28020e96e21228bb601f5dbb6790cd08887604051611d0d929190612f7f565b60405180910390a460fd60008773ffffffffffffffffffffffffffffffffffffffff1673ffffffffffffffffffffffffffffffffffffffff168152602001908152602001600020600086815260200190815260200160002060009055505050505050565b600160c981905550565b60fd60008473ffffffffffffffffffffffffffffffffffffffff1673ffffffffffffffffffffffffffffffffffffffff16815260200190815260200160002060008281526020019081526020016000206000905560fc60008473ffffffffffffffffffffffffffffffffffffffff1673ffffffffffffffffffffffffffffffffffffffff168152602001908152602001600020600082815260200190815260200160002060006101000a81549073ffffffffffffffffffffffffffffffffffffffff02191690558273ffffffffffffffffffffffffffffffffffffffff168273ffffffffffffffffffffffffffffffffffffffff167f9ba1a3cb55ce8d63d072a886f94d2a744f50cddf82128e897d0661f5ec62315883604051611e9f9190612f64565b60405180910390a3505050565b6000819050919050565b6000819050919050565b611ec981611841565b611f08576040517f08c379a0000000000000000000000000000000000000000000000000000000008152600401611eff90612e64565b60405180910390fd5b80611f357f360894a13ba1a3210667c828492db98dca3e2076cc3735a920a3ca505d382bbc60001b611eac565b60000160006101000a81548173ffffffffffffffffffffffffffffffffffffffff021916908373ffffffffffffffffffffffffffffffffffffffff16021790555050565b611f8283612097565b600082511180611f8f5750805b15611fa057611f9e83836120e6565b505b505050565b600033905090565b600060019054906101000a900460ff16611ffc576040517f08c379a0000000000000000000000000000000000000000000000000000000008152600401611ff390612f04565b60405180910390fd5b61200c612007611fa5565b61177b565b565b612091846323b872dd60e01b85858560405160240161202f93929190612c18565b604051602081830303815290604052907bffffffffffffffffffffffffffffffffffffffffffffffffffffffff19166020820180517bffffffffffffffffffffffffffffffffffffffffffffffffffffffff8381831617835250505050612113565b50505050565b6120a081611ec0565b8073ffffffffffffffffffffffffffffffffffffffff167fbc7cd75a20ee27fd9adebab32041f755214dbc6bffa90cc0225b39da2e5c2d3b60405160405180910390a250565b606061210b8383604051806060016040528060278152602001613922602791396121db565b905092915050565b6000612175826040518060400160405280602081526020017f5361666545524332303a206c6f772d6c6576656c2063616c6c206661696c65648152508573ffffffffffffffffffffffffffffffffffffffff166122619092919063ffffffff16565b905060008151148061219757508080602001905181019061219691906126d5565b5b6121d6576040517f08c379a00000000000000000000000000000000000000000000000000000000081526004016121cd90612f24565b60405180910390fd5b505050565b60606000808573ffffffffffffffffffffffffffffffffffffffff16856040516122059190612ba2565b600060405180830381855af49150503d8060008114612240576040519150601f19603f3d011682016040523d82523d6000602084013e612245565b606091505b509150915061225686838387612279565b925050509392505050565b606061227084846000856122ef565b90509392505050565b606083156122dc576000835114156122d45761229485611841565b6122d3576040517f08c379a00000000000000000000000000000000000000000000000000000000081526004016122ca90612ee4565b60405180910390fd5b5b8290506122e7565b6122e683836123bc565b5b949350505050565b606082471015612334576040517f08c379a000000000000000000000000000000000000000000000000000000000815260040161232b90612d84565b60405180910390fd5b6000808673ffffffffffffffffffffffffffffffffffffffff16858760405161235d9190612ba2565b60006040518083038185875af1925050503d806000811461239a576040519150601f19603f3d011682016040523d82523d6000602084013e61239f565b606091505b50915091506123b087838387612279565b92505050949350505050565b6000825111156123cf5781518083602001fd5b806040517f08c379a00000000000000000000000000000000000000000000000000000000081526004016124039190612cc2565b60405180910390fd5b600061241f61241a84612fe8565b612fc3565b90508281526020810184848401111561243757600080fd5b6124428482856131f2565b509392505050565b60008135905061245981613897565b92915050565b60008135905061246e816138ae565b92915050565b600081519050612483816138c5565b92915050565b600081519050612498816138dc565b92915050565b600082601f8301126124af57600080fd5b81356124bf84826020860161240c565b91505092915050565b6000813590506124d7816138f3565b92915050565b6000813590506124ec8161390a565b92915050565b60006020828403121561250457600080fd5b60006125128482850161244a565b91505092915050565b60006020828403121561252d57600080fd5b600061253b8482850161245f565b91505092915050565b60008060006060848603121561255957600080fd5b60006125678682870161245f565b93505060206125788682870161244a565b9250506040612589868287016124dd565b9150509250925092565b6000806000606084860312156125a857600080fd5b60006125b68682870161244a565b93505060206125c78682870161244a565b92505060406125d8868287016124c8565b9150509250925092565b600080600080608085870312156125f857600080fd5b60006126068782880161244a565b94505060206126178782880161244a565b9350506040612628878288016124c8565b9250506060612639878288016124c8565b91505092959194509250565b6000806040838503121561265857600080fd5b60006126668582860161244a565b925050602083013567ffffffffffffffff81111561268357600080fd5b61268f8582860161249e565b9150509250929050565b600080604083850312156126ac57600080fd5b60006126ba8582860161244a565b92505060206126cb858286016124c8565b9150509250929050565b6000602082840312156126e757600080fd5b60006126f584828501612474565b91505092915050565b60006020828403121561271057600080fd5b600061271e84828501612489565b91505092915050565b60006020828403121561273957600080fd5b6000612747848285016124dd565b91505092915050565b600061275c8383612b46565b60408301905092915050565b61277181613155565b82525050565b61278081613143565b82525050565b61278f81613143565b82525050565b60006127a082613029565b6127aa8185613057565b93506127b583613019565b8060005b838110156127e65781516127cd8882612750565b97506127d88361304a565b9250506001810190506127b9565b5085935050505092915050565b6127fc81613173565b82525050565b61280b8161317d565b82525050565b600061281c82613034565b6128268185613068565b9350612836818560208601613201565b80840191505092915050565b61284b816131e0565b82525050565b600061285c8261303f565b6128668185613073565b9350612876818560208601613201565b61287f816132f2565b840191505092915050565b6000612897602283613073565b91506128a282613303565b604082019050919050565b60006128ba602683613073565b91506128c582613352565b604082019050919050565b60006128dd602c83613073565b91506128e8826133a1565b604082019050919050565b6000612900602483613073565b915061290b826133f0565b604082019050919050565b6000612923602c83613073565b915061292e8261343f565b604082019050919050565b6000612946602683613073565b91506129518261348e565b604082019050919050565b6000612969602683613073565b9150612974826134dd565b604082019050919050565b600061298c603883613073565b91506129978261352c565b604082019050919050565b60006129af602683613073565b91506129ba8261357b565b604082019050919050565b60006129d2602983613073565b91506129dd826135ca565b604082019050919050565b60006129f5602e83613073565b9150612a0082613619565b604082019050919050565b6000612a18602e83613073565b9150612a2382613668565b604082019050919050565b6000612a3b602d83613073565b9150612a46826136b7565b604082019050919050565b6000612a5e602083613073565b9150612a6982613706565b602082019050919050565b6000612a81602183613073565b9150612a8c8261372f565b604082019050919050565b6000612aa4601183613073565b9150612aaf8261377e565b602082019050919050565b6000612ac7601d83613073565b9150612ad2826137a7565b602082019050919050565b6000612aea602b83613073565b9150612af5826137d0565b604082019050919050565b6000612b0d602a83613073565b9150612b188261381f565b604082019050919050565b6000612b30601f83613073565b9150612b3b8261386e565b602082019050919050565b604082016000820151612b5c6000850182612b75565b506020820151612b6f6020850182612777565b50505050565b612b7e816131c9565b82525050565b612b8d816131c9565b82525050565b612b9c816131d3565b82525050565b6000612bae8284612811565b915081905092915050565b6000602082019050612bce6000830184612786565b92915050565b6000602082019050612be96000830184612768565b92915050565b6000604082019050612c046000830185612786565b612c116020830184612786565b9392505050565b6000606082019050612c2d6000830186612786565b612c3a6020830185612786565b612c476040830184612b84565b949350505050565b60006020820190508181036000830152612c698184612795565b905092915050565b6000602082019050612c8660008301846127f3565b92915050565b6000602082019050612ca16000830184612802565b92915050565b6000602082019050612cbc6000830184612842565b92915050565b60006020820190508181036000830152612cdc8184612851565b905092915050565b60006020820190508181036000830152612cfd8161288a565b9050919050565b60006020820190508181036000830152612d1d816128ad565b9050919050565b60006020820190508181036000830152612d3d816128d0565b9050919050565b60006020820190508181036000830152612d5d816128f3565b9050919050565b60006020820190508181036000830152612d7d81612916565b9050919050565b60006020820190508181036000830152612d9d81612939565b9050919050565b60006020820190508181036000830152612dbd8161295c565b9050919050565b60006020820190508181036000830152612ddd8161297f565b9050919050565b60006020820190508181036000830152612dfd816129a2565b9050919050565b60006020820190508181036000830152612e1d816129c5565b9050919050565b60006020820190508181036000830152612e3d816129e8565b9050919050565b60006020820190508181036000830152612e5d81612a0b565b9050919050565b60006020820190508181036000830152612e7d81612a2e565b9050919050565b60006020820190508181036000830152612e9d81612a51565b9050919050565b60006020820190508181036000830152612ebd81612a74565b9050919050565b60006020820190508181036000830152612edd81612a97565b9050919050565b60006020820190508181036000830152612efd81612aba565b9050919050565b60006020820190508181036000830152612f1d81612add565b9050919050565b60006020820190508181036000830152612f3d81612b00565b9050919050565b60006020820190508181036000830152612f5d81612b23565b9050919050565b6000602082019050612f796000830184612b84565b92915050565b6000604082019050612f946000830185612b84565b612fa16020830184612b84565b9392505050565b6000602082019050612fbd6000830184612b93565b92915050565b6000612fcd612fde565b9050612fd98282613234565b919050565b6000604051905090565b600067ffffffffffffffff821115613003576130026132c3565b5b61300c826132f2565b9050602081019050919050565b6000819050602082019050919050565b600081519050919050565b600081519050919050565b600081519050919050565b6000602082019050919050565b600082825260208201905092915050565b600081905092915050565b600082825260208201905092915050565b600061308f826131c9565b915061309a836131c9565b9250826130aa576130a9613294565b5b828204905092915050565b60006130c0826131c9565b91506130cb836131c9565b9250817fffffffffffffffffffffffffffffffffffffffffffffffffffffffffffffffff048311821515161561310457613103613265565b5b828202905092915050565b600061311a826131c9565b9150613125836131c9565b92508282101561313857613137613265565b5b828203905092915050565b600061314e826131a9565b9050919050565b6000613160826131a9565b9050919050565b60008115159050919050565b6000819050919050565b60007fffffffff0000000000000000000000000000000000000000000000000000000082169050919050565b600073ffffffffffffffffffffffffffffffffffffffff82169050919050565b6000819050919050565b600060ff82169050919050565b60006131eb826131d3565b9050919050565b82818337600083830152505050565b60005b8381101561321f578082015181840152602081019050613204565b8381111561322e576000848401525b50505050565b61323d826132f2565b810181811067ffffffffffffffff8211171561325c5761325b6132c3565b5b80604052505050565b7f4e487b7100000000000000000000000000000000000000000000000000000000600052601160045260246000fd5b7f4e487b7100000000000000000000000000000000000000000000000000000000600052601260045260246000fd5b7f4e487b7100000000000000000000000000000000000000000000000000000000600052604160045260246000fd5b6000601f19601f8301169050919050565b7f437265617468204d61726b6574706c6163653a6e6f74206c697374656420697460008201527f656d000000000000000000000000000000000000000000000000000000000000602082015250565b7f4f776e61626c653a206e6577206f776e657220697320746865207a65726f206160008201527f6464726573730000000000000000000000000000000000000000000000000000602082015250565b7f46756e6374696f6e206d7573742062652063616c6c6564207468726f7567682060008201527f64656c656761746563616c6c0000000000000000000000000000000000000000602082015250565b7f437265617468204d61726b6574706c6163653a4e6f7420612076616c6964207060008201527f7269636500000000000000000000000000000000000000000000000000000000602082015250565b7f46756e6374696f6e206d7573742062652063616c6c6564207468726f7567682060008201527f6163746976652070726f78790000000000000000000000000000000000000000602082015250565b7f416464726573733a20696e73756666696369656e742062616c616e636520666f60008201527f722063616c6c0000000000000000000000000000000000000000000000000000602082015250565b7f437265617468204d61726b6574706c6163653a4e6f7420612076616c6964206160008201527f6464726573730000000000000000000000000000000000000000000000000000602082015250565b7f555550535570677261646561626c653a206d757374206e6f742062652063616c60008201527f6c6564207468726f7567682064656c656761746563616c6c0000000000000000602082015250565b7f437265617468204d61726b6574706c6163653a696e76616c6964206e6674206160008201527f6464726573730000000000000000000000000000000000000000000000000000602082015250565b7f45524331393637557067726164653a20756e737570706f727465642070726f7860008201527f6961626c65555549440000000000000000000000000000000000000000000000602082015250565b7f496e697469616c697a61626c653a20636f6e747261637420697320616c72656160008201527f647920696e697469616c697a6564000000000000000000000000000000000000602082015250565b7f45524331393637557067726164653a206e657720696d706c656d656e7461746960008201527f6f6e206973206e6f742055555053000000000000000000000000000000000000602082015250565b7f455243313936373a206e657720696d706c656d656e746174696f6e206973206e60008201527f6f74206120636f6e747261637400000000000000000000000000000000000000602082015250565b7f4f776e61626c653a2063616c6c6572206973206e6f7420746865206f776e6572600082015250565b7f437265617468204d61726b6574706c6163653a616c7265616479206c6973746560008201527f6400000000000000000000000000000000000000000000000000000000000000602082015250565b7f6974656d206e6f7420617070726f766564000000000000000000000000000000600082015250565b7f416464726573733a2063616c6c20746f206e6f6e2d636f6e7472616374000000600082015250565b7f496e697469616c697a61626c653a20636f6e7472616374206973206e6f74206960008201527f6e697469616c697a696e67000000000000000000000000000000000000000000602082015250565b7f5361666545524332303a204552433230206f7065726174696f6e20646964206e60008201527f6f74207375636365656400000000000000000000000000000000000000000000602082015250565b7f5265656e7472616e637947756172643a207265656e7472616e742063616c6c00600082015250565b6138a081613143565b81146138ab57600080fd5b50565b6138b781613155565b81146138c257600080fd5b50565b6138ce81613167565b81146138d957600080fd5b50565b6138e581613173565b81146138f057600080fd5b50565b6138fc816131c9565b811461390757600080fd5b50565b613913816131d3565b811461391e57600080fd5b5056fe416464726573733a206c6f772d6c6576656c2064656c65676174652063616c6c206661696c6564a2646970667358221220504d4746ba6e167710dca0f93e47f2752cbad4e9d9a5491e776ee21df4508c2d64736f6c63430008040033",
  "linkReferences": {},
  "deployedLinkReferences": {}
}